{
  "contractName": "LazyMint",
  "abi": [
    {
      "inputs": [
        {
          "internalType": "address payable",
          "name": "minter",
          "type": "address"
        }
      ],
      "stateMutability": "nonpayable",
      "type": "constructor"
    },
    {
      "anonymous": false,
      "inputs": [
        {
          "indexed": true,
          "internalType": "address",
          "name": "owner",
          "type": "address"
        },
        {
          "indexed": true,
          "internalType": "address",
          "name": "approved",
          "type": "address"
        },
        {
          "indexed": true,
          "internalType": "uint256",
          "name": "tokenId",
          "type": "uint256"
        }
      ],
      "name": "Approval",
      "type": "event"
    },
    {
      "anonymous": false,
      "inputs": [
        {
          "indexed": true,
          "internalType": "address",
          "name": "owner",
          "type": "address"
        },
        {
          "indexed": true,
          "internalType": "address",
          "name": "operator",
          "type": "address"
        },
        {
          "indexed": false,
          "internalType": "bool",
          "name": "approved",
          "type": "bool"
        }
      ],
      "name": "ApprovalForAll",
      "type": "event"
    },
    {
      "anonymous": false,
      "inputs": [
        {
          "indexed": true,
          "internalType": "bytes32",
          "name": "role",
          "type": "bytes32"
        },
        {
          "indexed": true,
          "internalType": "bytes32",
          "name": "previousAdminRole",
          "type": "bytes32"
        },
        {
          "indexed": true,
          "internalType": "bytes32",
          "name": "newAdminRole",
          "type": "bytes32"
        }
      ],
      "name": "RoleAdminChanged",
      "type": "event"
    },
    {
      "anonymous": false,
      "inputs": [
        {
          "indexed": true,
          "internalType": "bytes32",
          "name": "role",
          "type": "bytes32"
        },
        {
          "indexed": true,
          "internalType": "address",
          "name": "account",
          "type": "address"
        },
        {
          "indexed": true,
          "internalType": "address",
          "name": "sender",
          "type": "address"
        }
      ],
      "name": "RoleGranted",
      "type": "event"
    },
    {
      "anonymous": false,
      "inputs": [
        {
          "indexed": true,
          "internalType": "bytes32",
          "name": "role",
          "type": "bytes32"
        },
        {
          "indexed": true,
          "internalType": "address",
          "name": "account",
          "type": "address"
        },
        {
          "indexed": true,
          "internalType": "address",
          "name": "sender",
          "type": "address"
        }
      ],
      "name": "RoleRevoked",
      "type": "event"
    },
    {
      "anonymous": false,
      "inputs": [
        {
          "indexed": true,
          "internalType": "address",
          "name": "from",
          "type": "address"
        },
        {
          "indexed": true,
          "internalType": "address",
          "name": "to",
          "type": "address"
        },
        {
          "indexed": true,
          "internalType": "uint256",
          "name": "tokenId",
          "type": "uint256"
        }
      ],
      "name": "Transfer",
      "type": "event"
    },
    {
      "inputs": [],
      "name": "DEFAULT_ADMIN_ROLE",
      "outputs": [
        {
          "internalType": "bytes32",
          "name": "",
          "type": "bytes32"
        }
      ],
      "stateMutability": "view",
      "type": "function"
    },
    {
      "inputs": [],
      "name": "MINTER_ROLE",
      "outputs": [
        {
          "internalType": "bytes32",
          "name": "",
          "type": "bytes32"
        }
      ],
      "stateMutability": "view",
      "type": "function"
    },
    {
      "inputs": [
        {
          "internalType": "address",
          "name": "to",
          "type": "address"
        },
        {
          "internalType": "uint256",
          "name": "tokenId",
          "type": "uint256"
        }
      ],
      "name": "approve",
      "outputs": [],
      "stateMutability": "nonpayable",
      "type": "function"
    },
    {
      "inputs": [
        {
          "internalType": "address",
          "name": "owner",
          "type": "address"
        }
      ],
      "name": "balanceOf",
      "outputs": [
        {
          "internalType": "uint256",
          "name": "",
          "type": "uint256"
        }
      ],
      "stateMutability": "view",
      "type": "function"
    },
    {
      "inputs": [
        {
          "internalType": "uint256",
          "name": "tokenId",
          "type": "uint256"
        }
      ],
      "name": "getApproved",
      "outputs": [
        {
          "internalType": "address",
          "name": "",
          "type": "address"
        }
      ],
      "stateMutability": "view",
      "type": "function"
    },
    {
      "inputs": [
        {
          "internalType": "bytes32",
          "name": "role",
          "type": "bytes32"
        }
      ],
      "name": "getRoleAdmin",
      "outputs": [
        {
          "internalType": "bytes32",
          "name": "",
          "type": "bytes32"
        }
      ],
      "stateMutability": "view",
      "type": "function"
    },
    {
      "inputs": [
        {
          "internalType": "bytes32",
          "name": "role",
          "type": "bytes32"
        },
        {
          "internalType": "address",
          "name": "account",
          "type": "address"
        }
      ],
      "name": "grantRole",
      "outputs": [],
      "stateMutability": "nonpayable",
      "type": "function"
    },
    {
      "inputs": [
        {
          "internalType": "bytes32",
          "name": "role",
          "type": "bytes32"
        },
        {
          "internalType": "address",
          "name": "account",
          "type": "address"
        }
      ],
      "name": "hasRole",
      "outputs": [
        {
          "internalType": "bool",
          "name": "",
          "type": "bool"
        }
      ],
      "stateMutability": "view",
      "type": "function"
    },
    {
      "inputs": [
        {
          "internalType": "address",
          "name": "owner",
          "type": "address"
        },
        {
          "internalType": "address",
          "name": "operator",
          "type": "address"
        }
      ],
      "name": "isApprovedForAll",
      "outputs": [
        {
          "internalType": "bool",
          "name": "",
          "type": "bool"
        }
      ],
      "stateMutability": "view",
      "type": "function"
    },
    {
      "inputs": [],
      "name": "name",
      "outputs": [
        {
          "internalType": "string",
          "name": "",
          "type": "string"
        }
      ],
      "stateMutability": "view",
      "type": "function"
    },
    {
      "inputs": [
        {
          "internalType": "uint256",
          "name": "tokenId",
          "type": "uint256"
        }
      ],
      "name": "ownerOf",
      "outputs": [
        {
          "internalType": "address",
          "name": "",
          "type": "address"
        }
      ],
      "stateMutability": "view",
      "type": "function"
    },
    {
      "inputs": [
        {
          "internalType": "bytes32",
          "name": "role",
          "type": "bytes32"
        },
        {
          "internalType": "address",
          "name": "account",
          "type": "address"
        }
      ],
      "name": "renounceRole",
      "outputs": [],
      "stateMutability": "nonpayable",
      "type": "function"
    },
    {
      "inputs": [
        {
          "internalType": "bytes32",
          "name": "role",
          "type": "bytes32"
        },
        {
          "internalType": "address",
          "name": "account",
          "type": "address"
        }
      ],
      "name": "revokeRole",
      "outputs": [],
      "stateMutability": "nonpayable",
      "type": "function"
    },
    {
      "inputs": [
        {
          "internalType": "address",
          "name": "from",
          "type": "address"
        },
        {
          "internalType": "address",
          "name": "to",
          "type": "address"
        },
        {
          "internalType": "uint256",
          "name": "tokenId",
          "type": "uint256"
        }
      ],
      "name": "safeTransferFrom",
      "outputs": [],
      "stateMutability": "nonpayable",
      "type": "function"
    },
    {
      "inputs": [
        {
          "internalType": "address",
          "name": "from",
          "type": "address"
        },
        {
          "internalType": "address",
          "name": "to",
          "type": "address"
        },
        {
          "internalType": "uint256",
          "name": "tokenId",
          "type": "uint256"
        },
        {
          "internalType": "bytes",
          "name": "_data",
          "type": "bytes"
        }
      ],
      "name": "safeTransferFrom",
      "outputs": [],
      "stateMutability": "nonpayable",
      "type": "function"
    },
    {
      "inputs": [
        {
          "internalType": "address",
          "name": "operator",
          "type": "address"
        },
        {
          "internalType": "bool",
          "name": "approved",
          "type": "bool"
        }
      ],
      "name": "setApprovalForAll",
      "outputs": [],
      "stateMutability": "nonpayable",
      "type": "function"
    },
    {
      "inputs": [],
      "name": "symbol",
      "outputs": [
        {
          "internalType": "string",
          "name": "",
          "type": "string"
        }
      ],
      "stateMutability": "view",
      "type": "function"
    },
    {
      "inputs": [
        {
          "internalType": "uint256",
          "name": "tokenId",
          "type": "uint256"
        }
      ],
      "name": "tokenURI",
      "outputs": [
        {
          "internalType": "string",
          "name": "",
          "type": "string"
        }
      ],
      "stateMutability": "view",
      "type": "function"
    },
    {
      "inputs": [
        {
          "internalType": "address",
          "name": "from",
          "type": "address"
        },
        {
          "internalType": "address",
          "name": "to",
          "type": "address"
        },
        {
          "internalType": "uint256",
          "name": "tokenId",
          "type": "uint256"
        }
      ],
      "name": "transferFrom",
      "outputs": [],
      "stateMutability": "nonpayable",
      "type": "function"
    },
    {
      "inputs": [
        {
          "internalType": "address",
          "name": "redeemer",
          "type": "address"
        },
        {
          "components": [
            {
              "internalType": "uint256",
              "name": "tokenId",
              "type": "uint256"
            },
            {
              "internalType": "uint256",
              "name": "minPrice",
              "type": "uint256"
            },
            {
              "internalType": "string",
              "name": "tokenUri",
              "type": "string"
            },
            {
              "internalType": "bytes",
              "name": "signature",
              "type": "bytes"
            }
          ],
          "internalType": "struct LazyMint.NftVoucher",
          "name": "voucher",
          "type": "tuple"
        }
      ],
      "name": "redeem",
      "outputs": [
        {
          "internalType": "uint256",
          "name": "",
          "type": "uint256"
        }
      ],
      "stateMutability": "payable",
      "type": "function"
    },
    {
      "inputs": [],
      "name": "withdraw",
      "outputs": [],
      "stateMutability": "nonpayable",
      "type": "function"
    },
    {
      "inputs": [],
      "name": "availableToWithdraw",
      "outputs": [
        {
          "internalType": "uint256",
          "name": "",
          "type": "uint256"
        }
      ],
      "stateMutability": "view",
      "type": "function"
    },
    {
      "inputs": [],
      "name": "getChainID",
      "outputs": [
        {
          "internalType": "uint256",
          "name": "",
          "type": "uint256"
        }
      ],
      "stateMutability": "view",
      "type": "function"
    },
    {
      "inputs": [
        {
          "internalType": "uint256",
          "name": "tokenId",
          "type": "uint256"
        },
        {
          "internalType": "uint256",
          "name": "minPrice",
          "type": "uint256"
        },
        {
          "internalType": "string",
          "name": "tokenUri",
          "type": "string"
        }
      ],
      "name": "getMessageHash",
      "outputs": [
        {
          "internalType": "bytes32",
          "name": "",
          "type": "bytes32"
        }
      ],
      "stateMutability": "pure",
      "type": "function"
    },
    {
      "inputs": [
        {
          "internalType": "bytes32",
          "name": "_messageHash",
          "type": "bytes32"
        }
      ],
      "name": "getEthSignedMessageHash",
      "outputs": [
        {
          "internalType": "bytes32",
          "name": "",
          "type": "bytes32"
        }
      ],
      "stateMutability": "pure",
      "type": "function"
    },
    {
      "inputs": [
        {
          "internalType": "bytes32",
          "name": "_ethSignedMessageHash",
          "type": "bytes32"
        },
        {
          "internalType": "bytes",
          "name": "_signature",
          "type": "bytes"
        }
      ],
      "name": "recoverSigner",
      "outputs": [
        {
          "internalType": "address",
          "name": "",
          "type": "address"
        }
      ],
      "stateMutability": "pure",
      "type": "function"
    },
    {
      "inputs": [
        {
          "internalType": "bytes",
          "name": "sig",
          "type": "bytes"
        }
      ],
      "name": "splitSignature",
      "outputs": [
        {
          "internalType": "bytes32",
          "name": "r",
          "type": "bytes32"
        },
        {
          "internalType": "bytes32",
          "name": "s",
          "type": "bytes32"
        },
        {
          "internalType": "uint8",
          "name": "v",
          "type": "uint8"
        }
      ],
      "stateMutability": "pure",
      "type": "function"
    },
    {
      "inputs": [
        {
          "internalType": "bytes4",
          "name": "interfaceId",
          "type": "bytes4"
        }
      ],
      "name": "supportsInterface",
      "outputs": [
        {
          "internalType": "bool",
          "name": "",
          "type": "bool"
        }
      ],
      "stateMutability": "view",
      "type": "function"
    }
  ],
  "bytecode": "0x6101206040523480156200001257600080fd5b506040516200494338038062004943833981810160405281019062000038919062000478565b6040518060400160405280600f81526020017f4c617a794e46542d566f756368657200000000000000000000000000000000008152506040518060400160405280600181526020017f31000000000000000000000000000000000000000000000000000000000000008152506040518060400160405280600781526020017f4c617a794e4654000000000000000000000000000000000000000000000000008152506040518060400160405280600381526020017f4c415a0000000000000000000000000000000000000000000000000000000000815250816000908051906020019062000128929190620003b1565b50806001908051906020019062000141929190620003b1565b50505060008280519060200120905060008280519060200120905060007f8b73c3c69bb8fe3d512ecc4cf759cc79239f7b179b0ffacaa9a75d522b39400f90508260c081815250508160e081815250504660a08181525050620001ac818484620001fa60201b60201c565b608081815250508061010081815250505050505050620001f37f9f2df0fed2c77648de5860a4cc508cd0818c85b8b8a1ab4ceeef8d981c8956a6826200023660201b60201c565b506200060f565b6000838383463060405160200162000217959493929190620004d7565b6040516020818303038152906040528051906020012090509392505050565b6200024882826200024c60201b60201c565b5050565b6200025e82826200033e60201b60201c565b6200033a5760016007600084815260200190815260200160002060000160008373ffffffffffffffffffffffffffffffffffffffff1673ffffffffffffffffffffffffffffffffffffffff16815260200190815260200160002060006101000a81548160ff021916908315150217905550620002df620003a960201b60201c565b73ffffffffffffffffffffffffffffffffffffffff168173ffffffffffffffffffffffffffffffffffffffff16837f2f8788117e7eff1d82e926ec794901d17c78024a50270940304540a733656f0d60405160405180910390a45b5050565b60006007600084815260200190815260200160002060000160008373ffffffffffffffffffffffffffffffffffffffff1673ffffffffffffffffffffffffffffffffffffffff16815260200190815260200160002060009054906101000a900460ff16905092915050565b600033905090565b828054620003bf9062000590565b90600052602060002090601f016020900481019282620003e357600085556200042f565b82601f10620003fe57805160ff19168380011785556200042f565b828001600101855582156200042f579182015b828111156200042e57825182559160200191906001019062000411565b5b5090506200043e919062000442565b5090565b5b808211156200045d57600081600090555060010162000443565b5090565b6000815190506200047281620005f5565b92915050565b6000602082840312156200048b57600080fd5b60006200049b8482850162000461565b91505092915050565b620004af8162000534565b82525050565b620004c0816200055c565b82525050565b620004d18162000586565b82525050565b600060a082019050620004ee6000830188620004b5565b620004fd6020830187620004b5565b6200050c6040830186620004b5565b6200051b6060830185620004c6565b6200052a6080830184620004a4565b9695505050505050565b6000620005418262000566565b9050919050565b6000620005558262000566565b9050919050565b6000819050919050565b600073ffffffffffffffffffffffffffffffffffffffff82169050919050565b6000819050919050565b60006002820490506001821680620005a957607f821691505b60208210811415620005c057620005bf620005c6565b5b50919050565b7f4e487b7100000000000000000000000000000000000000000000000000000000600052602260045260246000fd5b620006008162000548565b81146200060c57600080fd5b50565b60805160a05160c05160e051610100516142fe6200064560003960005050600050506000505060005050600050506142fe6000f3fe6080604052600436106101b75760003560e01c806391d14854116100ec578063b88d4fde1161008a578063d547741f11610064578063d547741f1461065d578063e322ad2b14610686578063e985e9c5146106b1578063fa540801146106ee576101b7565b8063b88d4fde146105cc578063c87b56dd146105f5578063d539139314610632576101b7565b80639d519338116100c65780639d519338146104fc578063a217fddf14610539578063a22cb46514610564578063a7bb58031461058d576101b7565b806391d148541461045757806395d89b411461049457806397aba7f9146104bf576101b7565b80632f2ff15d1161015957806342842e0e1161013357806342842e0e14610389578063564b81ef146103b25780636352211e146103dd57806370a082311461041a576101b7565b80632f2ff15d1461032057806336568abe146103495780633ccfd60b14610372576101b7565b806308708a781161019557806308708a7814610261578063095ea7b31461029157806323b872dd146102ba578063248a9ca3146102e3576101b7565b806301ffc9a7146101bc57806306fdde03146101f9578063081812fc14610224575b600080fd5b3480156101c857600080fd5b506101e360048036038101906101de9190612d88565b61072b565b6040516101f0919061398b565b60405180910390f35b34801561020557600080fd5b5061020e61074d565b60405161021b9190613a3d565b60405180910390f35b34801561023057600080fd5b5061024b60048036038101906102469190612e1b565b6107df565b6040516102589190613924565b60405180910390f35b61027b60048036038101906102769190612c3f565b610864565b6040516102889190613d1f565b60405180910390f35b34801561029d57600080fd5b506102b860048036038101906102b39190612c93565b610ace565b005b3480156102c657600080fd5b506102e160048036038101906102dc9190612b39565b610be6565b005b3480156102ef57600080fd5b5061030a60048036038101906103059190612ccf565b610c46565b60405161031791906139a6565b60405180910390f35b34801561032c57600080fd5b5061034760048036038101906103429190612cf8565b610c66565b005b34801561035557600080fd5b50610370600480360381019061036b9190612cf8565b610c8f565b005b34801561037e57600080fd5b50610387610d12565b005b34801561039557600080fd5b506103b060048036038101906103ab9190612b39565b610e54565b005b3480156103be57600080fd5b506103c7610e74565b6040516103d49190613d1f565b60405180910390f35b3480156103e957600080fd5b5061040460048036038101906103ff9190612e1b565b610e81565b6040516104119190613924565b60405180910390f35b34801561042657600080fd5b50610441600480360381019061043c9190612ad4565b610f33565b60405161044e9190613d1f565b60405180910390f35b34801561046357600080fd5b5061047e60048036038101906104799190612cf8565b610feb565b60405161048b919061398b565b60405180910390f35b3480156104a057600080fd5b506104a9611056565b6040516104b69190613a3d565b60405180910390f35b3480156104cb57600080fd5b506104e660048036038101906104e19190612d34565b6110e8565b6040516104f39190613924565b60405180910390f35b34801561050857600080fd5b50610523600480360381019061051e9190612e44565b611157565b60405161053091906139a6565b60405180910390f35b34801561054557600080fd5b5061054e61118d565b60405161055b91906139a6565b60405180910390f35b34801561057057600080fd5b5061058b60048036038101906105869190612c03565b611194565b005b34801561059957600080fd5b506105b460048036038101906105af9190612dda565b611315565b6040516105c3939291906139c1565b60405180910390f35b3480156105d857600080fd5b506105f360048036038101906105ee9190612b88565b61137d565b005b34801561060157600080fd5b5061061c60048036038101906106179190612e1b565b6113df565b6040516106299190613a3d565b60405180910390f35b34801561063e57600080fd5b50610647611531565b60405161065491906139a6565b60405180910390f35b34801561066957600080fd5b50610684600480360381019061067f9190612cf8565b611555565b005b34801561069257600080fd5b5061069b61157e565b6040516106a89190613d1f565b60405180910390f35b3480156106bd57600080fd5b506106d860048036038101906106d39190612afd565b6115c5565b6040516106e5919061398b565b60405180910390f35b3480156106fa57600080fd5b5061071560048036038101906107109190612ccf565b611659565b60405161072291906139a6565b60405180910390f35b600061073682611689565b8061074657506107458261176b565b5b9050919050565b60606000805461075c906140c8565b80601f0160208091040260200160405190810160405280929190818152602001828054610788906140c8565b80156107d55780601f106107aa576101008083540402835291602001916107d5565b820191906000526020600020905b8154815290600101906020018083116107b857829003601f168201915b5050505050905090565b60006107ea826117e5565b610829576040517f08c379a000000000000000000000000000000000000000000000000000000000815260040161082090613bff565b60405180910390fd5b6004600083815260200190815260200160002060009054906101000a900473ffffffffffffffffffffffffffffffffffffffff169050919050565b6000806108cc836000013584602001358580604001906108849190613d91565b8080601f016020809104026020016040519081016040528093929190818152602001838380828437600081840152601f19601f82011690508083019250505050505050611157565b905060006108d982611659565b90506000610939828680606001906108f19190613d3a565b8080601f016020809104026020016040519081016040528093929190818152602001838380828437600081840152601f19601f820116905080830192505050505050506110e8565b90506109657f9f2df0fed2c77648de5860a4cc508cd0818c85b8b8a1ab4ceeef8d981c8956a682610feb565b6109a4576040517f08c379a000000000000000000000000000000000000000000000000000000000815260040161099b90613c9f565b60405180910390fd5b84602001353410156109eb576040517f08c379a00000000000000000000000000000000000000000000000000000000081526004016109e290613b9f565b60405180910390fd5b6109f9818660000135611851565b610a598560000135868060400190610a119190613d91565b8080601f016020809104026020016040519081016040528093929190818152602001838380828437600081840152601f19601f82011690508083019250505050505050611a1f565b610a6881878760000135611a93565b34600860008373ffffffffffffffffffffffffffffffffffffffff1673ffffffffffffffffffffffffffffffffffffffff1681526020019081526020016000206000828254610ab79190613ebc565b925050819055508460000135935050505092915050565b6000610ad982610e81565b90508073ffffffffffffffffffffffffffffffffffffffff168373ffffffffffffffffffffffffffffffffffffffff161415610b4a576040517f08c379a0000000000000000000000000000000000000000000000000000000008152600401610b4190613c7f565b60405180910390fd5b8073ffffffffffffffffffffffffffffffffffffffff16610b69611cef565b73ffffffffffffffffffffffffffffffffffffffff161480610b985750610b9781610b92611cef565b6115c5565b5b610bd7576040517f08c379a0000000000000000000000000000000000000000000000000000000008152600401610bce90613b1f565b60405180910390fd5b610be18383611cf7565b505050565b610bf7610bf1611cef565b82611db0565b610c36576040517f08c379a0000000000000000000000000000000000000000000000000000000008152600401610c2d90613cbf565b60405180910390fd5b610c41838383611a93565b505050565b600060076000838152602001908152602001600020600101549050919050565b610c6f82610c46565b610c8081610c7b611cef565b611e8e565b610c8a8383611f2b565b505050565b610c97611cef565b73ffffffffffffffffffffffffffffffffffffffff168173ffffffffffffffffffffffffffffffffffffffff1614610d04576040517f08c379a0000000000000000000000000000000000000000000000000000000008152600401610cfb90613cff565b60405180910390fd5b610d0e828261200c565b5050565b610d3c7f9f2df0fed2c77648de5860a4cc508cd0818c85b8b8a1ab4ceeef8d981c8956a633610feb565b610d7b576040517f08c379a0000000000000000000000000000000000000000000000000000000008152600401610d7290613c5f565b60405180910390fd5b60003390506000600860008373ffffffffffffffffffffffffffffffffffffffff1673ffffffffffffffffffffffffffffffffffffffff1681526020019081526020016000205490506000600860008473ffffffffffffffffffffffffffffffffffffffff1673ffffffffffffffffffffffffffffffffffffffff168152602001908152602001600020819055508173ffffffffffffffffffffffffffffffffffffffff166108fc829081150290604051600060405180830381858888f19350505050158015610e4f573d6000803e3d6000fd5b505050565b610e6f8383836040518060200160405280600081525061137d565b505050565b6000804690508091505090565b6000806002600084815260200190815260200160002060009054906101000a900473ffffffffffffffffffffffffffffffffffffffff169050600073ffffffffffffffffffffffffffffffffffffffff168173ffffffffffffffffffffffffffffffffffffffff161415610f2a576040517f08c379a0000000000000000000000000000000000000000000000000000000008152600401610f2190613b5f565b60405180910390fd5b80915050919050565b60008073ffffffffffffffffffffffffffffffffffffffff168273ffffffffffffffffffffffffffffffffffffffff161415610fa4576040517f08c379a0000000000000000000000000000000000000000000000000000000008152600401610f9b90613b3f565b60405180910390fd5b600360008373ffffffffffffffffffffffffffffffffffffffff1673ffffffffffffffffffffffffffffffffffffffff168152602001908152602001600020549050919050565b60006007600084815260200190815260200160002060000160008373ffffffffffffffffffffffffffffffffffffffff1673ffffffffffffffffffffffffffffffffffffffff16815260200190815260200160002060009054906101000a900460ff16905092915050565b606060018054611065906140c8565b80601f0160208091040260200160405190810160405280929190818152602001828054611091906140c8565b80156110de5780601f106110b3576101008083540402835291602001916110de565b820191906000526020600020905b8154815290600101906020018083116110c157829003601f168201915b5050505050905090565b6000806000806110f785611315565b9250925092506001868285856040516000815260200160405260405161112094939291906139f8565b6020604051602081039080840390855afa158015611142573d6000803e3d6000fd5b50505060206040510351935050505092915050565b600083838360405160200161116e939291906138eb565b6040516020818303038152906040528051906020012090509392505050565b6000801b81565b61119c611cef565b73ffffffffffffffffffffffffffffffffffffffff168273ffffffffffffffffffffffffffffffffffffffff16141561120a576040517f08c379a000000000000000000000000000000000000000000000000000000000815260040161120190613adf565b60405180910390fd5b8060056000611217611cef565b73ffffffffffffffffffffffffffffffffffffffff1673ffffffffffffffffffffffffffffffffffffffff16815260200190815260200160002060008473ffffffffffffffffffffffffffffffffffffffff1673ffffffffffffffffffffffffffffffffffffffff16815260200190815260200160002060006101000a81548160ff0219169083151502179055508173ffffffffffffffffffffffffffffffffffffffff166112c4611cef565b73ffffffffffffffffffffffffffffffffffffffff167f17307eab39ab6107e8899845ad3d59bd9653f200f220920489ca2b5937696c3183604051611309919061398b565b60405180910390a35050565b6000806000604184511461135e576040517f08c379a000000000000000000000000000000000000000000000000000000000815260040161135590613cdf565b60405180910390fd5b6020840151925060408401519150606084015160001a90509193909250565b61138e611388611cef565b83611db0565b6113cd576040517f08c379a00000000000000000000000000000000000000000000000000000000081526004016113c490613cbf565b60405180910390fd5b6113d9848484846120ee565b50505050565b60606113ea826117e5565b611429576040517f08c379a000000000000000000000000000000000000000000000000000000000815260040161142090613bdf565b60405180910390fd5b6000600660008481526020019081526020016000208054611449906140c8565b80601f0160208091040260200160405190810160405280929190818152602001828054611475906140c8565b80156114c25780601f10611497576101008083540402835291602001916114c2565b820191906000526020600020905b8154815290600101906020018083116114a557829003601f168201915b5050505050905060006114d361214a565b90506000815114156114e957819250505061152c565b60008251111561151e578082604051602001611506929190613867565b6040516020818303038152906040529250505061152c565b61152784612161565b925050505b919050565b7f9f2df0fed2c77648de5860a4cc508cd0818c85b8b8a1ab4ceeef8d981c8956a681565b61155e82610c46565b61156f8161156a611cef565b611e8e565b611579838361200c565b505050565b6000600860003373ffffffffffffffffffffffffffffffffffffffff1673ffffffffffffffffffffffffffffffffffffffff16815260200190815260200160002054905090565b6000600560008473ffffffffffffffffffffffffffffffffffffffff1673ffffffffffffffffffffffffffffffffffffffff16815260200190815260200160002060008373ffffffffffffffffffffffffffffffffffffffff1673ffffffffffffffffffffffffffffffffffffffff16815260200190815260200160002060009054906101000a900460ff16905092915050565b60008160405160200161166c919061388b565b604051602081830303815290604052805190602001209050919050565b60007f80ac58cd000000000000000000000000000000000000000000000000000000007bffffffffffffffffffffffffffffffffffffffffffffffffffffffff1916827bffffffffffffffffffffffffffffffffffffffffffffffffffffffff1916148061175457507f5b5e139f000000000000000000000000000000000000000000000000000000007bffffffffffffffffffffffffffffffffffffffffffffffffffffffff1916827bffffffffffffffffffffffffffffffffffffffffffffffffffffffff1916145b80611764575061176382612208565b5b9050919050565b60007f7965db0b000000000000000000000000000000000000000000000000000000007bffffffffffffffffffffffffffffffffffffffffffffffffffffffff1916827bffffffffffffffffffffffffffffffffffffffffffffffffffffffff191614806117de57506117dd82611689565b5b9050919050565b60008073ffffffffffffffffffffffffffffffffffffffff166002600084815260200190815260200160002060009054906101000a900473ffffffffffffffffffffffffffffffffffffffff1673ffffffffffffffffffffffffffffffffffffffff1614159050919050565b600073ffffffffffffffffffffffffffffffffffffffff168273ffffffffffffffffffffffffffffffffffffffff1614156118c1576040517f08c379a00000000000000000000000000000000000000000000000000000000081526004016118b890613bbf565b60405180910390fd5b6118ca816117e5565b1561190a576040517f08c379a000000000000000000000000000000000000000000000000000000000815260040161190190613a9f565b60405180910390fd5b61191660008383612272565b6001600360008473ffffffffffffffffffffffffffffffffffffffff1673ffffffffffffffffffffffffffffffffffffffff16815260200190815260200160002060008282546119669190613ebc565b92505081905550816002600083815260200190815260200160002060006101000a81548173ffffffffffffffffffffffffffffffffffffffff021916908373ffffffffffffffffffffffffffffffffffffffff160217905550808273ffffffffffffffffffffffffffffffffffffffff16600073ffffffffffffffffffffffffffffffffffffffff167fddf252ad1be2c89b69c2b068fc378daa952ba7f163c4a11628f55a4df523b3ef60405160405180910390a45050565b611a28826117e5565b611a67576040517f08c379a0000000000000000000000000000000000000000000000000000000008152600401611a5e90613b7f565b60405180910390fd5b80600660008481526020019081526020016000209080519060200190611a8e9291906128c8565b505050565b8273ffffffffffffffffffffffffffffffffffffffff16611ab382610e81565b73ffffffffffffffffffffffffffffffffffffffff1614611b09576040517f08c379a0000000000000000000000000000000000000000000000000000000008152600401611b0090613c1f565b60405180910390fd5b600073ffffffffffffffffffffffffffffffffffffffff168273ffffffffffffffffffffffffffffffffffffffff161415611b79576040517f08c379a0000000000000000000000000000000000000000000000000000000008152600401611b7090613abf565b60405180910390fd5b611b84838383612272565b611b8f600082611cf7565b6001600360008573ffffffffffffffffffffffffffffffffffffffff1673ffffffffffffffffffffffffffffffffffffffff1681526020019081526020016000206000828254611bdf9190613f9d565b925050819055506001600360008473ffffffffffffffffffffffffffffffffffffffff1673ffffffffffffffffffffffffffffffffffffffff1681526020019081526020016000206000828254611c369190613ebc565b92505081905550816002600083815260200190815260200160002060006101000a81548173ffffffffffffffffffffffffffffffffffffffff021916908373ffffffffffffffffffffffffffffffffffffffff160217905550808273ffffffffffffffffffffffffffffffffffffffff168473ffffffffffffffffffffffffffffffffffffffff167fddf252ad1be2c89b69c2b068fc378daa952ba7f163c4a11628f55a4df523b3ef60405160405180910390a4505050565b600033905090565b816004600083815260200190815260200160002060006101000a81548173ffffffffffffffffffffffffffffffffffffffff021916908373ffffffffffffffffffffffffffffffffffffffff160217905550808273ffffffffffffffffffffffffffffffffffffffff16611d6a83610e81565b73ffffffffffffffffffffffffffffffffffffffff167f8c5be1e5ebec7d5bd14f71427d1e84f3dd0314c0f7b2291e5b200ac8c7c3b92560405160405180910390a45050565b6000611dbb826117e5565b611dfa576040517f08c379a0000000000000000000000000000000000000000000000000000000008152600401611df190613aff565b60405180910390fd5b6000611e0583610e81565b90508073ffffffffffffffffffffffffffffffffffffffff168473ffffffffffffffffffffffffffffffffffffffff161480611e7457508373ffffffffffffffffffffffffffffffffffffffff16611e5c846107df565b73ffffffffffffffffffffffffffffffffffffffff16145b80611e855750611e8481856115c5565b5b91505092915050565b611e988282610feb565b611f2757611ebd8173ffffffffffffffffffffffffffffffffffffffff166014612277565b611ecb8360001c6020612277565b604051602001611edc9291906138b1565b6040516020818303038152906040526040517f08c379a0000000000000000000000000000000000000000000000000000000008152600401611f1e9190613a3d565b60405180910390fd5b5050565b611f358282610feb565b6120085760016007600084815260200190815260200160002060000160008373ffffffffffffffffffffffffffffffffffffffff1673ffffffffffffffffffffffffffffffffffffffff16815260200190815260200160002060006101000a81548160ff021916908315150217905550611fad611cef565b73ffffffffffffffffffffffffffffffffffffffff168173ffffffffffffffffffffffffffffffffffffffff16837f2f8788117e7eff1d82e926ec794901d17c78024a50270940304540a733656f0d60405160405180910390a45b5050565b6120168282610feb565b156120ea5760006007600084815260200190815260200160002060000160008373ffffffffffffffffffffffffffffffffffffffff1673ffffffffffffffffffffffffffffffffffffffff16815260200190815260200160002060006101000a81548160ff02191690831515021790555061208f611cef565b73ffffffffffffffffffffffffffffffffffffffff168173ffffffffffffffffffffffffffffffffffffffff16837ff6391f5c32d9c69d2a47ea670b442974b53935d1edc7fd64eb21e047a839171b60405160405180910390a45b5050565b6120f9848484611a93565b61210584848484612571565b612144576040517f08c379a000000000000000000000000000000000000000000000000000000000815260040161213b90613a7f565b60405180910390fd5b50505050565b606060405180602001604052806000815250905090565b606061216c826117e5565b6121ab576040517f08c379a00000000000000000000000000000000000000000000000000000000081526004016121a290613c3f565b60405180910390fd5b60006121b561214a565b905060008151116121d55760405180602001604052806000815250612200565b806121df84612708565b6040516020016121f0929190613867565b6040516020818303038152906040525b915050919050565b60007f01ffc9a7000000000000000000000000000000000000000000000000000000007bffffffffffffffffffffffffffffffffffffffffffffffffffffffff1916827bffffffffffffffffffffffffffffffffffffffffffffffffffffffff1916149050919050565b505050565b60606000600283600261228a9190613f43565b6122949190613ebc565b67ffffffffffffffff8111156122d3577f4e487b7100000000000000000000000000000000000000000000000000000000600052604160045260246000fd5b6040519080825280601f01601f1916602001820160405280156123055781602001600182028036833780820191505090505b5090507f300000000000000000000000000000000000000000000000000000000000000081600081518110612363577f4e487b7100000000000000000000000000000000000000000000000000000000600052603260045260246000fd5b60200101907effffffffffffffffffffffffffffffffffffffffffffffffffffffffffffff1916908160001a9053507f7800000000000000000000000000000000000000000000000000000000000000816001815181106123ed577f4e487b7100000000000000000000000000000000000000000000000000000000600052603260045260246000fd5b60200101907effffffffffffffffffffffffffffffffffffffffffffffffffffffffffffff1916908160001a9053506000600184600261242d9190613f43565b6124379190613ebc565b90505b6001811115612523577f3031323334353637383961626364656600000000000000000000000000000000600f86166010811061249f577f4e487b7100000000000000000000000000000000000000000000000000000000600052603260045260246000fd5b1a60f81b8282815181106124dc577f4e487b7100000000000000000000000000000000000000000000000000000000600052603260045260246000fd5b60200101907effffffffffffffffffffffffffffffffffffffffffffffffffffffffffffff1916908160001a905350600485901c94508061251c9061409e565b905061243a565b5060008414612567576040517f08c379a000000000000000000000000000000000000000000000000000000000815260040161255e90613a5f565b60405180910390fd5b8091505092915050565b60006125928473ffffffffffffffffffffffffffffffffffffffff166128b5565b156126fb578373ffffffffffffffffffffffffffffffffffffffff1663150b7a026125bb611cef565b8786866040518563ffffffff1660e01b81526004016125dd949392919061393f565b602060405180830381600087803b1580156125f757600080fd5b505af192505050801561262857506040513d601f19601f820116820180604052508101906126259190612db1565b60015b6126ab573d8060008114612658576040519150601f19603f3d011682016040523d82523d6000602084013e61265d565b606091505b506000815114156126a3576040517f08c379a000000000000000000000000000000000000000000000000000000000815260040161269a90613a7f565b60405180910390fd5b805181602001fd5b63150b7a0260e01b7bffffffffffffffffffffffffffffffffffffffffffffffffffffffff1916817bffffffffffffffffffffffffffffffffffffffffffffffffffffffff191614915050612700565b600190505b949350505050565b60606000821415612750576040518060400160405280600181526020017f300000000000000000000000000000000000000000000000000000000000000081525090506128b0565b600082905060005b6000821461278257808061276b906140fa565b915050600a8261277b9190613f12565b9150612758565b60008167ffffffffffffffff8111156127c4577f4e487b7100000000000000000000000000000000000000000000000000000000600052604160045260246000fd5b6040519080825280601f01601f1916602001820160405280156127f65781602001600182028036833780820191505090505b5090505b600085146128a95760018261280f9190613f9d565b9150600a8561281e9190614157565b603061282a9190613ebc565b60f81b818381518110612866577f4e487b7100000000000000000000000000000000000000000000000000000000600052603260045260246000fd5b60200101907effffffffffffffffffffffffffffffffffffffffffffffffffffffffffffff1916908160001a905350600a856128a29190613f12565b94506127fa565b8093505050505b919050565b600080823b905060008111915050919050565b8280546128d4906140c8565b90600052602060002090601f0160209004810192826128f6576000855561293d565b82601f1061290f57805160ff191683800117855561293d565b8280016001018555821561293d579182015b8281111561293c578251825591602001919060010190612921565b5b50905061294a919061294e565b5090565b5b8082111561296757600081600090555060010161294f565b5090565b600061297e61297984613e19565b613de8565b90508281526020810184848401111561299657600080fd5b6129a184828561405c565b509392505050565b60006129bc6129b784613e49565b613de8565b9050828152602081018484840111156129d457600080fd5b6129df84828561405c565b509392505050565b6000813590506129f681614255565b92915050565b600081359050612a0b8161426c565b92915050565b600081359050612a2081614283565b92915050565b600081359050612a358161429a565b92915050565b600081519050612a4a8161429a565b92915050565b600082601f830112612a6157600080fd5b8135612a7184826020860161296b565b91505092915050565b600082601f830112612a8b57600080fd5b8135612a9b8482602086016129a9565b91505092915050565b600060808284031215612ab657600080fd5b81905092915050565b600081359050612ace816142b1565b92915050565b600060208284031215612ae657600080fd5b6000612af4848285016129e7565b91505092915050565b60008060408385031215612b1057600080fd5b6000612b1e858286016129e7565b9250506020612b2f858286016129e7565b9150509250929050565b600080600060608486031215612b4e57600080fd5b6000612b5c868287016129e7565b9350506020612b6d868287016129e7565b9250506040612b7e86828701612abf565b9150509250925092565b60008060008060808587031215612b9e57600080fd5b6000612bac878288016129e7565b9450506020612bbd878288016129e7565b9350506040612bce87828801612abf565b925050606085013567ffffffffffffffff811115612beb57600080fd5b612bf787828801612a50565b91505092959194509250565b60008060408385031215612c1657600080fd5b6000612c24858286016129e7565b9250506020612c35858286016129fc565b9150509250929050565b60008060408385031215612c5257600080fd5b6000612c60858286016129e7565b925050602083013567ffffffffffffffff811115612c7d57600080fd5b612c8985828601612aa4565b9150509250929050565b60008060408385031215612ca657600080fd5b6000612cb4858286016129e7565b9250506020612cc585828601612abf565b9150509250929050565b600060208284031215612ce157600080fd5b6000612cef84828501612a11565b91505092915050565b60008060408385031215612d0b57600080fd5b6000612d1985828601612a11565b9250506020612d2a858286016129e7565b9150509250929050565b60008060408385031215612d4757600080fd5b6000612d5585828601612a11565b925050602083013567ffffffffffffffff811115612d7257600080fd5b612d7e85828601612a50565b9150509250929050565b600060208284031215612d9a57600080fd5b6000612da884828501612a26565b91505092915050565b600060208284031215612dc357600080fd5b6000612dd184828501612a3b565b91505092915050565b600060208284031215612dec57600080fd5b600082013567ffffffffffffffff811115612e0657600080fd5b612e1284828501612a50565b91505092915050565b600060208284031215612e2d57600080fd5b6000612e3b84828501612abf565b91505092915050565b600080600060608486031215612e5957600080fd5b6000612e6786828701612abf565b9350506020612e7886828701612abf565b925050604084013567ffffffffffffffff811115612e9557600080fd5b612ea186828701612a7a565b9150509250925092565b612eb481613fd1565b82525050565b612ec381613fe3565b82525050565b612ed281613fef565b82525050565b612ee9612ee482613fef565b614143565b82525050565b6000612efa82613e79565b612f048185613e8f565b9350612f1481856020860161406b565b612f1d81614244565b840191505092915050565b6000612f3382613e84565b612f3d8185613ea0565b9350612f4d81856020860161406b565b612f5681614244565b840191505092915050565b6000612f6c82613e84565b612f768185613eb1565b9350612f8681856020860161406b565b80840191505092915050565b6000612f9f602083613ea0565b91507f537472696e67733a20686578206c656e67746820696e73756666696369656e746000830152602082019050919050565b6000612fdf601c83613eb1565b91507f19457468657265756d205369676e6564204d6573736167653a0a3332000000006000830152601c82019050919050565b600061301f603283613ea0565b91507f4552433732313a207472616e7366657220746f206e6f6e20455243373231526560008301527f63656976657220696d706c656d656e74657200000000000000000000000000006020830152604082019050919050565b6000613085601c83613ea0565b91507f4552433732313a20746f6b656e20616c7265616479206d696e746564000000006000830152602082019050919050565b60006130c5602483613ea0565b91507f4552433732313a207472616e7366657220746f20746865207a65726f2061646460008301527f72657373000000000000000000000000000000000000000000000000000000006020830152604082019050919050565b600061312b601983613ea0565b91507f4552433732313a20617070726f766520746f2063616c6c6572000000000000006000830152602082019050919050565b600061316b602c83613ea0565b91507f4552433732313a206f70657261746f7220717565727920666f72206e6f6e657860008301527f697374656e7420746f6b656e00000000000000000000000000000000000000006020830152604082019050919050565b60006131d1603883613ea0565b91507f4552433732313a20617070726f76652063616c6c6572206973206e6f74206f7760008301527f6e6572206e6f7220617070726f76656420666f7220616c6c00000000000000006020830152604082019050919050565b6000613237602a83613ea0565b91507f4552433732313a2062616c616e636520717565727920666f7220746865207a6560008301527f726f2061646472657373000000000000000000000000000000000000000000006020830152604082019050919050565b600061329d602983613ea0565b91507f4552433732313a206f776e657220717565727920666f72206e6f6e657869737460008301527f656e7420746f6b656e00000000000000000000000000000000000000000000006020830152604082019050919050565b6000613303602e83613ea0565b91507f45524337323155524953746f726167653a2055524920736574206f66206e6f6e60008301527f6578697374656e7420746f6b656e0000000000000000000000000000000000006020830152604082019050919050565b6000613369601c83613ea0565b91507f496e73756666696369656e742066756e647320746f2072656465656d000000006000830152602082019050919050565b60006133a9602083613ea0565b91507f4552433732313a206d696e7420746f20746865207a65726f20616464726573736000830152602082019050919050565b60006133e9603183613ea0565b91507f45524337323155524953746f726167653a2055524920717565727920666f722060008301527f6e6f6e6578697374656e7420746f6b656e0000000000000000000000000000006020830152604082019050919050565b600061344f602c83613ea0565b91507f4552433732313a20617070726f76656420717565727920666f72206e6f6e657860008301527f697374656e7420746f6b656e00000000000000000000000000000000000000006020830152604082019050919050565b60006134b5602983613ea0565b91507f4552433732313a207472616e73666572206f6620746f6b656e2074686174206960008301527f73206e6f74206f776e00000000000000000000000000000000000000000000006020830152604082019050919050565b600061351b602f83613ea0565b91507f4552433732314d657461646174613a2055524920717565727920666f72206e6f60008301527f6e6578697374656e7420746f6b656e00000000000000000000000000000000006020830152604082019050919050565b6000613581602483613ea0565b91507f4f6e6c7920617574686f72697a6564206d696e746572732063616e207769746860008301527f64726177000000000000000000000000000000000000000000000000000000006020830152604082019050919050565b60006135e7602183613ea0565b91507f4552433732313a20617070726f76616c20746f2063757272656e74206f776e6560008301527f72000000000000000000000000000000000000000000000000000000000000006020830152604082019050919050565b600061364d602183613ea0565b91507f5369676e617475726520696e76616c6964206f7220756e617574686f72697a6560008301527f64000000000000000000000000000000000000000000000000000000000000006020830152604082019050919050565b60006136b3603183613ea0565b91507f4552433732313a207472616e736665722063616c6c6572206973206e6f74206f60008301527f776e6572206e6f7220617070726f7665640000000000000000000000000000006020830152604082019050919050565b6000613719601783613eb1565b91507f416363657373436f6e74726f6c3a206163636f756e74200000000000000000006000830152601782019050919050565b6000613759601883613ea0565b91507f696e76616c6964207369676e6174757265206c656e67746800000000000000006000830152602082019050919050565b6000613799601183613eb1565b91507f206973206d697373696e6720726f6c65200000000000000000000000000000006000830152601182019050919050565b60006137d9602f83613ea0565b91507f416363657373436f6e74726f6c3a2063616e206f6e6c792072656e6f756e636560008301527f20726f6c657320666f722073656c6600000000000000000000000000000000006020830152604082019050919050565b61383b81614045565b82525050565b61385261384d82614045565b61414d565b82525050565b6138618161404f565b82525050565b60006138738285612f61565b915061387f8284612f61565b91508190509392505050565b600061389682612fd2565b91506138a28284612ed8565b60208201915081905092915050565b60006138bc8261370c565b91506138c88285612f61565b91506138d38261378c565b91506138df8284612f61565b91508190509392505050565b60006138f78286613841565b6020820191506139078285613841565b6020820191506139178284612f61565b9150819050949350505050565b60006020820190506139396000830184612eab565b92915050565b60006080820190506139546000830187612eab565b6139616020830186612eab565b61396e6040830185613832565b81810360608301526139808184612eef565b905095945050505050565b60006020820190506139a06000830184612eba565b92915050565b60006020820190506139bb6000830184612ec9565b92915050565b60006060820190506139d66000830186612ec9565b6139e36020830185612ec9565b6139f06040830184613858565b949350505050565b6000608082019050613a0d6000830187612ec9565b613a1a6020830186613858565b613a276040830185612ec9565b613a346060830184612ec9565b95945050505050565b60006020820190508181036000830152613a578184612f28565b905092915050565b60006020820190508181036000830152613a7881612f92565b9050919050565b60006020820190508181036000830152613a9881613012565b9050919050565b60006020820190508181036000830152613ab881613078565b9050919050565b60006020820190508181036000830152613ad8816130b8565b9050919050565b60006020820190508181036000830152613af88161311e565b9050919050565b60006020820190508181036000830152613b188161315e565b9050919050565b60006020820190508181036000830152613b38816131c4565b9050919050565b60006020820190508181036000830152613b588161322a565b9050919050565b60006020820190508181036000830152613b7881613290565b9050919050565b60006020820190508181036000830152613b98816132f6565b9050919050565b60006020820190508181036000830152613bb88161335c565b9050919050565b60006020820190508181036000830152613bd88161339c565b9050919050565b60006020820190508181036000830152613bf8816133dc565b9050919050565b60006020820190508181036000830152613c1881613442565b9050919050565b60006020820190508181036000830152613c38816134a8565b9050919050565b60006020820190508181036000830152613c588161350e565b9050919050565b60006020820190508181036000830152613c7881613574565b9050919050565b60006020820190508181036000830152613c98816135da565b9050919050565b60006020820190508181036000830152613cb881613640565b9050919050565b60006020820190508181036000830152613cd8816136a6565b9050919050565b60006020820190508181036000830152613cf88161374c565b9050919050565b60006020820190508181036000830152613d18816137cc565b9050919050565b6000602082019050613d346000830184613832565b92915050565b60008083356001602003843603038112613d5357600080fd5b80840192508235915067ffffffffffffffff821115613d7157600080fd5b602083019250600182023603831315613d8957600080fd5b509250929050565b60008083356001602003843603038112613daa57600080fd5b80840192508235915067ffffffffffffffff821115613dc857600080fd5b602083019250600182023603831315613de057600080fd5b509250929050565b6000604051905081810181811067ffffffffffffffff82111715613e0f57613e0e614215565b5b8060405250919050565b600067ffffffffffffffff821115613e3457613e33614215565b5b601f19601f8301169050602081019050919050565b600067ffffffffffffffff821115613e6457613e63614215565b5b601f19601f8301169050602081019050919050565b600081519050919050565b600081519050919050565b600082825260208201905092915050565b600082825260208201905092915050565b600081905092915050565b6000613ec782614045565b9150613ed283614045565b9250827fffffffffffffffffffffffffffffffffffffffffffffffffffffffffffffffff03821115613f0757613f06614188565b5b828201905092915050565b6000613f1d82614045565b9150613f2883614045565b925082613f3857613f376141b7565b5b828204905092915050565b6000613f4e82614045565b9150613f5983614045565b9250817fffffffffffffffffffffffffffffffffffffffffffffffffffffffffffffffff0483118215151615613f9257613f91614188565b5b828202905092915050565b6000613fa882614045565b9150613fb383614045565b925082821015613fc657613fc5614188565b5b828203905092915050565b6000613fdc82614025565b9050919050565b60008115159050919050565b6000819050919050565b60007fffffffff0000000000000000000000000000000000000000000000000000000082169050919050565b600073ffffffffffffffffffffffffffffffffffffffff82169050919050565b6000819050919050565b600060ff82169050919050565b82818337600083830152505050565b60005b8381101561408957808201518184015260208101905061406e565b83811115614098576000848401525b50505050565b60006140a982614045565b915060008214156140bd576140bc614188565b5b600182039050919050565b600060028204905060018216806140e057607f821691505b602082108114156140f4576140f36141e6565b5b50919050565b600061410582614045565b91507fffffffffffffffffffffffffffffffffffffffffffffffffffffffffffffffff82141561413857614137614188565b5b600182019050919050565b6000819050919050565b6000819050919050565b600061416282614045565b915061416d83614045565b92508261417d5761417c6141b7565b5b828206905092915050565b7f4e487b7100000000000000000000000000000000000000000000000000000000600052601160045260246000fd5b7f4e487b7100000000000000000000000000000000000000000000000000000000600052601260045260246000fd5b7f4e487b7100000000000000000000000000000000000000000000000000000000600052602260045260246000fd5b7f4e487b7100000000000000000000000000000000000000000000000000000000600052604160045260246000fd5b6000601f19601f8301169050919050565b61425e81613fd1565b811461426957600080fd5b50565b61427581613fe3565b811461428057600080fd5b50565b61428c81613fef565b811461429757600080fd5b50565b6142a381613ff9565b81146142ae57600080fd5b50565b6142ba81614045565b81146142c557600080fd5b5056fea26469706673582212207692098dccd34982f0f5c341d9419e43275352425704826ff83177474cafbda664736f6c63430008000033",
  "immutableReferences": {},
  "source": "pragma solidity ^0.8.0;\npragma abicoder v2;\n// import \"hardhat/console.sol\";\nimport \"@openzeppelin/contracts/access/AccessControl.sol\";\nimport \"@openzeppelin/contracts/token/ERC721/ERC721.sol\";\nimport \"@openzeppelin/contracts/token/ERC721/extensions/ERC721URIStorage.sol\";\nimport \"@openzeppelin/contracts/utils/cryptography/ECDSA.sol\";\nimport \"@openzeppelin/contracts/utils/cryptography/draft-EIP712.sol\";\n\ncontract LazyMint is ERC721URIStorage, EIP712, AccessControl {\n    bytes32 public constant MINTER_ROLE = keccak256(\"MINTER_ROLE\");\n    string private constant SIGNING_DOMAIN = \"LazyNFT-Voucher\";\n    string private constant SIGNATURE_VERSION = \"1\";\n\n    mapping(address => uint256) pendingWithdrawals;\n\n    constructor(address payable minter)\n        ERC721(\"LazyNFT\", \"LAZ\")\n        EIP712(SIGNING_DOMAIN, SIGNATURE_VERSION)\n    {\n        _setupRole(MINTER_ROLE, minter);\n    }\n\n    struct NftVoucher {\n        uint256 tokenId;\n        uint256 minPrice;\n        string tokenUri;\n        bytes signature;\n    }\n\n    function redeem(address redeemer, NftVoucher calldata voucher)\n        public\n        payable\n        returns (uint256)\n    {\n        // make sure signature is valid and get the address of the signer\n        bytes32 messageHash = getMessageHash(\n            voucher.tokenId,\n            voucher.minPrice,\n            voucher.tokenUri\n        );\n        bytes32 ethSignedMessageHash = getEthSignedMessageHash(messageHash);\n\n        address signer = recoverSigner(ethSignedMessageHash, voucher.signature);\n\n        // make sure that the signer is authorized to mint NFTs\n        require(\n            hasRole(MINTER_ROLE, signer),\n            \"Signature invalid or unauthorized\"\n        );\n\n        // make sure that the redeemer is paying enough to cover the buyer's cost\n        require(msg.value >= voucher.minPrice, \"Insufficient funds to redeem\");\n\n        // first assign the token to the signer, to establish provenance on-chain\n        _mint(signer, voucher.tokenId);\n        _setTokenURI(voucher.tokenId, voucher.tokenUri);\n\n        // transfer the token to the redeemer\n        _transfer(signer, redeemer, voucher.tokenId);\n\n        // record payment to signer's withdrawal balance\n        pendingWithdrawals[signer] += msg.value;\n\n        return voucher.tokenId;\n    }\n\n    /// @notice Transfers all pending withdrawal balance to the caller. Reverts if the caller is not an authorized minter.\n    function withdraw() public {\n        require(\n            hasRole(MINTER_ROLE, msg.sender),\n            \"Only authorized minters can withdraw\"\n        );\n\n        // IMPORTANT: casting msg.sender to a payable address is only safe if ALL members of the minter role are payable addresses.\n        address payable receiver = payable(msg.sender);\n\n        uint256 amount = pendingWithdrawals[receiver];\n        // zero account before transfer to prevent re-entrancy attack\n        pendingWithdrawals[receiver] = 0;\n        receiver.transfer(amount);\n    }\n\n    /// @notice Retuns the amount of Ether available to the caller to withdraw.\n    function availableToWithdraw() public view returns (uint256) {\n        return pendingWithdrawals[msg.sender];\n    }\n\n    /// @notice Returns the chain id of the current blockchain.\n    /// @dev This is used to workaround an issue with ganache returning different values from the on-chain chainid() function and\n    ///  the eth_chainId RPC method. See https://github.com/protocol/nft-website/issues/121 for context.\n    function getChainID() external view returns (uint256) {\n        uint256 id;\n        assembly {\n            id := chainid()\n        }\n        return id;\n    }\n\n    function getMessageHash(\n        uint256 tokenId,\n        uint256 minPrice,\n        string memory tokenUri\n    ) public pure returns (bytes32) {\n        return keccak256(abi.encodePacked(tokenId, minPrice, tokenUri));\n    }\n\n    function getEthSignedMessageHash(bytes32 _messageHash)\n        public\n        pure\n        returns (bytes32)\n    {\n        /*\n        Signature is produced by signing a keccak256 hash with the following format:\n        \"\\x19Ethereum Signed Message\\n\" + len(msg) + msg\n        */\n        return\n            keccak256(\n                abi.encodePacked(\n                    \"\\x19Ethereum Signed Message:\\n32\",\n                    _messageHash\n                )\n            );\n    }\n\n    // function verify(address _signer, NftVoucher calldata voucher)\n    //     public\n    //     pure\n    //     returns (bool)\n    // {\n    //     bytes32 messageHash = getMessageHash(\n    //         voucher.tokenId,\n    //         voucher.minPrice,\n    //         voucher.tokenUri\n    //     );\n    //     bytes32 ethSignedMessageHash = getEthSignedMessageHash(messageHash);\n\n    //     return\n    //         recoverSigner(ethSignedMessageHash, voucher.signature) == _signer;\n    // }\n\n    function recoverSigner(\n        bytes32 _ethSignedMessageHash,\n        bytes memory _signature\n    ) public pure returns (address) {\n        (bytes32 r, bytes32 s, uint8 v) = splitSignature(_signature);\n\n        return ecrecover(_ethSignedMessageHash, v, r, s);\n    }\n\n    function splitSignature(bytes memory sig)\n        public\n        pure\n        returns (\n            bytes32 r,\n            bytes32 s,\n            uint8 v\n        )\n    {\n        require(sig.length == 65, \"invalid signature length\");\n\n        assembly {\n            /*\n            First 32 bytes stores the length of the signature\n\n            add(sig, 32) = pointer of sig + 32\n            effectively, skips first 32 bytes of signature\n\n            mload(p) loads next 32 bytes starting at the memory address p into memory\n            */\n\n            // first 32 bytes, after the length prefix\n            r := mload(add(sig, 32))\n            // second 32 bytes\n            s := mload(add(sig, 64))\n            // final byte (first byte of the next 32 bytes)\n            v := byte(0, mload(add(sig, 96)))\n        }\n\n        // implicitly return (r, s, v)\n    }\n\n    function supportsInterface(bytes4 interfaceId)\n        public\n        view\n        virtual\n        override(AccessControl, ERC721)\n        returns (bool)\n    {\n        return\n            ERC721.supportsInterface(interfaceId) ||\n            AccessControl.supportsInterface(interfaceId);\n    }\n}\n",
  "sourcePath": "/home/dell/Desktop/BlockChain/Lazy-minting/contracts/LazyMint.sol",
  "compiler": {
    "name": "solc",
    "version": "0.8.0+commit.c7dfd78e.Emscripten.clang"
  },
  "schemaVersion": "3.4.2",
  "updatedAt": "2021-11-23T10:55:35.862Z",
  "devdoc": {
    "kind": "dev",
    "methods": {
      "approve(address,uint256)": {
        "details": "See {IERC721-approve}."
      },
      "balanceOf(address)": {
        "details": "See {IERC721-balanceOf}."
      },
      "getApproved(uint256)": {
        "details": "See {IERC721-getApproved}."
      },
      "getChainID()": {
        "details": "This is used to workaround an issue with ganache returning different values from the on-chain chainid() function and  the eth_chainId RPC method. See https://github.com/protocol/nft-website/issues/121 for context."
      },
      "getRoleAdmin(bytes32)": {
        "details": "Returns the admin role that controls `role`. See {grantRole} and {revokeRole}. To change a role's admin, use {_setRoleAdmin}."
      },
      "grantRole(bytes32,address)": {
        "details": "Grants `role` to `account`. If `account` had not been already granted `role`, emits a {RoleGranted} event. Requirements: - the caller must have ``role``'s admin role."
      },
      "hasRole(bytes32,address)": {
        "details": "Returns `true` if `account` has been granted `role`."
      },
      "isApprovedForAll(address,address)": {
        "details": "See {IERC721-isApprovedForAll}."
      },
      "name()": {
        "details": "See {IERC721Metadata-name}."
      },
      "ownerOf(uint256)": {
        "details": "See {IERC721-ownerOf}."
      },
      "renounceRole(bytes32,address)": {
        "details": "Revokes `role` from the calling account. Roles are often managed via {grantRole} and {revokeRole}: this function's purpose is to provide a mechanism for accounts to lose their privileges if they are compromised (such as when a trusted device is misplaced). If the calling account had been granted `role`, emits a {RoleRevoked} event. Requirements: - the caller must be `account`."
      },
      "revokeRole(bytes32,address)": {
        "details": "Revokes `role` from `account`. If `account` had been granted `role`, emits a {RoleRevoked} event. Requirements: - the caller must have ``role``'s admin role."
      },
      "safeTransferFrom(address,address,uint256)": {
        "details": "See {IERC721-safeTransferFrom}."
      },
      "safeTransferFrom(address,address,uint256,bytes)": {
        "details": "See {IERC721-safeTransferFrom}."
      },
      "setApprovalForAll(address,bool)": {
        "details": "See {IERC721-setApprovalForAll}."
      },
      "symbol()": {
        "details": "See {IERC721Metadata-symbol}."
      },
      "tokenURI(uint256)": {
        "details": "See {IERC721Metadata-tokenURI}."
      },
      "transferFrom(address,address,uint256)": {
        "details": "See {IERC721-transferFrom}."
      }
    },
    "version": 1
  },
  "userdoc": {
    "kind": "user",
    "methods": {
      "availableToWithdraw()": {
        "notice": "Retuns the amount of Ether available to the caller to withdraw."
      },
      "getChainID()": {
        "notice": "Returns the chain id of the current blockchain."
      },
      "withdraw()": {
        "notice": "Transfers all pending withdrawal balance to the caller. Reverts if the caller is not an authorized minter."
      }
    },
    "version": 1
  }
}