{
  "contractName": "VerifySignature",
  "abi": [
    {
      "inputs": [
        {
          "internalType": "uint256",
          "name": "tokenId",
          "type": "uint256"
        },
        {
          "internalType": "uint256",
          "name": "minPrice",
          "type": "uint256"
        },
        {
          "internalType": "string",
          "name": "tokenUri",
          "type": "string"
        }
      ],
      "name": "getMessageHash",
      "outputs": [
        {
          "internalType": "bytes32",
          "name": "",
          "type": "bytes32"
        }
      ],
      "stateMutability": "pure",
      "type": "function"
    },
    {
      "inputs": [
        {
          "internalType": "bytes32",
          "name": "_messageHash",
          "type": "bytes32"
        }
      ],
      "name": "getEthSignedMessageHash",
      "outputs": [
        {
          "internalType": "bytes32",
          "name": "",
          "type": "bytes32"
        }
      ],
      "stateMutability": "pure",
      "type": "function"
    },
    {
      "inputs": [
        {
          "internalType": "address",
          "name": "_signer",
          "type": "address"
        },
        {
          "internalType": "uint256",
          "name": "tokenId",
          "type": "uint256"
        },
        {
          "internalType": "uint256",
          "name": "minPrice",
          "type": "uint256"
        },
        {
          "internalType": "string",
          "name": "tokenUri",
          "type": "string"
        },
        {
          "internalType": "bytes",
          "name": "signature",
          "type": "bytes"
        }
      ],
      "name": "verify",
      "outputs": [
        {
          "internalType": "bool",
          "name": "",
          "type": "bool"
        }
      ],
      "stateMutability": "pure",
      "type": "function"
    },
    {
      "inputs": [
        {
          "internalType": "bytes32",
          "name": "_ethSignedMessageHash",
          "type": "bytes32"
        },
        {
          "internalType": "bytes",
          "name": "_signature",
          "type": "bytes"
        }
      ],
      "name": "recoverSigner",
      "outputs": [
        {
          "internalType": "address",
          "name": "",
          "type": "address"
        }
      ],
      "stateMutability": "pure",
      "type": "function"
    },
    {
      "inputs": [
        {
          "internalType": "bytes",
          "name": "sig",
          "type": "bytes"
        }
      ],
      "name": "splitSignature",
      "outputs": [
        {
          "internalType": "bytes32",
          "name": "r",
          "type": "bytes32"
        },
        {
          "internalType": "bytes32",
          "name": "s",
          "type": "bytes32"
        },
        {
          "internalType": "uint8",
          "name": "v",
          "type": "uint8"
        }
      ],
      "stateMutability": "pure",
      "type": "function"
    }
  ],
  "bytecode": "0x608060405234801561001057600080fd5b50610a46806100206000396000f3fe608060405234801561001057600080fd5b50600436106100575760003560e01c806354d5d3fc1461005c57806397aba7f91461008c5780639d519338146100bc578063a7bb5803146100ec578063fa5408011461011e575b600080fd5b610076600480360381019061007191906103fc565b61014e565b604051610083919061075d565b60405180910390f35b6100a660048036038101906100a191906104cc565b6101b0565b6040516100b39190610742565b60405180910390f35b6100d660048036038101906100d19190610561565b61021f565b6040516100e39190610778565b60405180910390f35b61010660048036038101906101019190610520565b610255565b60405161011593929190610793565b60405180910390f35b610138600480360381019061013391906104a3565b6102bd565b6040516101459190610778565b60405180910390f35b60008061015c86868661021f565b90506000610169826102bd565b90508773ffffffffffffffffffffffffffffffffffffffff1661018c82866101b0565b73ffffffffffffffffffffffffffffffffffffffff16149250505095945050505050565b6000806000806101bf85610255565b925092509250600186828585604051600081526020016040526040516101e894939291906107ca565b6020604051602081039080840390855afa15801561020a573d6000803e3d6000fd5b50505060206040510351935050505092915050565b600083838360405160200161023693929190610709565b6040516020818303038152906040528051906020012090509392505050565b6000806000604184511461029e576040517f08c379a00000000000000000000000000000000000000000000000000000000081526004016102959061080f565b60405180910390fd5b6020840151925060408401519150606084015160001a90509193909250565b6000816040516020016102d091906106e3565b604051602081830303815290604052805190602001209050919050565b60006103006102fb84610860565b61082f565b90508281526020810184848401111561031857600080fd5b610323848285610946565b509392505050565b600061033e61033984610890565b61082f565b90508281526020810184848401111561035657600080fd5b610361848285610946565b509392505050565b600081359050610378816109cb565b92915050565b60008135905061038d816109e2565b92915050565b600082601f8301126103a457600080fd5b81356103b48482602086016102ed565b91505092915050565b600082601f8301126103ce57600080fd5b81356103de84826020860161032b565b91505092915050565b6000813590506103f6816109f9565b92915050565b600080600080600060a0868803121561041457600080fd5b600061042288828901610369565b9550506020610433888289016103e7565b9450506040610444888289016103e7565b935050606086013567ffffffffffffffff81111561046157600080fd5b61046d888289016103bd565b925050608086013567ffffffffffffffff81111561048a57600080fd5b61049688828901610393565b9150509295509295909350565b6000602082840312156104b557600080fd5b60006104c38482850161037e565b91505092915050565b600080604083850312156104df57600080fd5b60006104ed8582860161037e565b925050602083013567ffffffffffffffff81111561050a57600080fd5b61051685828601610393565b9150509250929050565b60006020828403121561053257600080fd5b600082013567ffffffffffffffff81111561054c57600080fd5b61055884828501610393565b91505092915050565b60008060006060848603121561057657600080fd5b6000610584868287016103e7565b9350506020610595868287016103e7565b925050604084013567ffffffffffffffff8111156105b257600080fd5b6105be868287016103bd565b9150509250925092565b6105d1816108e7565b82525050565b6105e0816108f9565b82525050565b6105ef81610905565b82525050565b61060661060182610905565b610988565b82525050565b6000610617826108c0565b61062181856108dc565b9350610631818560208601610955565b80840191505092915050565b600061064a601c836108dc565b91507f19457468657265756d205369676e6564204d6573736167653a0a3332000000006000830152601c82019050919050565b600061068a6018836108cb565b91507f696e76616c6964207369676e6174757265206c656e67746800000000000000006000830152602082019050919050565b6106ce6106c98261092f565b610992565b82525050565b6106dd81610939565b82525050565b60006106ee8261063d565b91506106fa82846105f5565b60208201915081905092915050565b600061071582866106bd565b60208201915061072582856106bd565b602082019150610735828461060c565b9150819050949350505050565b600060208201905061075760008301846105c8565b92915050565b600060208201905061077260008301846105d7565b92915050565b600060208201905061078d60008301846105e6565b92915050565b60006060820190506107a860008301866105e6565b6107b560208301856105e6565b6107c260408301846106d4565b949350505050565b60006080820190506107df60008301876105e6565b6107ec60208301866106d4565b6107f960408301856105e6565b61080660608301846105e6565b95945050505050565b600060208201905081810360008301526108288161067d565b9050919050565b6000604051905081810181811067ffffffffffffffff821117156108565761085561099c565b5b8060405250919050565b600067ffffffffffffffff82111561087b5761087a61099c565b5b601f19601f8301169050602081019050919050565b600067ffffffffffffffff8211156108ab576108aa61099c565b5b601f19601f8301169050602081019050919050565b600081519050919050565b600082825260208201905092915050565b600081905092915050565b60006108f28261090f565b9050919050565b60008115159050919050565b6000819050919050565b600073ffffffffffffffffffffffffffffffffffffffff82169050919050565b6000819050919050565b600060ff82169050919050565b82818337600083830152505050565b60005b83811015610973578082015181840152602081019050610958565b83811115610982576000848401525b50505050565b6000819050919050565b6000819050919050565b7f4e487b7100000000000000000000000000000000000000000000000000000000600052604160045260246000fd5b6109d4816108e7565b81146109df57600080fd5b50565b6109eb81610905565b81146109f657600080fd5b50565b610a028161092f565b8114610a0d57600080fd5b5056fea26469706673582212204f6513738277d85530c1e2645368699851eba8c08beb1416b1badaa9df021c5764736f6c63430008000033",
  "immutableReferences": {},
  "source": "// SPDX-License-Identifier: MIT\npragma solidity ^0.8.0;\n\n/* Signature Verification\n\nHow to Sign and Verify\n# Signing\n1. Create message to sign\n2. Hash the message\n3. Sign the hash (off chain, keep your private key secret)\n\n# Verify\n1. Recreate hash from the original message\n2. Recover signer from signature and hash\n3. Compare recovered signer to claimed signer\n*/\n\ncontract VerifySignature {\n    /* 1. Unlock MetaMask account\n    ethereum.enable()\n    */\n\n    /* 2. Get message hash to sign\n    getMessageHash(\n        0x14723A09ACff6D2A60DcdF7aA4AFf308FDDC160C,\n        123,\n        \"coffee and donuts\",\n        1\n    )\n\n    hash = \"0xcf36ac4f97dc10d91fc2cbb20d718e94a8cbfe0f82eaedc6a4aa38946fb797cd\"\n    */\n    function getMessageHash(\n        uint256 tokenId,\n        uint256 minPrice,\n        string memory tokenUri\n    ) public pure returns (bytes32) {\n        return keccak256(abi.encodePacked(tokenId, minPrice, tokenUri));\n    }\n\n    /* 3. Sign message hash\n    # using browser\n    account = \"copy paste account of signer here\"\n    ethereum.request({ method: \"personal_sign\", params: [account, hash]}).then(console.log)\n\n    # using web3\n    web3.personal.sign(hash, web3.eth.defaultAccount, console.log)\n\n    Signature will be different for different accounts\n    0x993dab3dd91f5c6dc28e17439be475478f5635c92a56e17e82349d3fb2f166196f466c0b4e0c146f285204f0dcb13e5ae67bc33f4b888ec32dfe0a063e8f3f781b\n    */\n    function getEthSignedMessageHash(bytes32 _messageHash)\n        public\n        pure\n        returns (bytes32)\n    {\n        /*\n        Signature is produced by signing a keccak256 hash with the following format:\n        \"\\x19Ethereum Signed Message\\n\" + len(msg) + msg\n        */\n        return\n            keccak256(\n                abi.encodePacked(\n                    \"\\x19Ethereum Signed Message:\\n32\",\n                    _messageHash\n                )\n            );\n    }\n\n    /* 4. Verify signature\n    signer = 0xB273216C05A8c0D4F0a4Dd0d7Bae1D2EfFE636dd\n    to = 0x14723A09ACff6D2A60DcdF7aA4AFf308FDDC160C\n    amount = 123\n    message = \"coffee and donuts\"\n    nonce = 1\n    signature =\n        0x993dab3dd91f5c6dc28e17439be475478f5635c92a56e17e82349d3fb2f166196f466c0b4e0c146f285204f0dcb13e5ae67bc33f4b888ec32dfe0a063e8f3f781b\n    */\n    function verify(\n        address _signer,\n        uint256 tokenId,\n        uint256 minPrice,\n        string memory tokenUri,\n        bytes memory signature\n    ) public pure returns (bool) {\n        bytes32 messageHash = getMessageHash(tokenId, minPrice, tokenUri);\n        bytes32 ethSignedMessageHash = getEthSignedMessageHash(messageHash);\n\n        return recoverSigner(ethSignedMessageHash, signature) == _signer;\n    }\n\n    function recoverSigner(\n        bytes32 _ethSignedMessageHash,\n        bytes memory _signature\n    ) public pure returns (address) {\n        (bytes32 r, bytes32 s, uint8 v) = splitSignature(_signature);\n\n        return ecrecover(_ethSignedMessageHash, v, r, s);\n    }\n\n    function splitSignature(bytes memory sig)\n        public\n        pure\n        returns (\n            bytes32 r,\n            bytes32 s,\n            uint8 v\n        )\n    {\n        require(sig.length == 65, \"invalid signature length\");\n\n        assembly {\n            /*\n            First 32 bytes stores the length of the signature\n\n            add(sig, 32) = pointer of sig + 32\n            effectively, skips first 32 bytes of signature\n\n            mload(p) loads next 32 bytes starting at the memory address p into memory\n            */\n\n            // first 32 bytes, after the length prefix\n            r := mload(add(sig, 32))\n            // second 32 bytes\n            s := mload(add(sig, 64))\n            // final byte (first byte of the next 32 bytes)\n            v := byte(0, mload(add(sig, 96)))\n        }\n\n        // implicitly return (r, s, v)\n    }\n}\n",
  "sourcePath": "/home/dell/Desktop/BlockChain/Lazy-minting/contracts/LazyMint copy.sol",
  "compiler": {
    "name": "solc",
    "version": "0.8.0+commit.c7dfd78e.Emscripten.clang"
  },
  "schemaVersion": "3.4.2",
  "updatedAt": "2021-11-23T10:37:44.383Z",
  "devdoc": {
    "kind": "dev",
    "methods": {},
    "version": 1
  },
  "userdoc": {
    "kind": "user",
    "methods": {},
    "version": 1
  }
}