{
  "contractName": "Bridge",
  "abi": [
    {
      "inputs": [
        {
          "internalType": "address",
          "name": "token",
          "type": "address"
        },
        {
          "internalType": "address",
          "name": "_signer",
          "type": "address"
        }
      ],
      "stateMutability": "nonpayable",
      "type": "constructor"
    },
    {
      "anonymous": false,
      "inputs": [
        {
          "indexed": true,
          "internalType": "uint256",
          "name": "nonce",
          "type": "uint256"
        },
        {
          "indexed": false,
          "internalType": "uint256",
          "name": "amount",
          "type": "uint256"
        },
        {
          "indexed": false,
          "internalType": "address",
          "name": "sender",
          "type": "address"
        }
      ],
      "name": "transfer",
      "type": "event"
    },
    {
      "inputs": [],
      "name": "nonce",
      "outputs": [
        {
          "internalType": "uint256",
          "name": "",
          "type": "uint256"
        }
      ],
      "stateMutability": "view",
      "type": "function",
      "constant": true
    },
    {
      "inputs": [
        {
          "internalType": "uint256",
          "name": "",
          "type": "uint256"
        }
      ],
      "name": "processnonce",
      "outputs": [
        {
          "internalType": "bool",
          "name": "",
          "type": "bool"
        }
      ],
      "stateMutability": "view",
      "type": "function",
      "constant": true
    },
    {
      "inputs": [
        {
          "internalType": "uint256",
          "name": "amount",
          "type": "uint256"
        }
      ],
      "name": "transferToken",
      "outputs": [],
      "stateMutability": "nonpayable",
      "type": "function"
    },
    {
      "inputs": [
        {
          "internalType": "uint256",
          "name": "amount",
          "type": "uint256"
        },
        {
          "internalType": "uint256",
          "name": "nonces",
          "type": "uint256"
        },
        {
          "internalType": "bytes32",
          "name": "messageHash",
          "type": "bytes32"
        },
        {
          "internalType": "uint8",
          "name": "v",
          "type": "uint8"
        },
        {
          "internalType": "bytes32",
          "name": "r",
          "type": "bytes32"
        },
        {
          "internalType": "bytes32",
          "name": "s",
          "type": "bytes32"
        }
      ],
      "name": "withDrawToken",
      "outputs": [],
      "stateMutability": "nonpayable",
      "type": "function"
    }
  ],
  "bytecode": "0x608060405234801561001057600080fd5b5060405161099c38038061099c833981810160405281019061003291906100cf565b816000806101000a81548173ffffffffffffffffffffffffffffffffffffffff021916908373ffffffffffffffffffffffffffffffffffffffff16021790555080600260006101000a81548173ffffffffffffffffffffffffffffffffffffffff021916908373ffffffffffffffffffffffffffffffffffffffff1602179055505050610154565b6000815190506100c98161013d565b92915050565b600080604083850312156100e257600080fd5b60006100f0858286016100ba565b9250506020610101858286016100ba565b9150509250929050565b60006101168261011d565b9050919050565b600073ffffffffffffffffffffffffffffffffffffffff82169050919050565b6101468161010b565b811461015157600080fd5b50565b610839806101636000396000f3fe608060405234801561001057600080fd5b506004361061004c5760003560e01c806342cc6b5c146100515780639fc71b311461006d578063affed0e014610089578063b0fa3ff1146100a7575b600080fd5b61006b6004803603810190610066919061044f565b6100d7565b005b61008760048036038101906100829190610426565b6102dd565b005b6100916103c1565b60405161009e9190610692565b60405180910390f35b6100c160048036038101906100bc9190610426565b6103c7565b6040516100ce91906105f2565b60405180910390f35b600015156003600087815260200190815260200160002060009054906101000a900460ff1615151461013e576040517f08c379a000000000000000000000000000000000000000000000000000000000815260040161013590610652565b60405180910390fd5b600260009054906101000a900473ffffffffffffffffffffffffffffffffffffffff1673ffffffffffffffffffffffffffffffffffffffff166001858585856040516000815260200160405260405161019a949392919061060d565b6020604051602081039080840390855afa1580156101bc573d6000803e3d6000fd5b5050506020604051035173ffffffffffffffffffffffffffffffffffffffff161461021c576040517f08c379a000000000000000000000000000000000000000000000000000000000815260040161021390610672565b60405180910390fd5b60016003600087815260200190815260200160002060006101000a81548160ff02191690831515021790555060008054906101000a900473ffffffffffffffffffffffffffffffffffffffff1673ffffffffffffffffffffffffffffffffffffffff166340c10f1933886040518363ffffffff1660e01b81526004016102a39291906105c9565b600060405180830381600087803b1580156102bd57600080fd5b505af11580156102d1573d6000803e3d6000fd5b50505050505050505050565b60008054906101000a900473ffffffffffffffffffffffffffffffffffffffff1673ffffffffffffffffffffffffffffffffffffffff16639dc29fac33836040518363ffffffff1660e01b81526004016103389291906105c9565b600060405180830381600087803b15801561035257600080fd5b505af1158015610366573d6000803e3d6000fd5b505050506001547f289df2cb4b6673d0260f8a6d367626403ccacb01f2d7904e978aeb88cd4c4aae823360405161039e9291906106ad565b60405180910390a2600160008154809291906103b990610746565b919050555050565b60015481565b60036020528060005260406000206000915054906101000a900460ff1681565b6000813590506103f6816107be565b92915050565b60008135905061040b816107d5565b92915050565b600081359050610420816107ec565b92915050565b60006020828403121561043857600080fd5b6000610446848285016103fc565b91505092915050565b60008060008060008060c0878903121561046857600080fd5b600061047689828a016103fc565b965050602061048789828a016103fc565b955050604061049889828a016103e7565b94505060606104a989828a01610411565b93505060806104ba89828a016103e7565b92505060a06104cb89828a016103e7565b9150509295509295509295565b6104e1816106e7565b82525050565b6104f0816106f9565b82525050565b6104ff81610705565b82525050565b6000610512601b836106d6565b91507f54686973206e6f6e636520416c72656164792070726f636573732000000000006000830152602082019050919050565b60006105526021836106d6565b91507f54686520616d6f756e74206f7220767273206973206e6f7420636f727265637460008301527f20000000000000000000000000000000000000000000000000000000000000006020830152604082019050919050565b6105b48161072f565b82525050565b6105c381610739565b82525050565b60006040820190506105de60008301856104d8565b6105eb60208301846105ab565b9392505050565b600060208201905061060760008301846104e7565b92915050565b600060808201905061062260008301876104f6565b61062f60208301866105ba565b61063c60408301856104f6565b61064960608301846104f6565b95945050505050565b6000602082019050818103600083015261066b81610505565b9050919050565b6000602082019050818103600083015261068b81610545565b9050919050565b60006020820190506106a760008301846105ab565b92915050565b60006040820190506106c260008301856105ab565b6106cf60208301846104d8565b9392505050565b600082825260208201905092915050565b60006106f28261070f565b9050919050565b60008115159050919050565b6000819050919050565b600073ffffffffffffffffffffffffffffffffffffffff82169050919050565b6000819050919050565b600060ff82169050919050565b60006107518261072f565b91507fffffffffffffffffffffffffffffffffffffffffffffffffffffffffffffffff8214156107845761078361078f565b5b600182019050919050565b7f4e487b7100000000000000000000000000000000000000000000000000000000600052601160045260246000fd5b6107c781610705565b81146107d257600080fd5b50565b6107de8161072f565b81146107e957600080fd5b50565b6107f581610739565b811461080057600080fd5b5056fea264697066735822122078d98cc55a8fd064c8247e61f8e003a7b24e0e8e2135c7c430229b06706506d164736f6c63430008000033",
  "immutableReferences": {},
  "source": "pragma solidity ^0.8.0;\n\n/// @title   Ethereum or Binnance Bridge\n/// @author chandrashekhar\n/// @notice You can use this contract for transfer token between two blockchain networks\n/// @dev All function calls are currently implemented without side effects\n\ninterface IToken {\n    function mint(address to, uint256 amount) external;\n\n    function burn(address owner, uint256 amount) external;\n}\n\ncontract Bridge {\n    IToken erc20Token;\n    event transfer(uint256 indexed nonce, uint256 amount, address sender);\n\n    uint256 public nonce;\n    // mapping(address => uint256) public transferNonce;\n    address signer;\n\n    mapping(uint256 => bool) public processnonce;\n\n    constructor(address token, address _signer) {\n        erc20Token = IToken(token);\n        signer = _signer;\n    }\n\n    /// @notice Send the amount form one chain to other\n    /// @dev the function actually not send any amount it burn when user use this fuction\n    /// @param amount The amount parameter is require\n\n    function transferToken(uint256 amount) public {\n        // require(sender == msg.sender);\n        erc20Token.burn(msg.sender, amount);\n        emit transfer(nonce, amount, msg.sender);\n        nonce++;\n        // transferNonce[msg.sender] = nonce;\n    }\n\n    /// @notice Withdraw the amount at other blockchain\n    /// @dev the function actually not withdraw any amount it mint the same amount which burn on first chain\n    /// @param amount The amount ,nonces, messageHash,v, r, s,signer parameter is require to withdraw the amount\n\n    function withDrawToken(\n        uint256 amount,\n        uint256 nonces,\n        bytes32 messageHash,\n        uint8 v,\n        bytes32 r,\n        bytes32 s\n    ) public {\n        require(processnonce[nonces] == false, \"This nonce Already process \");\n        require(\n            ecrecover(messageHash, v, r, s) == signer,\n            \"The amount or vrs is not correct \"\n        );\n        // require(\n        //     transferNonce[msg.sender] == nonces,\n        //     \"user not match of this nonce\"\n        // );\n        processnonce[nonces] = true;\n        erc20Token.mint(msg.sender, amount);\n    }\n}\n",
  "sourcePath": "/home/dell/Desktop/BlockChain/bridge/contracts/Bridge.sol",
  "compiler": {
    "name": "solc",
    "version": "0.8.0+commit.c7dfd78e.Emscripten.clang"
  },
  "schemaVersion": "3.4.2",
  "updatedAt": "2021-11-15T09:24:44.798Z",
  "networkType": "ethereum",
  "devdoc": {
    "kind": "dev",
    "methods": {
      "transferToken(uint256)": {
        "details": "the function actually not send any amount it burn when user use this fuction",
        "params": {
          "amount": "The amount parameter is require"
        }
      },
      "withDrawToken(uint256,uint256,bytes32,uint8,bytes32,bytes32)": {
        "details": "the function actually not withdraw any amount it mint the same amount which burn on first chain",
        "params": {
          "amount": "The amount ,nonces, messageHash,v, r, s,signer parameter is require to withdraw the amount"
        }
      }
    },
    "version": 1
  },
  "userdoc": {
    "kind": "user",
    "methods": {
      "transferToken(uint256)": {
        "notice": "Send the amount form one chain to other"
      },
      "withDrawToken(uint256,uint256,bytes32,uint8,bytes32,bytes32)": {
        "notice": "Withdraw the amount at other blockchain"
      }
    },
    "version": 1
  }
}