{
  "contractName": "HINTToken",
  "abi": [
    {
      "constant": false,
      "inputs": [
        {
          "name": "addr",
          "type": "address"
        },
        {
          "name": "note",
          "type": "string"
        }
      ],
      "name": "unlockTo",
      "outputs": [],
      "payable": false,
      "stateMutability": "nonpayable",
      "type": "function"
    },
    {
      "constant": true,
      "inputs": [
        {
          "name": "",
          "type": "address"
        }
      ],
      "name": "owners",
      "outputs": [
        {
          "name": "",
          "type": "bool"
        }
      ],
      "payable": false,
      "stateMutability": "view",
      "type": "function"
    },
    {
      "constant": true,
      "inputs": [],
      "name": "name",
      "outputs": [
        {
          "name": "",
          "type": "string"
        }
      ],
      "payable": false,
      "stateMutability": "view",
      "type": "function"
    },
    {
      "constant": false,
      "inputs": [
        {
          "name": "spender",
          "type": "address"
        },
        {
          "name": "value",
          "type": "uint256"
        }
      ],
      "name": "approve",
      "outputs": [
        {
          "name": "",
          "type": "bool"
        }
      ],
      "payable": false,
      "stateMutability": "nonpayable",
      "type": "function"
    },
    {
      "constant": false,
      "inputs": [
        {
          "name": "spender",
          "type": "address"
        },
        {
          "name": "addedValue",
          "type": "uint256"
        },
        {
          "name": "note",
          "type": "string"
        }
      ],
      "name": "sobloIncreaseApproval",
      "outputs": [
        {
          "name": "ret",
          "type": "bool"
        }
      ],
      "payable": false,
      "stateMutability": "nonpayable",
      "type": "function"
    },
    {
      "constant": false,
      "inputs": [
        {
          "name": "newSuperOwner",
          "type": "address"
        }
      ],
      "name": "changeSuperOwner",
      "outputs": [
        {
          "name": "",
          "type": "bool"
        }
      ],
      "payable": false,
      "stateMutability": "nonpayable",
      "type": "function"
    },
    {
      "constant": true,
      "inputs": [],
      "name": "totalSupply",
      "outputs": [
        {
          "name": "",
          "type": "uint256"
        }
      ],
      "payable": false,
      "stateMutability": "view",
      "type": "function"
    },
    {
      "constant": false,
      "inputs": [
        {
          "name": "to",
          "type": "address"
        },
        {
          "name": "value",
          "type": "uint256"
        },
        {
          "name": "note",
          "type": "string"
        }
      ],
      "name": "sobloTransfer",
      "outputs": [
        {
          "name": "ret",
          "type": "bool"
        }
      ],
      "payable": false,
      "stateMutability": "nonpayable",
      "type": "function"
    },
    {
      "constant": false,
      "inputs": [
        {
          "name": "from",
          "type": "address"
        },
        {
          "name": "to",
          "type": "address"
        },
        {
          "name": "value",
          "type": "uint256"
        }
      ],
      "name": "transferFrom",
      "outputs": [
        {
          "name": "",
          "type": "bool"
        }
      ],
      "payable": false,
      "stateMutability": "nonpayable",
      "type": "function"
    },
    {
      "constant": true,
      "inputs": [],
      "name": "INITIAL_SUPPLY",
      "outputs": [
        {
          "name": "",
          "type": "uint256"
        }
      ],
      "payable": false,
      "stateMutability": "view",
      "type": "function"
    },
    {
      "constant": true,
      "inputs": [],
      "name": "decimals",
      "outputs": [
        {
          "name": "",
          "type": "uint8"
        }
      ],
      "payable": false,
      "stateMutability": "view",
      "type": "function"
    },
    {
      "constant": false,
      "inputs": [
        {
          "name": "note",
          "type": "string"
        }
      ],
      "name": "lock",
      "outputs": [],
      "payable": false,
      "stateMutability": "nonpayable",
      "type": "function"
    },
    {
      "constant": true,
      "inputs": [],
      "name": "LOCK_MAX",
      "outputs": [
        {
          "name": "",
          "type": "uint256"
        }
      ],
      "payable": false,
      "stateMutability": "view",
      "type": "function"
    },
    {
      "constant": false,
      "inputs": [
        {
          "name": "newRoot",
          "type": "address"
        }
      ],
      "name": "changeRoot",
      "outputs": [
        {
          "name": "",
          "type": "bool"
        }
      ],
      "payable": false,
      "stateMutability": "nonpayable",
      "type": "function"
    },
    {
      "constant": true,
      "inputs": [],
      "name": "getMyUnlockValue",
      "outputs": [
        {
          "name": "",
          "type": "uint256"
        }
      ],
      "payable": false,
      "stateMutability": "view",
      "type": "function"
    },
    {
      "constant": true,
      "inputs": [
        {
          "name": "",
          "type": "address"
        }
      ],
      "name": "unlockAddrs",
      "outputs": [
        {
          "name": "",
          "type": "bool"
        }
      ],
      "payable": false,
      "stateMutability": "view",
      "type": "function"
    },
    {
      "constant": false,
      "inputs": [
        {
          "name": "spender",
          "type": "address"
        },
        {
          "name": "value",
          "type": "uint256"
        },
        {
          "name": "note",
          "type": "string"
        }
      ],
      "name": "sobloApprove",
      "outputs": [
        {
          "name": "ret",
          "type": "bool"
        }
      ],
      "payable": false,
      "stateMutability": "nonpayable",
      "type": "function"
    },
    {
      "constant": false,
      "inputs": [
        {
          "name": "spender",
          "type": "address"
        },
        {
          "name": "subtractedValue",
          "type": "uint256"
        }
      ],
      "name": "decreaseApproval",
      "outputs": [
        {
          "name": "",
          "type": "bool"
        }
      ],
      "payable": false,
      "stateMutability": "nonpayable",
      "type": "function"
    },
    {
      "constant": false,
      "inputs": [
        {
          "name": "addr",
          "type": "address"
        },
        {
          "name": "note",
          "type": "string"
        }
      ],
      "name": "lockTo",
      "outputs": [],
      "payable": false,
      "stateMutability": "nonpayable",
      "type": "function"
    },
    {
      "constant": true,
      "inputs": [
        {
          "name": "_owner",
          "type": "address"
        }
      ],
      "name": "balanceOf",
      "outputs": [
        {
          "name": "",
          "type": "uint256"
        }
      ],
      "payable": false,
      "stateMutability": "view",
      "type": "function"
    },
    {
      "constant": false,
      "inputs": [
        {
          "name": "spender",
          "type": "address"
        },
        {
          "name": "subtractedValue",
          "type": "uint256"
        },
        {
          "name": "note",
          "type": "string"
        }
      ],
      "name": "sobloDecreaseApproval",
      "outputs": [
        {
          "name": "ret",
          "type": "bool"
        }
      ],
      "payable": false,
      "stateMutability": "nonpayable",
      "type": "function"
    },
    {
      "constant": false,
      "inputs": [],
      "name": "destroy",
      "outputs": [],
      "payable": false,
      "stateMutability": "nonpayable",
      "type": "function"
    },
    {
      "constant": false,
      "inputs": [
        {
          "name": "owner",
          "type": "address"
        }
      ],
      "name": "newOwner",
      "outputs": [
        {
          "name": "",
          "type": "bool"
        }
      ],
      "payable": false,
      "stateMutability": "nonpayable",
      "type": "function"
    },
    {
      "constant": true,
      "inputs": [],
      "name": "superOwner",
      "outputs": [
        {
          "name": "",
          "type": "address"
        }
      ],
      "payable": false,
      "stateMutability": "view",
      "type": "function"
    },
    {
      "constant": true,
      "inputs": [],
      "name": "symbol",
      "outputs": [
        {
          "name": "",
          "type": "string"
        }
      ],
      "payable": false,
      "stateMutability": "view",
      "type": "function"
    },
    {
      "constant": false,
      "inputs": [
        {
          "name": "to",
          "type": "address"
        },
        {
          "name": "value",
          "type": "uint256"
        }
      ],
      "name": "transfer",
      "outputs": [
        {
          "name": "ret",
          "type": "bool"
        }
      ],
      "payable": false,
      "stateMutability": "nonpayable",
      "type": "function"
    },
    {
      "constant": false,
      "inputs": [
        {
          "name": "note",
          "type": "string"
        }
      ],
      "name": "unlock",
      "outputs": [],
      "payable": false,
      "stateMutability": "nonpayable",
      "type": "function"
    },
    {
      "constant": false,
      "inputs": [
        {
          "name": "to",
          "type": "address"
        },
        {
          "name": "amount",
          "type": "uint256"
        },
        {
          "name": "note",
          "type": "string"
        }
      ],
      "name": "sobloMintTo",
      "outputs": [
        {
          "name": "ret",
          "type": "bool"
        }
      ],
      "payable": false,
      "stateMutability": "nonpayable",
      "type": "function"
    },
    {
      "constant": true,
      "inputs": [
        {
          "name": "",
          "type": "address"
        }
      ],
      "name": "lockValues",
      "outputs": [
        {
          "name": "",
          "type": "uint256"
        }
      ],
      "payable": false,
      "stateMutability": "view",
      "type": "function"
    },
    {
      "constant": false,
      "inputs": [
        {
          "name": "owner",
          "type": "address"
        }
      ],
      "name": "deleteOwner",
      "outputs": [
        {
          "name": "",
          "type": "bool"
        }
      ],
      "payable": false,
      "stateMutability": "nonpayable",
      "type": "function"
    },
    {
      "constant": true,
      "inputs": [],
      "name": "locked",
      "outputs": [
        {
          "name": "",
          "type": "bool"
        }
      ],
      "payable": false,
      "stateMutability": "view",
      "type": "function"
    },
    {
      "constant": false,
      "inputs": [
        {
          "name": "addr",
          "type": "address"
        },
        {
          "name": "value",
          "type": "uint256"
        },
        {
          "name": "note",
          "type": "string"
        }
      ],
      "name": "setLockValue",
      "outputs": [],
      "payable": false,
      "stateMutability": "nonpayable",
      "type": "function"
    },
    {
      "constant": false,
      "inputs": [
        {
          "name": "spender",
          "type": "address"
        },
        {
          "name": "addedValue",
          "type": "uint256"
        }
      ],
      "name": "increaseApproval",
      "outputs": [
        {
          "name": "",
          "type": "bool"
        }
      ],
      "payable": false,
      "stateMutability": "nonpayable",
      "type": "function"
    },
    {
      "constant": true,
      "inputs": [
        {
          "name": "_owner",
          "type": "address"
        },
        {
          "name": "_spender",
          "type": "address"
        }
      ],
      "name": "allowance",
      "outputs": [
        {
          "name": "",
          "type": "uint256"
        }
      ],
      "payable": false,
      "stateMutability": "view",
      "type": "function"
    },
    {
      "constant": true,
      "inputs": [
        {
          "name": "",
          "type": "uint256"
        }
      ],
      "name": "ownerList",
      "outputs": [
        {
          "name": "",
          "type": "address"
        }
      ],
      "payable": false,
      "stateMutability": "view",
      "type": "function"
    },
    {
      "constant": false,
      "inputs": [
        {
          "name": "from",
          "type": "address"
        },
        {
          "name": "to",
          "type": "address[]"
        },
        {
          "name": "values",
          "type": "uint256[]"
        },
        {
          "name": "purpose",
          "type": "uint8"
        },
        {
          "name": "note",
          "type": "string"
        }
      ],
      "name": "sobloMultiTransfer",
      "outputs": [
        {
          "name": "ret",
          "type": "bool"
        }
      ],
      "payable": false,
      "stateMutability": "nonpayable",
      "type": "function"
    },
    {
      "constant": true,
      "inputs": [],
      "name": "root",
      "outputs": [
        {
          "name": "",
          "type": "address"
        }
      ],
      "payable": false,
      "stateMutability": "view",
      "type": "function"
    },
    {
      "constant": false,
      "inputs": [
        {
          "name": "from",
          "type": "address"
        },
        {
          "name": "to",
          "type": "address"
        },
        {
          "name": "value",
          "type": "uint256"
        },
        {
          "name": "note",
          "type": "string"
        }
      ],
      "name": "sobloTransferFrom",
      "outputs": [
        {
          "name": "ret",
          "type": "bool"
        }
      ],
      "payable": false,
      "stateMutability": "nonpayable",
      "type": "function"
    },
    {
      "inputs": [],
      "payable": false,
      "stateMutability": "nonpayable",
      "type": "constructor"
    },
    {
      "anonymous": false,
      "inputs": [
        {
          "indexed": true,
          "name": "from",
          "type": "address"
        },
        {
          "indexed": true,
          "name": "to",
          "type": "address"
        },
        {
          "indexed": false,
          "name": "value",
          "type": "uint256"
        },
        {
          "indexed": false,
          "name": "fromBalance",
          "type": "uint256"
        },
        {
          "indexed": false,
          "name": "toBalance",
          "type": "uint256"
        },
        {
          "indexed": false,
          "name": "note",
          "type": "string"
        }
      ],
      "name": "SobloTransferred",
      "type": "event"
    },
    {
      "anonymous": false,
      "inputs": [
        {
          "indexed": true,
          "name": "owner",
          "type": "address"
        },
        {
          "indexed": true,
          "name": "spender",
          "type": "address"
        },
        {
          "indexed": true,
          "name": "to",
          "type": "address"
        },
        {
          "indexed": false,
          "name": "value",
          "type": "uint256"
        },
        {
          "indexed": false,
          "name": "fromBalance",
          "type": "uint256"
        },
        {
          "indexed": false,
          "name": "toBalance",
          "type": "uint256"
        },
        {
          "indexed": false,
          "name": "note",
          "type": "string"
        }
      ],
      "name": "SobloTransferredFrom",
      "type": "event"
    },
    {
      "anonymous": false,
      "inputs": [
        {
          "indexed": true,
          "name": "owner",
          "type": "address"
        },
        {
          "indexed": true,
          "name": "spender",
          "type": "address"
        },
        {
          "indexed": false,
          "name": "value",
          "type": "uint256"
        },
        {
          "indexed": false,
          "name": "note",
          "type": "string"
        }
      ],
      "name": "SobloApproval",
      "type": "event"
    },
    {
      "anonymous": false,
      "inputs": [
        {
          "indexed": true,
          "name": "controller",
          "type": "address"
        },
        {
          "indexed": true,
          "name": "to",
          "type": "address"
        },
        {
          "indexed": false,
          "name": "amount",
          "type": "uint256"
        },
        {
          "indexed": false,
          "name": "balance",
          "type": "uint256"
        },
        {
          "indexed": false,
          "name": "note",
          "type": "string"
        }
      ],
      "name": "SobloMintedTo",
      "type": "event"
    },
    {
      "anonymous": false,
      "inputs": [
        {
          "indexed": true,
          "name": "owner",
          "type": "address"
        },
        {
          "indexed": true,
          "name": "spender",
          "type": "address"
        },
        {
          "indexed": true,
          "name": "to",
          "type": "address"
        },
        {
          "indexed": false,
          "name": "value",
          "type": "uint256"
        },
        {
          "indexed": false,
          "name": "purpose",
          "type": "uint8"
        },
        {
          "indexed": false,
          "name": "fromBalance",
          "type": "uint256"
        },
        {
          "indexed": false,
          "name": "toBalance",
          "type": "uint256"
        },
        {
          "indexed": false,
          "name": "note",
          "type": "string"
        }
      ],
      "name": "SobloMultiTransferred",
      "type": "event"
    },
    {
      "anonymous": false,
      "inputs": [
        {
          "indexed": true,
          "name": "owner",
          "type": "address"
        },
        {
          "indexed": true,
          "name": "spender",
          "type": "address"
        },
        {
          "indexed": true,
          "name": "to",
          "type": "address"
        },
        {
          "indexed": false,
          "name": "value",
          "type": "uint256"
        },
        {
          "indexed": false,
          "name": "note",
          "type": "string"
        },
        {
          "indexed": false,
          "name": "receiveType",
          "type": "uint8"
        }
      ],
      "name": "TransferredToSobloDapp",
      "type": "event"
    },
    {
      "anonymous": false,
      "inputs": [
        {
          "indexed": false,
          "name": "locked",
          "type": "bool"
        },
        {
          "indexed": false,
          "name": "note",
          "type": "string"
        }
      ],
      "name": "Locked",
      "type": "event"
    },
    {
      "anonymous": false,
      "inputs": [
        {
          "indexed": true,
          "name": "addr",
          "type": "address"
        },
        {
          "indexed": false,
          "name": "locked",
          "type": "bool"
        },
        {
          "indexed": false,
          "name": "note",
          "type": "string"
        }
      ],
      "name": "LockedTo",
      "type": "event"
    },
    {
      "anonymous": false,
      "inputs": [
        {
          "indexed": true,
          "name": "addr",
          "type": "address"
        },
        {
          "indexed": false,
          "name": "value",
          "type": "uint256"
        },
        {
          "indexed": false,
          "name": "note",
          "type": "string"
        }
      ],
      "name": "SetLockValue",
      "type": "event"
    },
    {
      "anonymous": false,
      "inputs": [
        {
          "indexed": false,
          "name": "newRoot",
          "type": "address"
        }
      ],
      "name": "ChangedRoot",
      "type": "event"
    },
    {
      "anonymous": false,
      "inputs": [
        {
          "indexed": false,
          "name": "newSuperOwner",
          "type": "address"
        }
      ],
      "name": "ChangedSuperOwner",
      "type": "event"
    },
    {
      "anonymous": false,
      "inputs": [
        {
          "indexed": false,
          "name": "newOwner",
          "type": "address"
        }
      ],
      "name": "AddedNewOwner",
      "type": "event"
    },
    {
      "anonymous": false,
      "inputs": [
        {
          "indexed": false,
          "name": "deletedOwner",
          "type": "address"
        }
      ],
      "name": "DeletedOwner",
      "type": "event"
    },
    {
      "anonymous": false,
      "inputs": [
        {
          "indexed": true,
          "name": "owner",
          "type": "address"
        },
        {
          "indexed": true,
          "name": "spender",
          "type": "address"
        },
        {
          "indexed": false,
          "name": "value",
          "type": "uint256"
        }
      ],
      "name": "Approval",
      "type": "event"
    },
    {
      "anonymous": false,
      "inputs": [
        {
          "indexed": true,
          "name": "from",
          "type": "address"
        },
        {
          "indexed": true,
          "name": "to",
          "type": "address"
        },
        {
          "indexed": false,
          "name": "value",
          "type": "uint256"
        }
      ],
      "name": "Transfer",
      "type": "event"
    }
  ],
  "bytecode": "0x60806040526001600760006101000a81548160ff0219169083151502179055503480156200002c57600080fd5b5033600360006101000a81548173ffffffffffffffffffffffffffffffffffffffff021916908373ffffffffffffffffffffffffffffffffffffffff16021790555033600460006101000a81548173ffffffffffffffffffffffffffffffffffffffff021916908373ffffffffffffffffffffffffffffffffffffffff160217905550600160056000600360009054906101000a900473ffffffffffffffffffffffffffffffffffffffff1673ffffffffffffffffffffffffffffffffffffffff1673ffffffffffffffffffffffffffffffffffffffff16815260200190815260200160002060006101000a81548160ff02191690831515021790555060063390806001815401808255809150509060018203906000526020600020016000909192909190916101000a81548173ffffffffffffffffffffffffffffffffffffffff021916908373ffffffffffffffffffffffffffffffffffffffff16021790555050620001df336040805190810160405280601681526020017f44656661756c7420556e6c6f636b20546f20526f6f7400000000000000000000815250620002a6640100000000026401000000009004565b601260ff16600a0a633b9aca0002600181905550601260ff16600a0a633b9aca00026000803373ffffffffffffffffffffffffffffffffffffffff1673ffffffffffffffffffffffffffffffffffffffff168152602001908152602001600020819055503373ffffffffffffffffffffffffffffffffffffffff1660007fddf252ad1be2c89b69c2b068fc378daa952ba7f163c4a11628f55a4df523b3ef601260ff16600a0a633b9aca00026040518082815260200191505060405180910390a3620006d6565b600560003373ffffffffffffffffffffffffffffffffffffffff1673ffffffffffffffffffffffffffffffffffffffff16815260200190815260200160002060009054906101000a900460ff16151562000368576040517f08c379a000000000000000000000000000000000000000000000000000000000815260040180806020018281038252601d8152602001807f4f776e65722070726976696c656467652069732072657175697265642e00000081525060200191505060405180910390fd5b7fffffffffffffffffffffffffffffffffffffffffffffffffffffffffffffffff600960008473ffffffffffffffffffffffffffffffffffffffff1673ffffffffffffffffffffffffffffffffffffffff168152602001908152602001600020541415620003ee57620003ed826000836200050d640100000000026401000000009004565b5b6001600860008473ffffffffffffffffffffffffffffffffffffffff1673ffffffffffffffffffffffffffffffffffffffff16815260200190815260200160002060006101000a81548160ff0219169083151502179055508173ffffffffffffffffffffffffffffffffffffffff167f4bf46282901af80a4309ce07c36d841184ce98297f8735f7769d169497ac7a4c600083604051808315151515815260200180602001828103825283818151815260200191508051906020019080838360005b83811015620004cd578082015181840152602081019050620004b0565b50505050905090810190601f168015620004fb5780820380516001836020036101000a031916815260200191505b50935050505060405180910390a25050565b600560003373ffffffffffffffffffffffffffffffffffffffff1673ffffffffffffffffffffffffffffffffffffffff16815260200190815260200160002060009054906101000a900460ff161515620005cf576040517f08c379a000000000000000000000000000000000000000000000000000000000815260040180806020018281038252601d8152602001807f4f776e65722070726976696c656467652069732072657175697265642e00000081525060200191505060405180910390fd5b81600960008573ffffffffffffffffffffffffffffffffffffffff1673ffffffffffffffffffffffffffffffffffffffff168152602001908152602001600020819055508273ffffffffffffffffffffffffffffffffffffffff167fb19425af6288c6bb0d88f64d6d1cfe5eb7e2d31ee92f1012798df97a9b6b011a83836040518083815260200180602001828103825283818151815260200191508051906020019080838360005b838110156200069557808201518184015260208101905062000678565b50505050905090810190601f168015620006c35780820380516001836020036101000a031916815260200191505b50935050505060405180910390a2505050565b61560880620006e66000396000f3006080604052600436106101d7576000357c0100000000000000000000000000000000000000000000000000000000900463ffffffff1680623078b0146101dc578063022914a71461026557806306fdde03146102c0578063095ea7b3146103505780630c870a6b146103b55780631044c66b1461046057806318160ddd146104bb5780631d07b1ec146104e657806323b872dd146105915780632ff2e9dc14610616578063313ce56714610641578063320a98fd146106725780633d8731ac146106db5780634a7902d2146107065780634aa678c314610761578063505450d41461078c5780635a791156146107e757806366188463146108925780636bd5e26a146108f757806370a08231146109805780637b5ac141146109d757806383197ef014610a825780638595245414610a9957806387dcd2b614610af457806395d89b4114610b4b578063a9059cbb14610bdb578063a96ce7aa14610c40578063b18e6ced14610ca9578063cb619a3314610d54578063cd5c4c7014610dab578063cf30901214610e06578063d712800f14610e35578063d73dd62314610ec8578063dd62ed3e14610f2d578063def79ab514610fa4578063e22ca81914611011578063ebf0c71714611145578063f913042b1461119c575b600080fd5b3480156101e857600080fd5b50610263600480360381019080803573ffffffffffffffffffffffffffffffffffffffff169060200190929190803590602001908201803590602001908080601f0160208091040260200160405190810160405280939291908181526020018383808284378201915050505050509192919290505050611267565b005b34801561027157600080fd5b506102a6600480360381019080803573ffffffffffffffffffffffffffffffffffffffff1690602001909291905050506114b8565b604051808215151515815260200191505060405180910390f35b3480156102cc57600080fd5b506102d56114d8565b6040518080602001828103825283818151815260200191508051906020019080838360005b838110156103155780820151818401526020810190506102fa565b50505050905090810190601f1680156103425780820380516001836020036101000a031916815260200191505b509250505060405180910390f35b34801561035c57600080fd5b5061039b600480360381019080803573ffffffffffffffffffffffffffffffffffffffff16906020019092919080359060200190929190505050611511565b604051808215151515815260200191505060405180910390f35b3480156103c157600080fd5b50610446600480360381019080803573ffffffffffffffffffffffffffffffffffffffff16906020019092919080359060200190929190803590602001908201803590602001908080601f016020809104026020016040519081016040528093929190818152602001838380828437820191505050505050919291929050505061155b565b604051808215151515815260200191505060405180910390f35b34801561046c57600080fd5b506104a1600480360381019080803573ffffffffffffffffffffffffffffffffffffffff1690602001909291905050506116be565b604051808215151515815260200191505060405180910390f35b3480156104c757600080fd5b506104d0611923565b6040518082815260200191505060405180910390f35b3480156104f257600080fd5b50610577600480360381019080803573ffffffffffffffffffffffffffffffffffffffff16906020019092919080359060200190929190803590602001908201803590602001908080601f016020809104026020016040519081016040528093929190818152602001838380828437820191505050505050919291929050505061192d565b604051808215151515815260200191505060405180910390f35b34801561059d57600080fd5b506105fc600480360381019080803573ffffffffffffffffffffffffffffffffffffffff169060200190929190803573ffffffffffffffffffffffffffffffffffffffff16906020019092919080359060200190929190505050611b5a565b604051808215151515815260200191505060405180910390f35b34801561062257600080fd5b5061062b611ba6565b6040518082815260200191505060405180910390f35b34801561064d57600080fd5b50610656611bb7565b604051808260ff1660ff16815260200191505060405180910390f35b34801561067e57600080fd5b506106d9600480360381019080803590602001908201803590602001908080601f0160208091040260200160405190810160405280939291908181526020018383808284378201915050505050509192919290505050611bbc565b005b3480156106e757600080fd5b506106f0611d52565b6040518082815260200191505060405180910390f35b34801561071257600080fd5b50610747600480360381019080803573ffffffffffffffffffffffffffffffffffffffff169060200190929190505050611d76565b604051808215151515815260200191505060405180910390f35b34801561076d57600080fd5b50610776611fdb565b6040518082815260200191505060405180910390f35b34801561079857600080fd5b506107cd600480360381019080803573ffffffffffffffffffffffffffffffffffffffff169060200190929190505050612173565b604051808215151515815260200191505060405180910390f35b3480156107f357600080fd5b50610878600480360381019080803573ffffffffffffffffffffffffffffffffffffffff16906020019092919080359060200190929190803590602001908201803590602001908080601f0160208091040260200160405190810160405280939291908181526020018383808284378201915050505050509192919290505050612193565b604051808215151515815260200191505060405180910390f35b34801561089e57600080fd5b506108dd600480360381019080803573ffffffffffffffffffffffffffffffffffffffff1690602001909291908035906020019092919050505061227a565b604051808215151515815260200191505060405180910390f35b34801561090357600080fd5b5061097e600480360381019080803573ffffffffffffffffffffffffffffffffffffffff169060200190929190803590602001908201803590602001908080601f01602080910402602001604051908101604052809392919081815260200183838082843782019150505050505091929192905050506122c4565b005b34801561098c57600080fd5b506109c1600480360381019080803573ffffffffffffffffffffffffffffffffffffffff1690602001909291905050506124cc565b6040518082815260200191505060405180910390f35b3480156109e357600080fd5b50610a68600480360381019080803573ffffffffffffffffffffffffffffffffffffffff16906020019092919080359060200190929190803590602001908201803590602001908080601f0160208091040260200160405190810160405280939291908181526020018383808284378201915050505050509192919290505050612514565b604051808215151515815260200191505060405180910390f35b348015610a8e57600080fd5b50610a97612677565b005b348015610aa557600080fd5b50610ada600480360381019080803573ffffffffffffffffffffffffffffffffffffffff169060200190929190505050612777565b604051808215151515815260200191505060405180910390f35b348015610b0057600080fd5b50610b09612b67565b604051808273ffffffffffffffffffffffffffffffffffffffff1673ffffffffffffffffffffffffffffffffffffffff16815260200191505060405180910390f35b348015610b5757600080fd5b50610b60612b8d565b6040518080602001828103825283818151815260200191508051906020019080838360005b83811015610ba0578082015181840152602081019050610b85565b50505050905090810190601f168015610bcd5780820380516001836020036101000a031916815260200191505b509250505060405180910390f35b348015610be757600080fd5b50610c26600480360381019080803573ffffffffffffffffffffffffffffffffffffffff16906020019092919080359060200190929190505050612bc6565b604051808215151515815260200191505060405180910390f35b348015610c4c57600080fd5b50610ca7600480360381019080803590602001908201803590602001908080601f0160208091040260200160405190810160405280939291908181526020018383808284378201915050505050509192919290505050612c10565b005b348015610cb557600080fd5b50610d3a600480360381019080803573ffffffffffffffffffffffffffffffffffffffff16906020019092919080359060200190929190803590602001908201803590602001908080601f0160208091040260200160405190810160405280939291908181526020018383808284378201915050505050509192919290505050612da6565b604051808215151515815260200191505060405180910390f35b348015610d6057600080fd5b50610d95600480360381019080803573ffffffffffffffffffffffffffffffffffffffff169060200190929190505050612f6f565b6040518082815260200191505060405180910390f35b348015610db757600080fd5b50610dec600480360381019080803573ffffffffffffffffffffffffffffffffffffffff169060200190929190505050612f87565b604051808215151515815260200191505060405180910390f35b348015610e1257600080fd5b50610e1b613379565b604051808215151515815260200191505060405180910390f35b348015610e4157600080fd5b50610ec6600480360381019080803573ffffffffffffffffffffffffffffffffffffffff16906020019092919080359060200190929190803590602001908201803590602001908080601f016020809104026020016040519081016040528093929190818152602001838380828437820191505050505050919291929050505061338c565b005b348015610ed457600080fd5b50610f13600480360381019080803573ffffffffffffffffffffffffffffffffffffffff16906020019092919080359060200190929190505050613551565b604051808215151515815260200191505060405180910390f35b348015610f3957600080fd5b50610f8e600480360381019080803573ffffffffffffffffffffffffffffffffffffffff169060200190929190803573ffffffffffffffffffffffffffffffffffffffff16906020019092919050505061359b565b6040518082815260200191505060405180910390f35b348015610fb057600080fd5b50610fcf60048036038101908080359060200190929190505050613622565b604051808273ffffffffffffffffffffffffffffffffffffffff1673ffffffffffffffffffffffffffffffffffffffff16815260200191505060405180910390f35b34801561101d57600080fd5b5061112b600480360381019080803573ffffffffffffffffffffffffffffffffffffffff1690602001909291908035906020019082018035906020019080806020026020016040519081016040528093929190818152602001838360200280828437820191505050505050919291929080359060200190820180359060200190808060200260200160405190810160405280939291908181526020018383602002808284378201915050505050509192919290803560ff169060200190929190803590602001908201803590602001908080601f0160208091040260200160405190810160405280939291908181526020018383808284378201915050505050509192919290505050613660565b604051808215151515815260200191505060405180910390f35b34801561115157600080fd5b5061115a613ae3565b604051808273ffffffffffffffffffffffffffffffffffffffff1673ffffffffffffffffffffffffffffffffffffffff16815260200191505060405180910390f35b3480156111a857600080fd5b5061124d600480360381019080803573ffffffffffffffffffffffffffffffffffffffff169060200190929190803573ffffffffffffffffffffffffffffffffffffffff16906020019092919080359060200190929190803590602001908201803590602001908080601f0160208091040260200160405190810160405280939291908181526020018383808284378201915050505050509192919290505050613b09565b604051808215151515815260200191505060405180910390f35b600560003373ffffffffffffffffffffffffffffffffffffffff1673ffffffffffffffffffffffffffffffffffffffff16815260200190815260200160002060009054906101000a900460ff161515611328576040517f08c379a000000000000000000000000000000000000000000000000000000000815260040180806020018281038252601d8152602001807f4f776e65722070726976696c656467652069732072657175697265642e00000081525060200191505060405180910390fd5b7fffffffffffffffffffffffffffffffffffffffffffffffffffffffffffffffff600960008473ffffffffffffffffffffffffffffffffffffffff1673ffffffffffffffffffffffffffffffffffffffff16815260200190815260200160002054141561139c5761139b8260008361338c565b5b6001600860008473ffffffffffffffffffffffffffffffffffffffff1673ffffffffffffffffffffffffffffffffffffffff16815260200190815260200160002060006101000a81548160ff0219169083151502179055508173ffffffffffffffffffffffffffffffffffffffff167f4bf46282901af80a4309ce07c36d841184ce98297f8735f7769d169497ac7a4c600083604051808315151515815260200180602001828103825283818151815260200191508051906020019080838360005b8381101561147957808201518184015260208101905061145e565b50505050905090810190601f1680156114a65780820380516001836020036101000a031916815260200191505b50935050505060405180910390a25050565b60056020528060005260406000206000915054906101000a900460ff1681565b6040805190810160405280600a81526020017f48494e5420546f6b656e0000000000000000000000000000000000000000000081525081565b600061155383836040805190810160405280601381526020017f63616c6c656420627920617070726f7665282900000000000000000000000000815250612193565b905092915050565b60006115678484613d4f565b90508373ffffffffffffffffffffffffffffffffffffffff163373ffffffffffffffffffffffffffffffffffffffff167f873a5dfdc9d3efb66def120ac20495bf0dc772d6e19c1b8bd78f43da51787e8a600260003373ffffffffffffffffffffffffffffffffffffffff1673ffffffffffffffffffffffffffffffffffffffff16815260200190815260200160002060008873ffffffffffffffffffffffffffffffffffffffff1673ffffffffffffffffffffffffffffffffffffffff16815260200190815260200160002054856040518083815260200180602001828103825283818151815260200191508051906020019080838360005b8381101561167c578082015181840152602081019050611661565b50505050905090810190601f1680156116a95780820380516001836020036101000a031916815260200191505b50935050505060405180910390a39392505050565b6000600360009054906101000a900473ffffffffffffffffffffffffffffffffffffffff1673ffffffffffffffffffffffffffffffffffffffff163373ffffffffffffffffffffffffffffffffffffffff16141515611785576040517f08c379a000000000000000000000000000000000000000000000000000000000815260040180806020018281038252601b8152602001807f526f6f742070726976696c6567652069732072657175697265642e000000000081525060200191505060405180910390fd5b600073ffffffffffffffffffffffffffffffffffffffff168273ffffffffffffffffffffffffffffffffffffffff1614151515611876576040517f08c379a00000000000000000000000000000000000000000000000000000000081526004018080602001828103825260438152602001807f54686973206164647265737320746f20626520736574206973207a65726f206181526020017f6464726573732830292e20436865636b2074686520696e70757420616464726581526020017f73732e000000000000000000000000000000000000000000000000000000000081525060600191505060405180910390fd5b81600460006101000a81548173ffffffffffffffffffffffffffffffffffffffff021916908373ffffffffffffffffffffffffffffffffffffffff1602179055507f94b17f1a4844062cbed00809347b0f8149fc88c5a3ea720c7aed42c559eed46d82604051808273ffffffffffffffffffffffffffffffffffffffff1673ffffffffffffffffffffffffffffffffffffffff16815260200191505060405180910390a160019050919050565b6000600154905090565b60003073ffffffffffffffffffffffffffffffffffffffff168473ffffffffffffffffffffffffffffffffffffffff1614151515611a45576040517f08c379a00000000000000000000000000000000000000000000000000000000081526004018080602001828103825260618152602001807f546865207265636569766520616464726573732069732074686520436f6e746181526020017f63742041646472657373206f6620536f626c6f20546f6b656e2e20596f75206381526020017f616e6e6f742073656e64206d6f6e657920746f2074686973206164647265737381526020017f2e0000000000000000000000000000000000000000000000000000000000000081525060800191505060405180910390fd5b611a4f8484613f4b565b9050611a6033338686866000614169565b508373ffffffffffffffffffffffffffffffffffffffff163373ffffffffffffffffffffffffffffffffffffffff167fa609c322062a32354cef4c3627f131b25e0a79ca1c09649756e6b790ddf7697485611aba336124cc565b611ac3896124cc565b876040518085815260200184815260200183815260200180602001828103825283818151815260200191508051906020019080838360005b83811015611b16578082015181840152602081019050611afb565b50505050905090810190601f168015611b435780820380516001836020036101000a031916815260200191505b509550505050505060405180910390a39392505050565b6000611b9d8484846040805190810160405280601881526020017f63616c6c6564206279207472616e7366657246726f6d28290000000000000000815250613b09565b90509392505050565b601260ff16600a0a633b9aca000281565b601281565b600560003373ffffffffffffffffffffffffffffffffffffffff1673ffffffffffffffffffffffffffffffffffffffff16815260200190815260200160002060009054906101000a900460ff161515611c7d576040517f08c379a000000000000000000000000000000000000000000000000000000000815260040180806020018281038252601d8152602001807f4f776e65722070726976696c656467652069732072657175697265642e00000081525060200191505060405180910390fd5b6001600760006101000a81548160ff0219169083151502179055507fc1086893b0a3f1d991fd25e26cd28cad11de174842b04a55cc2423ed178e4382600760009054906101000a900460ff1682604051808315151515815260200180602001828103825283818151815260200191508051906020019080838360005b83811015611d14578082015181840152602081019050611cf9565b50505050905090810190601f168015611d415780820380516001836020036101000a031916815260200191505b50935050505060405180910390a150565b7fffffffffffffffffffffffffffffffffffffffffffffffffffffffffffffffff81565b6000600360009054906101000a900473ffffffffffffffffffffffffffffffffffffffff1673ffffffffffffffffffffffffffffffffffffffff163373ffffffffffffffffffffffffffffffffffffffff16141515611e3d576040517f08c379a000000000000000000000000000000000000000000000000000000000815260040180806020018281038252601b8152602001807f526f6f742070726976696c6567652069732072657175697265642e000000000081525060200191505060405180910390fd5b600073ffffffffffffffffffffffffffffffffffffffff168273ffffffffffffffffffffffffffffffffffffffff1614151515611f2e576040517f08c379a00000000000000000000000000000000000000000000000000000000081526004018080602001828103825260438152602001807f54686973206164647265737320746f20626520736574206973207a65726f206181526020017f6464726573732830292e20436865636b2074686520696e70757420616464726581526020017f73732e000000000000000000000000000000000000000000000000000000000081525060600191505060405180910390fd5b81600360006101000a81548173ffffffffffffffffffffffffffffffffffffffff021916908373ffffffffffffffffffffffffffffffffffffffff1602179055507f43ddeae7116ae634a7d05c2d1c588bca11b7bbc8cb96fbb2cb9c5b1afdf9ce1282604051808273ffffffffffffffffffffffffffffffffffffffff1673ffffffffffffffffffffffffffffffffffffffff16815260200191505060405180910390a160019050919050565b600080339050600760009054906101000a900460ff1615806120465750600860008273ffffffffffffffffffffffffffffffffffffffff1673ffffffffffffffffffffffffffffffffffffffff16815260200190815260200160002060009054906101000a900460ff165b80156120ce5750600960008273ffffffffffffffffffffffffffffffffffffffff1673ffffffffffffffffffffffffffffffffffffffff168152602001908152602001600020546000808373ffffffffffffffffffffffffffffffffffffffff1673ffffffffffffffffffffffffffffffffffffffff16815260200190815260200160002054115b1561216a57612163600960008373ffffffffffffffffffffffffffffffffffffffff1673ffffffffffffffffffffffffffffffffffffffff168152602001908152602001600020546000808473ffffffffffffffffffffffffffffffffffffffff1673ffffffffffffffffffffffffffffffffffffffff1681526020019081526020016000205461440d90919063ffffffff16565b915061216f565b600091505b5090565b60086020528060005260406000206000915054906101000a900460ff1681565b600061219f8484614497565b90508373ffffffffffffffffffffffffffffffffffffffff163373ffffffffffffffffffffffffffffffffffffffff167f873a5dfdc9d3efb66def120ac20495bf0dc772d6e19c1b8bd78f43da51787e8a85856040518083815260200180602001828103825283818151815260200191508051906020019080838360005b8381101561223857808201518184015260208101905061221d565b50505050905090810190601f1680156122655780820380516001836020036101000a031916815260200191505b50935050505060405180910390a39392505050565b60006122bc83836040805190810160405280601c81526020017f63616c6c6564206279206465637265617365417070726f76616c282900000000815250612514565b905092915050565b600560003373ffffffffffffffffffffffffffffffffffffffff1673ffffffffffffffffffffffffffffffffffffffff16815260200190815260200160002060009054906101000a900460ff161515612385576040517f08c379a000000000000000000000000000000000000000000000000000000000815260040180806020018281038252601d8152602001807f4f776e65722070726976696c656467652069732072657175697265642e00000081525060200191505060405180910390fd5b6123b0827fffffffffffffffffffffffffffffffffffffffffffffffffffffffffffffffff8361338c565b6000600860008473ffffffffffffffffffffffffffffffffffffffff1673ffffffffffffffffffffffffffffffffffffffff16815260200190815260200160002060006101000a81548160ff0219169083151502179055508173ffffffffffffffffffffffffffffffffffffffff167f4bf46282901af80a4309ce07c36d841184ce98297f8735f7769d169497ac7a4c600183604051808315151515815260200180602001828103825283818151815260200191508051906020019080838360005b8381101561248d578082015181840152602081019050612472565b50505050905090810190601f1680156124ba5780820380516001836020036101000a031916815260200191505b50935050505060405180910390a25050565b60008060008373ffffffffffffffffffffffffffffffffffffffff1673ffffffffffffffffffffffffffffffffffffffff168152602001908152602001600020549050919050565b60006125208484614589565b90508373ffffffffffffffffffffffffffffffffffffffff163373ffffffffffffffffffffffffffffffffffffffff167f873a5dfdc9d3efb66def120ac20495bf0dc772d6e19c1b8bd78f43da51787e8a600260003373ffffffffffffffffffffffffffffffffffffffff1673ffffffffffffffffffffffffffffffffffffffff16815260200190815260200160002060008873ffffffffffffffffffffffffffffffffffffffff1673ffffffffffffffffffffffffffffffffffffffff16815260200190815260200160002054856040518083815260200180602001828103825283818151815260200191508051906020019080838360005b8381101561263557808201518184015260208101905061261a565b50505050905090810190601f1680156126625780820380516001836020036101000a031916815260200191505b50935050505060405180910390a39392505050565b600360009054906101000a900473ffffffffffffffffffffffffffffffffffffffff1673ffffffffffffffffffffffffffffffffffffffff163373ffffffffffffffffffffffffffffffffffffffff1614151561273c576040517f08c379a000000000000000000000000000000000000000000000000000000000815260040180806020018281038252601b8152602001807f526f6f742070726976696c6567652069732072657175697265642e000000000081525060200191505060405180910390fd5b600360009054906101000a900473ffffffffffffffffffffffffffffffffffffffff1673ffffffffffffffffffffffffffffffffffffffff16ff5b6000600460009054906101000a900473ffffffffffffffffffffffffffffffffffffffff1673ffffffffffffffffffffffffffffffffffffffff163373ffffffffffffffffffffffffffffffffffffffff16141515612864576040517f08c379a00000000000000000000000000000000000000000000000000000000081526004018080602001828103825260228152602001807f53757065724f776e65722070726976696c65646765206973207265717569726581526020017f642e00000000000000000000000000000000000000000000000000000000000081525060400191505060405180910390fd5b600073ffffffffffffffffffffffffffffffffffffffff168273ffffffffffffffffffffffffffffffffffffffff1614151515612955576040517f08c379a00000000000000000000000000000000000000000000000000000000081526004018080602001828103825260438152602001807f54686973206164647265737320746f20626520736574206973207a65726f206181526020017f6464726573732830292e20436865636b2074686520696e70757420616464726581526020017f73732e000000000000000000000000000000000000000000000000000000000081525060600191505060405180910390fd5b600560008373ffffffffffffffffffffffffffffffffffffffff1673ffffffffffffffffffffffffffffffffffffffff16815260200190815260200160002060009054906101000a900460ff16151515612a3d576040517f08c379a00000000000000000000000000000000000000000000000000000000081526004018080602001828103825260238152602001807f54686973206164647265737320697320616c726561647920726567697374657281526020017f65642e000000000000000000000000000000000000000000000000000000000081525060400191505060405180910390fd5b6001600560008473ffffffffffffffffffffffffffffffffffffffff1673ffffffffffffffffffffffffffffffffffffffff16815260200190815260200160002060006101000a81548160ff02191690831515021790555060068290806001815401808255809150509060018203906000526020600020016000909192909190916101000a81548173ffffffffffffffffffffffffffffffffffffffff021916908373ffffffffffffffffffffffffffffffffffffffff160217905550507f5446d64d957daf41eca8227aa8fa5eb7f92c617adf03fbd9df64e8eb564d824e82604051808273ffffffffffffffffffffffffffffffffffffffff1673ffffffffffffffffffffffffffffffffffffffff16815260200191505060405180910390a160019050919050565b600460009054906101000a900473ffffffffffffffffffffffffffffffffffffffff1681565b6040805190810160405280600481526020017f48494e540000000000000000000000000000000000000000000000000000000081525081565b6000612c0883836040805190810160405280601481526020017f63616c6c6564206279207472616e73666572282900000000000000000000000081525061192d565b905092915050565b600560003373ffffffffffffffffffffffffffffffffffffffff1673ffffffffffffffffffffffffffffffffffffffff16815260200190815260200160002060009054906101000a900460ff161515612cd1576040517f08c379a000000000000000000000000000000000000000000000000000000000815260040180806020018281038252601d8152602001807f4f776e65722070726976696c656467652069732072657175697265642e00000081525060200191505060405180910390fd5b6000600760006101000a81548160ff0219169083151502179055507fc1086893b0a3f1d991fd25e26cd28cad11de174842b04a55cc2423ed178e4382600760009054906101000a900460ff1682604051808315151515815260200180602001828103825283818151815260200191508051906020019080838360005b83811015612d68578082015181840152602081019050612d4d565b50505050905090810190601f168015612d955780820380516001836020036101000a031916815260200191505b50935050505060405180910390a150565b6000600560003373ffffffffffffffffffffffffffffffffffffffff1673ffffffffffffffffffffffffffffffffffffffff16815260200190815260200160002060009054906101000a900460ff161515612e69576040517f08c379a000000000000000000000000000000000000000000000000000000000815260040180806020018281038252601d8152602001807f4f776e65722070726976696c656467652069732072657175697265642e00000081525060200191505060405180910390fd5b612e73848461481a565b9050612e856000338686866001614169565b508373ffffffffffffffffffffffffffffffffffffffff163373ffffffffffffffffffffffffffffffffffffffff167f46f2808bd46bea83ebe974c00f1d9cc8c2b048421a7d50e263eb421efce12bd585612edf336124cc565b866040518084815260200183815260200180602001828103825283818151815260200191508051906020019080838360005b83811015612f2c578082015181840152602081019050612f11565b50505050905090810190601f168015612f595780820380516001836020036101000a031916815260200191505b5094505050505060405180910390a39392505050565b60096020528060005260406000206000915090505481565b600080600460009054906101000a900473ffffffffffffffffffffffffffffffffffffffff1673ffffffffffffffffffffffffffffffffffffffff163373ffffffffffffffffffffffffffffffffffffffff16141515613075576040517f08c379a00000000000000000000000000000000000000000000000000000000081526004018080602001828103825260228152602001807f53757065724f776e65722070726976696c65646765206973207265717569726581526020017f642e00000000000000000000000000000000000000000000000000000000000081525060400191505060405180910390fd5b600560008473ffffffffffffffffffffffffffffffffffffffff1673ffffffffffffffffffffffffffffffffffffffff16815260200190815260200160002060009054906101000a900460ff16151561315c576040517f08c379a00000000000000000000000000000000000000000000000000000000081526004018080602001828103825260238152602001807f5468697320696e7075742061646472657373206973206e6f7420616e206f776e81526020017f65722e000000000000000000000000000000000000000000000000000000000081525060400191505060405180910390fd5b600560008473ffffffffffffffffffffffffffffffffffffffff1673ffffffffffffffffffffffffffffffffffffffff16815260200190815260200160002060006101000a81549060ff0219169055600090505b60068054905081101561330c578273ffffffffffffffffffffffffffffffffffffffff166006828154811015156131e357fe5b9060005260206000200160009054906101000a900473ffffffffffffffffffffffffffffffffffffffff1673ffffffffffffffffffffffffffffffffffffffff1614156132ff576006613245600160068054905061440d90919063ffffffff16565b81548110151561325157fe5b9060005260206000200160009054906101000a900473ffffffffffffffffffffffffffffffffffffffff1660068281548110151561328b57fe5b9060005260206000200160006101000a81548173ffffffffffffffffffffffffffffffffffffffff021916908373ffffffffffffffffffffffffffffffffffffffff1602179055506132ec600160068054905061440d90919063ffffffff16565b6006816132f9919061558b565b5061330c565b80806001019150506131b0565b7f1e64d9a491033a9731fa82493f0ab60e9f74294eca27edd93629f1fbaa15d28783604051808273ffffffffffffffffffffffffffffffffffffffff1673ffffffffffffffffffffffffffffffffffffffff16815260200191505060405180910390a16001915050919050565b600760009054906101000a900460ff1681565b600560003373ffffffffffffffffffffffffffffffffffffffff1673ffffffffffffffffffffffffffffffffffffffff16815260200190815260200160002060009054906101000a900460ff16151561344d576040517f08c379a000000000000000000000000000000000000000000000000000000000815260040180806020018281038252601d8152602001807f4f776e65722070726976696c656467652069732072657175697265642e00000081525060200191505060405180910390fd5b81600960008573ffffffffffffffffffffffffffffffffffffffff1673ffffffffffffffffffffffffffffffffffffffff168152602001908152602001600020819055508273ffffffffffffffffffffffffffffffffffffffff167fb19425af6288c6bb0d88f64d6d1cfe5eb7e2d31ee92f1012798df97a9b6b011a83836040518083815260200180602001828103825283818151815260200191508051906020019080838360005b838110156135115780820151818401526020810190506134f6565b50505050905090810190601f16801561353e5780820380516001836020036101000a031916815260200191505b50935050505060405180910390a2505050565b600061359383836040805190810160405280601c81526020017f63616c6c656420627920696e637265617365417070726f76616c28290000000081525061155b565b905092915050565b6000600260008473ffffffffffffffffffffffffffffffffffffffff1673ffffffffffffffffffffffffffffffffffffffff16815260200190815260200160002060008373ffffffffffffffffffffffffffffffffffffffff1673ffffffffffffffffffffffffffffffffffffffff16815260200190815260200160002054905092915050565b60068181548110151561363157fe5b906000526020600020016000915054906101000a900473ffffffffffffffffffffffffffffffffffffffff1681565b6000806000600560003373ffffffffffffffffffffffffffffffffffffffff1673ffffffffffffffffffffffffffffffffffffffff16815260200190815260200160002060009054906101000a900460ff161515613726576040517f08c379a000000000000000000000000000000000000000000000000000000000815260040180806020018281038252601d8152602001807f4f776e65722070726976696c656467652069732072657175697265642e00000081525060200191505060405180910390fd5b865191508551821415156137c8576040517f08c379a00000000000000000000000000000000000000000000000000000000081526004018080602001828103825260318152602001807f5468652073697a65206f662027746f2720616e64202776616c7565732720617281526020017f72617920697320646966666572656e742e00000000000000000000000000000081525060400191505060405180910390fd5b60068560058111156137d657fe5b60ff161015156137e557600080fd5b60019250600090505b81811015613ad8573073ffffffffffffffffffffffffffffffffffffffff16878281518110151561381b57fe5b9060200190602002015173ffffffffffffffffffffffffffffffffffffffff1614151515613923576040517f08c379a00000000000000000000000000000000000000000000000000000000081526004018080602001828103825260618152602001807f546865207265636569766520616464726573732069732074686520436f6e746181526020017f63742041646472657373206f6620536f626c6f20546f6b656e2e20596f75206381526020017f616e6e6f742073656e64206d6f6e657920746f2074686973206164647265737381526020017f2e0000000000000000000000000000000000000000000000000000000000000081525060800191505060405180910390fd5b828015613965575061396488888381518110151561393d57fe5b90602001906020020151888481518110151561395557fe5b90602001906020020151614a2a565b5b9250868181518110151561397557fe5b9060200190602002015173ffffffffffffffffffffffffffffffffffffffff163373ffffffffffffffffffffffffffffffffffffffff168973ffffffffffffffffffffffffffffffffffffffff167f88098165ed6db5b0cb36499c27d46197630154717a26b48aede92bd7cd6ee12b89858151811015156139f257fe5b9060200190602002015189613a068e6124cc565b613a268e89815181101515613a1757fe5b906020019060200201516124cc565b8b60405180868152602001856005811115613a3d57fe5b60ff16815260200184815260200183815260200180602001828103825283818151815260200191508051906020019080838360005b83811015613a8d578082015181840152602081019050613a72565b50505050905090810190601f168015613aba5780820380516001836020036101000a031916815260200191505b50965050505050505060405180910390a480806001019150506137ee565b505095945050505050565b600360009054906101000a900473ffffffffffffffffffffffffffffffffffffffff1681565b60003073ffffffffffffffffffffffffffffffffffffffff168473ffffffffffffffffffffffffffffffffffffffff1614151515613c21576040517f08c379a00000000000000000000000000000000000000000000000000000000081526004018080602001828103825260618152602001807f546865207265636569766520616464726573732069732074686520436f6e746181526020017f63742041646472657373206f6620536f626c6f20546f6b656e2e20596f75206381526020017f616e6e6f742073656e64206d6f6e657920746f2074686973206164647265737381526020017f2e0000000000000000000000000000000000000000000000000000000000000081525060800191505060405180910390fd5b613c2c858585614a2a565b9050613c3d85338686866000614169565b508373ffffffffffffffffffffffffffffffffffffffff163373ffffffffffffffffffffffffffffffffffffffff168673ffffffffffffffffffffffffffffffffffffffff167f98885723734242dd9facd4a9d474af4699a809ba2f59ecf9c30a223b905007ee86613cae8a6124cc565b613cb78a6124cc565b886040518085815260200184815260200183815260200180602001828103825283818151815260200191508051906020019080838360005b83811015613d0a578082015181840152602081019050613cef565b50505050905090810190601f168015613d375780820380516001836020036101000a031916815260200191505b509550505050505060405180910390a4949350505050565b6000613de082600260003373ffffffffffffffffffffffffffffffffffffffff1673ffffffffffffffffffffffffffffffffffffffff16815260200190815260200160002060008673ffffffffffffffffffffffffffffffffffffffff1673ffffffffffffffffffffffffffffffffffffffff16815260200190815260200160002054614c4a90919063ffffffff16565b600260003373ffffffffffffffffffffffffffffffffffffffff1673ffffffffffffffffffffffffffffffffffffffff16815260200190815260200160002060008573ffffffffffffffffffffffffffffffffffffffff1673ffffffffffffffffffffffffffffffffffffffff168152602001908152602001600020819055508273ffffffffffffffffffffffffffffffffffffffff163373ffffffffffffffffffffffffffffffffffffffff167f8c5be1e5ebec7d5bd14f71427d1e84f3dd0314c0f7b2291e5b200ac8c7c3b925600260003373ffffffffffffffffffffffffffffffffffffffff1673ffffffffffffffffffffffffffffffffffffffff16815260200190815260200160002060008773ffffffffffffffffffffffffffffffffffffffff1673ffffffffffffffffffffffffffffffffffffffff168152602001908152602001600020546040518082815260200191505060405180910390a36001905092915050565b60003382600760009054906101000a900460ff161580613fb45750600860008373ffffffffffffffffffffffffffffffffffffffff1673ffffffffffffffffffffffffffffffffffffffff16815260200190815260200160002060009054906101000a900460ff165b1515614028576040517f08c379a00000000000000000000000000000000000000000000000000000000081526004018080602001828103825260208152602001807f546865206163636f756e742069732063757272656e746c79206c6f636b65642e81525060200191505060405180910390fd5b600960008373ffffffffffffffffffffffffffffffffffffffff1673ffffffffffffffffffffffffffffffffffffffff168152602001908152602001600020546140b9826000808673ffffffffffffffffffffffffffffffffffffffff1673ffffffffffffffffffffffffffffffffffffffff1681526020019081526020016000205461440d90919063ffffffff16565b10151515614155576040517f08c379a00000000000000000000000000000000000000000000000000000000081526004018080602001828103825260408152602001807f5472616e7366657261626c65206c696d69742065786365656465642e2043686581526020017f636b2074686520737461747573206f6620746865206c6f636b2076616c75652e81525060400191505060405180910390fd5b61415f8585614cd4565b9250505092915050565b60008061418b8673ffffffffffffffffffffffffffffffffffffffff16615011565b156143fd578573ffffffffffffffffffffffffffffffffffffffff1660405180807f6f6e536f626c6f546f6b656e526563656976656428616464726573732c61646481526020017f726573732c75696e743235362c75696e74382900000000000000000000000000815250603301905060405180910390207c01000000000000000000000000000000000000000000000000000000009004898988876040518563ffffffff167c0100000000000000000000000000000000000000000000000000000000028152600401808573ffffffffffffffffffffffffffffffffffffffff1673ffffffffffffffffffffffffffffffffffffffff1681526020018473ffffffffffffffffffffffffffffffffffffffff1673ffffffffffffffffffffffffffffffffffffffff1681526020018381526020018260018111156142cc57fe5b60ff1681526020019450505050506000604051808303816000875af192505050905080156143fc578573ffffffffffffffffffffffffffffffffffffffff168773ffffffffffffffffffffffffffffffffffffffff168973ffffffffffffffffffffffffffffffffffffffff167f52bcea5f2b1d4e11b2c554106feef51ce4146f2b5fe97e8b026576e107933393888888604051808481526020018060200183600181111561437757fe5b60ff168152602001828103825284818151815260200191508051906020019080838360005b838110156143b757808201518184015260208101905061439c565b50505050905090810190601f1680156143e45780820380516001836020036101000a031916815260200191505b5094505050505060405180910390a460019150614402565b5b600091505b509695505050505050565b600080838311151515614488576040517f08c379a000000000000000000000000000000000000000000000000000000000815260040180806020018281038252601e8152602001807f536166654d6174683a207375627472616374696f6e206f766572666c6f77000081525060200191505060405180910390fd5b82840390508091505092915050565b600081600260003373ffffffffffffffffffffffffffffffffffffffff1673ffffffffffffffffffffffffffffffffffffffff16815260200190815260200160002060008573ffffffffffffffffffffffffffffffffffffffff1673ffffffffffffffffffffffffffffffffffffffff168152602001908152602001600020819055508273ffffffffffffffffffffffffffffffffffffffff163373ffffffffffffffffffffffffffffffffffffffff167f8c5be1e5ebec7d5bd14f71427d1e84f3dd0314c0f7b2291e5b200ac8c7c3b925846040518082815260200191505060405180910390a36001905092915050565b600080600260003373ffffffffffffffffffffffffffffffffffffffff1673ffffffffffffffffffffffffffffffffffffffff16815260200190815260200160002060008573ffffffffffffffffffffffffffffffffffffffff1673ffffffffffffffffffffffffffffffffffffffff1681526020019081526020016000205490508083111561469a576000600260003373ffffffffffffffffffffffffffffffffffffffff1673ffffffffffffffffffffffffffffffffffffffff16815260200190815260200160002060008673ffffffffffffffffffffffffffffffffffffffff1673ffffffffffffffffffffffffffffffffffffffff1681526020019081526020016000208190555061472e565b6146ad838261440d90919063ffffffff16565b600260003373ffffffffffffffffffffffffffffffffffffffff1673ffffffffffffffffffffffffffffffffffffffff16815260200190815260200160002060008673ffffffffffffffffffffffffffffffffffffffff1673ffffffffffffffffffffffffffffffffffffffff168152602001908152602001600020819055505b8373ffffffffffffffffffffffffffffffffffffffff163373ffffffffffffffffffffffffffffffffffffffff167f8c5be1e5ebec7d5bd14f71427d1e84f3dd0314c0f7b2291e5b200ac8c7c3b925600260003373ffffffffffffffffffffffffffffffffffffffff1673ffffffffffffffffffffffffffffffffffffffff16815260200190815260200160002060008873ffffffffffffffffffffffffffffffffffffffff1673ffffffffffffffffffffffffffffffffffffffff168152602001908152602001600020546040518082815260200191505060405180910390a3600191505092915050565b60008073ffffffffffffffffffffffffffffffffffffffff168373ffffffffffffffffffffffffffffffffffffffff161415151561490c576040517f08c379a00000000000000000000000000000000000000000000000000000000081526004018080602001828103825260438152602001807f54686973206164647265737320746f20626520736574206973207a65726f206181526020017f6464726573732830292e20436865636b2074686520696e70757420616464726581526020017f73732e000000000000000000000000000000000000000000000000000000000081525060600191505060405180910390fd5b61492182600154614c4a90919063ffffffff16565b600181905550614978826000808673ffffffffffffffffffffffffffffffffffffffff1673ffffffffffffffffffffffffffffffffffffffff16815260200190815260200160002054614c4a90919063ffffffff16565b6000808573ffffffffffffffffffffffffffffffffffffffff1673ffffffffffffffffffffffffffffffffffffffff168152602001908152602001600020819055508273ffffffffffffffffffffffffffffffffffffffff16600073ffffffffffffffffffffffffffffffffffffffff167fddf252ad1be2c89b69c2b068fc378daa952ba7f163c4a11628f55a4df523b3ef846040518082815260200191505060405180910390a36001905092915050565b60008382600760009054906101000a900460ff161580614a935750600860008373ffffffffffffffffffffffffffffffffffffffff1673ffffffffffffffffffffffffffffffffffffffff16815260200190815260200160002060009054906101000a900460ff165b1515614b07576040517f08c379a00000000000000000000000000000000000000000000000000000000081526004018080602001828103825260208152602001807f546865206163636f756e742069732063757272656e746c79206c6f636b65642e81525060200191505060405180910390fd5b600960008373ffffffffffffffffffffffffffffffffffffffff1673ffffffffffffffffffffffffffffffffffffffff16815260200190815260200160002054614b98826000808673ffffffffffffffffffffffffffffffffffffffff1673ffffffffffffffffffffffffffffffffffffffff1681526020019081526020016000205461440d90919063ffffffff16565b10151515614c34576040517f08c379a00000000000000000000000000000000000000000000000000000000081526004018080602001828103825260408152602001807f5472616e7366657261626c65206c696d69742065786365656465642e2043686581526020017f636b2074686520737461747573206f6620746865206c6f636b2076616c75652e81525060400191505060405180910390fd5b614c3f868686615024565b925050509392505050565b6000808284019050838110151515614cca576040517f08c379a000000000000000000000000000000000000000000000000000000000815260040180806020018281038252601b8152602001807f536166654d6174683a206164646974696f6e206f766572666c6f77000000000081525060200191505060405180910390fd5b8091505092915050565b60008073ffffffffffffffffffffffffffffffffffffffff168373ffffffffffffffffffffffffffffffffffffffff1614151515614da0576040517f08c379a000000000000000000000000000000000000000000000000000000000815260040180806020018281038252603e8152602001807f526563697069656e742061646472657373206973207a65726f2061646472657381526020017f732830292e20436865636b20746865206164647265737320616761696e2e000081525060400191505060405180910390fd5b6000803373ffffffffffffffffffffffffffffffffffffffff1673ffffffffffffffffffffffffffffffffffffffff168152602001908152602001600020548211151515614e7c576040517f08c379a00000000000000000000000000000000000000000000000000000000081526004018080602001828103825260278152602001807f5468652062616c616e6365206f66206163636f756e7420697320696e7375666681526020017f696369656e742e0000000000000000000000000000000000000000000000000081525060400191505060405180910390fd5b614ecd826000803373ffffffffffffffffffffffffffffffffffffffff1673ffffffffffffffffffffffffffffffffffffffff1681526020019081526020016000205461440d90919063ffffffff16565b6000803373ffffffffffffffffffffffffffffffffffffffff1673ffffffffffffffffffffffffffffffffffffffff16815260200190815260200160002081905550614f60826000808673ffffffffffffffffffffffffffffffffffffffff1673ffffffffffffffffffffffffffffffffffffffff16815260200190815260200160002054614c4a90919063ffffffff16565b6000808573ffffffffffffffffffffffffffffffffffffffff1673ffffffffffffffffffffffffffffffffffffffff168152602001908152602001600020819055508273ffffffffffffffffffffffffffffffffffffffff163373ffffffffffffffffffffffffffffffffffffffff167fddf252ad1be2c89b69c2b068fc378daa952ba7f163c4a11628f55a4df523b3ef846040518082815260200191505060405180910390a36001905092915050565b600080823b905060008111915050919050565b60008073ffffffffffffffffffffffffffffffffffffffff168373ffffffffffffffffffffffffffffffffffffffff16141515156150f0576040517f08c379a000000000000000000000000000000000000000000000000000000000815260040180806020018281038252603e8152602001807f526563697069656e742061646472657373206973207a65726f2061646472657381526020017f732830292e20436865636b20746865206164647265737320616761696e2e000081525060400191505060405180910390fd5b6000808573ffffffffffffffffffffffffffffffffffffffff1673ffffffffffffffffffffffffffffffffffffffff1681526020019081526020016000205482111515156151cc576040517f08c379a00000000000000000000000000000000000000000000000000000000081526004018080602001828103825260278152602001807f5468652062616c616e6365206f66206163636f756e7420697320696e7375666681526020017f696369656e742e0000000000000000000000000000000000000000000000000081525060400191505060405180910390fd5b600260008573ffffffffffffffffffffffffffffffffffffffff1673ffffffffffffffffffffffffffffffffffffffff16815260200190815260200160002060003373ffffffffffffffffffffffffffffffffffffffff1673ffffffffffffffffffffffffffffffffffffffff1681526020019081526020016000205482111515156152e6576040517f08c379a00000000000000000000000000000000000000000000000000000000081526004018080602001828103825260308152602001807f496e73756666696369656e7420746f6b656e7320617070726f7665642066726f81526020017f6d206163636f756e74206f776e65722e0000000000000000000000000000000081525060400191505060405180910390fd5b615337826000808773ffffffffffffffffffffffffffffffffffffffff1673ffffffffffffffffffffffffffffffffffffffff1681526020019081526020016000205461440d90919063ffffffff16565b6000808673ffffffffffffffffffffffffffffffffffffffff1673ffffffffffffffffffffffffffffffffffffffff168152602001908152602001600020819055506153ca826000808673ffffffffffffffffffffffffffffffffffffffff1673ffffffffffffffffffffffffffffffffffffffff16815260200190815260200160002054614c4a90919063ffffffff16565b6000808573ffffffffffffffffffffffffffffffffffffffff1673ffffffffffffffffffffffffffffffffffffffff1681526020019081526020016000208190555061549b82600260008773ffffffffffffffffffffffffffffffffffffffff1673ffffffffffffffffffffffffffffffffffffffff16815260200190815260200160002060003373ffffffffffffffffffffffffffffffffffffffff1673ffffffffffffffffffffffffffffffffffffffff1681526020019081526020016000205461440d90919063ffffffff16565b600260008673ffffffffffffffffffffffffffffffffffffffff1673ffffffffffffffffffffffffffffffffffffffff16815260200190815260200160002060003373ffffffffffffffffffffffffffffffffffffffff1673ffffffffffffffffffffffffffffffffffffffff168152602001908152602001600020819055508273ffffffffffffffffffffffffffffffffffffffff168473ffffffffffffffffffffffffffffffffffffffff167fddf252ad1be2c89b69c2b068fc378daa952ba7f163c4a11628f55a4df523b3ef846040518082815260200191505060405180910390a3600190509392505050565b8154818355818111156155b2578183600052602060002091820191016155b191906155b7565b5b505050565b6155d991905b808211156155d55760008160009055506001016155bd565b5090565b905600a165627a7a72305820270b12bac999ffdd1c3ca85c89730423c6562e18108e2f86629e6726af50516f0029",
  "source": "// File: contracts/SobloToken.sol\n\npragma solidity ^0.4.24;\n\n/*\n* The MIT License\n*\n* Copyright (c) <2021> <Vital Hint Hongkong Limited>\n* \n* Permission is hereby granted, free of charge, to any person obtaining a copy\n* of this software and associated documentation files (the \"Software\"), to deal\n* in the Software without restriction, including without limitation the rights\n* to use, copy, modify, merge, publish, distribute, sublicense, and/or sell\n* copies of the Software, and to permit persons to whom the Software is\n* furnished to do so, subject to the following conditions:\n\n* The above copyright notice and this permission notice shall be included in\n* all copies or substantial portions of the Software.\n\n* THE SOFTWARE IS PROVIDED \"AS IS\", WITHOUT WARRANTY OF ANY KIND, EXPRESS OR\n* IMPLIED, INCLUDING BUT NOT LIMITED TO THE WARRANTIES OF MERCHANTABILITY,\n* FITNESS FOR A PARTICULAR PURPOSE AND NONINFRINGEMENT. IN NO EVENT SHALL THE\n* AUTHORS OR COPYRIGHT HOLDERS BE LIABLE FOR ANY CLAIM, DAMAGES OR OTHER\n* LIABILITY, WHETHER IN AN ACTION OF CONTRACT, TORT OR OTHERWISE, ARISING FROM,\n* OUT OF OR IN CONNECTION WITH THE SOFTWARE OR THE USE OR OTHER DEALINGS IN\n* THE SOFTWARE.\n*/\n\n/**\n * Utility library of inline functions on addresses\n */\nlibrary AddressUtils {\n\n    /**\n     * Returns whether the target address is a contract\n     * dev This function will return false if invoked during the constructor of a contract,\n     * as the code is not actually created until after the constructor finishes.\n     * @param addr address to check\n     * @return whether the target address is a contract\n     */\n    function isContract(address addr) internal view returns (bool) {\n        uint256 size;\n        // XXX Currently there is no better way to check if there is a contract in an address\n        // than to check the size of the code at that address.\n        // See https://ethereum.stackexchange.com/a/14016/36603\n        // for more details about how this works.\n        // TODO Check this again before the Serenity release, because all addresses will be\n        // contracts then.\n        // solium-disable-next-line security/no-inline-assembly\n        assembly { size := extcodesize(addr) }\n        return size > 0;\n    }\n\n}\n\n\n/**\n * @title ERC20Basic\n * @dev Simpler version of ERC20 interface\n * See https://github.com/ethereum/EIPs/issues/179\n */\ncontract ERC20Basic {\n    function totalSupply() public view returns (uint256);\n    function balanceOf(address who) public view returns (uint256);\n    function transfer(address to, uint256 value) public returns (bool);\n    event Transfer(address indexed from, address indexed to, uint256 value);\n}\n\n/**\n * @dev Wrappers over Solidity's arithmetic operations with added overflow\n * checks.\n *\n * Arithmetic operations in Solidity wrap on overflow. This can easily result\n * in bugs, because programmers usually assume that an overflow raises an\n * error, which is the standard behavior in high level programming languages.\n * `SafeMath` restores this intuition by reverting the transaction when an\n * operation overflows.\n *\n * Using this library instead of the unchecked operations eliminates an entire\n * class of bugs, so it's recommended to use it always.\n */\nlibrary SafeMath {\n    /**\n     * @dev Returns the addition of two unsigned integers, reverting on\n     * overflow.\n     *\n     * Counterpart to Solidity's `+` operator.\n     *\n     * Requirements:\n     * - Addition cannot overflow.\n     */\n    function add(uint256 a, uint256 b) internal pure returns (uint256) {\n        uint256 c = a + b;\n        require(c >= a, \"SafeMath: addition overflow\");\n\n        return c;\n    }\n\n    /**\n     * @dev Returns the subtraction of two unsigned integers, reverting on\n     * overflow (when the result is negative).\n     *\n     * Counterpart to Solidity's `-` operator.\n     *\n     * Requirements:\n     * - Subtraction cannot overflow.\n     */\n    function sub(uint256 a, uint256 b) internal pure returns (uint256) {\n        require(b <= a, \"SafeMath: subtraction overflow\");\n        uint256 c = a - b;\n\n        return c;\n    }\n\n    /**\n     * @dev Returns the multiplication of two unsigned integers, reverting on\n     * overflow.\n     *\n     * Counterpart to Solidity's `*` operator.\n     *\n     * Requirements:\n     * - Multiplication cannot overflow.\n     */\n    function mul(uint256 a, uint256 b) internal pure returns (uint256) {\n        // Gas optimization: this is cheaper than requiring 'a' not being zero, but the\n        // benefit is lost if 'b' is also tested.\n        // See: https://github.com/OpenZeppelin/openzeppelin-solidity/pull/522\n        if (a == 0) {\n            return 0;\n        }\n\n        uint256 c = a * b;\n        require(c / a == b, \"SafeMath: multiplication overflow\");\n\n        return c;\n    }\n\n    /**\n     * @dev Returns the integer division of two unsigned integers. Reverts on\n     * division by zero. The result is rounded towards zero.\n     *\n     * Counterpart to Solidity's `/` operator. Note: this function uses a\n     * `revert` opcode (which leaves remaining gas untouched) while Solidity\n     * uses an invalid opcode to revert (consuming all remaining gas).\n     *\n     * Requirements:\n     * - The divisor cannot be zero.\n     */\n    function div(uint256 a, uint256 b) internal pure returns (uint256) {\n        // Solidity only automatically asserts when dividing by 0\n        require(b > 0, \"SafeMath: division by zero\");\n        uint256 c = a / b;\n        // assert(a == b * c + a % b); // There is no case in which this doesn't hold\n\n        return c;\n    }\n\n    /**\n     * @dev Returns the remainder of dividing two unsigned integers. (unsigned integer modulo),\n     * Reverts when dividing by zero.\n     *\n     * Counterpart to Solidity's `%` operator. This function uses a `revert`\n     * opcode (which leaves remaining gas untouched) while Solidity uses an\n     * invalid opcode to revert (consuming all remaining gas).\n     *\n     * Requirements:\n     * - The divisor cannot be zero.\n     */\n    function mod(uint256 a, uint256 b) internal pure returns (uint256) {\n        require(b != 0, \"SafeMath: modulo by zero\");\n        return a % b;\n    }\n}\n\n/**\n * @title Basic token\n * @dev Basic version of StandardToken, with no allowances.\n */\ncontract BasicToken is ERC20Basic {\n    using SafeMath for uint256;\n\n    mapping(address => uint256) balances;\n\n    uint256 totalSupply_;\n\n    /**\n    * @dev Total number of tokens in existence\n    */\n    function totalSupply() public view returns (uint256) {\n        return totalSupply_;\n    }\n\n    /**\n    * @dev Transfer token for a specified address\n    * @param _to The address to transfer to.\n    * @param _value The amount to be transferred.\n    */\n    function transfer(address _to, uint256 _value) public returns (bool) {\n        require(_to != address(0), \"Recipient address is zero address(0). Check the address again.\");\n        require(_value <= balances[msg.sender], \"The balance of account is insufficient.\");\n\n        balances[msg.sender] = balances[msg.sender].sub(_value);\n        balances[_to] = balances[_to].add(_value);\n        emit Transfer(msg.sender, _to, _value);\n        return true;\n    }\n\n    /**\n    * @dev Gets the balance of the specified address.\n    * @param _owner The address to query the the balance of.\n    * @return An uint256 representing the amount owned by the passed address.\n    */\n    function balanceOf(address _owner) public view returns (uint256) {\n        return balances[_owner];\n    }\n\n}\n\n/**\n * @title ERC20 interface\n * @dev see https://github.com/ethereum/EIPs/issues/20\n */\ncontract ERC20 is ERC20Basic {\n    function allowance(address owner, address spender)\n    public view returns (uint256);\n\n    function transferFrom(address from, address to, uint256 value)\n    public returns (bool);\n\n    function approve(address spender, uint256 value) public returns (bool);\n    event Approval(\n        address indexed owner,\n        address indexed spender,\n        uint256 value\n    );\n}\n\n/**\n * @title Standard ERC20 token\n *\n * @dev Implementation of the basic standard token.\n * https://github.com/ethereum/EIPs/issues/20\n * Based on code by FirstBlood: https://github.com/Firstbloodio/token/blob/master/smart_contract/FirstBloodToken.sol\n */\ncontract StandardToken is ERC20, BasicToken {\n\n    mapping (address => mapping (address => uint256)) internal allowed;\n\n\n    /**\n     * @dev Transfer tokens from one address to another\n     * @param _from address The address which you want to send tokens from\n     * @param _to address The address which you want to transfer to\n     * @param _value uint256 the amount of tokens to be transferred\n     */\n    function transferFrom(\n        address _from,\n        address _to,\n        uint256 _value\n    )\n    public\n    returns (bool)\n    {\n        require(_to != address(0), \"Recipient address is zero address(0). Check the address again.\");\n        require(_value <= balances[_from], \"The balance of account is insufficient.\");\n        require(_value <= allowed[_from][msg.sender], \"Insufficient tokens approved from account owner.\");\n\n        balances[_from] = balances[_from].sub(_value);\n        balances[_to] = balances[_to].add(_value);\n        allowed[_from][msg.sender] = allowed[_from][msg.sender].sub(_value);\n        emit Transfer(_from, _to, _value);\n        return true;\n    }\n\n    /**\n     * @dev Approve the passed address to spend the specified amount of tokens on behalf of msg.sender.\n     * Beware that changing an allowance with this method brings the risk that someone may use both the old\n     * and the new allowance by unfortunate transaction ordering. One possible solution to mitigate this\n     * race condition is to first reduce the spender's allowance to 0 and set the desired value afterwards:\n     * https://github.com/ethereum/EIPs/issues/20#issuecomment-263524729\n     * @param _spender The address which will spend the funds.\n     * @param _value The amount of tokens to be spent.\n     */\n    function approve(address _spender, uint256 _value) public returns (bool) {\n        allowed[msg.sender][_spender] = _value;\n        emit Approval(msg.sender, _spender, _value);\n        return true;\n    }\n\n    /**\n     * @dev Function to check the amount of tokens that an owner allowed to a spender.\n     * @param _owner address The address which owns the funds.\n     * @param _spender address The address which will spend the funds.\n     * @return A uint256 specifying the amount of tokens still available for the spender.\n     */\n    function allowance(\n        address _owner,\n        address _spender\n    )\n    public\n    view\n    returns (uint256)\n    {\n        return allowed[_owner][_spender];\n    }\n\n    /**\n     * @dev Increase the amount of tokens that an owner allowed to a spender.\n     * approve should be called when allowed[_spender] == 0. To increment\n     * allowed value is better to use this function to avoid 2 calls (and wait until\n     * the first transaction is mined)\n     * From MonolithDAO Token.sol\n     * @param _spender The address which will spend the funds.\n     * @param _addedValue The amount of tokens to increase the allowance by.\n     */\n    function increaseApproval(\n        address _spender,\n        uint256 _addedValue\n    )\n    public\n    returns (bool)\n    {\n        allowed[msg.sender][_spender] = (\n        allowed[msg.sender][_spender].add(_addedValue));\n        emit Approval(msg.sender, _spender, allowed[msg.sender][_spender]);\n        return true;\n    }\n\n    /**\n     * @dev Decrease the amount of tokens that an owner allowed to a spender.\n     * approve should be called when allowed[_spender] == 0. To decrement\n     * allowed value is better to use this function to avoid 2 calls (and wait until\n     * the first transaction is mined)\n     * From MonolithDAO Token.sol\n     * @param _spender The address which will spend the funds.\n     * @param _subtractedValue The amount of tokens to decrease the allowance by.\n     */\n    function decreaseApproval(\n        address _spender,\n        uint256 _subtractedValue\n    )\n    public\n    returns (bool)\n    {\n        uint256 oldValue = allowed[msg.sender][_spender];\n        if (_subtractedValue > oldValue) {\n            allowed[msg.sender][_spender] = 0;\n        } else {\n            allowed[msg.sender][_spender] = oldValue.sub(_subtractedValue);\n        }\n        emit Approval(msg.sender, _spender, allowed[msg.sender][_spender]);\n        return true;\n    }\n\n}\n\n/**\n * @title MultiOwnable\n * @dev root -> superOwner -> owners      \n */\ncontract MultiOwnable {\n    using SafeMath for uint256;\n\n    address public root; //    superOwner  .     .\n    address public superOwner;\n    mapping (address => bool) public owners;\n    address[] public ownerList;\n\n    event ChangedRoot(address newRoot);\n    event ChangedSuperOwner(address newSuperOwner);\n    event AddedNewOwner(address newOwner);\n    event DeletedOwner(address deletedOwner);\n\n    constructor() public {\n        root = msg.sender;\n        superOwner = msg.sender;\n        owners[root] = true;\n\n        ownerList.push(msg.sender);\n    }\n\n    modifier onlyRoot() {\n        require(msg.sender == root, \"Root privilege is required.\");\n        _;\n    }\n\n    modifier onlySuperOwner() {\n        require(msg.sender == superOwner, \"SuperOwner priviledge is required.\");\n        _;\n    }\n\n    modifier onlyOwner() {\n        require(owners[msg.sender], \"Owner priviledge is required.\");\n        _;\n    }\n\n    /**\n     * @dev root  (root  root  superOwner      .)\n     * @dev     ,       !\n     */\n    function changeRoot(address newRoot) onlyRoot public returns (bool) {\n        require(newRoot != address(0), \"This address to be set is zero address(0). Check the input address.\");\n\n        root = newRoot;\n\n        emit ChangedRoot(newRoot);\n        return true;\n    }\n\n    /**\n     * @dev superOwner  (root  root  superOwner      .)\n     * @dev  superOwner    ,  superOwner      !\n     */\n    function changeSuperOwner(address newSuperOwner) onlyRoot public returns (bool) {\n        require(newSuperOwner != address(0), \"This address to be set is zero address(0). Check the input address.\");\n\n        superOwner = newSuperOwner;\n\n        emit ChangedSuperOwner(newSuperOwner);\n        return true;\n    }\n\n\n    function newOwner(address owner) onlySuperOwner public returns (bool) {\n        require(owner != address(0), \"This address to be set is zero address(0). Check the input address.\");\n        require(!owners[owner], \"This address is already registered.\");\n\n        owners[owner] = true;\n        ownerList.push(owner);\n\n        emit AddedNewOwner(owner);\n        return true;\n    }\n\n    function deleteOwner(address owner) onlySuperOwner public returns (bool) {\n        require(owners[owner], \"This input address is not an owner.\");\n        delete owners[owner];\n\n        for (uint256 i = 0; i < ownerList.length; i++) {\n            if (ownerList[i] == owner) {\n                ownerList[i] = ownerList[ownerList.length.sub(1)];\n                ownerList.length = ownerList.length.sub(1);\n                break;\n            }\n        }\n\n        emit DeletedOwner(owner);\n        return true;\n    }\n}\n\n/**\n * @title Lockable token\n */\ncontract LockableToken is StandardToken, MultiOwnable {\n    bool public locked = true;\n    uint256 public constant LOCK_MAX = uint256(-1);\n\n    /**\n     * @dev      \n     */\n    mapping(address => bool) public unlockAddrs;\n\n    /**\n     * @dev   lock value   \n     * @dev -  0   :  0     .\n     * @dev -  LOCK_MAX   :  uint256     .\n     */\n    mapping(address => uint256) public lockValues;\n\n    event Locked(bool locked, string note);\n    event LockedTo(address indexed addr, bool locked, string note);\n    event SetLockValue(address indexed addr, uint256 value, string note);\n\n    constructor() public {\n        unlockTo(msg.sender,  \"Default Unlock To Root\");\n    }\n\n    modifier checkUnlock (address addr, uint256 value) {\n        require(!locked || unlockAddrs[addr], \"The account is currently locked.\");\n        require(balances[addr].sub(value) >= lockValues[addr], \"Transferable limit exceeded. Check the status of the lock value.\");\n        _;\n    }\n\n    function lock(string note) onlyOwner public {\n        locked = true;\n        emit Locked(locked, note);\n    }\n\n    function unlock(string note) onlyOwner public {\n        locked = false;\n        emit Locked(locked, note);\n    }\n\n    function lockTo(address addr, string note) onlyOwner public {\n        setLockValue(addr, LOCK_MAX, note);\n        unlockAddrs[addr] = false;\n\n        emit LockedTo(addr, true, note);\n    }\n\n    function unlockTo(address addr, string note) onlyOwner public {\n        if (lockValues[addr] == LOCK_MAX)\n            setLockValue(addr, 0, note);\n        unlockAddrs[addr] = true;\n\n        emit LockedTo(addr, false, note);\n    }\n\n    function setLockValue(address addr, uint256 value, string note) onlyOwner public {\n        lockValues[addr] = value;\n        emit SetLockValue(addr, value, note);\n    }\n\n    /**\n     * @dev    .\n     */\n    function getMyUnlockValue() public view returns (uint256) {\n        address addr = msg.sender;\n        if ((!locked || unlockAddrs[addr]) && balances[addr] > lockValues[addr])\n            return balances[addr].sub(lockValues[addr]);\n        else\n            return 0;\n    }\n\n    function transfer(address to, uint256 value) checkUnlock(msg.sender, value) public returns (bool) {\n        return super.transfer(to, value);\n    }\n\n    function transferFrom(address from, address to, uint256 value) checkUnlock(from, value) public returns (bool) {\n        return super.transferFrom(from, to, value);\n    }\n}\n\n\n/**\n * @title SobloTokenReceiver Receiver\n */\ncontract SobloTokenReceiver {\n    enum SobloTokenReceiveType { TOKEN_TRANSFER, TOKEN_MINT }\n    function onSobloTokenReceived(address owner, address spender, uint256 value, SobloTokenReceiveType receiveType) public returns (bool);\n}\n\n\n/**\n * @title SobloToken\n */\ncontract SobloToken is LockableToken {\n    using AddressUtils for address;\n    \n    enum SobloTransferType {\n        TRANSFER_TO_TEAM, \n        TRANSFER_TO_PARTNER, \n        TRANSFER_TO_ECOSYSTEM, \n        TRANSFER_TO_BOUNTY, \n        TRANSFER_TO_RESERVE, \n        TRANSFER_TO_ETC \n    }\n    \n    event SobloTransferred(address indexed from, address indexed to, uint256 value, uint256 fromBalance, uint256 toBalance, string note);\n    event SobloTransferredFrom(address indexed owner, address indexed spender, address indexed to, uint256 value, uint256 fromBalance, uint256 toBalance, string note);\n    event SobloApproval(address indexed owner, address indexed spender, uint256 value, string note);\n\n    event SobloMintedTo(address indexed controller, address indexed to, uint256 amount, uint256 balance, string note);\n    event SobloMultiTransferred(address indexed owner, address indexed spender, address indexed to, uint256 value, SobloTransferType purpose, uint256 fromBalance, uint256 toBalance, string note);\n\n    event TransferredToSobloDapp(\n        address indexed owner,\n        address indexed spender,\n        address indexed to, \n        uint256 value, \n        string note, \n        SobloTokenReceiver.SobloTokenReceiveType receiveType\n    );\n\n    constructor() public {\n\t}\n\t    \n    // ERC20   super     soblo~   .\n    function transfer(address to, uint256 value) public returns (bool ret) {\n        return sobloTransfer(to, value, \"called by transfer()\");\n    }\n\n    function sobloTransfer(address to, uint256 value, string note) public returns (bool ret) {\n        require(to != address(this), \"The receive address is the Contact Address of Soblo Token. You cannot send money to this address.\");\n\n        ret = super.transfer(to, value);\n        postTransfer(msg.sender, msg.sender, to, value, note, SobloTokenReceiver.SobloTokenReceiveType.TOKEN_TRANSFER);\n        \n        emit SobloTransferred(msg.sender, to, value, balanceOf(msg.sender), balanceOf(to), note);\n    }\n\n    function transferFrom(address from, address to, uint256 value) public returns (bool) {\n        return sobloTransferFrom(from, to, value, \"called by transferFrom()\");\n    }\n\n    function sobloTransferFrom(address from, address to, uint256 value, string note) public returns (bool ret) {\n        require(to != address(this), \"The receive address is the Contact Address of Soblo Token. You cannot send money to this address.\");\n\n        ret = super.transferFrom(from, to, value);\n        postTransfer(from, msg.sender, to, value, note, SobloTokenReceiver.SobloTokenReceiveType.TOKEN_TRANSFER);\n\n        emit SobloTransferredFrom(from, msg.sender, to, value, balanceOf(from), balanceOf(to), note);\n    }\n\n    function approve(address spender, uint256 value) public returns (bool) {\n        return sobloApprove(spender, value, \"called by approve()\");\n    }\n\n    function sobloApprove(address spender, uint256 value, string note) public returns (bool ret) {\n        ret = super.approve(spender, value);\n        emit SobloApproval(msg.sender, spender, value, note);\n    }\n\n    function increaseApproval(address spender, uint256 addedValue) public returns (bool) {\n        return sobloIncreaseApproval(spender, addedValue, \"called by increaseApproval()\");\n    }\n\n    function sobloIncreaseApproval(address spender, uint256 addedValue, string note) public returns (bool ret) {\n        ret = super.increaseApproval(spender, addedValue);\n        emit SobloApproval(msg.sender, spender, allowed[msg.sender][spender], note);\n    }\n\n    function decreaseApproval(address spender, uint256 subtractedValue) public returns (bool) {\n        return sobloDecreaseApproval(spender, subtractedValue, \"called by decreaseApproval()\");\n    }\n\n    function sobloDecreaseApproval(address spender, uint256 subtractedValue, string note) public returns (bool ret) {\n        ret = super.decreaseApproval(spender, subtractedValue);\n        emit SobloApproval(msg.sender, spender, allowed[msg.sender][spender], note);\n    }\n\n    /**\n     * @dev   .    .\n     */\n    function mintTo(address to, uint256 amount) internal returns (bool) {\n        require(to != address(0x0), \"This address to be set is zero address(0). Check the input address.\");\n\n        totalSupply_ = totalSupply_.add(amount);\n        balances[to] = balances[to].add(amount);\n\n        emit Transfer(address(0), to, amount);\n        return true;\n    }\n\n    function sobloMintTo(address to, uint256 amount, string note) onlyOwner public returns (bool ret) {\n        ret = mintTo(to, amount);\n        postTransfer(0x0, msg.sender, to, amount, note, SobloTokenReceiver.SobloTokenReceiveType.TOKEN_MINT);\n        \n        emit SobloMintedTo(msg.sender, to, amount, balanceOf(msg.sender), note);\n    }\n    \n    function postTransfer(\n        address owner, \n        address spender,\n        address to,\n        uint256 value,\n        string note,\n        SobloTokenReceiver.SobloTokenReceiveType receiveType\n    ) internal returns (bool) {\n        if (to.isContract()) {\n            bool callOk = address(to).call(\n                bytes4(keccak256(\"onSobloTokenReceived(address,address,uint256,uint8)\")),\n                owner,\n                spender,\n                value,\n                receiveType\n            );\n            if (callOk) {\n                emit TransferredToSobloDapp(owner, spender, to, value, note, receiveType);\n                return true;\n            }\n        }\n        \n        return false;\n    }    \n\n    /**\n     * @dev   (postTransfer    !)\n     * \n     * @param from    ( transferFrom  )\n     * @param to   \n     * @param purpose  ,  ,      \n     * @param note  \n     */ \n    function sobloMultiTransfer(\n        address from, address[] to,\n        uint256[] values,\n        SobloTransferType purpose,\n        string note\n    ) onlyOwner public returns (bool ret) {\n        uint256 length = to.length;\n        require(length == values.length, \"The size of \\'to\\' and \\'values\\' array is different.\");\n        require(uint8(purpose) < 6);\n\n        ret = true;\n        for (uint256 i = 0; i < length; i++) {\n            require(to[i] != address(this), \"The receive address is the Contact Address of Soblo Token. You cannot send money to this address.\");\n\n            ret = ret && super.transferFrom(from, to[i], values[i]); //   post ( onReceived  )    super.transferFrom  .\n            emit SobloMultiTransferred(from, msg.sender, to[i], values[i], purpose, balanceOf(from), balanceOf(to[i]), note);\n        }\n    }\n\n    function destroy() onlyRoot public {\n        selfdestruct(root);\n    }\n}\n\n\n/**\n * @title SobloTokenDappBase\n */\ncontract SobloTokenDappBase is SobloTokenReceiver {\n    address internal _sobloToken;\n    event LogOnReceivedSobloToken(address indexed owner, address indexed spender, uint256 value, SobloTokenReceiveType receiveType);\n\n    constructor(address sobloToken) public {\n        _sobloToken = sobloToken;\n    }\n    \n    modifier onlySobloToken() {\n        require(msg.sender == _sobloToken, \"msg.sender must be the registered token contract\");\n        _;\n    }\n    \n    // Override this function\n    function onSobloTokenReceived(address owner, address spender, uint256 value, SobloTokenReceiveType receiveType)\n        public onlySobloToken returns (bool)\n    {\n        emit LogOnReceivedSobloToken(owner, spender, value, receiveType);\n    }\n}\n\n// File: contracts/HintTokenV3.sol\n\npragma solidity ^0.4.24;\n\n\n/**\n * @title HINTToken\n */\ncontract HINTToken is SobloToken {\n    string public constant name = \"HINT Token\";\n    string public constant symbol = \"HINT\";\n    uint8 public constant decimals = 18;\n    \n    uint256 public constant INITIAL_SUPPLY = 1e9 * (10 ** uint256(decimals));\n\n    constructor() public {\n        totalSupply_ = INITIAL_SUPPLY;\n        balances[msg.sender] = INITIAL_SUPPLY;\n        emit Transfer(0x0, msg.sender, INITIAL_SUPPLY);\n    }\n}\n",
  "sourcePath": "/Users/thoughtwin/Desktop/weblisto/clubrare/agov_and_hint_token/contracts/FlattenedHintToken.sol",
  "compiler": {
    "name": "solc",
    "version": "0.4.24+commit.e67f0147.Emscripten.clang"
  },
  "schemaVersion": "3.4.3",
  "updatedAt": "2021-09-22T11:35:13.583Z",
  "devdoc": {
    "methods": {
      "allowance(address,address)": {
        "details": "Function to check the amount of tokens that an owner allowed to a spender.",
        "params": {
          "_owner": "address The address which owns the funds.",
          "_spender": "address The address which will spend the funds."
        },
        "return": "A uint256 specifying the amount of tokens still available for the spender."
      },
      "balanceOf(address)": {
        "details": "Gets the balance of the specified address.",
        "params": {
          "_owner": "The address to query the the balance of."
        },
        "return": "An uint256 representing the amount owned by the passed address."
      },
      "changeRoot(address)": {
        "details": "root  (root  root  superOwner      .)    ,       !"
      },
      "changeSuperOwner(address)": {
        "details": "superOwner  (root  root  superOwner      .) superOwner    ,  superOwner      !"
      },
      "getMyUnlockValue()": {
        "details": "   ."
      },
      "sobloMultiTransfer(address,address[],uint256[],uint8,string)": {
        "details": "  (postTransfer    !) ",
        "params": {
          "from": "   ( transferFrom  )",
          "note": " ",
          "purpose": " ,  ,      ",
          "to": "  "
        }
      },
      "totalSupply()": {
        "details": "Total number of tokens in existence"
      }
    },
    "title": "HINTToken"
  },
  "userdoc": {
    "methods": {}
  }
}