{
  "contractName": "Staker",
  "abi": [
    {
      "inputs": [],
      "stateMutability": "nonpayable",
      "type": "constructor"
    },
    {
      "anonymous": false,
      "inputs": [
        {
          "indexed": true,
          "internalType": "address",
          "name": "owner",
          "type": "address"
        },
        {
          "indexed": true,
          "internalType": "address",
          "name": "spender",
          "type": "address"
        },
        {
          "indexed": false,
          "internalType": "uint256",
          "name": "value",
          "type": "uint256"
        }
      ],
      "name": "Approval",
      "type": "event"
    },
    {
      "anonymous": false,
      "inputs": [
        {
          "indexed": true,
          "internalType": "address",
          "name": "previousOwner",
          "type": "address"
        },
        {
          "indexed": true,
          "internalType": "address",
          "name": "newOwner",
          "type": "address"
        }
      ],
      "name": "OwnershipTransferred",
      "type": "event"
    },
    {
      "anonymous": false,
      "inputs": [
        {
          "indexed": true,
          "internalType": "address",
          "name": "from",
          "type": "address"
        },
        {
          "indexed": true,
          "internalType": "address",
          "name": "to",
          "type": "address"
        },
        {
          "indexed": false,
          "internalType": "uint256",
          "name": "value",
          "type": "uint256"
        }
      ],
      "name": "Transfer",
      "type": "event"
    },
    {
      "inputs": [
        {
          "internalType": "address",
          "name": "owner",
          "type": "address"
        },
        {
          "internalType": "address",
          "name": "spender",
          "type": "address"
        }
      ],
      "name": "allowance",
      "outputs": [
        {
          "internalType": "uint256",
          "name": "",
          "type": "uint256"
        }
      ],
      "stateMutability": "view",
      "type": "function",
      "constant": true
    },
    {
      "inputs": [
        {
          "internalType": "address",
          "name": "spender",
          "type": "address"
        },
        {
          "internalType": "uint256",
          "name": "amount",
          "type": "uint256"
        }
      ],
      "name": "approve",
      "outputs": [
        {
          "internalType": "bool",
          "name": "",
          "type": "bool"
        }
      ],
      "stateMutability": "nonpayable",
      "type": "function"
    },
    {
      "inputs": [
        {
          "internalType": "address",
          "name": "account",
          "type": "address"
        }
      ],
      "name": "balanceOf",
      "outputs": [
        {
          "internalType": "uint256",
          "name": "",
          "type": "uint256"
        }
      ],
      "stateMutability": "view",
      "type": "function",
      "constant": true
    },
    {
      "inputs": [],
      "name": "decimals",
      "outputs": [
        {
          "internalType": "uint8",
          "name": "",
          "type": "uint8"
        }
      ],
      "stateMutability": "view",
      "type": "function",
      "constant": true
    },
    {
      "inputs": [
        {
          "internalType": "address",
          "name": "spender",
          "type": "address"
        },
        {
          "internalType": "uint256",
          "name": "subtractedValue",
          "type": "uint256"
        }
      ],
      "name": "decreaseAllowance",
      "outputs": [
        {
          "internalType": "bool",
          "name": "",
          "type": "bool"
        }
      ],
      "stateMutability": "nonpayable",
      "type": "function"
    },
    {
      "inputs": [
        {
          "internalType": "address",
          "name": "spender",
          "type": "address"
        },
        {
          "internalType": "uint256",
          "name": "addedValue",
          "type": "uint256"
        }
      ],
      "name": "increaseAllowance",
      "outputs": [
        {
          "internalType": "bool",
          "name": "",
          "type": "bool"
        }
      ],
      "stateMutability": "nonpayable",
      "type": "function"
    },
    {
      "inputs": [],
      "name": "name",
      "outputs": [
        {
          "internalType": "string",
          "name": "",
          "type": "string"
        }
      ],
      "stateMutability": "view",
      "type": "function",
      "constant": true
    },
    {
      "inputs": [],
      "name": "owner",
      "outputs": [
        {
          "internalType": "address",
          "name": "",
          "type": "address"
        }
      ],
      "stateMutability": "view",
      "type": "function",
      "constant": true
    },
    {
      "inputs": [],
      "name": "renounceOwnership",
      "outputs": [],
      "stateMutability": "nonpayable",
      "type": "function"
    },
    {
      "inputs": [],
      "name": "symbol",
      "outputs": [
        {
          "internalType": "string",
          "name": "",
          "type": "string"
        }
      ],
      "stateMutability": "view",
      "type": "function",
      "constant": true
    },
    {
      "inputs": [],
      "name": "totalSupply",
      "outputs": [
        {
          "internalType": "uint256",
          "name": "",
          "type": "uint256"
        }
      ],
      "stateMutability": "view",
      "type": "function",
      "constant": true
    },
    {
      "inputs": [
        {
          "internalType": "address",
          "name": "recipient",
          "type": "address"
        },
        {
          "internalType": "uint256",
          "name": "amount",
          "type": "uint256"
        }
      ],
      "name": "transfer",
      "outputs": [
        {
          "internalType": "bool",
          "name": "",
          "type": "bool"
        }
      ],
      "stateMutability": "nonpayable",
      "type": "function"
    },
    {
      "inputs": [
        {
          "internalType": "address",
          "name": "sender",
          "type": "address"
        },
        {
          "internalType": "address",
          "name": "recipient",
          "type": "address"
        },
        {
          "internalType": "uint256",
          "name": "amount",
          "type": "uint256"
        }
      ],
      "name": "transferFrom",
      "outputs": [
        {
          "internalType": "bool",
          "name": "",
          "type": "bool"
        }
      ],
      "stateMutability": "nonpayable",
      "type": "function"
    },
    {
      "inputs": [
        {
          "internalType": "address",
          "name": "newOwner",
          "type": "address"
        }
      ],
      "name": "transferOwnership",
      "outputs": [],
      "stateMutability": "nonpayable",
      "type": "function"
    },
    {
      "inputs": [
        {
          "internalType": "address",
          "name": "staker",
          "type": "address"
        }
      ],
      "name": "isStakerHolder",
      "outputs": [
        {
          "internalType": "bool",
          "name": "",
          "type": "bool"
        },
        {
          "internalType": "uint256",
          "name": "",
          "type": "uint256"
        }
      ],
      "stateMutability": "view",
      "type": "function",
      "constant": true
    },
    {
      "inputs": [
        {
          "internalType": "address",
          "name": "staker",
          "type": "address"
        }
      ],
      "name": "addStakeHolder",
      "outputs": [],
      "stateMutability": "nonpayable",
      "type": "function"
    },
    {
      "inputs": [
        {
          "internalType": "address",
          "name": "staker",
          "type": "address"
        }
      ],
      "name": "removeStakeHolder",
      "outputs": [],
      "stateMutability": "nonpayable",
      "type": "function"
    },
    {
      "inputs": [
        {
          "internalType": "address",
          "name": "staker",
          "type": "address"
        }
      ],
      "name": "stakeOf",
      "outputs": [
        {
          "internalType": "uint256",
          "name": "",
          "type": "uint256"
        }
      ],
      "stateMutability": "view",
      "type": "function",
      "constant": true
    },
    {
      "inputs": [],
      "name": "totalStakes",
      "outputs": [
        {
          "internalType": "uint256",
          "name": "",
          "type": "uint256"
        }
      ],
      "stateMutability": "view",
      "type": "function",
      "constant": true
    },
    {
      "inputs": [
        {
          "internalType": "uint256",
          "name": "stake_amount",
          "type": "uint256"
        }
      ],
      "name": "createStake",
      "outputs": [],
      "stateMutability": "nonpayable",
      "type": "function"
    },
    {
      "inputs": [
        {
          "internalType": "uint256",
          "name": "stake_amount",
          "type": "uint256"
        }
      ],
      "name": "removeStake",
      "outputs": [],
      "stateMutability": "nonpayable",
      "type": "function"
    },
    {
      "inputs": [
        {
          "internalType": "address",
          "name": "_stakerHolder",
          "type": "address"
        }
      ],
      "name": "rewardOf",
      "outputs": [
        {
          "internalType": "uint256",
          "name": "",
          "type": "uint256"
        }
      ],
      "stateMutability": "view",
      "type": "function",
      "constant": true
    },
    {
      "inputs": [],
      "name": "totalReward",
      "outputs": [
        {
          "internalType": "uint256",
          "name": "",
          "type": "uint256"
        }
      ],
      "stateMutability": "view",
      "type": "function",
      "constant": true
    },
    {
      "inputs": [
        {
          "internalType": "address",
          "name": "_stakerHolder",
          "type": "address"
        }
      ],
      "name": "calculateReward",
      "outputs": [
        {
          "internalType": "uint256",
          "name": "",
          "type": "uint256"
        }
      ],
      "stateMutability": "view",
      "type": "function",
      "constant": true
    },
    {
      "inputs": [],
      "name": "distributeReward",
      "outputs": [],
      "stateMutability": "nonpayable",
      "type": "function"
    },
    {
      "inputs": [],
      "name": "withdrawReward",
      "outputs": [],
      "stateMutability": "nonpayable",
      "type": "function"
    }
  ],
  "bytecode": "0x60806040523480156200001157600080fd5b506040518060400160405280600481526020017f436f696e000000000000000000000000000000000000000000000000000000008152506040518060400160405280600381526020017f4343430000000000000000000000000000000000000000000000000000000000815250816003908051906020019062000096929190620001a6565b508060049080519060200190620000af929190620001a6565b505050620000d2620000c6620000d860201b60201c565b620000e060201b60201c565b620002bb565b600033905090565b6000600560009054906101000a900473ffffffffffffffffffffffffffffffffffffffff16905081600560006101000a81548173ffffffffffffffffffffffffffffffffffffffff021916908373ffffffffffffffffffffffffffffffffffffffff1602179055508173ffffffffffffffffffffffffffffffffffffffff168173ffffffffffffffffffffffffffffffffffffffff167f8be0079c531659141344cd1fd0a4f28419497f9722a3daafe3b4186f6b6457e060405160405180910390a35050565b828054620001b49062000256565b90600052602060002090601f016020900481019282620001d8576000855562000224565b82601f10620001f357805160ff191683800117855562000224565b8280016001018555821562000224579182015b828111156200022357825182559160200191906001019062000206565b5b50905062000233919062000237565b5090565b5b808211156200025257600081600090555060010162000238565b5090565b600060028204905060018216806200026f57607f821691505b602082108114156200028657620002856200028c565b5b50919050565b7f4e487b7100000000000000000000000000000000000000000000000000000000600052602260045260246000fd5b61288e80620002cb6000396000f3fe608060405234801561001057600080fd5b506004361061018e5760003560e01c8063750142e6116100de578063a9059cbb11610097578063d82e396211610071578063d82e396214610473578063dd62ed3e146104a3578063f2fde38b146104d3578063f4fff57c146104ef5761018e565b8063a9059cbb1461041b578063bf9befb11461044b578063c885bc58146104695761018e565b8063750142e61461036b5780638da5cb5b146103895780638f73c5ae146103a7578063939624ab146103b157806395d89b41146103cd578063a457c2d7146103eb5761018e565b806323b872dd1161014b578063426233601161012557806342623360146102e557806345f412b01461031557806370a0823114610331578063715018a6146103615761018e565b806323b872dd14610267578063313ce5671461029757806339509351146102b55761018e565b806306fdde0314610193578063095ea7b3146101b157806311a76f37146101e157806318160ddd146101fd5780631bf6ddae1461021b5780631d62ebd914610237575b600080fd5b61019b610520565b6040516101a89190612423565b60405180910390f35b6101cb60048036038101906101c69190611e6e565b6105b2565b6040516101d891906123df565b60405180910390f35b6101fb60048036038101906101f69190611dba565b6105d0565b005b61020561064b565b60405161021291906125c5565b60405180910390f35b61023560048036038101906102309190611eaa565b610655565b005b610251600480360381019061024c9190611dba565b610742565b60405161025e91906125c5565b60405180910390f35b610281600480360381019061027c9190611e1f565b61078b565b60405161028e91906123df565b60405180910390f35b61029f610883565b6040516102ac91906125e0565b60405180910390f35b6102cf60048036038101906102ca9190611e6e565b61088c565b6040516102dc91906123df565b60405180910390f35b6102ff60048036038101906102fa9190611dba565b610938565b60405161030c91906125c5565b60405180910390f35b61032f600480360381019061032a9190611dba565b610981565b005b61034b60048036038101906103469190611dba565b610b02565b60405161035891906125c5565b60405180910390f35b610369610b4a565b005b610373610bd2565b60405161038091906125c5565b60405180910390f35b610391610cc1565b60405161039e91906123c4565b60405180910390f35b6103af610ceb565b005b6103cb60048036038101906103c69190611eaa565b610e94565b005b6103d5610f81565b6040516103e29190612423565b60405180910390f35b61040560048036038101906104009190611e6e565b611013565b60405161041291906123df565b60405180910390f35b61043560048036038101906104309190611e6e565b6110fe565b60405161044291906123df565b60405180910390f35b61045361111c565b60405161046091906125c5565b60405180910390f35b610471611200565b005b61048d60048036038101906104889190611dba565b611296565b60405161049a91906125c5565b60405180910390f35b6104bd60048036038101906104b89190611de3565b6112eb565b6040516104ca91906125c5565b60405180910390f35b6104ed60048036038101906104e89190611dba565b611372565b005b61050960048036038101906105049190611dba565b61146a565b6040516105179291906123fa565b60405180910390f35b60606003805461052f9061275a565b80601f016020809104026020016040519081016040528092919081815260200182805461055b9061275a565b80156105a85780601f1061057d576101008083540402835291602001916105a8565b820191906000526020600020905b81548152906001019060200180831161058b57829003601f168201915b5050505050905090565b60006105c66105bf611535565b848461153d565b6001905092915050565b60006105db8261146a565b50905080610647576006829080600181540180825580915050600190039060005260206000200160009091909190916101000a81548173ffffffffffffffffffffffffffffffffffffffff021916908373ffffffffffffffffffffffffffffffffffffffff1602179055505b5050565b6000600254905090565b61065f3382611708565b6000600760003373ffffffffffffffffffffffffffffffffffffffff1673ffffffffffffffffffffffffffffffffffffffff1681526020019081526020016000205414156106b1576106b0336105d0565b5b80600760003373ffffffffffffffffffffffffffffffffffffffff1673ffffffffffffffffffffffffffffffffffffffff168152602001908152602001600020546106fc9190612617565b600760003373ffffffffffffffffffffffffffffffffffffffff1673ffffffffffffffffffffffffffffffffffffffff1681526020019081526020016000208190555050565b6000600860008373ffffffffffffffffffffffffffffffffffffffff1673ffffffffffffffffffffffffffffffffffffffff168152602001908152602001600020549050919050565b60006107988484846118df565b6000600160008673ffffffffffffffffffffffffffffffffffffffff1673ffffffffffffffffffffffffffffffffffffffff16815260200190815260200160002060006107e3611535565b73ffffffffffffffffffffffffffffffffffffffff1673ffffffffffffffffffffffffffffffffffffffff16815260200190815260200160002054905082811015610863576040517f08c379a000000000000000000000000000000000000000000000000000000000815260040161085a906124e5565b60405180910390fd5b6108778561086f611535565b85840361153d565b60019150509392505050565b60006012905090565b600061092e610899611535565b8484600160006108a7611535565b73ffffffffffffffffffffffffffffffffffffffff1673ffffffffffffffffffffffffffffffffffffffff16815260200190815260200160002060008873ffffffffffffffffffffffffffffffffffffffff1673ffffffffffffffffffffffffffffffffffffffff168152602001908152602001600020546109299190612617565b61153d565b6001905092915050565b6000600760008373ffffffffffffffffffffffffffffffffffffffff1673ffffffffffffffffffffffffffffffffffffffff168152602001908152602001600020549050919050565b60008061098d8361146a565b915091508115610afd57600660016006805490506109ab919061269e565b815481106109e2577f4e487b7100000000000000000000000000000000000000000000000000000000600052603260045260246000fd5b9060005260206000200160009054906101000a900473ffffffffffffffffffffffffffffffffffffffff1660068281548110610a47577f4e487b7100000000000000000000000000000000000000000000000000000000600052603260045260246000fd5b9060005260206000200160006101000a81548173ffffffffffffffffffffffffffffffffffffffff021916908373ffffffffffffffffffffffffffffffffffffffff1602179055506006805480610ac7577f4e487b7100000000000000000000000000000000000000000000000000000000600052603160045260246000fd5b6001900381819060005260206000200160006101000a81549073ffffffffffffffffffffffffffffffffffffffff021916905590555b505050565b60008060008373ffffffffffffffffffffffffffffffffffffffff1673ffffffffffffffffffffffffffffffffffffffff168152602001908152602001600020549050919050565b610b52611535565b73ffffffffffffffffffffffffffffffffffffffff16610b70610cc1565b73ffffffffffffffffffffffffffffffffffffffff1614610bc6576040517f08c379a0000000000000000000000000000000000000000000000000000000008152600401610bbd90612505565b60405180910390fd5b610bd06000611b60565b565b6000806000905060005b600680549050811015610cb9576008600060068381548110610c27577f4e487b7100000000000000000000000000000000000000000000000000000000600052603260045260246000fd5b9060005260206000200160009054906101000a900473ffffffffffffffffffffffffffffffffffffffff1673ffffffffffffffffffffffffffffffffffffffff1673ffffffffffffffffffffffffffffffffffffffff1681526020019081526020016000205482610c989190612617565b82610ca39190612617565b9150600181610cb29190612617565b9050610bdc565b508091505090565b6000600560009054906101000a900473ffffffffffffffffffffffffffffffffffffffff16905090565b610cf3611535565b73ffffffffffffffffffffffffffffffffffffffff16610d11610cc1565b73ffffffffffffffffffffffffffffffffffffffff1614610d67576040517f08c379a0000000000000000000000000000000000000000000000000000000008152600401610d5e90612505565b60405180910390fd5b60005b600680549050811015610e9157600060068281548110610db3577f4e487b7100000000000000000000000000000000000000000000000000000000600052603260045260246000fd5b9060005260206000200160009054906101000a900473ffffffffffffffffffffffffffffffffffffffff1690506000610deb82611296565b905080600860008473ffffffffffffffffffffffffffffffffffffffff1673ffffffffffffffffffffffffffffffffffffffff16815260200190815260200160002054610e389190612617565b600860008473ffffffffffffffffffffffffffffffffffffffff1673ffffffffffffffffffffffffffffffffffffffff168152602001908152602001600020819055505050600181610e8a9190612617565b9050610d6a565b50565b80600760003373ffffffffffffffffffffffffffffffffffffffff1673ffffffffffffffffffffffffffffffffffffffff16815260200190815260200160002054610edf919061269e565b600760003373ffffffffffffffffffffffffffffffffffffffff1673ffffffffffffffffffffffffffffffffffffffff168152602001908152602001600020819055506000600760003373ffffffffffffffffffffffffffffffffffffffff1673ffffffffffffffffffffffffffffffffffffffff168152602001908152602001600020541415610f7457610f7333610981565b5b610f7e3382611c26565b50565b606060048054610f909061275a565b80601f0160208091040260200160405190810160405280929190818152602001828054610fbc9061275a565b80156110095780601f10610fde57610100808354040283529160200191611009565b820191906000526020600020905b815481529060010190602001808311610fec57829003601f168201915b5050505050905090565b60008060016000611022611535565b73ffffffffffffffffffffffffffffffffffffffff1673ffffffffffffffffffffffffffffffffffffffff16815260200190815260200160002060008573ffffffffffffffffffffffffffffffffffffffff1673ffffffffffffffffffffffffffffffffffffffff168152602001908152602001600020549050828110156110df576040517f08c379a00000000000000000000000000000000000000000000000000000000081526004016110d690612585565b60405180910390fd5b6110f36110ea611535565b8585840361153d565b600191505092915050565b600061111261110b611535565b84846118df565b6001905092915050565b6000806000905060005b6006805490508110156111f8576007600060068381548110611171577f4e487b7100000000000000000000000000000000000000000000000000000000600052603260045260246000fd5b9060005260206000200160009054906101000a900473ffffffffffffffffffffffffffffffffffffffff1673ffffffffffffffffffffffffffffffffffffffff1673ffffffffffffffffffffffffffffffffffffffff16815260200190815260200160002054826111e29190612617565b91506001816111f19190612617565b9050611126565b508091505090565b6000600860003373ffffffffffffffffffffffffffffffffffffffff1673ffffffffffffffffffffffffffffffffffffffff1681526020019081526020016000205490506000600860003373ffffffffffffffffffffffffffffffffffffffff1673ffffffffffffffffffffffffffffffffffffffff168152602001908152602001600020819055506112933382611c26565b50565b60006064600760008473ffffffffffffffffffffffffffffffffffffffff1673ffffffffffffffffffffffffffffffffffffffff168152602001908152602001600020546112e4919061266d565b9050919050565b6000600160008473ffffffffffffffffffffffffffffffffffffffff1673ffffffffffffffffffffffffffffffffffffffff16815260200190815260200160002060008373ffffffffffffffffffffffffffffffffffffffff1673ffffffffffffffffffffffffffffffffffffffff16815260200190815260200160002054905092915050565b61137a611535565b73ffffffffffffffffffffffffffffffffffffffff16611398610cc1565b73ffffffffffffffffffffffffffffffffffffffff16146113ee576040517f08c379a00000000000000000000000000000000000000000000000000000000081526004016113e590612505565b60405180910390fd5b600073ffffffffffffffffffffffffffffffffffffffff168173ffffffffffffffffffffffffffffffffffffffff16141561145e576040517f08c379a000000000000000000000000000000000000000000000000000000000815260040161145590612485565b60405180910390fd5b61146781611b60565b50565b600080600060068054905081101561152e57600681815481106114b6577f4e487b7100000000000000000000000000000000000000000000000000000000600052603260045260246000fd5b9060005260206000200160009054906101000a900473ffffffffffffffffffffffffffffffffffffffff1673ffffffffffffffffffffffffffffffffffffffff168473ffffffffffffffffffffffffffffffffffffffff161415611521576001819250925050611530565b6000809250925050611530565b505b915091565b600033905090565b600073ffffffffffffffffffffffffffffffffffffffff168373ffffffffffffffffffffffffffffffffffffffff1614156115ad576040517f08c379a00000000000000000000000000000000000000000000000000000000081526004016115a490612565565b60405180910390fd5b600073ffffffffffffffffffffffffffffffffffffffff168273ffffffffffffffffffffffffffffffffffffffff16141561161d576040517f08c379a0000000000000000000000000000000000000000000000000000000008152600401611614906124a5565b60405180910390fd5b80600160008573ffffffffffffffffffffffffffffffffffffffff1673ffffffffffffffffffffffffffffffffffffffff16815260200190815260200160002060008473ffffffffffffffffffffffffffffffffffffffff1673ffffffffffffffffffffffffffffffffffffffff168152602001908152602001600020819055508173ffffffffffffffffffffffffffffffffffffffff168373ffffffffffffffffffffffffffffffffffffffff167f8c5be1e5ebec7d5bd14f71427d1e84f3dd0314c0f7b2291e5b200ac8c7c3b925836040516116fb91906125c5565b60405180910390a3505050565b600073ffffffffffffffffffffffffffffffffffffffff168273ffffffffffffffffffffffffffffffffffffffff161415611778576040517f08c379a000000000000000000000000000000000000000000000000000000000815260040161176f90612525565b60405180910390fd5b61178482600083611d86565b60008060008473ffffffffffffffffffffffffffffffffffffffff1673ffffffffffffffffffffffffffffffffffffffff1681526020019081526020016000205490508181101561180a576040517f08c379a000000000000000000000000000000000000000000000000000000000815260040161180190612465565b60405180910390fd5b8181036000808573ffffffffffffffffffffffffffffffffffffffff1673ffffffffffffffffffffffffffffffffffffffff168152602001908152602001600020819055508160026000828254611861919061269e565b92505081905550600073ffffffffffffffffffffffffffffffffffffffff168373ffffffffffffffffffffffffffffffffffffffff167fddf252ad1be2c89b69c2b068fc378daa952ba7f163c4a11628f55a4df523b3ef846040516118c691906125c5565b60405180910390a36118da83600084611d8b565b505050565b600073ffffffffffffffffffffffffffffffffffffffff168373ffffffffffffffffffffffffffffffffffffffff16141561194f576040517f08c379a000000000000000000000000000000000000000000000000000000000815260040161194690612545565b60405180910390fd5b600073ffffffffffffffffffffffffffffffffffffffff168273ffffffffffffffffffffffffffffffffffffffff1614156119bf576040517f08c379a00000000000000000000000000000000000000000000000000000000081526004016119b690612445565b60405180910390fd5b6119ca838383611d86565b60008060008573ffffffffffffffffffffffffffffffffffffffff1673ffffffffffffffffffffffffffffffffffffffff16815260200190815260200160002054905081811015611a50576040517f08c379a0000000000000000000000000000000000000000000000000000000008152600401611a47906124c5565b60405180910390fd5b8181036000808673ffffffffffffffffffffffffffffffffffffffff1673ffffffffffffffffffffffffffffffffffffffff16815260200190815260200160002081905550816000808573ffffffffffffffffffffffffffffffffffffffff1673ffffffffffffffffffffffffffffffffffffffff1681526020019081526020016000206000828254611ae39190612617565b925050819055508273ffffffffffffffffffffffffffffffffffffffff168473ffffffffffffffffffffffffffffffffffffffff167fddf252ad1be2c89b69c2b068fc378daa952ba7f163c4a11628f55a4df523b3ef84604051611b4791906125c5565b60405180910390a3611b5a848484611d8b565b50505050565b6000600560009054906101000a900473ffffffffffffffffffffffffffffffffffffffff16905081600560006101000a81548173ffffffffffffffffffffffffffffffffffffffff021916908373ffffffffffffffffffffffffffffffffffffffff1602179055508173ffffffffffffffffffffffffffffffffffffffff168173ffffffffffffffffffffffffffffffffffffffff167f8be0079c531659141344cd1fd0a4f28419497f9722a3daafe3b4186f6b6457e060405160405180910390a35050565b600073ffffffffffffffffffffffffffffffffffffffff168273ffffffffffffffffffffffffffffffffffffffff161415611c96576040517f08c379a0000000000000000000000000000000000000000000000000000000008152600401611c8d906125a5565b60405180910390fd5b611ca260008383611d86565b8060026000828254611cb49190612617565b92505081905550806000808473ffffffffffffffffffffffffffffffffffffffff1673ffffffffffffffffffffffffffffffffffffffff1681526020019081526020016000206000828254611d099190612617565b925050819055508173ffffffffffffffffffffffffffffffffffffffff16600073ffffffffffffffffffffffffffffffffffffffff167fddf252ad1be2c89b69c2b068fc378daa952ba7f163c4a11628f55a4df523b3ef83604051611d6e91906125c5565b60405180910390a3611d8260008383611d8b565b5050565b505050565b505050565b600081359050611d9f8161282a565b92915050565b600081359050611db481612841565b92915050565b600060208284031215611dcc57600080fd5b6000611dda84828501611d90565b91505092915050565b60008060408385031215611df657600080fd5b6000611e0485828601611d90565b9250506020611e1585828601611d90565b9150509250929050565b600080600060608486031215611e3457600080fd5b6000611e4286828701611d90565b9350506020611e5386828701611d90565b9250506040611e6486828701611da5565b9150509250925092565b60008060408385031215611e8157600080fd5b6000611e8f85828601611d90565b9250506020611ea085828601611da5565b9150509250929050565b600060208284031215611ebc57600080fd5b6000611eca84828501611da5565b91505092915050565b611edc816126d2565b82525050565b611eeb816126e4565b82525050565b6000611efc826125fb565b611f068185612606565b9350611f16818560208601612727565b611f1f81612819565b840191505092915050565b6000611f37602383612606565b91507f45524332303a207472616e7366657220746f20746865207a65726f206164647260008301527f65737300000000000000000000000000000000000000000000000000000000006020830152604082019050919050565b6000611f9d602283612606565b91507f45524332303a206275726e20616d6f756e7420657863656564732062616c616e60008301527f63650000000000000000000000000000000000000000000000000000000000006020830152604082019050919050565b6000612003602683612606565b91507f4f776e61626c653a206e6577206f776e657220697320746865207a65726f206160008301527f64647265737300000000000000000000000000000000000000000000000000006020830152604082019050919050565b6000612069602283612606565b91507f45524332303a20617070726f766520746f20746865207a65726f20616464726560008301527f73730000000000000000000000000000000000000000000000000000000000006020830152604082019050919050565b60006120cf602683612606565b91507f45524332303a207472616e7366657220616d6f756e742065786365656473206260008301527f616c616e636500000000000000000000000000000000000000000000000000006020830152604082019050919050565b6000612135602883612606565b91507f45524332303a207472616e7366657220616d6f756e742065786365656473206160008301527f6c6c6f77616e63650000000000000000000000000000000000000000000000006020830152604082019050919050565b600061219b602083612606565b91507f4f776e61626c653a2063616c6c6572206973206e6f7420746865206f776e65726000830152602082019050919050565b60006121db602183612606565b91507f45524332303a206275726e2066726f6d20746865207a65726f2061646472657360008301527f73000000000000000000000000000000000000000000000000000000000000006020830152604082019050919050565b6000612241602583612606565b91507f45524332303a207472616e736665722066726f6d20746865207a65726f20616460008301527f64726573730000000000000000000000000000000000000000000000000000006020830152604082019050919050565b60006122a7602483612606565b91507f45524332303a20617070726f76652066726f6d20746865207a65726f2061646460008301527f72657373000000000000000000000000000000000000000000000000000000006020830152604082019050919050565b600061230d602583612606565b91507f45524332303a2064656372656173656420616c6c6f77616e63652062656c6f7760008301527f207a65726f0000000000000000000000000000000000000000000000000000006020830152604082019050919050565b6000612373601f83612606565b91507f45524332303a206d696e7420746f20746865207a65726f2061646472657373006000830152602082019050919050565b6123af81612710565b82525050565b6123be8161271a565b82525050565b60006020820190506123d96000830184611ed3565b92915050565b60006020820190506123f46000830184611ee2565b92915050565b600060408201905061240f6000830185611ee2565b61241c60208301846123a6565b9392505050565b6000602082019050818103600083015261243d8184611ef1565b905092915050565b6000602082019050818103600083015261245e81611f2a565b9050919050565b6000602082019050818103600083015261247e81611f90565b9050919050565b6000602082019050818103600083015261249e81611ff6565b9050919050565b600060208201905081810360008301526124be8161205c565b9050919050565b600060208201905081810360008301526124de816120c2565b9050919050565b600060208201905081810360008301526124fe81612128565b9050919050565b6000602082019050818103600083015261251e8161218e565b9050919050565b6000602082019050818103600083015261253e816121ce565b9050919050565b6000602082019050818103600083015261255e81612234565b9050919050565b6000602082019050818103600083015261257e8161229a565b9050919050565b6000602082019050818103600083015261259e81612300565b9050919050565b600060208201905081810360008301526125be81612366565b9050919050565b60006020820190506125da60008301846123a6565b92915050565b60006020820190506125f560008301846123b5565b92915050565b600081519050919050565b600082825260208201905092915050565b600061262282612710565b915061262d83612710565b9250827fffffffffffffffffffffffffffffffffffffffffffffffffffffffffffffffff038211156126625761266161278c565b5b828201905092915050565b600061267882612710565b915061268383612710565b925082612693576126926127bb565b5b828204905092915050565b60006126a982612710565b91506126b483612710565b9250828210156126c7576126c661278c565b5b828203905092915050565b60006126dd826126f0565b9050919050565b60008115159050919050565b600073ffffffffffffffffffffffffffffffffffffffff82169050919050565b6000819050919050565b600060ff82169050919050565b60005b8381101561274557808201518184015260208101905061272a565b83811115612754576000848401525b50505050565b6000600282049050600182168061277257607f821691505b60208210811415612786576127856127ea565b5b50919050565b7f4e487b7100000000000000000000000000000000000000000000000000000000600052601160045260246000fd5b7f4e487b7100000000000000000000000000000000000000000000000000000000600052601260045260246000fd5b7f4e487b7100000000000000000000000000000000000000000000000000000000600052602260045260246000fd5b6000601f19601f8301169050919050565b612833816126d2565b811461283e57600080fd5b50565b61284a81612710565b811461285557600080fd5b5056fea2646970667358221220471b3beec0ee1f62960ef3b0a7cdf614c70647c60d5869d1493df9187485f37164736f6c63430008000033",
  "immutableReferences": {},
  "source": "// SPDX-License-Identifier: MIT\n\n// pragma solidity ^0.5.17;\npragma solidity ^0.8.0;\n\nimport \"@openzeppelin/contracts/token/ERC20/ERC20.sol\";\n// import \"@openzeppelin/contracts/utils/math/Math.sol\";\nimport \"@openzeppelin/contracts/access/Ownable.sol\";\n\ncontract Staker is ERC20, Ownable {\n    address[] stakerHolders;\n\n    mapping(address => uint256) stakes;\n    mapping(address => uint256) rewards;\n\n    constructor() public ERC20(\"Coin\", \"CCC\") {}\n\n    function isStakerHolder(address staker)\n        public\n        view\n        returns (bool, uint256)\n    {\n        for (uint256 i = 0; i < stakerHolders.length; i += 1) {\n            if (staker == stakerHolders[i]) {\n                return (true, i);\n            }\n            return (false, 0);\n        }\n    }\n\n    function addStakeHolder(address staker) public {\n        (bool _staker, ) = isStakerHolder(staker);\n        if (!_staker) {\n            stakerHolders.push(staker);\n        }\n    }\n\n    function removeStakeHolder(address staker) public {\n        (bool _staker, uint256 i) = isStakerHolder(staker);\n        if (_staker) {\n            stakerHolders[i] = stakerHolders[stakerHolders.length - 1];\n            stakerHolders.pop();\n        }\n    }\n\n    function stakeOf(address staker) public view returns (uint256) {\n        return (stakes[staker]);\n    }\n\n    function totalStakes() public view returns (uint256) {\n        uint256 _totalStakes = 0;\n\n        for (uint256 i = 0; i < stakerHolders.length; i += 1) {\n            _totalStakes = _totalStakes + stakes[stakerHolders[i]];\n        }\n        return _totalStakes;\n    }\n\n    function createStake(uint256 stake_amount) public {\n        _burn(msg.sender, stake_amount);\n        if (stakes[msg.sender] == 0) addStakeHolder(msg.sender);\n        stakes[msg.sender] = stakes[msg.sender] + stake_amount;\n    }\n\n    function removeStake(uint256 stake_amount) public {\n        stakes[msg.sender] = stakes[msg.sender] - stake_amount;\n        if (stakes[msg.sender] == 0) removeStakeHolder(msg.sender);\n        _mint(msg.sender, stake_amount);\n    }\n\n    function rewardOf(address _stakerHolder) public view returns (uint256) {\n        return (rewards[_stakerHolder]);\n    }\n\n    function totalReward() public view returns (uint256) {\n        uint256 _totalReward = 0;\n\n        for (uint256 i = 0; i < stakerHolders.length; i += 1) {\n            _totalReward += _totalReward + rewards[stakerHolders[i]];\n        }\n        return _totalReward;\n    }\n\n    function calculateReward(address _stakerHolder)\n        public\n        view\n        returns (uint256)\n    {\n        return stakes[_stakerHolder] / 100;\n    }\n\n    function distributeReward() public onlyOwner {\n        for (uint256 i = 0; i < stakerHolders.length; i += 1) {\n            address stakerHolder = stakerHolders[i];\n            uint256 reward = calculateReward(stakerHolder);\n            rewards[stakerHolder] = rewards[stakerHolder] + reward;\n        }\n    }\n\n    function withdrawReward() public {\n        uint256 reward = rewards[msg.sender];\n        rewards[msg.sender] = 0;\n        _mint(msg.sender, reward);\n    }\n}\n",
  "sourcePath": "/home/dell/Desktop/BlockChain/Ethereum/Staker/contracts/Staker.sol",
  "compiler": {
    "name": "solc",
    "version": "0.8.0+commit.c7dfd78e.Emscripten.clang"
  },
  "schemaVersion": "3.4.2",
  "updatedAt": "2021-10-25T11:50:02.387Z",
  "networkType": "ethereum",
  "devdoc": {
    "kind": "dev",
    "methods": {
      "allowance(address,address)": {
        "details": "See {IERC20-allowance}."
      },
      "approve(address,uint256)": {
        "details": "See {IERC20-approve}. Requirements: - `spender` cannot be the zero address."
      },
      "balanceOf(address)": {
        "details": "See {IERC20-balanceOf}."
      },
      "decimals()": {
        "details": "Returns the number of decimals used to get its user representation. For example, if `decimals` equals `2`, a balance of `505` tokens should be displayed to a user as `5.05` (`505 / 10 ** 2`). Tokens usually opt for a value of 18, imitating the relationship between Ether and Wei. This is the value {ERC20} uses, unless this function is overridden; NOTE: This information is only used for _display_ purposes: it in no way affects any of the arithmetic of the contract, including {IERC20-balanceOf} and {IERC20-transfer}."
      },
      "decreaseAllowance(address,uint256)": {
        "details": "Atomically decreases the allowance granted to `spender` by the caller. This is an alternative to {approve} that can be used as a mitigation for problems described in {IERC20-approve}. Emits an {Approval} event indicating the updated allowance. Requirements: - `spender` cannot be the zero address. - `spender` must have allowance for the caller of at least `subtractedValue`."
      },
      "increaseAllowance(address,uint256)": {
        "details": "Atomically increases the allowance granted to `spender` by the caller. This is an alternative to {approve} that can be used as a mitigation for problems described in {IERC20-approve}. Emits an {Approval} event indicating the updated allowance. Requirements: - `spender` cannot be the zero address."
      },
      "name()": {
        "details": "Returns the name of the token."
      },
      "owner()": {
        "details": "Returns the address of the current owner."
      },
      "renounceOwnership()": {
        "details": "Leaves the contract without owner. It will not be possible to call `onlyOwner` functions anymore. Can only be called by the current owner. NOTE: Renouncing ownership will leave the contract without an owner, thereby removing any functionality that is only available to the owner."
      },
      "symbol()": {
        "details": "Returns the symbol of the token, usually a shorter version of the name."
      },
      "totalSupply()": {
        "details": "See {IERC20-totalSupply}."
      },
      "transfer(address,uint256)": {
        "details": "See {IERC20-transfer}. Requirements: - `recipient` cannot be the zero address. - the caller must have a balance of at least `amount`."
      },
      "transferFrom(address,address,uint256)": {
        "details": "See {IERC20-transferFrom}. Emits an {Approval} event indicating the updated allowance. This is not required by the EIP. See the note at the beginning of {ERC20}. Requirements: - `sender` and `recipient` cannot be the zero address. - `sender` must have a balance of at least `amount`. - the caller must have allowance for ``sender``'s tokens of at least `amount`."
      },
      "transferOwnership(address)": {
        "details": "Transfers ownership of the contract to a new account (`newOwner`). Can only be called by the current owner."
      }
    },
    "version": 1
  },
  "userdoc": {
    "kind": "user",
    "methods": {},
    "version": 1
  }
}