{
  "contractName": "AdminManager",
  "abi": [
    {
      "inputs": [
        {
          "internalType": "address",
          "name": "_broker",
          "type": "address"
        }
      ],
      "payable": false,
      "stateMutability": "nonpayable",
      "type": "constructor"
    },
    {
      "anonymous": false,
      "inputs": [
        {
          "indexed": true,
          "internalType": "address",
          "name": "admin",
          "type": "address"
        },
        {
          "indexed": true,
          "internalType": "address",
          "name": "contractAddress",
          "type": "address"
        },
        {
          "indexed": true,
          "internalType": "string",
          "name": "functionName",
          "type": "string"
        },
        {
          "indexed": false,
          "internalType": "address",
          "name": "collectionAddress",
          "type": "address"
        },
        {
          "indexed": false,
          "internalType": "uint256",
          "name": "tokenId",
          "type": "uint256"
        }
      ],
      "name": "AdminActionPerformed",
      "type": "event"
    },
    {
      "anonymous": false,
      "inputs": [
        {
          "indexed": false,
          "internalType": "address",
          "name": "admin",
          "type": "address"
        },
        {
          "indexed": false,
          "internalType": "uint256",
          "name": "time",
          "type": "uint256"
        }
      ],
      "name": "AdminAdded",
      "type": "event"
    },
    {
      "anonymous": false,
      "inputs": [
        {
          "indexed": false,
          "internalType": "address",
          "name": "admin",
          "type": "address"
        },
        {
          "indexed": false,
          "internalType": "uint256",
          "name": "time",
          "type": "uint256"
        }
      ],
      "name": "AdminRemoved",
      "type": "event"
    },
    {
      "anonymous": false,
      "inputs": [
        {
          "indexed": true,
          "internalType": "address",
          "name": "collection",
          "type": "address"
        },
        {
          "indexed": true,
          "internalType": "uint256",
          "name": "tokenId",
          "type": "uint256"
        },
        {
          "indexed": true,
          "internalType": "address",
          "name": "admin",
          "type": "address"
        },
        {
          "indexed": false,
          "internalType": "uint256",
          "name": "time",
          "type": "uint256"
        },
        {
          "indexed": false,
          "internalType": "string",
          "name": "tokenURI",
          "type": "string"
        }
      ],
      "name": "NFTBurned",
      "type": "event"
    },
    {
      "anonymous": false,
      "inputs": [
        {
          "indexed": true,
          "internalType": "address",
          "name": "previousOwner",
          "type": "address"
        },
        {
          "indexed": true,
          "internalType": "address",
          "name": "newOwner",
          "type": "address"
        }
      ],
      "name": "OwnershipTransferred",
      "type": "event"
    },
    {
      "payable": true,
      "stateMutability": "payable",
      "type": "fallback"
    },
    {
      "constant": true,
      "inputs": [
        {
          "internalType": "uint256",
          "name": "",
          "type": "uint256"
        }
      ],
      "name": "admins",
      "outputs": [
        {
          "internalType": "address",
          "name": "",
          "type": "address"
        }
      ],
      "payable": false,
      "stateMutability": "view",
      "type": "function"
    },
    {
      "constant": true,
      "inputs": [],
      "name": "isOwner",
      "outputs": [
        {
          "internalType": "bool",
          "name": "",
          "type": "bool"
        }
      ],
      "payable": false,
      "stateMutability": "view",
      "type": "function"
    },
    {
      "constant": false,
      "inputs": [
        {
          "internalType": "address",
          "name": "",
          "type": "address"
        },
        {
          "internalType": "address",
          "name": "",
          "type": "address"
        },
        {
          "internalType": "uint256",
          "name": "",
          "type": "uint256"
        },
        {
          "internalType": "bytes",
          "name": "",
          "type": "bytes"
        }
      ],
      "name": "onERC721Received",
      "outputs": [
        {
          "internalType": "bytes4",
          "name": "",
          "type": "bytes4"
        }
      ],
      "payable": false,
      "stateMutability": "nonpayable",
      "type": "function"
    },
    {
      "constant": true,
      "inputs": [],
      "name": "owner",
      "outputs": [
        {
          "internalType": "address",
          "name": "",
          "type": "address"
        }
      ],
      "payable": false,
      "stateMutability": "view",
      "type": "function"
    },
    {
      "constant": false,
      "inputs": [],
      "name": "renounceOwnership",
      "outputs": [],
      "payable": false,
      "stateMutability": "nonpayable",
      "type": "function"
    },
    {
      "constant": false,
      "inputs": [
        {
          "internalType": "address",
          "name": "newOwner",
          "type": "address"
        }
      ],
      "name": "transferOwnership",
      "outputs": [],
      "payable": false,
      "stateMutability": "nonpayable",
      "type": "function"
    },
    {
      "constant": true,
      "inputs": [
        {
          "internalType": "address",
          "name": "_sender",
          "type": "address"
        }
      ],
      "name": "adminExist",
      "outputs": [
        {
          "internalType": "bool",
          "name": "",
          "type": "bool"
        }
      ],
      "payable": false,
      "stateMutability": "view",
      "type": "function"
    },
    {
      "constant": false,
      "inputs": [
        {
          "internalType": "address",
          "name": "admin",
          "type": "address"
        }
      ],
      "name": "addAdmin",
      "outputs": [],
      "payable": false,
      "stateMutability": "nonpayable",
      "type": "function"
    },
    {
      "constant": true,
      "inputs": [],
      "name": "getAdmins",
      "outputs": [
        {
          "internalType": "address[]",
          "name": "",
          "type": "address[]"
        }
      ],
      "payable": false,
      "stateMutability": "view",
      "type": "function"
    },
    {
      "constant": false,
      "inputs": [
        {
          "internalType": "address",
          "name": "admin",
          "type": "address"
        }
      ],
      "name": "removeAdmin",
      "outputs": [],
      "payable": false,
      "stateMutability": "nonpayable",
      "type": "function"
    },
    {
      "constant": false,
      "inputs": [
        {
          "internalType": "address",
          "name": "collection",
          "type": "address"
        },
        {
          "internalType": "uint256",
          "name": "tokenId",
          "type": "uint256"
        }
      ],
      "name": "burnNFT",
      "outputs": [],
      "payable": false,
      "stateMutability": "nonpayable",
      "type": "function"
    },
    {
      "constant": false,
      "inputs": [
        {
          "internalType": "address",
          "name": "_ERC721Address",
          "type": "address"
        },
        {
          "internalType": "address",
          "name": "_to",
          "type": "address"
        },
        {
          "internalType": "uint256",
          "name": "_tokenId",
          "type": "uint256"
        }
      ],
      "name": "erc721Approve",
      "outputs": [],
      "payable": false,
      "stateMutability": "nonpayable",
      "type": "function"
    },
    {
      "constant": false,
      "inputs": [
        {
          "internalType": "address",
          "name": "_ERC721Address",
          "type": "address"
        },
        {
          "internalType": "address",
          "name": "_to",
          "type": "address"
        },
        {
          "internalType": "uint256",
          "name": "_tokenId",
          "type": "uint256"
        }
      ],
      "name": "erc721Transfer",
      "outputs": [],
      "payable": false,
      "stateMutability": "nonpayable",
      "type": "function"
    },
    {
      "constant": false,
      "inputs": [
        {
          "internalType": "address",
          "name": "_ERC721Address",
          "type": "address"
        },
        {
          "internalType": "uint256",
          "name": "tokenId",
          "type": "uint256"
        }
      ],
      "name": "erc721Burn",
      "outputs": [],
      "payable": false,
      "stateMutability": "nonpayable",
      "type": "function"
    },
    {
      "constant": false,
      "inputs": [
        {
          "internalType": "address",
          "name": "_ERC721Address",
          "type": "address"
        },
        {
          "internalType": "string",
          "name": "tokenURI",
          "type": "string"
        },
        {
          "internalType": "uint256",
          "name": "_royality",
          "type": "uint256"
        }
      ],
      "name": "erc721Mint",
      "outputs": [],
      "payable": false,
      "stateMutability": "nonpayable",
      "type": "function"
    },
    {
      "constant": false,
      "inputs": [
        {
          "internalType": "address",
          "name": "_ERC721Address",
          "type": "address"
        },
        {
          "internalType": "address",
          "name": "from",
          "type": "address"
        },
        {
          "internalType": "address",
          "name": "to",
          "type": "address"
        },
        {
          "internalType": "uint256",
          "name": "tokenId",
          "type": "uint256"
        },
        {
          "internalType": "bytes",
          "name": "_data",
          "type": "bytes"
        }
      ],
      "name": "erc721SafeTransferFrom",
      "outputs": [],
      "payable": false,
      "stateMutability": "nonpayable",
      "type": "function"
    },
    {
      "constant": false,
      "inputs": [
        {
          "internalType": "address",
          "name": "_ERC721Address",
          "type": "address"
        },
        {
          "internalType": "address",
          "name": "from",
          "type": "address"
        },
        {
          "internalType": "address",
          "name": "to",
          "type": "address"
        },
        {
          "internalType": "uint256",
          "name": "tokenId",
          "type": "uint256"
        }
      ],
      "name": "erc721SafeTransferFrom",
      "outputs": [],
      "payable": false,
      "stateMutability": "nonpayable",
      "type": "function"
    },
    {
      "constant": false,
      "inputs": [
        {
          "internalType": "address",
          "name": "_ERC721Address",
          "type": "address"
        },
        {
          "internalType": "address",
          "name": "from",
          "type": "address"
        },
        {
          "internalType": "address",
          "name": "to",
          "type": "address"
        },
        {
          "internalType": "uint256",
          "name": "tokenId",
          "type": "uint256"
        }
      ],
      "name": "erc721TransferFrom",
      "outputs": [],
      "payable": false,
      "stateMutability": "nonpayable",
      "type": "function"
    },
    {
      "constant": false,
      "inputs": [
        {
          "internalType": "uint256",
          "name": "tokenID",
          "type": "uint256"
        },
        {
          "internalType": "address",
          "name": "_mintableToken",
          "type": "address"
        },
        {
          "internalType": "uint256",
          "name": "amount",
          "type": "uint256"
        }
      ],
      "name": "bid",
      "outputs": [],
      "payable": true,
      "stateMutability": "payable",
      "type": "function"
    },
    {
      "constant": false,
      "inputs": [
        {
          "internalType": "uint256",
          "name": "tokenID",
          "type": "uint256"
        },
        {
          "internalType": "address",
          "name": "_mintableToken",
          "type": "address"
        }
      ],
      "name": "collect",
      "outputs": [],
      "payable": false,
      "stateMutability": "nonpayable",
      "type": "function"
    },
    {
      "constant": false,
      "inputs": [
        {
          "internalType": "uint256",
          "name": "tokenID",
          "type": "uint256"
        },
        {
          "internalType": "address",
          "name": "_mintableToken",
          "type": "address"
        }
      ],
      "name": "buy",
      "outputs": [],
      "payable": true,
      "stateMutability": "payable",
      "type": "function"
    },
    {
      "constant": false,
      "inputs": [
        {
          "internalType": "uint256",
          "name": "_tokenID",
          "type": "uint256"
        },
        {
          "internalType": "uint256",
          "name": "_startingPrice",
          "type": "uint256"
        },
        {
          "internalType": "uint256",
          "name": "_auctionType",
          "type": "uint256"
        },
        {
          "internalType": "uint256",
          "name": "_buyPrice",
          "type": "uint256"
        },
        {
          "internalType": "uint256",
          "name": "_duration",
          "type": "uint256"
        },
        {
          "internalType": "address",
          "name": "_mintableToken",
          "type": "address"
        },
        {
          "internalType": "address",
          "name": "_erc20Token",
          "type": "address"
        }
      ],
      "name": "putOnSale",
      "outputs": [],
      "payable": false,
      "stateMutability": "nonpayable",
      "type": "function"
    },
    {
      "constant": false,
      "inputs": [
        {
          "internalType": "uint256",
          "name": "tokenID",
          "type": "uint256"
        },
        {
          "internalType": "address",
          "name": "_mintableToken",
          "type": "address"
        },
        {
          "internalType": "uint256",
          "name": "_newPrice",
          "type": "uint256"
        },
        {
          "internalType": "address",
          "name": "_erc20Token",
          "type": "address"
        }
      ],
      "name": "updatePrice",
      "outputs": [],
      "payable": false,
      "stateMutability": "nonpayable",
      "type": "function"
    },
    {
      "constant": false,
      "inputs": [
        {
          "internalType": "uint256",
          "name": "tokenID",
          "type": "uint256"
        },
        {
          "internalType": "address",
          "name": "_mintableToken",
          "type": "address"
        }
      ],
      "name": "putSaleOff",
      "outputs": [],
      "payable": false,
      "stateMutability": "nonpayable",
      "type": "function"
    },
    {
      "constant": false,
      "inputs": [
        {
          "internalType": "address",
          "name": "_erc20",
          "type": "address"
        },
        {
          "internalType": "address",
          "name": "spender",
          "type": "address"
        },
        {
          "internalType": "uint256",
          "name": "value",
          "type": "uint256"
        }
      ],
      "name": "erc20Approve",
      "outputs": [],
      "payable": false,
      "stateMutability": "nonpayable",
      "type": "function"
    },
    {
      "constant": false,
      "inputs": [
        {
          "internalType": "address",
          "name": "_erc20",
          "type": "address"
        },
        {
          "internalType": "address",
          "name": "_spender",
          "type": "address"
        },
        {
          "internalType": "uint256",
          "name": "_subtractedValue",
          "type": "uint256"
        }
      ],
      "name": "erc20DecreaseApproval",
      "outputs": [],
      "payable": false,
      "stateMutability": "nonpayable",
      "type": "function"
    },
    {
      "constant": false,
      "inputs": [
        {
          "internalType": "address",
          "name": "_erc20",
          "type": "address"
        },
        {
          "internalType": "address",
          "name": "spender",
          "type": "address"
        },
        {
          "internalType": "uint256",
          "name": "addedValue",
          "type": "uint256"
        }
      ],
      "name": "erc20IncreaseApproval",
      "outputs": [],
      "payable": false,
      "stateMutability": "nonpayable",
      "type": "function"
    },
    {
      "constant": false,
      "inputs": [
        {
          "internalType": "address",
          "name": "_erc20",
          "type": "address"
        },
        {
          "internalType": "address",
          "name": "to",
          "type": "address"
        },
        {
          "internalType": "uint256",
          "name": "value",
          "type": "uint256"
        }
      ],
      "name": "erc20Transfer",
      "outputs": [],
      "payable": false,
      "stateMutability": "nonpayable",
      "type": "function"
    },
    {
      "constant": false,
      "inputs": [
        {
          "internalType": "address",
          "name": "_erc20",
          "type": "address"
        },
        {
          "internalType": "address",
          "name": "from",
          "type": "address"
        },
        {
          "internalType": "address",
          "name": "to",
          "type": "address"
        },
        {
          "internalType": "uint256",
          "name": "value",
          "type": "uint256"
        }
      ],
      "name": "erc20TransferFrom",
      "outputs": [],
      "payable": false,
      "stateMutability": "nonpayable",
      "type": "function"
    },
    {
      "constant": false,
      "inputs": [
        {
          "internalType": "address",
          "name": "_erc20",
          "type": "address"
        },
        {
          "internalType": "address",
          "name": "spender",
          "type": "address"
        },
        {
          "internalType": "uint256",
          "name": "addedValue",
          "type": "uint256"
        }
      ],
      "name": "erc20IncreaseAllowance",
      "outputs": [],
      "payable": false,
      "stateMutability": "nonpayable",
      "type": "function"
    },
    {
      "constant": false,
      "inputs": [
        {
          "internalType": "address",
          "name": "_erc20",
          "type": "address"
        },
        {
          "internalType": "address",
          "name": "spender",
          "type": "address"
        },
        {
          "internalType": "uint256",
          "name": "subtractedValue",
          "type": "uint256"
        }
      ],
      "name": "erc20DecreaseAllowance",
      "outputs": [],
      "payable": false,
      "stateMutability": "nonpayable",
      "type": "function"
    },
    {
      "constant": false,
      "inputs": [],
      "name": "withdraw",
      "outputs": [],
      "payable": false,
      "stateMutability": "nonpayable",
      "type": "function"
    },
    {
      "constant": false,
      "inputs": [
        {
          "internalType": "address",
          "name": "_erc20Token",
          "type": "address"
        }
      ],
      "name": "withdrawERC20",
      "outputs": [],
      "payable": false,
      "stateMutability": "nonpayable",
      "type": "function"
    }
  ],
  "bytecode": "0x600e6102e08181526d4552433732313a617070726f766560901b6103009081526080918252600f6103209081526e22a9219b99189d3a3930b739b332b960891b6103405260a052600b6103608181526a22a9219b99189d313ab93760a91b6103805260c0526103a09081526a115490cdcc8c4e9b5a5b9d60aa1b6103c05260e05260176103e08181527f4552433732313a736166655472616e7366657246726f6d000000000000000000610400526101005260136104209081527f4552433732313a7472616e7366657246726f6d00000000000000000000000000610440526101205260106104609081526f42726f6b65723a7075744f6e53616c6560801b6104805261014052600a6104a08181526942726f6b65723a62757960b01b6104c052610160526104e090815269109c9bdad95c8e989a5960b21b61050052610180526105208481526d109c9bdad95c8e98dbdb1b1958dd60921b610540526101a05260126105608181527142726f6b65723a757064617465507269636560701b610580526101c05260116105a090815270213937b5b2b91d383aba29b0b632a7b33360791b6105c0526101e052600d6105e09081526c45524332303a617070726f766560981b610600526102005260166106208181527f45524332303a6465637265617365417070726f76616c0000000000000000000061064052610220526106609081527f45524332303a696e637265617365417070726f76616c0000000000000000000061068052610240526106a08581526d22a92199181d3a3930b739b332b960911b6106c052610260526106e09081527145524332303a7472616e7366657246726f6d60701b61070052610280526107208181527f45524332303a696e637265617365416c6c6f77616e6365000000000000000000610740526102a0526107a06040526107609081527f45524332303a6465637265617365416c6c6f77616e6365000000000000000000610780526102c0529091600291620002e7918391906200070c565b5060208281015180516200030292600185019201906200070c565b5060408201518051620003209160028401916020909101906200070c565b50606082015180516200033e9160038401916020909101906200070c565b50608082015180516200035c9160048401916020909101906200070c565b5060a082015180516200037a9160058401916020909101906200070c565b5060c08201518051620003989160068401916020909101906200070c565b5060e08201518051620003b69160078401916020909101906200070c565b506101008201518051620003d59160088401916020909101906200070c565b506101208201518051620003f49160098401916020909101906200070c565b5061014082015180516200041391600a8401916020909101906200070c565b5061016082015180516200043291600b8401916020909101906200070c565b5061018082015180516200045191600c8401916020909101906200070c565b506101a082015180516200047091600d8401916020909101906200070c565b506101c082015180516200048f91600e8401916020909101906200070c565b506101e08201518051620004ae91600f8401916020909101906200070c565b506102008201518051620004cd9160108401916020909101906200070c565b506102208201518051620004ec9160118401916020909101906200070c565b5061024082015180516200050b9160128401916020909101906200070c565b5050503480156200051b57600080fd5b506040516200340138038062003401833981810160405260208110156200054157600080fd5b50516000620005586001600160e01b03620005cb16565b600080546001600160a01b0319166001600160a01b038316908117825560405192935091600080516020620033e1833981519152908290a350620005a5336001600160e01b03620005d016565b601580546001600160a01b0319166001600160a01b0392909216919091179055620007ae565b335b90565b620005e36001600160e01b036200064c16565b62000635576040805162461bcd60e51b815260206004820181905260248201527f4f776e61626c653a2063616c6c6572206973206e6f7420746865206f776e6572604482015290519081900360640190fd5b62000649816001600160e01b036200067b16565b50565b600080546001600160a01b03166200066c6001600160e01b03620005cb16565b6001600160a01b031614905090565b6001600160a01b038116620006c25760405162461bcd60e51b8152600401808060200182810382526026815260200180620033bb6026913960400191505060405180910390fd5b600080546040516001600160a01b0380851693921691600080516020620033e183398151915291a3600080546001600160a01b0319166001600160a01b0392909216919091179055565b828054600181600116156101000203166002900490600052602060002090601f016020900481019282601f106200074f57805160ff19168380011785556200077f565b828001600101855582156200077f579182015b828111156200077f57825182559160200191906001019062000762565b506200078d92915062000791565b5090565b620005cd91905b808211156200078d576000815560010162000798565b612bfd80620007be6000396000f3fe6080604052600436106101ee5760003560e01c8063704802751161010d578063ace561a8116100a0578063f2fde38b1161006f578063f2fde38b146109be578063f4f3b200146109f1578063fba08d4514610a24578063fddea90014610a57578063ff8edbdb14610b1a576101ee565b8063ace561a8146108c3578063b6011b4c14610906578063c0f4ed3114610949578063c347f69b1461097b576101ee565b80638d3c100a116100dc5780638d3c100a146108095780638da5cb5b146108425780638f32d59b146108575780639dc6b78d14610880576101ee565b8063704802751461074c578063715018a61461077f5780637deb6025146107945780638450ebe4146107c0576101ee565b806322b4aa371161018557806347fcf0181161015457806347fcf018146105b8578063485f952e146105f1578063488b0f7d1461062a5780634a0aafda14610703576101ee565b806322b4aa37146104a257806331ae450b146104fb5780633790767d146105605780633ccfd60b146105a3576101ee565b80631785f53c116101c15780631785f53c146103b0578063179443f3146103e357806318fa06531461041c5780631afffec01461045f576101ee565b80630a1b0b91146101f05780630c82ea1a1461023957806314bfd6d01461027c578063150b7a02146102c2575b005b3480156101fc57600080fd5b506101ee6004803603608081101561021357600080fd5b506001600160a01b03813581169160208101358216916040820135169060600135610b63565b34801561024557600080fd5b506101ee6004803603606081101561025c57600080fd5b506001600160a01b03813581169160208101359091169060400135610c7e565b34801561028857600080fd5b506102a66004803603602081101561029f57600080fd5b5035610d90565b604080516001600160a01b039092168252519081900360200190f35b3480156102ce57600080fd5b50610393600480360360808110156102e557600080fd5b6001600160a01b03823581169260208101359091169160408201359190810190608081016060820135600160201b81111561031f57600080fd5b82018360208201111561033157600080fd5b803590602001918460018302840111600160201b8311171561035257600080fd5b91908080601f016020809104026020016040519081016040528093929190818152602001838380828437600092019190915250929550610db7945050505050565b604080516001600160e01b03199092168252519081900360200190f35b3480156103bc57600080fd5b506101ee600480360360208110156103d357600080fd5b50356001600160a01b0316610dc7565b3480156103ef57600080fd5b506101ee6004803603604081101561040657600080fd5b50803590602001356001600160a01b0316610f33565b34801561042857600080fd5b506101ee6004803603606081101561043f57600080fd5b506001600160a01b03813581169160208101359091169060400135611048565b34801561046b57600080fd5b506101ee6004803603606081101561048257600080fd5b506001600160a01b038135811691602081013590911690604001356111ba565b3480156104ae57600080fd5b506101ee600480360360e08110156104c557600080fd5b508035906020810135906040810135906060810135906080810135906001600160a01b0360a082013581169160c0013516611262565b34801561050757600080fd5b506105106113a0565b60408051602080825283518183015283519192839290830191858101910280838360005b8381101561054c578181015183820152602001610534565b505050509050019250505060405180910390f35b34801561056c57600080fd5b506101ee6004803603606081101561058357600080fd5b506001600160a01b03813581169160208101359091169060400135611402565b3480156105af57600080fd5b506101ee6114aa565b3480156105c457600080fd5b506101ee600480360360408110156105db57600080fd5b506001600160a01b038135169060200135611520565b3480156105fd57600080fd5b506101ee6004803603604081101561061457600080fd5b506001600160a01b038135169060200135611894565b34801561063657600080fd5b506101ee600480360360a081101561064d57600080fd5b6001600160a01b03823581169260208101358216926040820135909216916060820135919081019060a081016080820135600160201b81111561068f57600080fd5b8201836020820111156106a157600080fd5b803590602001918460018302840111600160201b831117156106c257600080fd5b91908080601f0160208091040260200160405190810160405280939291908181526020018383808284376000920191909152509295506119ed945050505050565b34801561070f57600080fd5b506101ee6004803603608081101561072657600080fd5b506001600160a01b03813581169160208101358216916040820135169060600135611bce565b34801561075857600080fd5b506101ee6004803603602081101561076f57600080fd5b50356001600160a01b0316611d3e565b34801561078b57600080fd5b506101ee611e6c565b6101ee600480360360408110156107aa57600080fd5b50803590602001356001600160a01b0316611efd565b3480156107cc57600080fd5b506101ee600480360360808110156107e357600080fd5b506001600160a01b03813581169160208101358216916040820135169060600135611fac565b34801561081557600080fd5b506101ee6004803603604081101561082c57600080fd5b50803590602001356001600160a01b03166120fd565b34801561084e57600080fd5b506102a66121a8565b34801561086357600080fd5b5061086c6121b7565b604080519115158252519081900360200190f35b34801561088c57600080fd5b506101ee600480360360608110156108a357600080fd5b506001600160a01b038135811691602081013590911690604001356121db565b3480156108cf57600080fd5b506101ee600480360360608110156108e657600080fd5b506001600160a01b03813581169160208101359091169060400135612283565b34801561091257600080fd5b506101ee6004803603606081101561092957600080fd5b506001600160a01b0381358116916020810135909116906040013561232b565b6101ee6004803603606081101561095f57600080fd5b508035906001600160a01b036020820135169060400135612482565b34801561098757600080fd5b506101ee6004803603606081101561099e57600080fd5b506001600160a01b038135811691602081013590911690604001356125a3565b3480156109ca57600080fd5b506101ee600480360360208110156109e157600080fd5b50356001600160a01b03166125f5565b3480156109fd57600080fd5b506101ee60048036036020811015610a1457600080fd5b50356001600160a01b0316612645565b348015610a3057600080fd5b5061086c60048036036020811015610a4757600080fd5b50356001600160a01b0316612774565b348015610a6357600080fd5b506101ee60048036036060811015610a7a57600080fd5b6001600160a01b038235169190810190604081016020820135600160201b811115610aa457600080fd5b820183602082011115610ab657600080fd5b803590602001918460018302840111600160201b83111715610ad757600080fd5b91908080601f01602080910402602001604051908101604052809392919081815260200183838082843760009201919091525092955050913592506127cb915050565b348015610b2657600080fd5b506101ee60048036036080811015610b3d57600080fd5b508035906001600160a01b03602082013581169160408101359160609091013516612972565b604080516323b872dd60e01b81526001600160a01b038581166004830152848116602483015260448201849052915186928316916323b872dd91606480830192600092919082900301818387803b158015610bbd57600080fd5b505af1158015610bd1573d6000803e3d6000fd5b5050505060026010016040518082805460018160011615610100020316600290048015610c355780601f10610c13576101008083540402835291820191610c35565b820191906000526020600020905b815481529060010190602001808311610c21575b5050604080519182900382206001600160a01b0388811684526020840188905282519195508a1693503392600080516020612ba983398151915292908290030190a45050505050565b6040805163a457c2d760e01b81526001600160a01b038481166004830152602482018490529151859283169163a457c2d791604480830192600092919082900301818387803b158015610cd057600080fd5b505af1158015610ce4573d6000803e3d6000fd5b5050505060026012016040518082805460018160011615610100020316600290048015610d485780601f10610d26576101008083540402835291820191610d48565b820191906000526020600020905b815481529060010190602001808311610d34575b5050604080519182900382206001600160a01b038881168452602084018890528251919550891693503392600080516020612ba983398151915292908290030190a450505050565b60018181548110610d9d57fe5b6000918252602090912001546001600160a01b0316905081565b630a85bd0160e11b949350505050565b610dcf6121b7565b610e0e576040805162461bcd60e51b81526020600482018190526024820152600080516020612b89833981519152604482015290519081900360640190fd5b60005b600154811015610eec57816001600160a01b031660018281548110610e3257fe5b6000918252602090912001546001600160a01b03161415610ee45760018181548110610e5a57fe5b600091825260209091200154600180546001600160a01b03909216916000198101908110610e8457fe5b9060005260206000200160006101000a8154816001600160a01b0302191690836001600160a01b031602179055506001805480610ebd57fe5b600082815260209020810160001990810180546001600160a01b0319169055019055610eec565b600101610e11565b50604080516001600160a01b038316815242602082015281517fa0726c73cf6ad18ddb855ba65d1ddd4d7fd37d320f4e52f6b154c13d386f5fd9929181900390910190a150565b6015546040805163179443f360e01b8152600481018590526001600160a01b0384811660248301529151919092169163179443f391604480830192600092919082900301818387803b158015610f8857600080fd5b505af1158015610f9c573d6000803e3d6000fd5b505050506002600b0160405180828054600181600116156101000203166002900480156110005780601f10610fde576101008083540402835291820191611000565b820191906000526020600020905b815481529060010190602001808311610fec575b5050604080519182900382206015546001600160a01b0387811685526020850189905283519296501693503392600080516020612ba983398151915292908290030190a45050565b61105133612774565b8061105f575061105f6121b7565b61109a5760405162461bcd60e51b8152600401808060200182810382526023815260200180612b666023913960400191505060405180910390fd5b6040516002805485929081908390600019610100600183161502011681900480156110fc5780601f106110da5761010080835404028352918201916110fc565b820191906000526020600020905b8154815290600101906020018083116110e8575b5050604080519182900382206001600160a01b03891680845260208401889052825191955093503392600080516020612ba983398151915292908290030190a4806001600160a01b031663095ea7b384846040518363ffffffff1660e01b815260040180836001600160a01b03166001600160a01b0316815260200182815260200192505050600060405180830381600087803b15801561119c57600080fd5b505af11580156111b0573d6000803e3d6000fd5b5050505050505050565b6040805163d73dd62360e01b81526001600160a01b038481166004830152602482018490529151859283169163d73dd62391604480830192600092919082900301818387803b15801561120c57600080fd5b505af1158015611220573d6000803e3d6000fd5b505050506002600e016040518082805460018160011615610100020316600290048015610d485780601f10610d26576101008083540402835291820191610d48565b601554604080516322b4aa3760e01b8152600481018a9052602481018990526044810188905260648101879052608481018690526001600160a01b0385811660a483015284811660c4830152915191909216916322b4aa379160e480830192600092919082900301818387803b1580156112db57600080fd5b505af11580156112ef573d6000803e3d6000fd5b50505050600260060160405180828054600181600116156101000203166002900480156113535780601f10611331576101008083540402835291820191611353565b820191906000526020600020905b81548152906001019060200180831161133f575b5050604080519182900382206015546001600160a01b038881168552602085018e905283519296501693503392600080516020612ba983398151915292908290030190a450505050505050565b606060018054806020026020016040519081016040528092919081815260200182805480156113f857602002820191906000526020600020905b81546001600160a01b031681526001909101906020018083116113da575b5050505050905090565b6040805163a9059cbb60e01b81526001600160a01b038481166004830152602482018490529151859283169163a9059cbb91604480830192600092919082900301818387803b15801561145457600080fd5b505af1158015611468573d6000803e3d6000fd5b505050506002600f016040518082805460018160011615610100020316600290048015610d485780601f10610d26576101008083540402835291820191610d48565b6114b26121b7565b6114f1576040805162461bcd60e51b81526020600482018190526024820152600080516020612b89833981519152604482015290519081900360640190fd5b60405133904780156108fc02916000818181858888f1935050505015801561151d573d6000803e3d6000fd5b50565b61152933612774565b8061153757506115376121b7565b6115725760405162461bcd60e51b8152600401808060200182810382526023815260200180612b666023913960400191505060405180910390fd5b60008290506060816001600160a01b031663c87b56dd846040518263ffffffff1660e01b815260040180828152602001915050600060405180830381600087803b1580156115bf57600080fd5b505af11580156115d3573d6000803e3d6000fd5b505050506040513d6000823e601f3d908101601f1916820160405260208110156115fc57600080fd5b8101908080516040519392919084600160201b82111561161b57600080fd5b90830190602082018581111561163057600080fd5b8251600160201b81118282018810171561164957600080fd5b82525081516020918201929091019080838360005b8381101561167657818101518382015260200161165e565b50505050905090810190601f1680156116a35780820380516001836020036101000a031916815260200191505b50604081815263020604bf60e21b8252600482018990525194955030946001600160a01b038816945063081812fc9350602480830193506020928290030181600087803b1580156116f357600080fd5b505af1158015611707573d6000803e3d6000fd5b505050506040513d602081101561171d57600080fd5b50516001600160a01b03161461177a576040805162461bcd60e51b815260206004820152601b60248201527f546f6b656e206e6f74206170706f726f766520666f72206275726e0000000000604482015290519081900360640190fd5b816001600160a01b03166342966c68846040518263ffffffff1660e01b815260040180828152602001915050600060405180830381600087803b1580156117c057600080fd5b505af11580156117d4573d6000803e3d6000fd5b50505050336001600160a01b031683856001600160a01b03167f926b248e45dfdd4c4caec216e73ec503ce2522d3b5646c861d1b074210675d0e42856040518083815260200180602001828103825283818151815260200191508051906020019080838360005b8381101561185357818101518382015260200161183b565b50505050905090810190601f1680156118805780820380516001836020036101000a031916815260200191505b50935050505060405180910390a450505050565b61189d33612774565b806118ab57506118ab6121b7565b6118e65760405162461bcd60e51b8152600401808060200182810382526023815260200180612b666023913960400191505060405180910390fd5b600082905060028001604051808280546001816001161561010002031660029004801561194a5780601f1061192857610100808354040283529182019161194a565b820191906000526020600020905b815481529060010190602001808311611936575b5050604080519182900382206001600160a01b03881680845260208401889052825191955093503392600080516020612ba983398151915292908290030190a4806001600160a01b03166342966c68836040518263ffffffff1660e01b815260040180828152602001915050600060405180830381600087803b1580156119d057600080fd5b505af11580156119e4573d6000803e3d6000fd5b50505050505050565b6119f633612774565b80611a045750611a046121b7565b611a3f5760405162461bcd60e51b8152600401808060200182810382526023815260200180612b666023913960400191505060405180910390fd5b600085905060026004016040518082805460018160011615610100020316600290048015611aa45780601f10611a82576101008083540402835291820191611aa4565b820191906000526020600020905b815481529060010190602001808311611a90575b5050604080519182900382206001600160a01b038b1680845260208401899052825191955093503392600080516020612ba983398151915292908290030190a4604051635c46a7ef60e11b81526001600160a01b03868116600483019081528682166024840152604483018690526080606484019081528551608485015285519285169363b88d4fde938a938a938a938a9360a490910190602085019080838360005b83811015611b5f578181015183820152602001611b47565b50505050905090810190601f168015611b8c5780820380516001836020036101000a031916815260200191505b5095505050505050600060405180830381600087803b158015611bae57600080fd5b505af1158015611bc2573d6000803e3d6000fd5b50505050505050505050565b611bd733612774565b80611be55750611be56121b7565b611c205760405162461bcd60e51b8152600401808060200182810382526023815260200180612b666023913960400191505060405180910390fd5b600084905060026004016040518082805460018160011615610100020316600290048015611c855780601f10611c63576101008083540402835291820191611c85565b820191906000526020600020905b815481529060010190602001808311611c71575b5050604080519182900382206001600160a01b038a1680845260208401889052825191955093503392600080516020612ba983398151915292908290030190a460408051632142170760e11b81526001600160a01b0386811660048301528581166024830152604482018590529151918316916342842e0e9160648082019260009290919082900301818387803b158015611d1f57600080fd5b505af1158015611d33573d6000803e3d6000fd5b505050505050505050565b611d466121b7565b611d85576040805162461bcd60e51b81526020600482018190526024820152600080516020612b89833981519152604482015290519081900360640190fd5b611d8e81612774565b611de1576001805480820182556000919091527fb10e2d527612073b26eecdfd717e6a320cf44b4afac2b0732d9fcbe2b7fa0cf60180546001600160a01b0319166001600160a01b038316179055611e26565b6040805162461bcd60e51b815260206004820152601560248201527418591b5a5b88185b1c9958591e481a5b881b1a5cdd605a1b604482015290519081900360640190fd5b604080516001600160a01b038316815242602082015281517f723c2b747529ca7f5eb53a74808f4a8b9bf264f0fc450fd904900151da74548a929181900390910190a150565b611e746121b7565b611eb3576040805162461bcd60e51b81526020600482018190526024820152600080516020612b89833981519152604482015290519081900360640190fd5b600080546040516001600160a01b03909116907f8be0079c531659141344cd1fd0a4f28419497f9722a3daafe3b4186f6b6457e0908390a3600080546001600160a01b0319169055565b60155460408051637deb602560e01b8152600481018590526001600160a01b03848116602483015291519190921691637deb602591349160448082019260009290919082900301818588803b158015611f5557600080fd5b505af1158015611f69573d6000803e3d6000fd5b5050505050600260070160405180828054600181600116156101000203166002900480156110005780601f10610fde576101008083540402835291820191611000565b611fb533612774565b80611fc35750611fc36121b7565b611ffe5760405162461bcd60e51b8152600401808060200182810382526023815260200180612b666023913960400191505060405180910390fd5b6000849050600260050160405180828054600181600116156101000203166002900480156120635780601f10612041576101008083540402835291820191612063565b820191906000526020600020905b81548152906001019060200180831161204f575b5050604080519182900382206001600160a01b038a1680845260208401889052825191955093503392600080516020612ba983398151915292908290030190a4604080516323b872dd60e01b81526001600160a01b0386811660048301528581166024830152604482018590529151918316916323b872dd9160648082019260009290919082900301818387803b158015611d1f57600080fd5b6015546040805163469e080560e11b8152600481018590526001600160a01b03848116602483015291519190921691638d3c100a91604480830192600092919082900301818387803b15801561215257600080fd5b505af1158015612166573d6000803e3d6000fd5b50505050600260090160405180828054600181600116156101000203166002900480156110005780601f10610fde576101008083540402835291820191611000565b6000546001600160a01b031690565b600080546001600160a01b03166121cc612a9b565b6001600160a01b031614905090565b60408051633950935160e01b81526001600160a01b0384811660048301526024820184905291518592831691633950935191604480830192600092919082900301818387803b15801561222d57600080fd5b505af1158015612241573d6000803e3d6000fd5b5050505060026011016040518082805460018160011615610100020316600290048015610d485780601f10610d26576101008083540402835291820191610d48565b6040805163095ea7b360e01b81526001600160a01b038481166004830152602482018490529151859283169163095ea7b391604480830192600092919082900301818387803b1580156122d557600080fd5b505af11580156122e9573d6000803e3d6000fd5b505050506002600c016040518082805460018160011615610100020316600290048015610d485780601f10610d26576101008083540402835291820191610d48565b61233433612774565b8061234257506123426121b7565b61237d5760405162461bcd60e51b8152600401808060200182810382526023815260200180612b666023913960400191505060405180910390fd5b6000839050600260010160405180828054600181600116156101000203166002900480156123e25780601f106123c05761010080835404028352918201916123e2565b820191906000526020600020905b8154815290600101906020018083116123ce575b5050604080519182900382206001600160a01b03891680845260208401889052825191955093503392600080516020612ba983398151915292908290030190a4806001600160a01b031663a9059cbb84846040518363ffffffff1660e01b815260040180836001600160a01b03166001600160a01b0316815260200182815260200192505050600060405180830381600087803b15801561119c57600080fd5b6015546040805163c0f4ed3160e01b8152600481018690526001600160a01b038581166024830152604482018590529151919092169163c0f4ed3191349160648082019260009290919082900301818588803b1580156124e157600080fd5b505af11580156124f5573d6000803e3d6000fd5b50505050506002600801604051808280546001816001161561010002031660029004801561255a5780601f1061253857610100808354040283529182019161255a565b820191906000526020600020905b815481529060010190602001808311612546575b5050604080519182900382206015546001600160a01b038881168552602085018a905283519296501693503392600080516020612ba983398151915292908290030190a4505050565b60408051636618846360e01b81526001600160a01b0384811660048301526024820184905291518592831691636618846391604480830192600092919082900301818387803b158015610cd057600080fd5b6125fd6121b7565b61263c576040805162461bcd60e51b81526020600482018190526024820152600080516020612b89833981519152604482015290519081900360640190fd5b61151d81612a9f565b61264d6121b7565b61268c576040805162461bcd60e51b81526020600482018190526024820152600080516020612b89833981519152604482015290519081900360640190fd5b604080516370a0823160e01b8152306004820152905182916001600160a01b0383169163a9059cbb91339184916370a08231916024808301926020929190829003018186803b1580156126de57600080fd5b505afa1580156126f2573d6000803e3d6000fd5b505050506040513d602081101561270857600080fd5b5051604080516001600160e01b031960e086901b1681526001600160a01b039093166004840152602483019190915251604480830192600092919082900301818387803b15801561275857600080fd5b505af115801561276c573d6000803e3d6000fd5b505050505050565b6000805b6001548110156127c0576001818154811061278f57fe5b6000918252602090912001546001600160a01b03848116911614156127b85760019150506127c6565b600101612778565b50600090505b919050565b6127d433612774565b806127e257506127e26121b7565b61281d5760405162461bcd60e51b8152600401808060200182810382526023815260200180612b666023913960400191505060405180910390fd5b6000839050600260030160405180828054600181600116156101000203166002900480156128825780601f10612860576101008083540402835291820191612882565b820191906000526020600020905b81548152906001019060200180831161286e575b5050604080519182900382206001600160a01b03891680845260006020850152825191955093503392600080516020612ba983398151915292908290030190a4806001600160a01b031663056b01ce84846040518363ffffffff1660e01b81526004018080602001838152602001828103825284818151815260200191508051906020019080838360005b8381101561292557818101518382015260200161290d565b50505050905090810190601f1680156129525780820380516001836020036101000a031916815260200191505b509350505050600060405180830381600087803b15801561119c57600080fd5b6015546040805160016271242560e01b03198152600481018790526001600160a01b0386811660248301526044820186905284811660648301529151919092169163ff8edbdb91608480830192600092919082900301818387803b1580156129d957600080fd5b505af11580156129ed573d6000803e3d6000fd5b505050506002600a016040518082805460018160011615610100020316600290048015612a515780601f10612a2f576101008083540402835291820191612a51565b820191906000526020600020905b815481529060010190602001808311612a3d575b5050604080519182900382206015546001600160a01b038981168552602085018b905283519296501693503392600080516020612ba983398151915292908290030190a450505050565b3390565b6001600160a01b038116612ae45760405162461bcd60e51b8152600401808060200182810382526026815260200180612b406026913960400191505060405180910390fd5b600080546040516001600160a01b03808516939216917f8be0079c531659141344cd1fd0a4f28419497f9722a3daafe3b4186f6b6457e091a3600080546001600160a01b0319166001600160a01b039290921691909117905556fe4f776e61626c653a206e6577206f776e657220697320746865207a65726f206164647265737341646d696e4d616e616765723a2061646d696e20616e64206f776e6572206f6e6c792e4f776e61626c653a2063616c6c6572206973206e6f7420746865206f776e657232a9eeb55ea56eb60badfb6642d5b92be35b6da6f74892c12d0e14a50dfc2baca265627a7a723158209d526f660529922f261072c0d88808e13b6630f7544a18ae18b7b63df8783a8764736f6c634300051100324f776e61626c653a206e6577206f776e657220697320746865207a65726f20616464726573738be0079c531659141344cd1fd0a4f28419497f9722a3daafe3b4186f6b6457e0",
  "source": "// SPDX-License-Identifier: MIT\n\npragma solidity ^0.5.6;\n\n// import \"@openzeppelin/contracts/ownership/Ownable.sol\";\n// import '@openzeppelin/contracts/token/ERC721/ERC721Holder.sol';\ncontract Context {\n    // Empty internal constructor, to prevent people from mistakenly deploying\n    // an instance of this contract, which should be used via inheritance.\n    constructor() internal {}\n\n    // solhint-disable-previous-line no-empty-blocks\n\n    function _msgSender() internal view returns (address payable) {\n        return msg.sender;\n    }\n\n    function _msgData() internal view returns (bytes memory) {\n        this; // silence state mutability warning without generating bytecode - see https://github.com/ethereum/solidity/issues/2691\n        return msg.data;\n    }\n}\n\ncontract Ownable is Context {\n    address private _owner;\n\n    event OwnershipTransferred(\n        address indexed previousOwner,\n        address indexed newOwner\n    );\n\n    /**\n     * @dev Initializes the contract setting the deployer as the initial owner.\n     */\n    constructor() internal {\n        address msgSender = _msgSender();\n        _owner = msgSender;\n        emit OwnershipTransferred(address(0), msgSender);\n    }\n\n    /**\n     * @dev Returns the address of the current owner.\n     */\n    function owner() public view returns (address) {\n        return _owner;\n    }\n\n    /**\n     * @dev Throws if called by any account other than the owner.\n     */\n    modifier onlyOwner() {\n        require(isOwner(), \"Ownable: caller is not the owner\");\n        _;\n    }\n\n    /**\n     * @dev Returns true if the caller is the current owner.\n     */\n    function isOwner() public view returns (bool) {\n        return _msgSender() == _owner;\n    }\n\n    /**\n     * @dev Leaves the contract without owner. It will not be possible to call\n     * `onlyOwner` functions anymore. Can only be called by the current owner.\n     *\n     * NOTE: Renouncing ownership will leave the contract without an owner,\n     * thereby removing any functionality that is only available to the owner.\n     */\n    function renounceOwnership() public onlyOwner {\n        emit OwnershipTransferred(_owner, address(0));\n        _owner = address(0);\n    }\n\n    /**\n     * @dev Transfers ownership of the contract to a new account (`newOwner`).\n     * Can only be called by the current owner.\n     */\n    function transferOwnership(address newOwner) public onlyOwner {\n        _transferOwnership(newOwner);\n    }\n\n    /**\n     * @dev Transfers ownership of the contract to a new account (`newOwner`).\n     */\n    function _transferOwnership(address newOwner) internal {\n        require(\n            newOwner != address(0),\n            \"Ownable: new owner is the zero address\"\n        );\n        emit OwnershipTransferred(_owner, newOwner);\n        _owner = newOwner;\n    }\n}\n\ncontract IERC721Receiver {\n    function onERC721Received(\n        address operator,\n        address from,\n        uint256 tokenId,\n        bytes memory data\n    ) public returns (bytes4);\n}\n\ncontract ERC721Holder is IERC721Receiver {\n    function onERC721Received(\n        address,\n        address,\n        uint256,\n        bytes memory\n    ) public returns (bytes4) {\n        return this.onERC721Received.selector;\n    }\n}\n\n\ninterface IMintable {\n    // Required read methods\n    function getApproved(uint256 tokenId) external returns (address operator);\n\n    function tokenURI(uint256 tokenId) external returns (string memory);\n\n    // Required write methods\n    function approve(address _to, uint256 _tokenId) external;\n\n    function transfer(address _to, uint256 _tokenId) external;\n\n    function burn(uint256 tokenId) external;\n\n    function mint(string calldata _tokenURI, uint256 _royality) external;\n\n    function safeTransferFrom(\n        address from,\n        address to,\n        uint256 tokenId\n    ) external;\n\n    function safeTransferFrom(\n        address from,\n        address to,\n        uint256 tokenId,\n        bytes calldata data\n    ) external;\n\n    function transferFrom(\n        address from,\n        address to,\n        uint256 tokenId\n    ) external;\n}\n\ninterface IBrokerV2 {\n    function bid(\n        uint256 tokenID,\n        address _mintableToken,\n        uint256 amount\n    ) external payable;\n\n    function collect(uint256 tokenID, address _mintableToken) external;\n\n    function buy(uint256 tokenID, address _mintableToken) external payable;\n\n    function putOnSale(\n        uint256 _tokenID,\n        uint256 _startingPrice,\n        uint256 _auctionType,\n        uint256 _buyPrice,\n        uint256 _duration,\n        address _mintableToken,\n        address _erc20Token\n    ) external;\n\n    function updatePrice(\n        uint256 tokenID,\n        address _mintableToken,\n        uint256 _newPrice,\n        address _erc20Token\n    ) external;\n\n    function putSaleOff(uint256 tokenID, address _mintableToken) external;\n}\n\ninterface IERC20 {\n    function approve(address spender, uint256 value) external;\n\n    function decreaseApproval(address _spender, uint256 _subtractedValue)\n        external;\n\n    function increaseApproval(address spender, uint256 addedValue) external;\n\n    function transfer(address to, uint256 value) external;\n\n    function transferFrom(\n        address from,\n        address to,\n        uint256 value\n    ) external;\n\n    function increaseAllowance(address spender, uint256 addedValue) external;\n\n    function decreaseAllowance(address spender, uint256 subtractedValue)\n        external;\n        \n    function balanceOf(address who) external view returns (uint256);\n}\n\n/**\n * @title AdminManager\n * @author Yogesh Singh\n * @notice You can use this contract to execute function on behalf of superUser\n * @dev Mediator contract to allow muliple user to perform ERC721 action using contracts address only\n */\ncontract AdminManager is Ownable, ERC721Holder {\n    address[] public admins;\n\n    struct FunctionNames {\n        string approve;\n        string transfer;\n        string burn;\n        string mint;\n        string safeTransferFrom;\n        string transferFrom;\n        string putOnSale;\n        string buy;\n        string bid;\n        string collect;\n        string updatePrice;\n        string putSaleOff;\n        string erc20Approve;\n        string erc20DecreaseApproval;\n        string erc20IncreaseApproval;\n        string erc20Transfer;\n        string erc20TransferFrom;\n        string erc20IncreaseAllowance;\n        string erc20DecreaseAllowance;\n    }\n\n    FunctionNames functionNames =\n        FunctionNames(\n            \"ERC721:approve\",\n            \"ERC721:transfer\",\n            \"ERC721:burn\",\n            \"ERC721:mint\",\n            \"ERC721:safeTransferFrom\",\n            \"ERC721:transferFrom\",\n            \"Broker:putOnSale\",\n            \"Broker:buy\",\n            \"Broker:bid\",\n            \"Broker:collect\",\n            \"Broker:updatePrice\",\n            \"Broker:putSaleOff\",\n            \"ERC20:approve\",\n            \"ERC20:decreaseApproval\",\n            \"ERC20:increaseApproval\",\n            \"ERC20:transfer\",\n            \"ERC20:transferFrom\",\n            \"ERC20:increaseAllowance\",\n            \"ERC20:decreaseAllowance\"\n        );\n\n    IBrokerV2 broker;\n\n    event NFTBurned(\n        address indexed collection,\n        uint256 indexed tokenId,\n        address indexed admin,\n        uint256 time,\n        string tokenURI\n    );\n    event AdminRemoved(address admin, uint256 time);\n    event AdminAdded(address admin, uint256 time);\n\n    event AdminActionPerformed(\n        address indexed admin,\n        address indexed contractAddress,\n        string indexed functionName,\n        address collectionAddress,\n        uint256 tokenId\n    );\n\n    constructor(address _broker) public {\n        transferOwnership(msg.sender);\n        broker = IBrokerV2(_broker);\n    }\n\n    /**\n     * @notice This function is used to check address of admin exist or not in list of admin\n     * @dev Fuction take address type argument\n     * @param _sender The account address of _sender or admin\n     */\n    function adminExist(address _sender) public view returns (bool) {\n        for (uint256 i = 0; i < admins.length; i++) {\n            if (_sender == admins[i]) {\n                return true;\n            }\n        }\n        return false;\n    }\n\n    modifier adminOnly() {\n        require(adminExist(msg.sender), \"AdminManager: admin only.\");\n        _;\n    }\n\n    modifier adminAndOwnerOnly() {\n        require(\n            adminExist(msg.sender) || isOwner(),\n            \"AdminManager: admin and owner only.\"\n        );\n        _;\n    }\n\n    /**\n     * @notice This function is used to add address of admins\n     * @dev Fuction take address type argument\n     * @param admin The account address of admin\n     */\n    function addAdmin(address admin) public onlyOwner {\n        if (!adminExist(admin)) {\n            admins.push(admin);\n        } else {\n            revert(\"admin already in list\");\n        }\n\n        emit AdminAdded(admin, block.timestamp);\n    }\n\n    /**\n     * @notice This function is used to get list of all address of admins\n     * @dev This Fuction is not take any argument\n     * @return This Fuction return list of address[]\n     */\n    function getAdmins() public view returns (address[] memory) {\n        return admins;\n    }\n\n    /**\n     * @notice This function is used to get list of all address of admins\n     * @dev This Fuction is not take any argument\n     * @param admin The account address of admin\n     */\n    function removeAdmin(address admin) public onlyOwner {\n        for (uint256 i = 0; i < admins.length; i++) {\n            if (admins[i] == admin) {\n                admins[admins.length - 1] = admins[i];\n                admins.pop();\n                break;\n            }\n        }\n        emit AdminRemoved(admin, block.timestamp);\n    }\n\n    /**\n     * @notice This function is used to burn the apporved NFTToken to certain admin address which was allowed by super admin the owner of Admin Manager\n     * @dev This Fuction is take two arguments address of contract and tokenId of NFT\n     * @param collection tokenId The contract address of NFT contract and tokenId of NFT\n     */\n    function burnNFT(address collection, uint256 tokenId)\n        public\n        adminAndOwnerOnly\n    {\n        IMintable NFTToken = IMintable(collection);\n\n        string memory tokenURI = NFTToken.tokenURI(tokenId);\n        require(\n            NFTToken.getApproved(tokenId) == address(this),\n            \"Token not apporove for burn\"\n        );\n        NFTToken.burn(tokenId);\n        emit NFTBurned(\n            collection,\n            tokenId,\n            msg.sender,\n            block.timestamp,\n            tokenURI\n        );\n    }\n\n    // NFT methods for admin to manage by this contract URL\n    function erc721Approve(\n        address _ERC721Address,\n        address _to,\n        uint256 _tokenId\n    ) public adminAndOwnerOnly {\n        IMintable erc721 = IMintable(_ERC721Address);\n        emit AdminActionPerformed(\n            msg.sender,\n            _ERC721Address,\n            functionNames.approve,\n            _ERC721Address,\n            _tokenId\n        );\n        return erc721.approve(_to, _tokenId);\n    }\n\n    function erc721Transfer(\n        address _ERC721Address,\n        address _to,\n        uint256 _tokenId\n    ) public adminAndOwnerOnly {\n        IMintable erc721 = IMintable(_ERC721Address);\n        emit AdminActionPerformed(\n            msg.sender,\n            _ERC721Address,\n            functionNames.transfer,\n            _ERC721Address,\n            _tokenId\n        );\n        return erc721.transfer(_to, _tokenId);\n    }\n\n    function erc721Burn(address _ERC721Address, uint256 tokenId)\n        public\n        adminAndOwnerOnly\n    {\n        IMintable erc721 = IMintable(_ERC721Address);\n        emit AdminActionPerformed(\n            msg.sender,\n            _ERC721Address,\n            functionNames.burn,\n            _ERC721Address,\n            tokenId\n        );\n        return erc721.burn(tokenId);\n    }\n\n    function erc721Mint(\n        address _ERC721Address,\n        string memory tokenURI,\n        uint256 _royality\n    ) public adminAndOwnerOnly {\n        IMintable erc721 = IMintable(_ERC721Address);\n        emit AdminActionPerformed(\n            msg.sender,\n            _ERC721Address,\n            functionNames.mint,\n            _ERC721Address,\n            0\n        );\n        return erc721.mint(tokenURI, _royality);\n    }\n\n    function erc721SafeTransferFrom(\n        address _ERC721Address,\n        address from,\n        address to,\n        uint256 tokenId\n    ) public adminAndOwnerOnly {\n        IMintable erc721 = IMintable(_ERC721Address);\n        emit AdminActionPerformed(\n            msg.sender,\n            _ERC721Address,\n            functionNames.safeTransferFrom,\n            _ERC721Address,\n            tokenId\n        );\n        return erc721.safeTransferFrom(from, to, tokenId);\n    }\n\n    function erc721SafeTransferFrom(\n        address _ERC721Address,\n        address from,\n        address to,\n        uint256 tokenId,\n        bytes memory _data\n    ) public adminAndOwnerOnly {\n        IMintable erc721 = IMintable(_ERC721Address);\n        emit AdminActionPerformed(\n            msg.sender,\n            _ERC721Address,\n            functionNames.safeTransferFrom,\n            _ERC721Address,\n            tokenId\n        );\n        return erc721.safeTransferFrom(from, to, tokenId, _data);\n    }\n\n    function erc721TransferFrom(\n        address _ERC721Address,\n        address from,\n        address to,\n        uint256 tokenId\n    ) public adminAndOwnerOnly {\n        IMintable erc721 = IMintable(_ERC721Address);\n        emit AdminActionPerformed(\n            msg.sender,\n            _ERC721Address,\n            functionNames.transferFrom,\n            _ERC721Address,\n            tokenId\n        );\n        return erc721.transferFrom(from, to, tokenId);\n    }\n\n    // Broker functions\n\n    function bid(\n        uint256 tokenID,\n        address _mintableToken,\n        uint256 amount\n    ) public payable {\n        broker.bid.value(msg.value)(tokenID, _mintableToken, amount);\n        emit AdminActionPerformed(\n            msg.sender,\n            address(broker),\n            functionNames.bid,\n            _mintableToken,\n            tokenID\n        );\n    }\n\n    function collect(uint256 tokenID, address _mintableToken) public {\n        broker.collect(tokenID, _mintableToken);\n        emit AdminActionPerformed(\n            msg.sender,\n            address(broker),\n            functionNames.collect,\n            _mintableToken,\n            tokenID\n        );\n    }\n\n    function buy(uint256 tokenID, address _mintableToken) public payable {\n        broker.buy.value(msg.value)(tokenID, _mintableToken);\n        emit AdminActionPerformed(\n            msg.sender,\n            address(broker),\n            functionNames.buy,\n            _mintableToken,\n            tokenID\n        );\n    }\n\n    function putOnSale(\n        uint256 _tokenID,\n        uint256 _startingPrice,\n        uint256 _auctionType,\n        uint256 _buyPrice,\n        uint256 _duration,\n        address _mintableToken,\n        address _erc20Token\n    ) public {\n        broker.putOnSale(\n            _tokenID,\n            _startingPrice,\n            _auctionType,\n            _buyPrice,\n            _duration,\n            _mintableToken,\n            _erc20Token\n        );\n        emit AdminActionPerformed(\n            msg.sender,\n            address(broker),\n            functionNames.putOnSale,\n            _mintableToken,\n            _tokenID\n        );\n    }\n\n    function updatePrice(\n        uint256 tokenID,\n        address _mintableToken,\n        uint256 _newPrice,\n        address _erc20Token\n    ) public {\n        broker.updatePrice(tokenID, _mintableToken, _newPrice, _erc20Token);\n        emit AdminActionPerformed(\n            msg.sender,\n            address(broker),\n            functionNames.updatePrice,\n            _mintableToken,\n            tokenID\n        );\n    }\n\n    function putSaleOff(uint256 tokenID, address _mintableToken)\n        public\n    {\n        broker.putSaleOff(tokenID, _mintableToken);\n        emit AdminActionPerformed(\n            msg.sender,\n            address(broker),\n            functionNames.putSaleOff,\n            _mintableToken,\n            tokenID\n        );\n    }\n\n    \n    // ERC20 methods\n    function erc20Approve(address _erc20, address spender, uint256 value) public {\n        IERC20 erc20 = IERC20(_erc20);\n        erc20.approve(spender, value);\n        emit AdminActionPerformed(\n            msg.sender,\n            _erc20,\n            functionNames.erc20Approve,\n            spender,\n            value\n        );\n    }\n\n    function erc20DecreaseApproval(address _erc20, address _spender, uint256 _subtractedValue) public {\n        IERC20 erc20 = IERC20(_erc20);\n        erc20.decreaseApproval(_spender, _subtractedValue);\n        emit AdminActionPerformed(\n            msg.sender,\n            _erc20,\n            functionNames.erc20DecreaseAllowance,\n            _spender,\n            _subtractedValue\n        );\n    }\n    function erc20IncreaseApproval(address _erc20, address spender, uint256 addedValue) public {\n        IERC20 erc20 = IERC20(_erc20);\n        erc20.increaseApproval(spender, addedValue);\n        emit AdminActionPerformed(\n            msg.sender,\n            _erc20,\n            functionNames.erc20IncreaseApproval,\n            spender,\n            addedValue\n        );\n    }\n    function erc20Transfer(address _erc20, address to, uint256 value) public {\n        IERC20 erc20 = IERC20(_erc20);\n        erc20.transfer(to, value);\n        emit AdminActionPerformed(\n            msg.sender,\n            _erc20,\n            functionNames.erc20Transfer,\n            to,\n            value\n        );\n    }\n    function erc20TransferFrom(address _erc20, \n        address from,\n        address to,\n        uint256 value\n    ) public {\n        IERC20 erc20 = IERC20(_erc20);\n        erc20.transferFrom(from, to, value);\n        emit AdminActionPerformed(\n            msg.sender,\n            _erc20,\n            functionNames.erc20TransferFrom,\n            to,\n            value\n        );\n    }\n    function erc20IncreaseAllowance(address _erc20, address spender, uint256 addedValue) public {\n        IERC20 erc20 = IERC20(_erc20);\n        erc20.increaseAllowance(spender, addedValue);\n        emit AdminActionPerformed(\n            msg.sender,\n            _erc20,\n            functionNames.erc20IncreaseAllowance,\n            spender,\n            addedValue\n        );\n    }\n    function erc20DecreaseAllowance(address _erc20, address spender, uint256 subtractedValue) public {\n        IERC20 erc20 = IERC20(_erc20);\n        erc20.decreaseAllowance(spender, subtractedValue);\n        emit AdminActionPerformed(\n            msg.sender,\n            _erc20,\n            functionNames.erc20DecreaseAllowance,\n            spender,\n            subtractedValue\n        );\n    }\n    \n    // Fallback function\n    function() external payable { }\n    \n    \n    function withdraw() public onlyOwner {\n        msg.sender.transfer(address(this).balance);\n    }\n\n    function withdrawERC20(address _erc20Token) public onlyOwner {\n        IERC20 erc20Token = IERC20(_erc20Token);\n        erc20Token.transfer(msg.sender, erc20Token.balanceOf(address(this)));\n    }\n    \n}\n    ",
  "sourcePath": "/Users/thoughtwin/Desktop/weblisto/clubrare/smart_contracts/contracts/AdminManager.sol",
  "compiler": {
    "name": "solc",
    "version": "0.5.17+commit.d19bba13.Emscripten.clang"
  },
  "schemaVersion": "3.4.3",
  "updatedAt": "2021-11-01T10:56:16.615Z",
  "devdoc": {
    "author": "Yogesh Singh",
    "details": "Mediator contract to allow muliple user to perform ERC721 action using contracts address only",
    "methods": {
      "addAdmin(address)": {
        "details": "Fuction take address type argument",
        "params": {
          "admin": "The account address of admin"
        }
      },
      "adminExist(address)": {
        "details": "Fuction take address type argument",
        "params": {
          "_sender": "The account address of _sender or admin"
        }
      },
      "burnNFT(address,uint256)": {
        "details": "This Fuction is take two arguments address of contract and tokenId of NFT",
        "params": {
          "collection": "tokenId The contract address of NFT contract and tokenId of NFT"
        }
      },
      "getAdmins()": {
        "details": "This Fuction is not take any argument",
        "return": "This Fuction return list of address[]"
      },
      "isOwner()": {
        "details": "Returns true if the caller is the current owner."
      },
      "owner()": {
        "details": "Returns the address of the current owner."
      },
      "removeAdmin(address)": {
        "details": "This Fuction is not take any argument",
        "params": {
          "admin": "The account address of admin"
        }
      },
      "renounceOwnership()": {
        "details": "Leaves the contract without owner. It will not be possible to call `onlyOwner` functions anymore. Can only be called by the current owner.     * NOTE: Renouncing ownership will leave the contract without an owner, thereby removing any functionality that is only available to the owner."
      },
      "transferOwnership(address)": {
        "details": "Transfers ownership of the contract to a new account (`newOwner`). Can only be called by the current owner."
      }
    },
    "title": "AdminManager"
  },
  "userdoc": {
    "methods": {
      "addAdmin(address)": {
        "notice": "This function is used to add address of admins"
      },
      "adminExist(address)": {
        "notice": "This function is used to check address of admin exist or not in list of admin"
      },
      "burnNFT(address,uint256)": {
        "notice": "This function is used to burn the apporved NFTToken to certain admin address which was allowed by super admin the owner of Admin Manager"
      },
      "getAdmins()": {
        "notice": "This function is used to get list of all address of admins"
      },
      "removeAdmin(address)": {
        "notice": "This function is used to get list of all address of admins"
      }
    },
    "notice": "You can use this contract to execute function on behalf of superUser"
  }
}