{
  "contractName": "Broker",
  "abi": [
    {
      "inputs": [
        {
          "internalType": "uint16",
          "name": "_brokerage",
          "type": "uint16"
        }
      ],
      "payable": false,
      "stateMutability": "nonpayable",
      "type": "constructor"
    },
    {
      "anonymous": false,
      "inputs": [
        {
          "indexed": true,
          "internalType": "address",
          "name": "collection",
          "type": "address"
        },
        {
          "indexed": true,
          "internalType": "uint256",
          "name": "tokenId",
          "type": "uint256"
        },
        {
          "indexed": true,
          "internalType": "address",
          "name": "seller",
          "type": "address"
        },
        {
          "indexed": false,
          "internalType": "address",
          "name": "bidder",
          "type": "address"
        },
        {
          "indexed": false,
          "internalType": "uint256",
          "name": "amouont",
          "type": "uint256"
        },
        {
          "indexed": false,
          "internalType": "uint256",
          "name": "time",
          "type": "uint256"
        }
      ],
      "name": "Bid",
      "type": "event"
    },
    {
      "anonymous": false,
      "inputs": [
        {
          "indexed": true,
          "internalType": "address",
          "name": "collection",
          "type": "address"
        },
        {
          "indexed": false,
          "internalType": "uint256",
          "name": "tokenId",
          "type": "uint256"
        },
        {
          "indexed": true,
          "internalType": "address",
          "name": "seller",
          "type": "address"
        },
        {
          "indexed": true,
          "internalType": "address",
          "name": "buyer",
          "type": "address"
        },
        {
          "indexed": false,
          "internalType": "uint256",
          "name": "amount",
          "type": "uint256"
        },
        {
          "indexed": false,
          "internalType": "uint256",
          "name": "time",
          "type": "uint256"
        }
      ],
      "name": "Buy",
      "type": "event"
    },
    {
      "anonymous": false,
      "inputs": [
        {
          "indexed": true,
          "internalType": "address",
          "name": "collection",
          "type": "address"
        },
        {
          "indexed": true,
          "internalType": "uint256",
          "name": "tokenId",
          "type": "uint256"
        },
        {
          "indexed": true,
          "internalType": "address",
          "name": "seller",
          "type": "address"
        },
        {
          "indexed": false,
          "internalType": "address",
          "name": "buyer",
          "type": "address"
        },
        {
          "indexed": false,
          "internalType": "address",
          "name": "collector",
          "type": "address"
        },
        {
          "indexed": false,
          "internalType": "uint256",
          "name": "time",
          "type": "uint256"
        }
      ],
      "name": "Collect",
      "type": "event"
    },
    {
      "anonymous": false,
      "inputs": [
        {
          "indexed": true,
          "internalType": "address",
          "name": "collection",
          "type": "address"
        },
        {
          "indexed": true,
          "internalType": "uint256",
          "name": "tokenId",
          "type": "uint256"
        },
        {
          "indexed": true,
          "internalType": "address",
          "name": "seller",
          "type": "address"
        },
        {
          "indexed": false,
          "internalType": "uint256",
          "name": "time",
          "type": "uint256"
        }
      ],
      "name": "OffSale",
      "type": "event"
    },
    {
      "anonymous": false,
      "inputs": [
        {
          "indexed": true,
          "internalType": "address",
          "name": "collection",
          "type": "address"
        },
        {
          "indexed": true,
          "internalType": "uint256",
          "name": "tokenId",
          "type": "uint256"
        },
        {
          "indexed": true,
          "internalType": "address",
          "name": "seller",
          "type": "address"
        },
        {
          "indexed": false,
          "internalType": "uint256",
          "name": "auctionType",
          "type": "uint256"
        },
        {
          "indexed": false,
          "internalType": "uint256",
          "name": "amount",
          "type": "uint256"
        },
        {
          "indexed": false,
          "internalType": "uint256",
          "name": "time",
          "type": "uint256"
        }
      ],
      "name": "OnSale",
      "type": "event"
    },
    {
      "anonymous": false,
      "inputs": [
        {
          "indexed": true,
          "internalType": "address",
          "name": "collection",
          "type": "address"
        },
        {
          "indexed": true,
          "internalType": "uint256",
          "name": "tokenId",
          "type": "uint256"
        },
        {
          "indexed": true,
          "internalType": "address",
          "name": "seller",
          "type": "address"
        },
        {
          "indexed": false,
          "internalType": "uint256",
          "name": "auctionType",
          "type": "uint256"
        },
        {
          "indexed": false,
          "internalType": "uint256",
          "name": "oldAmount",
          "type": "uint256"
        },
        {
          "indexed": false,
          "internalType": "uint256",
          "name": "amount",
          "type": "uint256"
        },
        {
          "indexed": false,
          "internalType": "uint256",
          "name": "time",
          "type": "uint256"
        }
      ],
      "name": "PriceUpdated",
      "type": "event"
    },
    {
      "payable": true,
      "stateMutability": "payable",
      "type": "fallback"
    },
    {
      "constant": true,
      "inputs": [
        {
          "internalType": "address",
          "name": "",
          "type": "address"
        },
        {
          "internalType": "uint256",
          "name": "",
          "type": "uint256"
        }
      ],
      "name": "auctions",
      "outputs": [
        {
          "internalType": "address payable",
          "name": "lastOwner",
          "type": "address"
        },
        {
          "internalType": "uint256",
          "name": "currentBid",
          "type": "uint256"
        },
        {
          "internalType": "address payable",
          "name": "highestBidder",
          "type": "address"
        },
        {
          "internalType": "uint256",
          "name": "auctionType",
          "type": "uint256"
        },
        {
          "internalType": "uint256",
          "name": "startingPrice",
          "type": "uint256"
        },
        {
          "internalType": "uint256",
          "name": "buyPrice",
          "type": "uint256"
        },
        {
          "internalType": "bool",
          "name": "buyer",
          "type": "bool"
        },
        {
          "internalType": "uint256",
          "name": "startingTime",
          "type": "uint256"
        },
        {
          "internalType": "uint256",
          "name": "closingTime",
          "type": "uint256"
        }
      ],
      "payable": false,
      "stateMutability": "view",
      "type": "function"
    },
    {
      "constant": true,
      "inputs": [],
      "name": "brokerage",
      "outputs": [
        {
          "internalType": "uint16",
          "name": "",
          "type": "uint16"
        }
      ],
      "payable": false,
      "stateMutability": "view",
      "type": "function"
    },
    {
      "constant": false,
      "inputs": [
        {
          "internalType": "address",
          "name": "",
          "type": "address"
        },
        {
          "internalType": "address",
          "name": "",
          "type": "address"
        },
        {
          "internalType": "uint256",
          "name": "",
          "type": "uint256"
        },
        {
          "internalType": "bytes",
          "name": "",
          "type": "bytes"
        }
      ],
      "name": "onERC721Received",
      "outputs": [
        {
          "internalType": "bytes4",
          "name": "",
          "type": "bytes4"
        }
      ],
      "payable": false,
      "stateMutability": "nonpayable",
      "type": "function"
    },
    {
      "constant": true,
      "inputs": [],
      "name": "getTokensForSale",
      "outputs": [
        {
          "components": [
            {
              "internalType": "address",
              "name": "NFTAddress",
              "type": "address"
            },
            {
              "internalType": "uint256",
              "name": "tokenID",
              "type": "uint256"
            }
          ],
          "internalType": "struct TokenDetArrayLibV1.TokenDet[]",
          "name": "",
          "type": "tuple[]"
        }
      ],
      "payable": false,
      "stateMutability": "view",
      "type": "function"
    },
    {
      "constant": true,
      "inputs": [],
      "name": "getFixedPriceTokensForSale",
      "outputs": [
        {
          "components": [
            {
              "internalType": "address",
              "name": "NFTAddress",
              "type": "address"
            },
            {
              "internalType": "uint256",
              "name": "tokenID",
              "type": "uint256"
            }
          ],
          "internalType": "struct TokenDetArrayLibV1.TokenDet[]",
          "name": "",
          "type": "tuple[]"
        }
      ],
      "payable": false,
      "stateMutability": "view",
      "type": "function"
    },
    {
      "constant": true,
      "inputs": [],
      "name": "getAuctionTokensForSale",
      "outputs": [
        {
          "components": [
            {
              "internalType": "address",
              "name": "NFTAddress",
              "type": "address"
            },
            {
              "internalType": "uint256",
              "name": "tokenID",
              "type": "uint256"
            }
          ],
          "internalType": "struct TokenDetArrayLibV1.TokenDet[]",
          "name": "",
          "type": "tuple[]"
        }
      ],
      "payable": false,
      "stateMutability": "view",
      "type": "function"
    },
    {
      "constant": true,
      "inputs": [
        {
          "internalType": "address",
          "name": "_user",
          "type": "address"
        }
      ],
      "name": "getTokensForSalePerUser",
      "outputs": [
        {
          "components": [
            {
              "internalType": "address",
              "name": "NFTAddress",
              "type": "address"
            },
            {
              "internalType": "uint256",
              "name": "tokenID",
              "type": "uint256"
            }
          ],
          "internalType": "struct TokenDetArrayLibV1.TokenDet[]",
          "name": "",
          "type": "tuple[]"
        }
      ],
      "payable": false,
      "stateMutability": "view",
      "type": "function"
    },
    {
      "constant": false,
      "inputs": [
        {
          "internalType": "uint16",
          "name": "_brokerage",
          "type": "uint16"
        }
      ],
      "name": "setBrokerage",
      "outputs": [],
      "payable": false,
      "stateMutability": "nonpayable",
      "type": "function"
    },
    {
      "constant": false,
      "inputs": [
        {
          "internalType": "uint256",
          "name": "tokenID",
          "type": "uint256"
        },
        {
          "internalType": "address",
          "name": "_mintableToken",
          "type": "address"
        }
      ],
      "name": "bid",
      "outputs": [],
      "payable": true,
      "stateMutability": "payable",
      "type": "function"
    },
    {
      "constant": false,
      "inputs": [
        {
          "internalType": "uint256",
          "name": "tokenID",
          "type": "uint256"
        },
        {
          "internalType": "address",
          "name": "_mintableToken",
          "type": "address"
        }
      ],
      "name": "collect",
      "outputs": [],
      "payable": false,
      "stateMutability": "nonpayable",
      "type": "function"
    },
    {
      "constant": false,
      "inputs": [
        {
          "internalType": "uint256",
          "name": "tokenID",
          "type": "uint256"
        },
        {
          "internalType": "address",
          "name": "_mintableToken",
          "type": "address"
        }
      ],
      "name": "buy",
      "outputs": [],
      "payable": true,
      "stateMutability": "payable",
      "type": "function"
    },
    {
      "constant": false,
      "inputs": [],
      "name": "withdraw",
      "outputs": [],
      "payable": false,
      "stateMutability": "nonpayable",
      "type": "function"
    },
    {
      "constant": false,
      "inputs": [
        {
          "internalType": "uint256",
          "name": "_tokenID",
          "type": "uint256"
        },
        {
          "internalType": "uint256",
          "name": "_startingPrice",
          "type": "uint256"
        },
        {
          "internalType": "uint256",
          "name": "_auctionType",
          "type": "uint256"
        },
        {
          "internalType": "uint256",
          "name": "_buyPrice",
          "type": "uint256"
        },
        {
          "internalType": "uint256",
          "name": "_duration",
          "type": "uint256"
        },
        {
          "internalType": "address",
          "name": "_mintableToken",
          "type": "address"
        }
      ],
      "name": "putOnSale",
      "outputs": [],
      "payable": false,
      "stateMutability": "nonpayable",
      "type": "function"
    },
    {
      "constant": false,
      "inputs": [
        {
          "internalType": "uint256",
          "name": "tokenID",
          "type": "uint256"
        },
        {
          "internalType": "address",
          "name": "_mintableToken",
          "type": "address"
        },
        {
          "internalType": "uint256",
          "name": "_newPrice",
          "type": "uint256"
        }
      ],
      "name": "updatePrice",
      "outputs": [],
      "payable": false,
      "stateMutability": "nonpayable",
      "type": "function"
    },
    {
      "constant": false,
      "inputs": [
        {
          "internalType": "uint256",
          "name": "tokenID",
          "type": "uint256"
        },
        {
          "internalType": "address",
          "name": "_mintableToken",
          "type": "address"
        }
      ],
      "name": "putSaleOff",
      "outputs": [],
      "payable": false,
      "stateMutability": "nonpayable",
      "type": "function"
    },
    {
      "constant": true,
      "inputs": [
        {
          "internalType": "address",
          "name": "_mintableToken",
          "type": "address"
        },
        {
          "internalType": "uint256",
          "name": "tokenID",
          "type": "uint256"
        }
      ],
      "name": "getOnSaleStatus",
      "outputs": [
        {
          "internalType": "bool",
          "name": "",
          "type": "bool"
        }
      ],
      "payable": false,
      "stateMutability": "view",
      "type": "function"
    }
  ],
  "bytecode": "0x60806040523480156200001157600080fd5b5060405162002a4d38038062002a4d83398101604081905262000034916200007c565b6000805461ffff909216600160a01b0261ffff60a01b196001600160a01b0319909316331792909216919091179055620000c6565b80516200007681620000ac565b92915050565b6000602082840312156200008f57600080fd5b60006200009d848462000069565b949350505050565b61ffff1690565b620000b781620000a5565b8114620000c357600080fd5b50565b61297780620000d66000396000f3fe6080604052600436106100f35760003560e01c80637baa0bc31161008a5780639f04996d116100595780639f04996d14610299578063d3c9080a146102ac578063d4739cca146102c1578063f7f17488146102e1576100f3565b80637baa0bc3146102265780637deb6025146102465780638b765cd1146102595780638d3c100a14610279576100f3565b80633ccfd60b116100c65780633ccfd60b146101985780633fbf444e146101ad57806344f91c1e146101cf57806365e4e1c014610204576100f3565b80630f0a1b9e146100f5578063150b7a0214610115578063179443f31461014b5780631a07b0811461016b575b005b34801561010157600080fd5b506100f36101103660046121ed565b6102f6565b34801561012157600080fd5b506101356101303660046120ce565b6105bc565b604051610142919061270b565b60405180910390f35b34801561015757600080fd5b506100f36101663660046121bd565b6105cd565b34801561017757600080fd5b5061018b610186366004612147565b6107b2565b60405161014291906126fd565b3480156101a457600080fd5b506100f36107e0565b3480156101b957600080fd5b506101c2610839565b60405161014291906127f4565b3480156101db57600080fd5b506101ef6101ea366004612147565b61084a565b6040516101429998979695949392919061263d565b34801561021057600080fd5b506102196108ae565b60405161014291906126ec565b34801561023257600080fd5b506100f361024136600461223a565b610926565b6100f36102543660046121bd565b610f50565b34801561026557600080fd5b506100f3610274366004612181565b611448565b34801561028557600080fd5b506100f36102943660046121bd565b611494565b6100f36102a73660046121bd565b6119ba565b3480156102b857600080fd5b50610219611cd8565b3480156102cd57600080fd5b506102196102dc366004612092565b611d41565b3480156102ed57600080fd5b50610219611dcc565b6040516331a9108f60e11b8152829033906001600160a01b03831690636352211e90610326908890600401612802565b60206040518083038186803b15801561033e57600080fd5b505afa158015610352573d6000803e3d6000fd5b505050506040513d601f19601f8201168201806040525061037691908101906120b0565b6001600160a01b0316146103a55760405162461bcd60e51b815260040161039c90612719565b60405180910390fd5b6001600160a01b03831660009081526001602081815260408084208885529091529091205460ff161515146103ec5760405162461bcd60e51b815260040161039c906127b9565b6001600160a01b038316600090815260056020908152604080832087845290915290206003015460021415610460576001600160a01b038316600090815260056020908152604080832087845290915290206008015442106104605760405162461bcd60e51b815260040161039c906127a9565b6001600160a01b038381166000818152600560209081526040808320898452909152902080546003909101549216918691907fdf29313d1d5b7c5416a94175b5ca68dd12f321c492378515a393cb6fa185a06490600181146104e8576001600160a01b03881660009081526005602090815260408083208c845290915290206004015461050f565b6001600160a01b03881660009081526005602081815260408084208d855290915290912001545b8742604051610521949392919061281e565b60405180910390a46001600160a01b038316600090815260056020908152604080832087845290915290206003015460011415610585576001600160a01b0383166000908152600560208181526040808420888552909152909120018290556105b6565b6001600160a01b03831660009081526005602090815260408083208784529091529020600481018390556001018290555b50505050565b630a85bd0160e11b5b949350505050565b6040516331a9108f60e11b8152819033906001600160a01b03831690636352211e906105fd908790600401612802565b60206040518083038186803b15801561061557600080fd5b505afa158015610629573d6000803e3d6000fd5b505050506040513d601f19601f8201168201806040525061064d91908101906120b0565b6001600160a01b0316146106735760405162461bcd60e51b815260040161039c90612769565b6001600160a01b0382166000818152600560208181526040808420888552825280842090920183905583835260018152818320878452905290819020805460ff1916905551339185917fc6cbfa5d50361876594545ebb03885a467af1f0e149b607cb3bc0dc820983c01906106e9904290612802565b60405180910390a46107036006838563ffffffff611e3516565b5033600090815260026020526040902061072490838563ffffffff611e3516565b506001600160a01b03821660009081526005602090815260408083208684529091529020600301546001141561076c576107666003838563ffffffff611e3516565b506107ad565b6001600160a01b0382166000908152600560209081526040808320868452909152902060030154600214156107ad576105b66004838563ffffffff611e3516565b505050565b6001600160a01b038216600090815260016020908152604080832084845290915290205460ff165b92915050565b6000546001600160a01b0316331461080a5760405162461bcd60e51b815260040161039c90612799565b60405133904780156108fc02916000818181858888f19350505050158015610836573d6000803e3d6000fd5b50565b600054600160a01b900461ffff1681565b600560208181526000938452604080852090915291835291208054600182015460028301546003840154600485015495850154600686015460078701546008909701546001600160a01b039687169895979690941695929493919260ff9091169189565b60606006600001805480602002602001604051908101604052809291908181526020016000905b8282101561091d576000848152602090819020604080518082019091526002850290910180546001600160a01b031682526001908101548284015290835290920191016108d5565b50505050905090565b6040516331a9108f60e11b8152819033906001600160a01b03831690636352211e90610956908b90600401612802565b60206040518083038186803b15801561096e57600080fd5b505afa158015610982573d6000803e3d6000fd5b505050506040513d601f19601f820116820180604052506109a691908101906120b0565b6001600160a01b0316146109cc5760405162461bcd60e51b815260040161039c90612769565b60405163020604bf60e21b815230906001600160a01b0383169063081812fc906109fa908b90600401612802565b60206040518083038186803b158015610a1257600080fd5b505afa158015610a26573d6000803e3d6000fd5b505050506040513d601f19601f82011682018060405250610a4a91908101906120b0565b6001600160a01b031614610a705760405162461bcd60e51b815260040161039c90612759565b6001600160a01b03821660009081526001602081815260408084208b85529091529091205460ff1615151415610b4a576001600160a01b03821660009081526005602090815260408083208a84529091529020600301546002148015610afd57506001600160a01b03821660009081526005602090815260408083208a845290915290206006015460ff16155b8015610b2e57506001600160a01b03821660009081526005602090815260408083208a845290915290206008015442115b610b4a5760405162461bcd60e51b815260040161039c90612779565b610b52611fa7565b604051806101200160405280336001600160a01b0316815260200188815260200160006001600160a01b0316815260200187815260200188815260200186815260200160001515815260200142815260200185420181525090508060056000856001600160a01b03166001600160a01b0316815260200190815260200160002060008a815260200190815260200160002060008201518160000160006101000a8154816001600160a01b0302191690836001600160a01b031602179055506020820151816001015560408201518160020160006101000a8154816001600160a01b0302191690836001600160a01b03160217905550606082015181600301556080820151816004015560a0820151816005015560c08201518160060160006101000a81548160ff02191690831515021790555060e08201518160070155610100820151816008015590505060016000846001600160a01b03166001600160a01b03168152602001908152602001600020600089815260200190815260200160002060009054906101000a900460ff161515600015151415610ef0576001600160a01b03831660009081526001602081815260408084208c855290915291829020805460ff1916909117905551631fcc224760e21b815273__TokenDetArrayLibV1____________________90637f30891c90610d579060069087908d906004016127d9565b60006040518083038186803b158015610d6f57600080fd5b505af4158015610d83573d6000803e3d6000fd5b505033600090815260026020526040908190209051631fcc224760e21b815273__TokenDetArrayLibV1____________________9350637f30891c9250610dd1919087908d906004016127d9565b60006040518083038186803b158015610de957600080fd5b505af4158015610dfd573d6000803e3d6000fd5b505050508560011415610e7b57604051631fcc224760e21b815273__TokenDetArrayLibV1____________________90637f30891c90610e469060039087908d906004016127d9565b60006040518083038186803b158015610e5e57600080fd5b505af4158015610e72573d6000803e3d6000fd5b50505050610ef0565b8560021415610ef057604051631fcc224760e21b815273__TokenDetArrayLibV1____________________90637f30891c90610ebf9060049087908d9083016127d9565b60006040518083038186803b158015610ed757600080fd5b505af4158015610eeb573d6000803e3d6000fd5b505050505b33886001600160a01b0385167f29d80f146295a2c4fe41ea4e39cab877446543c4e3993747545b016fc35e567c8960018114610f2c578b610f2e565b895b42604051610f3e93929190612810565b60405180910390a45050505050505050565b6001600160a01b038116600090815260016020818152604080842086855290915290912054829160ff909116151514610f9b5760405162461bcd60e51b815260040161039c90612739565b6001600160a01b03821660009081526005602081815260408084208785529091529091200154341015610fe05760405162461bcd60e51b815260040161039c90612789565b6001600160a01b0382166000908152600560209081526040808320868452909152902060030154600214156110275760405162461bcd60e51b815260040161039c906127c9565b6001600160a01b03808316600090815260056020908152604080832087845290915280822054905163b5004f0160e01b81529083169284169063b5004f0190611074908890600401612802565b60206040518083038186803b15801561108c57600080fd5b505afa1580156110a0573d6000803e3d6000fd5b505050506040513d601f19601f820116820180604052506110c4919081019061219f565b90506000836001600160a01b031663cd53d08e876040518263ffffffff1660e01b81526004016110f49190612802565b60206040518083038186803b15801561110c57600080fd5b505afa158015611120573d6000803e3d6000fd5b505050506040513d601f19601f8201168201806040525061114491908101906120b0565b6001600160a01b0386811660008181526001602081815260408084208d85528252808420805460ff1990811690915594845260058083528185208e86529092529283902060068101805490951683179094556002840180546001600160a01b03191633179055830154920191909155516331a9108f60e11b81529192508516906342842e0e908290636352211e906111e0908b90600401612802565b60206040518083038186803b1580156111f857600080fd5b505afa15801561120c573d6000803e3d6000fd5b505050506040513d601f19601f8201168201806040525061123091908101906120b0565b6001600160a01b0380891660009081526005602090815260408083208d8452909152908190206002015490516001600160e01b031960e086901b168152611281939291909116908b906004016126de565b600060405180830381600087803b15801561129b57600080fd5b505af11580156112af573d6000803e3d6000fd5b505050506001600160a01b0385811660009081526005602090815260408083208a8452909152902060010154908216906108fc90612710908502049081150290604051600060405180830381858888f19350505050158015611315573d6000803e3d6000fd5b506001600160a01b0385811660009081526005602090815260408083208a84529091528120600101549054918516916108fc9161271091600160a01b900461ffff168683030302049081150290604051600060405180830381858888f19350505050158015611388573d6000803e3d6000fd5b506001600160a01b0385811660008181526005602081815260408084208c855290915291829020015490513393871692917f7a212d757c7290587e1c8f7100a01a3d09466d58945058b6f22a179013475a90916113e8918c914290612810565b60405180910390a46114026006868863ffffffff611e3516565b506001600160a01b038316600090815260026020526040902061142c90868863ffffffff611e3516565b5061143f6003868863ffffffff611e3516565b50505050505050565b6000546001600160a01b031633146114725760405162461bcd60e51b815260040161039c90612799565b6000805461ffff909216600160a01b0261ffff60a01b19909216919091179055565b6001600160a01b0381166000908152600560209081526040808320858452909152902060080154819042116114db5760405162461bcd60e51b815260040161039c90612729565b6001600160a01b0382811660009081526005602090815260408083208784529091529020805460069091015491169060ff1615156001141561186b5760405163b5004f0160e01b81526000906001600160a01b0384169063b5004f0190611546908890600401612802565b60206040518083038186803b15801561155e57600080fd5b505afa158015611572573d6000803e3d6000fd5b505050506040513d601f19601f82011682018060405250611596919081019061219f565b90506000836001600160a01b031663cd53d08e876040518263ffffffff1660e01b81526004016115c69190612802565b60206040518083038186803b1580156115de57600080fd5b505afa1580156115f2573d6000803e3d6000fd5b505050506040513d601f19601f8201168201806040525061161691908101906120b0565b6040516331a9108f60e11b81529091506001600160a01b038516906342842e0e908290636352211e9061164d908b90600401612802565b60206040518083038186803b15801561166557600080fd5b505afa158015611679573d6000803e3d6000fd5b505050506040513d601f19601f8201168201806040525061169d91908101906120b0565b6001600160a01b0380891660009081526005602090815260408083208d8452909152908190206002015490516001600160e01b031960e086901b1681526116ee939291909116908b906004016126de565b600060405180830381600087803b15801561170857600080fd5b505af115801561171c573d6000803e3d6000fd5b505050506001600160a01b0385811660009081526005602090815260408083208a8452909152902060010154908216906108fc90612710908502049081150290604051600060405180830381858888f19350505050158015611782573d6000803e3d6000fd5b506001600160a01b0385811660009081526005602090815260408083208a84529091528120600101549054918516916108fc9161271091600160a01b900461ffff168683030302049081150290604051600060405180830381858888f193505050501580156117f5573d6000803e3d6000fd5b506001600160a01b0385811660008181526005602090815260408083208b8452909152908190206002810154600190910154915190841693871692917f7a212d757c7290587e1c8f7100a01a3d09466d58945058b6f22a179013475a9091611860918c914290612810565b60405180910390a450505b6001600160a01b0380841660008181526001602090815260408083208984528252808320805460ff191690558383526005825280832089845290915290819020600201549051848416938893927f8738bce6e62abeb05692e7db5e7e03bc23efdd8068d4d869825fe6cf6d7d2d4f926118ec92919091169033904290612615565b60405180910390a46119066006848663ffffffff611e3516565b506001600160a01b038116600090815260026020526040902061193090848663ffffffff611e3516565b506119436004848663ffffffff611e3516565b5050506001600160a01b0316600090815260056020818152604080842094845293905291812080546001600160a01b03199081168255600182018390556002820180549091169055600381018290556004810182905591820181905560068201805460ff1916905560078201819055600890910155565b6001600160a01b038116600090815260016020818152604080842086855290915290912054829160ff909116151514611a055760405162461bcd60e51b815260040161039c90612739565b6001600160a01b03821660009081526005602090815260408083208684529091529020600101543411611a4a5760405162461bcd60e51b815260040161039c90612789565b6001600160a01b03821660009081526005602090815260408083208684529091529020600801544210611a8f5760405162461bcd60e51b815260040161039c906127a9565b6001600160a01b038216600090815260056020908152604080832086845290915290206003015460011415611ad65760405162461bcd60e51b815260040161039c90612749565b6001600160a01b038216600090815260056020908152604080832086845290915290206006015460ff16151560011415611b65576001600160a01b038281166000908152600560209081526040808320878452909152808220600281015460019091015491519316926108fc82150292818181858888f19350505050158015611b63573d6000803e3d6000fd5b505b6040516331a9108f60e11b81526001600160a01b038216906342842e0e908290636352211e90611b99908890600401612802565b60206040518083038186803b158015611bb157600080fd5b505afa158015611bc5573d6000803e3d6000fd5b505050506040513d601f19601f82011682018060405250611be991908101906120b0565b30866040518463ffffffff1660e01b8152600401611c09939291906126de565b600060405180830381600087803b158015611c2357600080fd5b505af1158015611c37573d6000803e3d6000fd5b505050506001600160a01b0382811660008181526005602090815260408083208884529091529081902034600180830182905560068301805460ff191690911790556002820180546001600160a01b031916339081179091559154925192909416938793927f25ea1b79d06bc0d1fd383e844cb6c22aa8a986691408b36f8559b4f2c7e8c44e92611ccb92909142906126c3565b60405180910390a4505050565b6003805460408051602080840282018101909252828152606093909290916000908401821561091d576000848152602090819020604080518082019091526002850290910180546001600160a01b031682526001908101548284015290835290920191016108d5565b6001600160a01b0381166000908152600260209081526040808320805482518185028101850190935280835260609492939192909184015b82821015611dc1576000848152602090819020604080518082019091526002850290910180546001600160a01b03168252600190810154828401529083529092019101611d79565b505050509050919050565b6004805460408051602080840282018101909252828152606093909290916000908401821561091d576000848152602090819020604080518082019091526002850290910180546001600160a01b031682526001908101548284015290835290920191016108d5565b60008080611e4a86868663ffffffff611f1216565b909250905060018115151415611f0457855486906000198101908110611e6c57fe5b9060005260206000209060020201866000018381548110611e8957fe5b60009182526020909120825460029092020180546001600160a01b0319166001600160a01b039092169190911781556001918201549101558554869080611ecc57fe5b60008281526020812060026000199093019283020180546001600160a01b031916815560019081019190915591559250611f0b915050565b6000925050505b9392505050565b6000808080805b8754811015611f9a57866001600160a01b0316886000018281548110611f3b57fe5b60009182526020909120600290910201546001600160a01b0316148015611f81575085886000018281548110611f6d57fe5b906000526020600020906002020160010154145b15611f925780925060019150611f9a565b600101611f19565b5090969095509350505050565b60405180610120016040528060006001600160a01b031681526020016000815260200160006001600160a01b0316815260200160008152602001600081526020016000815260200160001515815260200160008152602001600081525090565b80356107da8161290e565b80516107da8161290e565b600082601f83011261202e57600080fd5b813561204161203c82612883565b61285c565b9150808252602083016020830185838301111561205d57600080fd5b612068838284612902565b50505092915050565b80356107da81612922565b80356107da8161292b565b80516107da8161292b565b6000602082840312156120a457600080fd5b60006105c58484612007565b6000602082840312156120c257600080fd5b60006105c58484612012565b600080600080608085870312156120e457600080fd5b60006120f08787612007565b945050602061210187828801612007565b93505060406121128782880161207c565b925050606085013567ffffffffffffffff81111561212f57600080fd5b61213b8782880161201d565b91505092959194509250565b6000806040838503121561215a57600080fd5b60006121668585612007565b92505060206121778582860161207c565b9150509250929050565b60006020828403121561219357600080fd5b60006105c58484612071565b6000602082840312156121b157600080fd5b60006105c58484612087565b600080604083850312156121d057600080fd5b60006121dc858561207c565b925050602061217785828601612007565b60008060006060848603121561220257600080fd5b600061220e868661207c565b935050602061221f86828701612007565b92505060406122308682870161207c565b9150509250925092565b60008060008060008060c0878903121561225357600080fd5b600061225f898961207c565b965050602061227089828a0161207c565b955050604061228189828a0161207c565b945050606061229289828a0161207c565b93505060806122a389828a0161207c565b92505060a06122b489828a01612007565b9150509295509295509295565b60006122cd83836125db565b505060400190565b6122de816128f1565b82525050565b6122de816128be565b60006122f8826128b1565b61230281856128b5565b935061230d836128ab565b8060005b8381101561233b57815161232588826122c1565b9750612330836128ab565b925050600101612311565b509495945050505050565b6122de816128c9565b6122de816128ce565b60006123656033836128b5565b7f596f75206d757374206265206f776e657220616e6420546f6b656e2073686f758152721b19081b9bdd081a185d9948185b9e48189a59606a1b602082015260400192915050565b60006123ba6011836128b5565b7041756374696f6e204e6f74204f7665722160781b815260200192915050565b60006123e76012836128b5565b71546f6b656e204e6f7420466f722053616c6560701b815260200192915050565b60006124156013836128b5565b72105d58dd1a5bdb88139bdd08119bdc88109a59606a1b815260200192915050565b60006124446013836128b5565b72109c9bdad95c88139bdd08185c1c1c9bdd9959606a1b815260200192915050565b60006124736011836128b5565b7014195c9b5a5cdcda5bdb8811195b9a5959607a1b815260200192915050565b60006124a0601c836128b5565b7f54686973204e465420697320616c7265616479206f6e2073616c652e00000000815260200192915050565b60006124d96014836128b5565b73125b9cdd59999a58da595b9d0814185e5b595b9d60621b815260200192915050565b60006125096020836128b5565b7f4f776e61626c653a2063616c6c6572206973206e6f7420746865206f776e6572815260200192915050565b60006125426012836128b5565b7141756374696f6e2054696d65204f7665722160701b815260200192915050565b60006125706025836128b5565b7f546f6b656e204d757374206265206f6e2073616c6520746f206368616e676520815264707269636560d81b602082015260400192915050565b60006125b76015836128b5565b7441756374696f6e20666f7220426964206f6e6c792160581b815260200192915050565b805160408301906125ec84826122e4565b5060208201516105b6602085018261260c565b9052565b6122de816128db565b6122de816128ee565b6060810161262382866122d5565b61263060208301856122d5565b6105c5604083018461260c565b610120810161264c828c6122e4565b612659602083018b61260c565b612666604083018a6122e4565b612673606083018961260c565b612680608083018861260c565b61268d60a083018761260c565b61269a60c0830186612346565b6126a760e083018561260c565b6126b561010083018461260c565b9a9950505050505050505050565b606081016126d182866122d5565b612630602083018561260c565b6060810161262382866122e4565b60208082528101611f0b81846122ed565b602081016107da8284612346565b602081016107da828461234f565b602080825281016107da81612358565b602080825281016107da816123ad565b602080825281016107da816123da565b602080825281016107da81612408565b602080825281016107da81612437565b602080825281016107da81612466565b602080825281016107da81612493565b602080825281016107da816124cc565b602080825281016107da816124fc565b602080825281016107da81612535565b602080825281016107da81612563565b602080825281016107da816125aa565b606081016127e782866125ff565b61263060208301856122e4565b602081016107da8284612603565b602081016107da828461260c565b606081016126d1828661260c565b6080810161282c828761260c565b612839602083018661260c565b612846604083018561260c565b612853606083018461260c565b95945050505050565b60405181810167ffffffffffffffff8111828210171561287b57600080fd5b604052919050565b600067ffffffffffffffff82111561289a57600080fd5b506020601f91909101601f19160190565b60200190565b5190565b90815260200190565b60006107da826128e2565b151590565b6001600160e01b03191690565b61ffff1690565b6001600160a01b031690565b90565b60006107da8260006107da826128be565b82818337506000910152565b612917816128be565b811461083657600080fd5b612917816128db565b612917816128ee56fea365627a7a723158204344b2a6b2bcec40f965e14069cca9baad3b10e1370506533185378158493ad36c6578706572696d656e74616cf564736f6c63430005110040",
  "source": "pragma solidity ^0.5.17;\npragma experimental ABIEncoderV2;\n\nlibrary TokenDetArrayLibV1 {\n    // Using for array of strcutres for storing mintable address and token id\n    using TokenDetArrayLibV1 for TokenDets;\n\n    struct TokenDet {\n        address NFTAddress;\n        uint256 tokenID;\n    }\n\n    // custom type array TokenDets\n    struct TokenDets {\n        TokenDet[] array;\n    }\n\n    /**\n     * @notice push an tokenDet to the array\n     * @dev if the address already exists, it will not be added again\n     * @param self Storage array containing tokenDet type variables\n     */\n    function addTokenDet(\n        TokenDets storage self,\n        address _mintableaddress,\n        uint256 _tokenID\n    ) public {\n        if (!self.exists(_mintableaddress, _tokenID)) {\n            self.array.push(TokenDet(_mintableaddress, _tokenID));\n        }\n    }\n\n    /**\n     * @notice get the tokenDet at a specific index from array\n     * @dev revert if the index is out of bounds\n     * @param self Storage array containing tokenDet type variables\n     */\n    function getIndexByTokenDet(\n        TokenDets storage self,\n        address _mintableaddress,\n        uint256 _tokenID\n    ) internal view returns (uint256, bool) {\n        uint256 index;\n        bool exists = false;\n        for (uint256 i = 0; i < self.array.length; i++) {\n            if (\n                self.array[i].NFTAddress == _mintableaddress &&\n                self.array[i].tokenID == _tokenID\n            ) {\n                index = i;\n                exists = true;\n                break;\n            }\n        }\n        return (index, exists);\n    }\n\n    /**\n     * @notice remove an tokenDet from the array\n     * @dev finds the tokenDet, swaps it with the last tokenDet, and then deletes it;\n     *      returns a boolean whether the tokenDet was found and deleted\n     * @param self Storage array containing tokenDet type variables\n     */\n    function removeTokenDet(\n        TokenDets storage self,\n        address _mintableaddress,\n        uint256 _tokenID\n    ) internal returns (bool) {\n        (uint256 i, bool exists) = self.getIndexByTokenDet(\n            _mintableaddress,\n            _tokenID\n        );\n        if (exists == true) {\n            self.array[i] = self.array[self.array.length - 1];\n            self.array.pop();\n            return true;\n        }\n        return false;\n    }\n\n    /**\n     * @notice check if an tokenDet exist in the array\n     * @param self Storage array containing tokenDet type variables\n     */\n    function exists(\n        TokenDets storage self,\n        address _mintableaddress,\n        uint256 _tokenID\n    ) internal view returns (bool) {\n        for (uint256 i = 0; i < self.array.length; i++) {\n            if (\n                self.array[i].NFTAddress == _mintableaddress &&\n                self.array[i].tokenID == _tokenID\n            ) {\n                return true;\n            }\n        }\n        return false;\n    }\n}\n\n// Interface of ERC721Receiver\ncontract IERC721Receiver {\n    function onERC721Received(\n        address operator,\n        address from,\n        uint256 tokenId,\n        bytes memory data\n    ) public returns (bytes4);\n}\n\n// Contract for Managing the ERC721 Holding\ncontract ERC721Holder is IERC721Receiver {\n    function onERC721Received(\n        address,\n        address,\n        uint256,\n        bytes memory\n    ) public returns (bytes4) {\n        return this.onERC721Received.selector;\n    }\n}\n\n// ERC721 Interface\ncontract IMintableToken {\n    // Required methods\n    function totalSupply() public view returns (uint256 total);\n\n    function balanceOf(address _owner) public view returns (uint256 balance);\n\n    function ownerOf(uint256 _tokenId) external view returns (address owner);\n\n    function approve(address _to, uint256 _tokenId) external;\n\n    function transfer(address _to, uint256 _tokenId) external;\n\n    function transferFrom(\n        address _from,\n        address _to,\n        uint256 _tokenId\n    ) external;\n\n    function royalities(uint256 _tokenId) public view returns (uint256);\n\n    function creators(uint256 _tokenId) public view returns (address payable);\n\n    function safeTransferFrom(\n        address from,\n        address to,\n        uint256 tokenId\n    ) public;\n\n    function getApproved(uint256 tokenId)\n        public\n        view\n        returns (address operator);\n\n    // Events\n    event Transfer(address from, address to, uint256 tokenId);\n    event Approval(address owner, address approved, uint256 tokenId);\n\n    // ERC-165 Compatibility (https://github.com/ethereum/EIPs/issues/165)\n    function supportsInterface(bytes4 _interfaceID)\n        external\n        view\n        returns (bool);\n}\n\n// Broker Contract\ncontract Broker is ERC721Holder {\n    using TokenDetArrayLibV1 for TokenDetArrayLibV1.TokenDets;\n\n    // events\n    event Bid(\n        address indexed collection,\n        uint256 indexed tokenId,\n        address indexed seller,\n        address bidder,\n        uint256 amouont,\n        uint256 time\n    );\n    event Buy(\n        address indexed collection,\n        uint256 tokenId,\n        address indexed seller,\n        address indexed buyer,\n        uint256 amount,\n        uint256 time\n    );\n    event Collect(\n        address indexed collection,\n        uint256 indexed tokenId,\n        address indexed seller,\n        address buyer,\n        address collector,\n        uint256 time\n    );\n    event OnSale(\n        address indexed collection,\n        uint256 indexed tokenId,\n        address indexed seller,\n        uint256 auctionType,\n        uint256 amount,\n        uint256 time\n    );\n    event PriceUpdated(\n        address indexed collection,\n        uint256 indexed tokenId,\n        address indexed seller,\n        uint256 auctionType,\n        uint256 oldAmount,\n        uint256 amount,\n        uint256 time\n    );\n    event OffSale(\n        address indexed collection,\n        uint256 indexed tokenId,\n        address indexed seller,\n        uint256 time\n    );\n\n    address owner;\n    uint16 public brokerage;\n    mapping(address => mapping(uint256 => bool)) tokenOpenForSale;\n    mapping(address => TokenDetArrayLibV1.TokenDets) tokensForSalePerUser;\n\n    TokenDetArrayLibV1.TokenDets fixedPriceTokens;\n    TokenDetArrayLibV1.TokenDets auctionTokens;\n\n    //auction type :\n    // 1 : only direct buy\n    // 2 : only bid\n    // 3 : both buy and bid\n\n    struct auction {\n        address payable lastOwner;\n        uint256 currentBid;\n        address payable highestBidder;\n        uint256 auctionType;\n        uint256 startingPrice;\n        uint256 buyPrice;\n        bool buyer;\n        uint256 startingTime;\n        uint256 closingTime;\n    }\n\n    mapping(address => mapping(uint256 => auction)) public auctions;\n\n    TokenDetArrayLibV1.TokenDets tokensForSale;\n\n    constructor(uint16 _brokerage) public {\n        owner = msg.sender;\n        brokerage = _brokerage;\n    }\n\n    function getTokensForSale()\n        public\n        view\n        returns (TokenDetArrayLibV1.TokenDet[] memory)\n    {\n        return tokensForSale.array;\n    }\n\n    function getFixedPriceTokensForSale()\n        public\n        view\n        returns (TokenDetArrayLibV1.TokenDet[] memory)\n    {\n        return fixedPriceTokens.array;\n    }\n\n    function getAuctionTokensForSale()\n        public\n        view\n        returns (TokenDetArrayLibV1.TokenDet[] memory)\n    {\n        return auctionTokens.array;\n    }\n\n    function getTokensForSalePerUser(address _user)\n        public\n        view\n        returns (TokenDetArrayLibV1.TokenDet[] memory)\n    {\n        return tokensForSalePerUser[_user].array;\n    }\n\n    function setBrokerage(uint16 _brokerage) public onlyOwner {\n        brokerage = _brokerage;\n    }\n\n    function bid(uint256 tokenID, address _mintableToken) public payable {\n        IMintableToken Token = IMintableToken(_mintableToken);\n        require(\n            tokenOpenForSale[_mintableToken][tokenID] == true,\n            \"Token Not For Sale\"\n        );\n        require(\n            msg.value > auctions[_mintableToken][tokenID].currentBid,\n            \"Insufficient Payment\"\n        );\n        require(\n            block.timestamp < auctions[_mintableToken][tokenID].closingTime,\n            \"Auction Time Over!\"\n        );\n        require(\n            auctions[_mintableToken][tokenID].auctionType != 1,\n            \"Auction Not For Bid\"\n        );\n\n        if (auctions[_mintableToken][tokenID].buyer == true) {\n            auctions[_mintableToken][tokenID].highestBidder.transfer(\n                auctions[_mintableToken][tokenID].currentBid\n            );\n        }\n\n        Token.safeTransferFrom(Token.ownerOf(tokenID), address(this), tokenID);\n        auctions[_mintableToken][tokenID].currentBid = msg.value;\n        auctions[_mintableToken][tokenID].buyer = true;\n        auctions[_mintableToken][tokenID].highestBidder = msg.sender;\n\n        // Bid event\n        emit Bid(\n            _mintableToken,\n            tokenID,\n            auctions[_mintableToken][tokenID].lastOwner,\n            msg.sender,\n            msg.value,\n            block.timestamp\n        );\n    }\n\n    function collect(uint256 tokenID, address _mintableToken) public {\n        IMintableToken Token = IMintableToken(_mintableToken);\n        // Check expiry time\n        require(\n            block.timestamp > auctions[_mintableToken][tokenID].closingTime,\n            \"Auction Not Over!\"\n        );\n        // Get seller of the NFT\n        address payable lastOwner2 = auctions[_mintableToken][tokenID]\n            .lastOwner;\n\n        // Check if this auction had even a single bid\n        if (auctions[_mintableToken][tokenID].buyer == true) {\n            // Get royality and creator of NFT from collection\n            uint256 royalities = Token.royalities(tokenID);\n            address payable creator = Token.creators(tokenID);\n\n            // auctions[_mintableToken][tokenID].buyPrice = uint256(0);\n            // NFT transfer\n            Token.safeTransferFrom(\n                Token.ownerOf(tokenID),\n                auctions[_mintableToken][tokenID].highestBidder,\n                tokenID\n            );\n            // Royality transfer\n            creator.transfer(\n                (royalities * auctions[_mintableToken][tokenID].currentBid) /\n                    10000\n            );\n            // Fund transfer after brockerage and royality charges\n            lastOwner2.transfer(\n                ((10000 - royalities - brokerage) *\n                    auctions[_mintableToken][tokenID].currentBid) / 10000\n            );\n\n            // Buy event\n            emit Buy(\n                _mintableToken,\n                tokenID,\n                lastOwner2,\n                auctions[_mintableToken][tokenID].highestBidder,\n                auctions[_mintableToken][tokenID].currentBid,\n                block.timestamp\n            );\n        }\n\n        // Disabling the on sale status\n        tokenOpenForSale[_mintableToken][tokenID] = false;\n        // Collect event\n        emit Collect(\n            _mintableToken,\n            tokenID,\n            lastOwner2,\n            auctions[_mintableToken][tokenID].highestBidder,\n            msg.sender,\n            block.timestamp\n        );\n\n        // Remove from sale list\n        tokensForSale.removeTokenDet(_mintableToken, tokenID);\n        // Remove from sale per user list\n        tokensForSalePerUser[lastOwner2].removeTokenDet(\n            _mintableToken,\n            tokenID\n        );\n        // Remove form auctions list\n        auctionTokens.removeTokenDet(_mintableToken, tokenID);\n        // Delete the auction details\n        delete auctions[_mintableToken][tokenID];\n    }\n\n    function buy(uint256 tokenID, address _mintableToken) public payable {\n        IMintableToken Token = IMintableToken(_mintableToken);\n        require(\n            tokenOpenForSale[_mintableToken][tokenID] == true,\n            \"Token Not For Sale\"\n        );\n        require(\n            msg.value >= auctions[_mintableToken][tokenID].buyPrice,\n            \"Insufficient Payment\"\n        );\n        require(\n            auctions[_mintableToken][tokenID].auctionType != 2,\n            \"Auction for Bid only!\"\n        );\n        address payable lastOwner2 = auctions[_mintableToken][tokenID]\n            .lastOwner;\n        uint256 royalities = Token.royalities(tokenID);\n        address payable creator = Token.creators(tokenID);\n\n        tokenOpenForSale[_mintableToken][tokenID] = false;\n        auctions[_mintableToken][tokenID].buyer = true;\n        auctions[_mintableToken][tokenID].highestBidder = msg.sender;\n        auctions[_mintableToken][tokenID].currentBid = auctions[_mintableToken][\n            tokenID\n        ].buyPrice;\n\n        Token.safeTransferFrom(\n            Token.ownerOf(tokenID),\n            auctions[_mintableToken][tokenID].highestBidder,\n            tokenID\n        );\n        creator.transfer(\n            (royalities * auctions[_mintableToken][tokenID].currentBid) / 10000\n        );\n        lastOwner2.transfer(\n            ((10000 - royalities - brokerage) *\n                auctions[_mintableToken][tokenID].currentBid) / 10000\n        );\n\n        // Buy event\n        emit Buy(\n            _mintableToken,\n            tokenID,\n            lastOwner2,\n            msg.sender,\n            auctions[_mintableToken][tokenID].buyPrice,\n            block.timestamp\n        );\n\n        tokensForSale.removeTokenDet(_mintableToken, tokenID);\n\n        tokensForSalePerUser[lastOwner2].removeTokenDet(\n            _mintableToken,\n            tokenID\n        );\n\n        fixedPriceTokens.removeTokenDet(_mintableToken, tokenID);\n    }\n\n    function withdraw() public onlyOwner {\n        msg.sender.transfer(address(this).balance);\n    }\n\n    function putOnSale(\n        uint256 _tokenID,\n        uint256 _startingPrice,\n        uint256 _auctionType,\n        uint256 _buyPrice,\n        uint256 _duration,\n        address _mintableToken\n    ) public {\n        IMintableToken Token = IMintableToken(_mintableToken);\n        require(Token.ownerOf(_tokenID) == msg.sender, \"Permission Denied\");\n        require(\n            Token.getApproved(_tokenID) == address(this),\n            \"Broker Not approved\"\n        );\n        // Allow to put on sale to already on sale NFT \\\n        // only if it was on auction and have 0 bids and auction is over\n        if (tokenOpenForSale[_mintableToken][_tokenID] == true) {\n            require(\n                auctions[_mintableToken][_tokenID].auctionType == 2 &&\n                    auctions[_mintableToken][_tokenID].buyer == false &&\n                    block.timestamp >\n                    auctions[_mintableToken][_tokenID].closingTime,\n                \"This NFT is already on sale.\"\n            );\n        }\n\n        auction memory newAuction = auction(\n            msg.sender,\n            _startingPrice,\n            address(0),\n            _auctionType,\n            _startingPrice,\n            _buyPrice,\n            false,\n            block.timestamp,\n            block.timestamp + _duration\n        );\n\n        auctions[_mintableToken][_tokenID] = newAuction;\n\n        // Store data in all mappings if adding fresh token on sale\n        if (tokenOpenForSale[_mintableToken][_tokenID] == false) {\n            tokenOpenForSale[_mintableToken][_tokenID] = true;\n\n            tokensForSale.addTokenDet(_mintableToken, _tokenID);\n            tokensForSalePerUser[msg.sender].addTokenDet(\n                _mintableToken,\n                _tokenID\n            );\n\n            // Add token to fixedPrice on Timed list\n            if (_auctionType == 1) {\n                fixedPriceTokens.addTokenDet(_mintableToken, _tokenID);\n            } else if (_auctionType == 2) {\n                auctionTokens.addTokenDet(_mintableToken, _tokenID);\n            }\n        }\n\n        // OnSale event\n        emit OnSale(\n            _mintableToken,\n            _tokenID,\n            msg.sender,\n            _auctionType,\n            _auctionType == 1 ? _buyPrice : _startingPrice,\n            block.timestamp\n        );\n    }\n\n    function updatePrice(\n        uint256 tokenID,\n        address _mintableToken,\n        uint256 _newPrice\n    ) public {\n        IMintableToken Token = IMintableToken(_mintableToken);\n        // Sender will be owner only if no have bidded on auction.\n        require(\n            Token.ownerOf(tokenID) == msg.sender,\n            \"You must be owner and Token should not have any bid\"\n        );\n        require(\n            tokenOpenForSale[_mintableToken][tokenID] == true,\n            \"Token Must be on sale to change price\"\n        );\n        if (auctions[_mintableToken][tokenID].auctionType == 2) {\n            require(\n                block.timestamp < auctions[_mintableToken][tokenID].closingTime,\n                \"Auction Time Over!\"\n            );\n        }\n        // Trigger event PriceUpdated with Old and new price\n        emit PriceUpdated(\n            _mintableToken,\n            tokenID,\n            auctions[_mintableToken][tokenID].lastOwner,\n            auctions[_mintableToken][tokenID].auctionType,\n            auctions[_mintableToken][tokenID].auctionType == 1\n                ? auctions[_mintableToken][tokenID].buyPrice\n                : auctions[_mintableToken][tokenID].startingPrice,\n            _newPrice,\n            block.timestamp\n        );\n        // Update Price\n        if (auctions[_mintableToken][tokenID].auctionType == 1) {\n            auctions[_mintableToken][tokenID].buyPrice = _newPrice;\n        } else {\n            auctions[_mintableToken][tokenID].startingPrice = _newPrice;\n            auctions[_mintableToken][tokenID].currentBid = _newPrice;\n        }\n    }\n\n    function putSaleOff(uint256 tokenID, address _mintableToken) public {\n        IMintableToken Token = IMintableToken(_mintableToken);\n        require(Token.ownerOf(tokenID) == msg.sender, \"Permission Denied\");\n        auctions[_mintableToken][tokenID].buyPrice = uint256(0);\n        tokenOpenForSale[_mintableToken][tokenID] = false;\n\n        // OffSale event\n        emit OffSale(_mintableToken, tokenID, msg.sender, block.timestamp);\n\n        tokensForSale.removeTokenDet(_mintableToken, tokenID);\n\n        tokensForSalePerUser[msg.sender].removeTokenDet(\n            _mintableToken,\n            tokenID\n        );\n        // Remove token from list\n        if (auctions[_mintableToken][tokenID].auctionType == 1) {\n            fixedPriceTokens.removeTokenDet(_mintableToken, tokenID);\n        } else if (auctions[_mintableToken][tokenID].auctionType == 2) {\n            auctionTokens.removeTokenDet(_mintableToken, tokenID);\n        }\n    }\n\n    function getOnSaleStatus(address _mintableToken, uint256 tokenID)\n        public\n        view\n        returns (bool)\n    {\n        return tokenOpenForSale[_mintableToken][tokenID];\n    }\n\n    modifier onlyOwner() {\n        require(owner == msg.sender, \"Ownable: caller is not the owner\");\n        _;\n    }\n\n    function() external payable {\n        //call your function here / implement your actions\n    }\n}\n",
  "sourcePath": "/Users/thoughtwin/Desktop/weblisto/clubrare/smart_contracts/contracts/Broker.sol",
  "compiler": {
    "name": "solc",
    "version": "0.5.17+commit.d19bba13.Emscripten.clang"
  },
  "schemaVersion": "3.4.3",
  "updatedAt": "2021-11-01T10:56:16.665Z",
  "devdoc": {
    "methods": {}
  },
  "userdoc": {
    "methods": {}
  }
}