{
  "contractName": "BrokerV2",
  "abi": [
    {
      "inputs": [
        {
          "internalType": "uint16",
          "name": "_brokerage",
          "type": "uint16"
        },
        {
          "internalType": "uint256",
          "name": "_updatedTime",
          "type": "uint256"
        }
      ],
      "payable": false,
      "stateMutability": "nonpayable",
      "type": "constructor"
    },
    {
      "anonymous": false,
      "inputs": [
        {
          "indexed": true,
          "internalType": "address",
          "name": "collection",
          "type": "address"
        },
        {
          "indexed": true,
          "internalType": "uint256",
          "name": "tokenId",
          "type": "uint256"
        },
        {
          "indexed": true,
          "internalType": "address",
          "name": "seller",
          "type": "address"
        },
        {
          "indexed": false,
          "internalType": "address",
          "name": "bidder",
          "type": "address"
        },
        {
          "indexed": false,
          "internalType": "uint256",
          "name": "amouont",
          "type": "uint256"
        },
        {
          "indexed": false,
          "internalType": "uint256",
          "name": "time",
          "type": "uint256"
        },
        {
          "indexed": false,
          "internalType": "address",
          "name": "ERC20Address",
          "type": "address"
        }
      ],
      "name": "Bid",
      "type": "event"
    },
    {
      "anonymous": false,
      "inputs": [
        {
          "indexed": true,
          "internalType": "address",
          "name": "collection",
          "type": "address"
        },
        {
          "indexed": false,
          "internalType": "uint256",
          "name": "tokenId",
          "type": "uint256"
        },
        {
          "indexed": true,
          "internalType": "address",
          "name": "seller",
          "type": "address"
        },
        {
          "indexed": true,
          "internalType": "address",
          "name": "buyer",
          "type": "address"
        },
        {
          "indexed": false,
          "internalType": "uint256",
          "name": "amount",
          "type": "uint256"
        },
        {
          "indexed": false,
          "internalType": "uint256",
          "name": "time",
          "type": "uint256"
        },
        {
          "indexed": false,
          "internalType": "address",
          "name": "ERC20Address",
          "type": "address"
        }
      ],
      "name": "Buy",
      "type": "event"
    },
    {
      "anonymous": false,
      "inputs": [
        {
          "indexed": true,
          "internalType": "address",
          "name": "collection",
          "type": "address"
        },
        {
          "indexed": true,
          "internalType": "uint256",
          "name": "tokenId",
          "type": "uint256"
        },
        {
          "indexed": true,
          "internalType": "address",
          "name": "seller",
          "type": "address"
        },
        {
          "indexed": false,
          "internalType": "address",
          "name": "buyer",
          "type": "address"
        },
        {
          "indexed": false,
          "internalType": "address",
          "name": "collector",
          "type": "address"
        },
        {
          "indexed": false,
          "internalType": "uint256",
          "name": "time",
          "type": "uint256"
        },
        {
          "indexed": false,
          "internalType": "address",
          "name": "ERC20Address",
          "type": "address"
        }
      ],
      "name": "Collect",
      "type": "event"
    },
    {
      "anonymous": false,
      "inputs": [
        {
          "indexed": true,
          "internalType": "address",
          "name": "collection",
          "type": "address"
        },
        {
          "indexed": true,
          "internalType": "uint256",
          "name": "tokenId",
          "type": "uint256"
        },
        {
          "indexed": true,
          "internalType": "address",
          "name": "seller",
          "type": "address"
        },
        {
          "indexed": false,
          "internalType": "uint256",
          "name": "time",
          "type": "uint256"
        },
        {
          "indexed": false,
          "internalType": "address",
          "name": "ERC20Address",
          "type": "address"
        }
      ],
      "name": "OffSale",
      "type": "event"
    },
    {
      "anonymous": false,
      "inputs": [
        {
          "indexed": true,
          "internalType": "address",
          "name": "collection",
          "type": "address"
        },
        {
          "indexed": true,
          "internalType": "uint256",
          "name": "tokenId",
          "type": "uint256"
        },
        {
          "indexed": true,
          "internalType": "address",
          "name": "seller",
          "type": "address"
        },
        {
          "indexed": false,
          "internalType": "uint256",
          "name": "auctionType",
          "type": "uint256"
        },
        {
          "indexed": false,
          "internalType": "uint256",
          "name": "amount",
          "type": "uint256"
        },
        {
          "indexed": false,
          "internalType": "uint256",
          "name": "time",
          "type": "uint256"
        },
        {
          "indexed": false,
          "internalType": "address",
          "name": "ERC20Address",
          "type": "address"
        }
      ],
      "name": "OnSale",
      "type": "event"
    },
    {
      "anonymous": false,
      "inputs": [
        {
          "indexed": true,
          "internalType": "address",
          "name": "collection",
          "type": "address"
        },
        {
          "indexed": true,
          "internalType": "uint256",
          "name": "tokenId",
          "type": "uint256"
        },
        {
          "indexed": true,
          "internalType": "address",
          "name": "seller",
          "type": "address"
        },
        {
          "indexed": false,
          "internalType": "uint256",
          "name": "auctionType",
          "type": "uint256"
        },
        {
          "indexed": false,
          "internalType": "uint256",
          "name": "oldAmount",
          "type": "uint256"
        },
        {
          "indexed": false,
          "internalType": "uint256",
          "name": "amount",
          "type": "uint256"
        },
        {
          "indexed": false,
          "internalType": "uint256",
          "name": "time",
          "type": "uint256"
        },
        {
          "indexed": false,
          "internalType": "address",
          "name": "ERC20Address",
          "type": "address"
        }
      ],
      "name": "PriceUpdated",
      "type": "event"
    },
    {
      "constant": true,
      "inputs": [
        {
          "internalType": "address",
          "name": "",
          "type": "address"
        },
        {
          "internalType": "uint256",
          "name": "",
          "type": "uint256"
        }
      ],
      "name": "auctions",
      "outputs": [
        {
          "internalType": "address payable",
          "name": "lastOwner",
          "type": "address"
        },
        {
          "internalType": "uint256",
          "name": "currentBid",
          "type": "uint256"
        },
        {
          "internalType": "address payable",
          "name": "highestBidder",
          "type": "address"
        },
        {
          "internalType": "uint256",
          "name": "auctionType",
          "type": "uint256"
        },
        {
          "internalType": "uint256",
          "name": "startingPrice",
          "type": "uint256"
        },
        {
          "internalType": "uint256",
          "name": "buyPrice",
          "type": "uint256"
        },
        {
          "internalType": "bool",
          "name": "buyer",
          "type": "bool"
        },
        {
          "internalType": "uint256",
          "name": "startingTime",
          "type": "uint256"
        },
        {
          "internalType": "uint256",
          "name": "closingTime",
          "type": "uint256"
        },
        {
          "internalType": "address",
          "name": "erc20Token",
          "type": "address"
        }
      ],
      "payable": false,
      "stateMutability": "view",
      "type": "function"
    },
    {
      "constant": true,
      "inputs": [],
      "name": "brokerage",
      "outputs": [
        {
          "internalType": "uint16",
          "name": "",
          "type": "uint16"
        }
      ],
      "payable": false,
      "stateMutability": "view",
      "type": "function"
    },
    {
      "constant": true,
      "inputs": [],
      "name": "getAuctionTokensForSale",
      "outputs": [
        {
          "components": [
            {
              "internalType": "address",
              "name": "NFTAddress",
              "type": "address"
            },
            {
              "internalType": "uint256",
              "name": "tokenID",
              "type": "uint256"
            }
          ],
          "internalType": "struct TokenDetArrayLib.TokenDet[]",
          "name": "",
          "type": "tuple[]"
        }
      ],
      "payable": false,
      "stateMutability": "view",
      "type": "function"
    },
    {
      "constant": true,
      "inputs": [],
      "name": "getErc20Tokens",
      "outputs": [
        {
          "components": [
            {
              "internalType": "address[]",
              "name": "array",
              "type": "address[]"
            }
          ],
          "internalType": "struct ERC20Addresses.erc20Addresses",
          "name": "",
          "type": "tuple"
        }
      ],
      "payable": false,
      "stateMutability": "view",
      "type": "function"
    },
    {
      "constant": true,
      "inputs": [],
      "name": "getFixedPriceTokensForSale",
      "outputs": [
        {
          "components": [
            {
              "internalType": "address",
              "name": "NFTAddress",
              "type": "address"
            },
            {
              "internalType": "uint256",
              "name": "tokenID",
              "type": "uint256"
            }
          ],
          "internalType": "struct TokenDetArrayLib.TokenDet[]",
          "name": "",
          "type": "tuple[]"
        }
      ],
      "payable": false,
      "stateMutability": "view",
      "type": "function"
    },
    {
      "constant": true,
      "inputs": [],
      "name": "getTokensForSale",
      "outputs": [
        {
          "components": [
            {
              "internalType": "address",
              "name": "NFTAddress",
              "type": "address"
            },
            {
              "internalType": "uint256",
              "name": "tokenID",
              "type": "uint256"
            }
          ],
          "internalType": "struct TokenDetArrayLib.TokenDet[]",
          "name": "",
          "type": "tuple[]"
        }
      ],
      "payable": false,
      "stateMutability": "view",
      "type": "function"
    },
    {
      "constant": true,
      "inputs": [
        {
          "internalType": "address",
          "name": "_user",
          "type": "address"
        }
      ],
      "name": "getTokensForSalePerUser",
      "outputs": [
        {
          "components": [
            {
              "internalType": "address",
              "name": "NFTAddress",
              "type": "address"
            },
            {
              "internalType": "uint256",
              "name": "tokenID",
              "type": "uint256"
            }
          ],
          "internalType": "struct TokenDetArrayLib.TokenDet[]",
          "name": "",
          "type": "tuple[]"
        }
      ],
      "payable": false,
      "stateMutability": "view",
      "type": "function"
    },
    {
      "constant": true,
      "inputs": [],
      "name": "isOwner",
      "outputs": [
        {
          "internalType": "bool",
          "name": "",
          "type": "bool"
        }
      ],
      "payable": false,
      "stateMutability": "view",
      "type": "function"
    },
    {
      "constant": false,
      "inputs": [
        {
          "internalType": "address",
          "name": "",
          "type": "address"
        },
        {
          "internalType": "address",
          "name": "",
          "type": "address"
        },
        {
          "internalType": "uint256",
          "name": "",
          "type": "uint256"
        },
        {
          "internalType": "bytes",
          "name": "",
          "type": "bytes"
        }
      ],
      "name": "onERC721Received",
      "outputs": [
        {
          "internalType": "bytes4",
          "name": "",
          "type": "bytes4"
        }
      ],
      "payable": false,
      "stateMutability": "nonpayable",
      "type": "function"
    },
    {
      "constant": true,
      "inputs": [],
      "name": "owner",
      "outputs": [
        {
          "internalType": "address",
          "name": "",
          "type": "address"
        }
      ],
      "payable": false,
      "stateMutability": "view",
      "type": "function"
    },
    {
      "constant": false,
      "inputs": [
        {
          "internalType": "uint16",
          "name": "_brokerage",
          "type": "uint16"
        }
      ],
      "name": "setBrokerage",
      "outputs": [],
      "payable": false,
      "stateMutability": "nonpayable",
      "type": "function"
    },
    {
      "constant": false,
      "inputs": [
        {
          "internalType": "uint256",
          "name": "_updateTime",
          "type": "uint256"
        }
      ],
      "name": "setUpdatedClosingTime",
      "outputs": [],
      "payable": false,
      "stateMutability": "nonpayable",
      "type": "function"
    },
    {
      "constant": false,
      "inputs": [
        {
          "internalType": "address",
          "name": "newOwner",
          "type": "address"
        }
      ],
      "name": "transferOwnership",
      "outputs": [],
      "payable": false,
      "stateMutability": "nonpayable",
      "type": "function"
    },
    {
      "constant": true,
      "inputs": [],
      "name": "updateClosingTime",
      "outputs": [
        {
          "internalType": "uint256",
          "name": "",
          "type": "uint256"
        }
      ],
      "payable": false,
      "stateMutability": "view",
      "type": "function"
    },
    {
      "constant": false,
      "inputs": [
        {
          "internalType": "address",
          "name": "_erc20Token",
          "type": "address"
        }
      ],
      "name": "addERC20TokenPayment",
      "outputs": [],
      "payable": false,
      "stateMutability": "nonpayable",
      "type": "function"
    },
    {
      "constant": false,
      "inputs": [
        {
          "internalType": "address",
          "name": "_erc20Token",
          "type": "address"
        }
      ],
      "name": "removeERC20TokenPayment",
      "outputs": [],
      "payable": false,
      "stateMutability": "nonpayable",
      "type": "function"
    },
    {
      "constant": false,
      "inputs": [
        {
          "internalType": "uint256",
          "name": "tokenID",
          "type": "uint256"
        },
        {
          "internalType": "address",
          "name": "_mintableToken",
          "type": "address"
        },
        {
          "internalType": "uint256",
          "name": "amount",
          "type": "uint256"
        }
      ],
      "name": "bid",
      "outputs": [],
      "payable": true,
      "stateMutability": "payable",
      "type": "function"
    },
    {
      "constant": false,
      "inputs": [
        {
          "internalType": "uint256",
          "name": "tokenID",
          "type": "uint256"
        },
        {
          "internalType": "address",
          "name": "_mintableToken",
          "type": "address"
        }
      ],
      "name": "collect",
      "outputs": [],
      "payable": false,
      "stateMutability": "nonpayable",
      "type": "function"
    },
    {
      "constant": false,
      "inputs": [
        {
          "internalType": "uint256",
          "name": "tokenID",
          "type": "uint256"
        },
        {
          "internalType": "address",
          "name": "_mintableToken",
          "type": "address"
        }
      ],
      "name": "buy",
      "outputs": [],
      "payable": true,
      "stateMutability": "payable",
      "type": "function"
    },
    {
      "constant": false,
      "inputs": [],
      "name": "withdraw",
      "outputs": [],
      "payable": false,
      "stateMutability": "nonpayable",
      "type": "function"
    },
    {
      "constant": false,
      "inputs": [
        {
          "internalType": "address",
          "name": "_erc20Token",
          "type": "address"
        }
      ],
      "name": "withdrawERC20",
      "outputs": [],
      "payable": false,
      "stateMutability": "nonpayable",
      "type": "function"
    },
    {
      "constant": false,
      "inputs": [
        {
          "internalType": "uint256",
          "name": "_tokenID",
          "type": "uint256"
        },
        {
          "internalType": "uint256",
          "name": "_startingPrice",
          "type": "uint256"
        },
        {
          "internalType": "uint256",
          "name": "_auctionType",
          "type": "uint256"
        },
        {
          "internalType": "uint256",
          "name": "_buyPrice",
          "type": "uint256"
        },
        {
          "internalType": "uint256",
          "name": "_startingTime",
          "type": "uint256"
        },
        {
          "internalType": "uint256",
          "name": "_closingTime",
          "type": "uint256"
        },
        {
          "internalType": "address",
          "name": "_mintableToken",
          "type": "address"
        },
        {
          "internalType": "address",
          "name": "_erc20Token",
          "type": "address"
        }
      ],
      "name": "putOnSale",
      "outputs": [],
      "payable": false,
      "stateMutability": "nonpayable",
      "type": "function"
    },
    {
      "constant": false,
      "inputs": [
        {
          "internalType": "uint256",
          "name": "tokenID",
          "type": "uint256"
        },
        {
          "internalType": "address",
          "name": "_mintableToken",
          "type": "address"
        },
        {
          "internalType": "uint256",
          "name": "_newPrice",
          "type": "uint256"
        },
        {
          "internalType": "address",
          "name": "_erc20Token",
          "type": "address"
        }
      ],
      "name": "updatePrice",
      "outputs": [],
      "payable": false,
      "stateMutability": "nonpayable",
      "type": "function"
    },
    {
      "constant": false,
      "inputs": [
        {
          "internalType": "uint256",
          "name": "tokenID",
          "type": "uint256"
        },
        {
          "internalType": "address",
          "name": "_mintableToken",
          "type": "address"
        }
      ],
      "name": "putSaleOff",
      "outputs": [],
      "payable": false,
      "stateMutability": "nonpayable",
      "type": "function"
    },
    {
      "constant": true,
      "inputs": [
        {
          "internalType": "address",
          "name": "_mintableToken",
          "type": "address"
        },
        {
          "internalType": "uint256",
          "name": "tokenID",
          "type": "uint256"
        }
      ],
      "name": "getOnSaleStatus",
      "outputs": [
        {
          "internalType": "bool",
          "name": "",
          "type": "bool"
        }
      ],
      "payable": false,
      "stateMutability": "view",
      "type": "function"
    }
  ],
  "bytecode": "0x60806040523480156200001157600080fd5b50604051620041f5380380620041f5833981016040819052620000349162000171565b60008054336001600160a01b03199091161761ffff60a01b1916600160a01b61ffff851602179055620000678162000083565b6200007b336001600160e01b03620000c316565b505062000291565b620000966001600160e01b036200014016565b620000be5760405162461bcd60e51b8152600401620000b59062000247565b60405180910390fd5b600155565b620000d66001600160e01b036200014016565b620000f55760405162461bcd60e51b8152600401620000b59062000247565b6001600160a01b0381166200011e5760405162461bcd60e51b8152600401620000b59062000235565b600080546001600160a01b0319166001600160a01b0392909216919091179055565b6000546001600160a01b0316331490565b80516200015e816200026c565b92915050565b80516200015e8162000286565b600080604083850312156200018557600080fd5b600062000193858562000151565b9250506020620001a68582860162000164565b9150509250929050565b6000620001bf60268362000259565b7f4f776e61626c653a206e6577206f776e657220697320746865207a65726f206181526564647265737360d01b602082015260400192915050565b60006200020960208362000259565b7f4f776e61626c653a2063616c6c6572206973206e6f7420746865206f776e6572815260200192915050565b602080825281016200015e81620001b0565b602080825281016200015e81620001fa565b90815260200190565b61ffff1690565b90565b620002778162000262565b81146200028357600080fd5b50565b620002778162000269565b613f5480620002a16000396000f3fe6080604052600436106101665760003560e01c80638b765cd1116100d1578063d4739cca1161008a578063f4f3b20011610064578063f4f3b20014610415578063f5a0c9b814610435578063f7f1748814610455578063ff8edbdb1461046a57610166565b8063d4739cca146103b5578063e467682d146103d5578063f2fde38b146103f557610166565b80638b765cd1146103165780638d3c100a146103365780638da5cb5b146103565780638f32d59b14610378578063c0f4ed311461038d578063d3c9080a146103a057610166565b806344f91c1e1161012357806344f91c1e14610247578063640cf8731461027d57806365e4e1c01461029d5780636d036535146102bf5780637deb6025146102e15780637f494852146102f457610166565b806305ac943e1461016b578063150b7a021461018d578063179443f3146101c35780631a07b081146101e35780633ccfd60b146102105780633fbf444e14610225575b600080fd5b34801561017757600080fd5b5061018b610186366004613279565b61048a565b005b34801561019957600080fd5b506101ad6101a83660046132b5565b610524565b6040516101ba9190613c54565b60405180910390f35b3480156101cf57600080fd5b5061018b6101de3660046133e0565b610535565b3480156101ef57600080fd5b506102036101fe36600461332e565b610805565b6040516101ba9190613c46565b34801561021c57600080fd5b5061018b610833565b34801561023157600080fd5b5061023a6108dd565b6040516101ba9190613dac565b34801561025357600080fd5b5061026761026236600461332e565b6108ee565b6040516101ba9a99989796959493929190613b69565b34801561028957600080fd5b5061018b6102983660046134b2565b61095a565b3480156102a957600080fd5b506102b26110cf565b6040516101ba9190613c35565b3480156102cb57600080fd5b506102d4611148565b6040516101ba9190613d8d565b61018b6102ef3660046133e0565b6111b9565b34801561030057600080fd5b506103096119b8565b6040516101ba9190613dba565b34801561032257600080fd5b5061018b610331366004613386565b6119be565b34801561034257600080fd5b5061018b6103513660046133e0565b611a04565b34801561036257600080fd5b5061036b6120fd565b6040516101ba9190613aa6565b34801561038457600080fd5b5061020361210c565b61018b61039b366004613410565b61211d565b3480156103ac57600080fd5b506102b26127ca565b3480156103c157600080fd5b506102b26103d0366004613279565b612833565b3480156103e157600080fd5b5061018b6103f0366004613279565b6128be565b34801561040157600080fd5b5061018b610410366004613279565b612934565b34801561042157600080fd5b5061018b610430366004613279565b6129a0565b34801561044157600080fd5b5061018b6104503660046133a4565b612a9d565b34801561046157600080fd5b506102b2612ac6565b34801561047657600080fd5b5061018b61048536600461345d565b612b2f565b61049261210c565b6104b75760405162461bcd60e51b81526004016104ae90613d12565b60405180910390fd5b60405163581455e960e01b815273__ERC20Addresses________________________9063581455e9906104f1906008908590600401613d9e565b60006040518083038186803b15801561050957600080fd5b505af415801561051d573d6000803e3d6000fd5b5050505050565b630a85bd0160e11b5b949350505050565b6040516331a9108f60e11b81528290829033906001600160a01b03831690636352211e90610567908690600401613dba565b60206040518083038186803b15801561057f57600080fd5b505afa158015610593573d6000803e3d6000fd5b505050506040513d601f19601f820116820180604052506105b79190810190613297565b6001600160a01b0316146105dd5760405162461bcd60e51b81526004016104ae90613c62565b6105e561310c565b506001600160a01b03808416600090815260066020818152604080842089855282529283902083516101408101855281548616815260018201549281019290925260028101548516938201939093526003830154606082015260048301546080820152600583015460a08201529082015460ff16151560c0820152600782015460e0820152600882015461010082015260099091015490911661012082015261068c61317c565b506040805180820182526001600160a01b03861680825260208083018990526000828152600282528481208a8252909152839020805460ff191690556101208401519251919233928992917fc2faf9d94bb8992d1eda56db8f2aefeb7cd52ed54e8bdfdd439d361132f59e2091610704914291613dc8565b60405180910390a461071d60078263ffffffff612ea816565b5033600090815260036020526040902061073d908263ffffffff612ea816565b508160600151600114156107625761075c60048263ffffffff612ea816565b50610782565b8160600151600214156107825761078060058263ffffffff612ea816565b505b505050506001600160a01b0316600090815260066020818152604080842094845293905291812080546001600160a01b031990811682556001820183905560028201805482169055600382018390556004820183905560058201839055928101805460ff1916905560078101829055600881019190915560090180549091169055565b6001600160a01b038216600090815260026020908152604080832084845290915290205460ff165b92915050565b61083b61210c565b6108575760405162461bcd60e51b81526004016104ae90613d12565b600080805260096020527fec8156718a8372b1db44bb411437d0870f3e3790d4a08526d024ce1b0b668f6b54604051339282156108fc02929190818181858888f193505050501580156108ae573d6000803e3d6000fd5b50600080805260096020527fec8156718a8372b1db44bb411437d0870f3e3790d4a08526d024ce1b0b668f6b55565b600054600160a01b900461ffff1681565b6006602081815260009384526040808520909152918352912080546001820154600283015460038401546004850154600586015496860154600787015460088801546009909801546001600160a01b039788169996989588169794969395939460ff909316939192168a565b806001600160a01b038116156109975761097b60088263ffffffff612f8116565b6109975760405162461bcd60e51b81526004016104ae90613d62565b6040516331a9108f60e11b81528990849033906001600160a01b03831690636352211e906109c9908690600401613dba565b60206040518083038186803b1580156109e157600080fd5b505afa1580156109f5573d6000803e3d6000fd5b505050506040513d601f19601f82011682018060405250610a199190810190613297565b6001600160a01b031614610a3f5760405162461bcd60e51b81526004016104ae90613c62565b84610a4861310c565b60066000886001600160a01b03166001600160a01b0316815260200190815260200160002060008e8152602001908152602001600020604051806101400160405290816000820160009054906101000a90046001600160a01b03166001600160a01b03166001600160a01b03168152602001600182015481526020016002820160009054906101000a90046001600160a01b03166001600160a01b03166001600160a01b031681526020016003820154815260200160048201548152602001600582015481526020016006820160009054906101000a900460ff1615151515815260200160078201548152602001600882015481526020016009820160009054906101000a90046001600160a01b03166001600160a01b03166001600160a01b031681525050905060026000886001600160a01b03166001600160a01b0316815260200190815260200160002060008e815260200190815260200160002060009054906101000a900460ff161515600115151415610c025780606001516002148015610bd6575060c0810151155b8015610be6575080610100015142115b610c025760405162461bcd60e51b81526004016104ae90613cf2565b610c0a61317c565b6040518060400160405280896001600160a01b031681526020018f8152509050610c3261310c565b604051806101400160405280336001600160a01b031681526020018f815260200160006001600160a01b031681526020018e81526020018f81526020018d81526020016000151581526020018c81526020018b8152602001896001600160a01b03168152509050306001600160a01b0316846001600160a01b031663081812fc84602001516040518263ffffffff1660e01b8152600401610cd39190613dba565b60206040518083038186803b158015610ceb57600080fd5b505afa158015610cff573d6000803e3d6000fd5b505050506040513d601f19601f82011682018060405250610d239190810190613297565b6001600160a01b031614610d495760405162461bcd60e51b81526004016104ae90613ce2565b8a8a11610d685760405162461bcd60e51b81526004016104ae90613d42565b81516001600160a01b03908116600090815260066020818152604080842082880180518652908352818520875181546001600160a01b031990811691891691909117825588850151600183015588840151600280840180548416928b169290921790915560608a0151600384015560808a0151600484015560a08a0151600584015560c08a0151968301805460ff19169715159790971790965560e08901516007830155610100890151600883015561012089015160099092018054909116918816919091179055875190951684529181528183209351835292909252205460ff1661104d5781516001600160a01b0316600090815260026020908152604080832082860151845290915290819020805460ff191660011790555163fd7c9a1560e01b815273__TokenDetArrayLib______________________9063fd7c9a1590610eba906007908690600401613d72565b60006040518083038186803b158015610ed257600080fd5b505af4158015610ee6573d6000803e3d6000fd5b50503360009081526003602052604090819020905163fd7c9a1560e01b815273__TokenDetArrayLib______________________935063fd7c9a159250610f3291908690600401613d72565b60006040518083038186803b158015610f4a57600080fd5b505af4158015610f5e573d6000803e3d6000fd5b505050508c60011415610fd95760405163fd7c9a1560e01b815273__TokenDetArrayLib______________________9063fd7c9a1590610fa49060049086908201613d72565b60006040518083038186803b158015610fbc57600080fd5b505af4158015610fd0573d6000803e3d6000fd5b5050505061104d565b8c6002141561104d5760405163fd7c9a1560e01b815273__TokenDetArrayLib______________________9063fd7c9a159061101c906005908690600401613d72565b60006040518083038186803b15801561103457600080fd5b505af4158015611048573d6000803e3d6000fd5b505050505b6020820151825160608301513392916001600160a01b0316907fab6ed0d1a912b3de36cc5b4c42eb3b65a1baa1321ec3a4be61d51708ec37c8cb906001811461109a5785608001516110a0565b8560a001515b6101208701516040516110b69392914291613dd6565b60405180910390a4505050505050505050505050505050565b60606007600001805480602002602001604051908101604052809291908181526020016000905b8282101561113e576000848152602090819020604080518082019091526002850290910180546001600160a01b031682526001908101548284015290835290920191016110f6565b5050505090505b90565b611150613193565b604080516008805460208181028401850185528301818152929391928492909184918401828280156111ab57602002820191906000526020600020905b81546001600160a01b0316815260019091019060200180831161118d575b505050505081525050905090565b6001600160a01b03811660009081526002602090815260408083208584529091529020548290829060ff1615156001146112055760405162461bcd60e51b81526004016104ae90613cd2565b6001600160a01b038316600090815260066020908152604080832087845290915290206003015484908490600214156112505760405162461bcd60e51b81526004016104ae90613d52565b8461125961310c565b506001600160a01b0380871660009081526006602081815260408084208c855282529283902083516101408101855281548616815260018201549281019290925260028101548516938201939093526003830154606082015260048301546080820152600583015460a08201529082015460ff16151560c0820152600782015460e0820152600882015461010082015260099091015490911661012082015261130061317c565b506040805180820182526001600160a01b03808a168252602082018b90528351925163b5004f0160e01b815291929160009186169063b5004f0190611349908e90600401613dba565b60206040518083038186803b15801561136157600080fd5b505afa158015611375573d6000803e3d6000fd5b505050506040513d601f19601f8201168201806040525061139991908101906133c2565b90506000856001600160a01b031663cd53d08e8d6040518263ffffffff1660e01b81526004016113c99190613dba565b60206040518083038186803b1580156113e157600080fd5b505afa1580156113f5573d6000803e3d6000fd5b505050506040513d601f19601f820116820180604052506114199190810190613297565b905060006127108660a0015184028161142e57fe5b04905060006127108760a00151600060149054906101000a900461ffff1661ffff16028161145857fe5b049050600081838960a001510303905060006001600160a01b03168861012001516001600160a01b0316141561151f578760a001513410156114ac5760405162461bcd60e51b81526004016104ae90613d02565b6040516001600160a01b0385169084156108fc029085906000818181858888f193505050501580156114e2573d6000803e3d6000fd5b506040516001600160a01b0387169082156108fc029083906000818181858888f19350505050158015611519573d6000803e3d6000fd5b50611751565b61012088015160a0890151604051636eb1769f60e11b81526001600160a01b0383169063dd62ed3e906115589033903090600401613ab4565b60206040518083038186803b15801561157057600080fd5b505afa158015611584573d6000803e3d6000fd5b505050506040513d601f19601f820116820180604052506115a891908101906133c2565b10156115c65760405162461bcd60e51b81526004016104ae90613cb2565b6040516323b872dd60e01b81526001600160a01b038216906323b872dd906115f690339089908990600401613ad6565b602060405180830381600087803b15801561161057600080fd5b505af1158015611624573d6000803e3d6000fd5b505050506040513d601f19601f820116820180604052506116489190810190613368565b506040516323b872dd60e01b81526001600160a01b038216906323b872dd9061167990339030908890600401613b33565b602060405180830381600087803b15801561169357600080fd5b505af11580156116a7573d6000803e3d6000fd5b505050506040513d601f19601f820116820180604052506116cb9190810190613368565b506040516323b872dd60e01b81526001600160a01b038216906323b872dd906116fc9033908b908790600401613ad6565b602060405180830381600087803b15801561171657600080fd5b505af115801561172a573d6000803e3d6000fd5b505050506040513d601f19601f8201168201806040525061174e9190810190613368565b50505b6101208801516001600160a01b0390811660009081526009602090815260408083208054870190558a5184168352600282528083208b830180518552925291829020805460ff191690555190516331a9108f60e11b8152918b16916342842e0e918391636352211e916117c691600401613dba565b60206040518083038186803b1580156117de57600080fd5b505afa1580156117f2573d6000803e3d6000fd5b505050506040513d601f19601f820116820180604052506118169190810190613297565b338a602001516040518463ffffffff1660e01b815260040161183a93929190613c19565b600060405180830381600087803b15801561185457600080fd5b505af1158015611868573d6000803e3d6000fd5b50505050336001600160a01b0316866001600160a01b031688600001516001600160a01b03167ff52711714c2848336b51183ad6550474673c87f277aa86c14888415fc1dd09168a602001518c60a00151428e61012001516040516118d09493929190613dd6565b60405180910390a46118e960078863ffffffff612ea816565b506001600160a01b0386166000908152600360205260409020611912908863ffffffff612ea816565b5061192460048863ffffffff612ea816565b505085516001600160a01b0316600090815260066020818152604080842099820151845298905296812080546001600160a01b031990811682556001820183905560028201805482169055600382018390556004820183905560058201839055978101805460ff19169055600781018290556008810191909155600901805490961690955550505050505050505050505050565b60015481565b6119c661210c565b6119e25760405162461bcd60e51b81526004016104ae90613d12565b6000805461ffff909216600160a01b0261ffff60a01b19909216919091179055565b80611a0d61310c565b506001600160a01b03808316600090815260066020818152604080842088855282529283902083516101408101855281548616815260018201549281019290925260028101548516938201939093526003830154606082015260048301546080820152600583015460a08201529082015460ff16151560c0820152600782015460e08201526008820154610100820152600990910154909116610120820152611ab461317c565b6040518060400160405280856001600160a01b031681526020018681525090508161010001514211611af85760405162461bcd60e51b81526004016104ae90613c82565b815160405163b5004f0160e01b81526000906001600160a01b0386169063b5004f0190611b29908a90600401613dba565b60206040518083038186803b158015611b4157600080fd5b505afa158015611b55573d6000803e3d6000fd5b505050506040513d601f19601f82011682018060405250611b7991908101906133c2565b90506000856001600160a01b031663cd53d08e896040518263ffffffff1660e01b8152600401611ba99190613dba565b60206040518083038186803b158015611bc157600080fd5b505afa158015611bd5573d6000803e3d6000fd5b505050506040513d601f19601f82011682018060405250611bf99190810190613297565b905060006127108660200151840281611c0e57fe5b04905060006127108760200151600060149054906101000a900461ffff1661ffff160281611c3857fe5b049050600081838960200151030390508760c001511515600115151415611fc2576101208801516001600160a01b0316611cdf576040516001600160a01b0385169084156108fc029085906000818181858888f19350505050158015611ca2573d6000803e3d6000fd5b506040516001600160a01b0387169082156108fc029083906000818181858888f19350505050158015611cd9573d6000803e3d6000fd5b50611de9565b61012088015160405163a9059cbb60e01b81526001600160a01b0382169063a9059cbb90611d139088908890600401613b4e565b602060405180830381600087803b158015611d2d57600080fd5b505af1158015611d41573d6000803e3d6000fd5b505050506040513d601f19601f82011682018060405250611d659190810190613368565b5060405163a9059cbb60e01b81526001600160a01b0382169063a9059cbb90611d94908a908690600401613b4e565b602060405180830381600087803b158015611dae57600080fd5b505af1158015611dc2573d6000803e3d6000fd5b505050506040513d601f19601f82011682018060405250611de69190810190613368565b50505b81600960008a61012001516001600160a01b03166001600160a01b03168152602001908152602001600020600082825401925050819055506000600260008c6001600160a01b03166001600160a01b0316815260200190815260200160002060008d815260200190815260200160002060006101000a81548160ff021916908315150217905550886001600160a01b03166342842e0e8a6001600160a01b0316636352211e8e6040518263ffffffff1660e01b8152600401611eab9190613dba565b60206040518083038186803b158015611ec357600080fd5b505afa158015611ed7573d6000803e3d6000fd5b505050506040513d601f19601f82011682018060405250611efb9190810190613297565b8a604001518e6040518463ffffffff1660e01b8152600401611f1f93929190613c19565b600060405180830381600087803b158015611f3957600080fd5b505af1158015611f4d573d6000803e3d6000fd5b5050505087604001516001600160a01b0316866001600160a01b031688600001516001600160a01b03167ff52711714c2848336b51183ad6550474673c87f277aa86c14888415fc1dd09168a602001518c60200151428e6101200151604051611fb99493929190613dd6565b60405180910390a45b856001600160a01b0316876020015188600001516001600160a01b03167ffea08bb1b0c126c4d14cec1f22705e26528a9385b48fd32837d4432137c39e9e8b6040015133428e610120015160405161201d9493929190613afe565b60405180910390a461203660078863ffffffff612ea816565b506001600160a01b038616600090815260036020526040902061205f908863ffffffff612ea816565b5061207160058863ffffffff612ea816565b5050506001600160a01b0390971660009081526006602081815260408084209b84529a905298812080546001600160a01b031990811682556001820183905560028201805482169055600382018390556004820183905560058201839055998101805460ff19169055600781018290556008810191909155600901805490981690975550505050505050565b6000546001600160a01b031690565b6000546001600160a01b0316331490565b6001600160a01b03821660009081526002602090815260408083208684529091529020548390839060ff1615156001146121695760405162461bcd60e51b81526004016104ae90613cd2565b6001600160a01b03841660009081526006602090815260408083208884529091529020600801548590859042106121b25760405162461bcd60e51b81526004016104ae90613d22565b6001600160a01b038116600090815260066020908152604080832085845290915290206007015442116121f75760405162461bcd60e51b81526004016104ae90613d32565b8561220061310c565b506001600160a01b0380881660009081526006602081815260408084208d855282529283902083516101408101855281548616815260018201549281019290925260028101548516938201939093526003830154606082015260048301546080820152600583015460a08201529082015460ff16151560c0820152600782015460e08201526008820154610100820152600990910154909116610120820181905261231f57806020015134116122c85760405162461bcd60e51b81526004016104ae90613c72565b60c081015115156001141561231a5780604001516001600160a01b03166108fc82602001519081150290604051600060405180830381858888f19350505050158015612318573d6000803e3d6000fd5b505b612504565b610120810151604051636eb1769f60e11b815288906001600160a01b0383169063dd62ed3e906123559033903090600401613ab4565b60206040518083038186803b15801561236d57600080fd5b505afa158015612381573d6000803e3d6000fd5b505050506040513d601f19601f820116820180604052506123a591908101906133c2565b10156123c35760405162461bcd60e51b81526004016104ae90613c92565b816020015188116123e65760405162461bcd60e51b81526004016104ae90613c72565b6040516323b872dd60e01b81526001600160a01b038216906323b872dd9061241690339030908d90600401613b33565b602060405180830381600087803b15801561243057600080fd5b505af1158015612444573d6000803e3d6000fd5b505050506040513d601f19601f820116820180604052506124689190810190613368565b5060c082015115156001141561250257806001600160a01b031663a9059cbb836040015184602001516040518363ffffffff1660e01b81526004016124ae929190613b4e565b602060405180830381600087803b1580156124c857600080fd5b505af11580156124dc573d6000803e3d6000fd5b505050506040513d601f19601f820116820180604052506125009190810190613368565b505b505b6101208101516001600160a01b03161561251e5786612520565b345b60208201526040516331a9108f60e11b81526001600160a01b038316906342842e0e908290636352211e90612559908e90600401613dba565b60206040518083038186803b15801561257157600080fd5b505afa158015612585573d6000803e3d6000fd5b505050506040513d601f19601f820116820180604052506125a99190810190613297565b308c6040518463ffffffff1660e01b81526004016125c993929190613c27565b600060405180830381600087803b1580156125e357600080fd5b505af11580156125f7573d6000803e3d6000fd5b5050505060018160c00190151590811515815250503381604001906001600160a01b031690816001600160a01b0316815250506001548161010001818151019150818152505080600660008a6001600160a01b03166001600160a01b0316815260200190815260200160002060008b815260200190815260200160002060008201518160000160006101000a8154816001600160a01b0302191690836001600160a01b031602179055506020820151816001015560408201518160020160006101000a8154816001600160a01b0302191690836001600160a01b03160217905550606082015181600301556080820151816004015560a0820151816005015560c08201518160060160006101000a81548160ff02191690831515021790555060e0820151816007015561010082015181600801556101208201518160090160006101000a8154816001600160a01b0302191690836001600160a01b0316021790555090505080600001516001600160a01b031689896001600160a01b03167fc47f35ccd7c07e8a8a68419f2150e2a62c012eed08ade47b9d264d7a091275e084604001518560200151428761012001516040516127b79493929190613bfe565b60405180910390a4505050505050505050565b6004805460408051602080840282018101909252828152606093909290916000908401821561113e576000848152602090819020604080518082019091526002850290910180546001600160a01b031682526001908101548284015290835290920191016110f6565b6001600160a01b0381166000908152600360209081526040808320805482518185028101850190935280835260609492939192909184015b828210156128b3576000848152602090819020604080518082019091526002850290910180546001600160a01b0316825260019081015482840152908352909201910161286b565b505050509050919050565b806001600160a01b038116156128fb576128df60088263ffffffff612f8116565b6128fb5760405162461bcd60e51b81526004016104ae90613d62565b61290361210c565b61291f5760405162461bcd60e51b81526004016104ae90613d12565b61293060088363ffffffff612fde16565b5050565b61293c61210c565b6129585760405162461bcd60e51b81526004016104ae90613d12565b6001600160a01b03811661297e5760405162461bcd60e51b81526004016104ae90613ca2565b600080546001600160a01b0319166001600160a01b0392909216919091179055565b6129a861210c565b6129c45760405162461bcd60e51b81526004016104ae90613d12565b6129d560088263ffffffff612f8116565b6129f15760405162461bcd60e51b81526004016104ae90613cc2565b6001600160a01b0381166000818152600960205260409081902054905163a9059cbb60e01b815283929163a9059cbb91612a2f913391600401613b4e565b602060405180830381600087803b158015612a4957600080fd5b505af1158015612a5d573d6000803e3d6000fd5b505050506040513d601f19601f82011682018060405250612a819190810190613368565b50506001600160a01b0316600090815260096020526040812055565b612aa561210c565b612ac15760405162461bcd60e51b81526004016104ae90613d12565b600155565b6005805460408051602080840282018101909252828152606093909290916000908401821561113e576000848152602090819020604080518082019091526002850290910180546001600160a01b031682526001908101548284015290835290920191016110f6565b6001600160a01b03831660009081526002602090815260408083208784529091529020548490849060ff161515600114612b7b5760405162461bcd60e51b81526004016104ae90613cd2565b826001600160a01b03811615612bb857612b9c60088263ffffffff612f8116565b612bb85760405162461bcd60e51b81526004016104ae90613d62565b6040516331a9108f60e11b81528790879033906001600160a01b03831690636352211e90612bea908690600401613dba565b60206040518083038186803b158015612c0257600080fd5b505afa158015612c16573d6000803e3d6000fd5b505050506040513d601f19601f82011682018060405250612c3a9190810190613297565b6001600160a01b031614612c605760405162461bcd60e51b81526004016104ae90613c62565b612c6861310c565b506001600160a01b0380891660009081526006602081815260408084208e855282529283902083516101408101855281548616815260018201549281019290925260028082015486169483019490945260038101546060830181905260048201546080840152600582015460a08401529281015460ff16151560c0830152600781015460e08301526008810154610100830152600901549093166101208401521415612d32578061010001514210612d325760405162461bcd60e51b81526004016104ae90613d22565b80600001516001600160a01b03168a8a6001600160a01b03167f4a232d19b0abe3474b9311b6769fa4b4a725b50d0222b222357981b17a8e7e9784606001518560600151600114612d87578560800151612d8d565b8560a001515b8d42886101200151604051612da6959493929190613de4565b60405180910390a4806060015160011415612dc75760a08101889052612dd6565b60808101889052602081018890525b6001600160a01b03968716610120820190815298871660009081526006602081815260408084209d84529c8152918c9020835181546001600160a01b0319908116918c169190911782559284015160018201559b83015160028d0180548416918b16919091179055606083015160038d0155608083015160048d015560a083015160058d015560c0830151908c01805460ff191691151591909117905560e082015160078c01556101009091015160088b01559751600990990180549098169890951697909717909555505050505050565b60008080612ebc858563ffffffff61307016565b909250905060018115151415612f7657845485906000198101908110612ede57fe5b9060005260206000209060020201856000018381548110612efb57fe5b60009182526020909120825460029092020180546001600160a01b0319166001600160a01b039092169190911781556001918201549101558454859080612f3e57fe5b60008281526020812060026000199093019283020180546001600160a01b03191681556001908101919091559155925061082d915050565b506000949350505050565b6000805b8354811015612fd457826001600160a01b0316846000018281548110612fa757fe5b6000918252602090912001546001600160a01b03161415612fcc57600191505061082d565b600101612f85565b5060009392505050565b81546001101561305f5760005b825481101561305957816001600160a01b031683600001828154811061300d57fe5b6000918252602090912001546001600160a01b031614156130515782600001818154811061303757fe5b600091825260209091200180546001600160a01b03191690555b600101612feb565b50612930565b600061306b83826131a6565b505050565b6000808080805b86548110156131005785600001516001600160a01b031687600001828154811061309d57fe5b60009182526020909120600290910201546001600160a01b03161480156130e7575085602001518760000182815481106130d357fe5b906000526020600020906002020160010154145b156130f85780925060019150613100565b600101613077565b50909590945092505050565b60405180610140016040528060006001600160a01b031681526020016000815260200160006001600160a01b03168152602001600081526020016000815260200160008152602001600015158152602001600081526020016000815260200160006001600160a01b031681525090565b604080518082019091526000808252602082015290565b6040518060200160405280606081525090565b81548183558181111561306b5760008381526020902061306b91810190830161114591905b808211156131df57600081556001016131cb565b5090565b803561082d81613edf565b805161082d81613edf565b805161082d81613ef6565b600082601f83011261321557600080fd5b813561322861322382613e57565b613e30565b9150808252602083016020830185838301111561324457600080fd5b61324f838284613ed3565b50505092915050565b803561082d81613eff565b803561082d81613f08565b805161082d81613f08565b60006020828403121561328b57600080fd5b600061052d84846131e3565b6000602082840312156132a957600080fd5b600061052d84846131ee565b600080600080608085870312156132cb57600080fd5b60006132d787876131e3565b94505060206132e8878288016131e3565b93505060406132f987828801613263565b925050606085013567ffffffffffffffff81111561331657600080fd5b61332287828801613204565b91505092959194509250565b6000806040838503121561334157600080fd5b600061334d85856131e3565b925050602061335e85828601613263565b9150509250929050565b60006020828403121561337a57600080fd5b600061052d84846131f9565b60006020828403121561339857600080fd5b600061052d8484613258565b6000602082840312156133b657600080fd5b600061052d8484613263565b6000602082840312156133d457600080fd5b600061052d848461326e565b600080604083850312156133f357600080fd5b60006133ff8585613263565b925050602061335e858286016131e3565b60008060006060848603121561342557600080fd5b60006134318686613263565b9350506020613442868287016131e3565b925050604061345386828701613263565b9150509250925092565b6000806000806080858703121561347357600080fd5b600061347f8787613263565b9450506020613490878288016131e3565b93505060406134a187828801613263565b9250506060613322878288016131e3565b600080600080600080600080610100898b0312156134cf57600080fd5b60006134db8b8b613263565b98505060206134ec8b828c01613263565b97505060406134fd8b828c01613263565b965050606061350e8b828c01613263565b955050608061351f8b828c01613263565b94505060a06135308b828c01613263565b93505060c06135418b828c016131e3565b92505060e06135528b828c016131e3565b9150509295985092959890939650565b600061356e8383613599565b505060200190565b60006135828383613a45565b505060400190565b61359381613ec2565b82525050565b61359381613e92565b60006135ad82613e85565b6135b78185613e89565b93506135c283613e7f565b8060005b838110156135f05781516135da8882613562565b97506135e583613e7f565b9250506001016135c6565b509495945050505050565b600061360682613e85565b6136108185613e89565b935061361b83613e7f565b8060005b838110156135f05781516136338882613576565b975061363e83613e7f565b92505060010161361f565b61359381613e9d565b61359381613ea2565b6000613668603383613e89565b7f596f75206d757374206265206f776e657220616e6420546f6b656e2073686f758152721b19081b9bdd081a185d9948185b9e48189a59606a1b602082015260400192915050565b60006136bd601c83613e89565b7f496e73756666696369656e742062696464696e6720616d6f756e742e00000000815260200192915050565b60006136f6601183613e89565b7041756374696f6e204e6f74204f7665722160781b815260200192915050565b6000613723602f83613e89565b7f416c6c6f77616e6365206973206c657373207468616e20616d6f756e7420736581526e373a103337b9103134b23234b7339760891b602082015260400192915050565b6000613774602683613e89565b7f4f776e61626c653a206e6577206f776e657220697320746865207a65726f206181526564647265737360d01b602082015260400192915050565b60006137bc601d83613e89565b7f496e73756666696369656e74207370656e7420616c6c6f77616e636520000000815260200192915050565b60006137f5602383613e89565b7f54686973206572633230746f6b656e207061796d656e74206e6f7420616c6c6f8152621dd95960ea1b602082015260400192915050565b600061383a601283613e89565b71546f6b656e204e6f7420466f722053616c6560701b815260200192915050565b6000613868601383613e89565b72109c9bdad95c88139bdd08185c1c1c9bdd9959606a1b815260200192915050565b6000613897601c83613e89565b7f54686973204e465420697320616c7265616479206f6e2073616c652e00000000815260200192915050565b60006138d0601483613e89565b73125b9cdd59999a58da595b9d0814185e5b595b9d60621b815260200192915050565b6000613900602083613e89565b7f4f776e61626c653a2063616c6c6572206973206e6f7420746865206f776e6572815260200192915050565b6000613939601283613e89565b7141756374696f6e2054696d65204f7665722160701b815260200192915050565b6000613967601883613e89565b7f41756374696f6e204e6f74205374617274656420796574210000000000000000815260200192915050565b60006139a0603283613e89565b7f436c6f73696e672074696d652073686f756c642062652067726561746572207481527168616e207374617274696e672074696d652160701b602082015260400192915050565b60006139f4601583613e89565b7441756374696f6e20666f7220426964206f6e6c792160581b815260200192915050565b6000613a25601183613e89565b70115490cc8c081b9bdd08185b1b1bddd959607a1b815260200192915050565b80516040830190613a568482613599565b506020820151613a696020850182613a9d565b50505050565b9052565b8051602080845260009190840190613a8b82826135a2565b95945050505050565b61359381613eaf565b61359381611145565b6020810161082d8284613599565b60408101613ac2828561358a565b613acf6020830184613599565b9392505050565b60608101613ae4828661358a565b613af1602083018561358a565b61052d6040830184613a9d565b60808101613b0c828761358a565b613b19602083018661358a565b613b266040830185613a9d565b613a8b6060830184613599565b60608101613b41828661358a565b613af16020830185613599565b60408101613b5c828561358a565b613acf6020830184613a9d565b6101408101613b78828d613599565b613b85602083018c613a9d565b613b92604083018b613599565b613b9f606083018a613a9d565b613bac6080830189613a9d565b613bb960a0830188613a9d565b613bc660c0830187613649565b613bd360e0830186613a9d565b613be1610100830185613a9d565b613bef610120830184613599565b9b9a5050505050505050505050565b60808101613c0c828761358a565b613b196020830186613a9d565b60608101613ae48286613599565b60608101613b418286613599565b60208082528101613acf81846135fb565b6020810161082d8284613649565b6020810161082d8284613652565b6020808252810161082d8161365b565b6020808252810161082d816136b0565b6020808252810161082d816136e9565b6020808252810161082d81613716565b6020808252810161082d81613767565b6020808252810161082d816137af565b6020808252810161082d816137e8565b6020808252810161082d8161382d565b6020808252810161082d8161385b565b6020808252810161082d8161388a565b6020808252810161082d816138c3565b6020808252810161082d816138f3565b6020808252810161082d8161392c565b6020808252810161082d8161395a565b6020808252810161082d81613993565b6020808252810161082d816139e7565b6020808252810161082d81613a18565b60608101613d808285613a6f565b613acf6020830184613a45565b60208082528101613acf8184613a73565b60408101613ac28285613a6f565b6020810161082d8284613a94565b6020810161082d8284613a9d565b60408101613ac28285613a9d565b60808101613c0c8287613a9d565b60a08101613df28288613a9d565b613dff6020830187613a9d565b613e0c6040830186613a9d565b613e196060830185613a9d565b613e266080830184613599565b9695505050505050565b60405181810167ffffffffffffffff81118282101715613e4f57600080fd5b604052919050565b600067ffffffffffffffff821115613e6e57600080fd5b506020601f91909101601f19160190565b60200190565b5190565b90815260200190565b600061082d82613eb6565b151590565b6001600160e01b03191690565b61ffff1690565b6001600160a01b031690565b600061082d82600061082d82613e92565b82818337506000910152565b613ee881613e92565b8114613ef357600080fd5b50565b613ee881613e9d565b613ee881613eaf565b613ee88161114556fea365627a7a723158208c8ae0d12d05329a1f204db1e401f8dd7f7525f04e9ef0656db31600b1760ec66c6578706572696d656e74616cf564736f6c63430005110040",
  "source": "pragma solidity ^0.5.17;\npragma experimental ABIEncoderV2;\nimport \"./brokerV2_utils/BrokerModifiers.sol\";\n\n\ncontract BrokerV2 is ERC721Holder, BrokerModifiers {\n    // events\n    event Bid(\n        address indexed collection,\n        uint256 indexed tokenId,\n        address indexed seller,\n        address bidder,\n        uint256 amouont,\n        uint256 time,\n        address ERC20Address\n    );\n    event Buy(\n        address indexed collection,\n        uint256 tokenId,\n        address indexed seller,\n        address indexed buyer,\n        uint256 amount,\n        uint256 time,\n        address ERC20Address\n    );\n    event Collect(\n        address indexed collection,\n        uint256 indexed tokenId,\n        address indexed seller,\n        address buyer,\n        address collector,\n        uint256 time,\n        address ERC20Address\n    );\n    event OnSale(\n        address indexed collection,\n        uint256 indexed tokenId,\n        address indexed seller,\n        uint256 auctionType,\n        uint256 amount,\n        uint256 time,\n        address ERC20Address\n    );\n    event PriceUpdated(\n        address indexed collection,\n        uint256 indexed tokenId,\n        address indexed seller,\n        uint256 auctionType,\n        uint256 oldAmount,\n        uint256 amount,\n        uint256 time,\n        address ERC20Address\n    );\n    event OffSale(\n        address indexed collection,\n        uint256 indexed tokenId,\n        address indexed seller,\n        uint256 time,\n        address ERC20Address\n    );\n\n    mapping(address => uint256) brokerageBalance;\n\n    constructor(uint16 _brokerage ,uint256 _updatedTime) public {\n        brokerage = _brokerage;\n        setUpdatedClosingTime(_updatedTime);\n        transferOwnership(msg.sender);\n    }\n\n    function addERC20TokenPayment(address _erc20Token) public onlyOwner {\n        erc20TokensArray.addERC20Tokens(_erc20Token);\n    }\n\n    function removeERC20TokenPayment(address _erc20Token)\n        public\n        erc20Allowed(_erc20Token)\n        onlyOwner\n    {\n\n        erc20TokensArray.removeERC20Token(_erc20Token);\n    }\n\n    function bid(\n        uint256 tokenID,\n        address _mintableToken,\n        uint256 amount\n    )\n        public\n        payable\n        onSaleOnly(tokenID, _mintableToken)\n        activeAuction(tokenID, _mintableToken)\n    {\n        IMintableToken Token = IMintableToken(_mintableToken);\n\n        auction memory _auction = auctions[_mintableToken][tokenID];\n\n        if (_auction.erc20Token == address(0)) {\n            require(\n                msg.value > _auction.currentBid,\n                \"Insufficient bidding amount.\"\n            );\n\n            if (_auction.buyer == true) {\n                _auction.highestBidder.transfer(_auction.currentBid);\n            }\n        } else {\n            IERC20 erc20Token = IERC20(_auction.erc20Token);\n            require(\n                erc20Token.allowance(msg.sender, address(this)) >= amount,\n                \"Allowance is less than amount sent for bidding.\"\n            );\n            require(\n                amount > _auction.currentBid,\n                \"Insufficient bidding amount.\"\n            );\n            erc20Token.transferFrom(msg.sender, address(this), amount);\n\n            if (_auction.buyer == true) {\n                erc20Token.transfer(\n                    _auction.highestBidder,\n                    _auction.currentBid\n                );\n            }\n        }\n\n        _auction.currentBid = _auction.erc20Token == address(0)\n            ? msg.value\n            : amount;\n\n        Token.safeTransferFrom(Token.ownerOf(tokenID), address(this), tokenID);\n        _auction.buyer = true;\n        _auction.highestBidder = msg.sender;\n        _auction.closingTime += updateClosingTime;\n        auctions[_mintableToken][tokenID] = _auction;\n\n        // Bid event\n        emit Bid(\n            _mintableToken,\n            tokenID,\n            _auction.lastOwner,\n            _auction.highestBidder,\n            _auction.currentBid,\n            block.timestamp,\n            _auction.erc20Token\n        );\n    }\n    // Collect Function are use to collect funds and NFT from Broker\n    function collect(uint256 tokenID, address _mintableToken)\n        public\n    {\n        IMintableToken Token = IMintableToken(_mintableToken);\n        auction memory _auction = auctions[_mintableToken][tokenID];\n        TokenDetArrayLib.TokenDet memory _tokenDet = TokenDetArrayLib.TokenDet(_mintableToken,tokenID);\n\n        require(\n            block.timestamp > _auction.closingTime,\n            \"Auction Not Over!\"\n        );\n\n        address payable lastOwner2 = _auction.lastOwner;\n        uint256 royalities = Token.royalities(tokenID);\n        address payable creator = Token.creators(tokenID);\n\n        uint256 royality = (royalities * _auction.currentBid) / 10000;\n        uint256 brokerageAmount = (brokerage * _auction.currentBid) / 10000;\n\n        // uint256 lastOwner_funds = ((10000 - royalities - brokerage) *\n        //     _auction.currentBid) / 10000;\n\n        uint256 lastOwner_funds = _auction.currentBid - royality - brokerageAmount;\n        \n        if (_auction.buyer == true) {\n            if (_auction.erc20Token == address(0)) {\n                creator.transfer(royality);\n                lastOwner2.transfer(lastOwner_funds);\n            } else {\n                IERC20 erc20Token = IERC20(_auction.erc20Token);\n                // transfer royalitiy to creator\n                erc20Token.transfer(creator, royality);\n                erc20Token.transfer(lastOwner2, lastOwner_funds);\n            }\n            brokerageBalance[_auction.erc20Token] += brokerageAmount;\n            tokenOpenForSale[_mintableToken][tokenID] = false;\n            Token.safeTransferFrom(\n                Token.ownerOf(tokenID),\n                _auction.highestBidder,\n                tokenID\n            );\n\n            // Buy event\n            emit Buy(\n                _tokenDet.NFTAddress,\n                _tokenDet.tokenID,\n                lastOwner2,\n                _auction.highestBidder,\n                _auction.currentBid,\n                block.timestamp,\n                _auction.erc20Token\n            );\n        }\n\n        // Collect event\n        emit Collect(\n            _tokenDet.NFTAddress,\n            _tokenDet.tokenID,\n            lastOwner2,\n            _auction.highestBidder,\n            msg.sender,\n            block.timestamp,\n            _auction.erc20Token\n        );\n\n        tokensForSale.removeTokenDet(_tokenDet);\n\n        tokensForSalePerUser[lastOwner2].removeTokenDet(_tokenDet);\n        auctionTokens.removeTokenDet(_tokenDet);\n        delete auctions[_mintableToken][tokenID];\n    }\n\n    function buy(uint256 tokenID, address _mintableToken)\n        public\n        payable\n        onSaleOnly(tokenID, _mintableToken)\n        flatSaleOnly(tokenID, _mintableToken)\n    {\n        IMintableToken Token = IMintableToken(_mintableToken);\n        auction memory _auction = auctions[_mintableToken][tokenID];\n        TokenDetArrayLib.TokenDet memory _tokenDet = TokenDetArrayLib.TokenDet(_mintableToken,tokenID);\n        \n        address payable lastOwner2 = _auction.lastOwner;\n        uint256 royalities = Token.royalities(tokenID);\n        address payable creator = Token.creators(tokenID);\n        uint256 royality = (royalities * _auction.buyPrice) / 10000;\n        uint256 brokerageAmount = (brokerage * _auction.buyPrice) / 10000;\n\n        uint256 lastOwner_funds = _auction.buyPrice - royality - brokerageAmount;\n\n        if (_auction.erc20Token == address(0)) {\n            require(msg.value >= _auction.buyPrice, \"Insufficient Payment\");\n\n            creator.transfer(royality);\n            lastOwner2.transfer(lastOwner_funds);\n\n\n        } else {\n            IERC20 erc20Token = IERC20(_auction.erc20Token);\n            require(\n                erc20Token.allowance(msg.sender, address(this)) >=\n                    _auction.buyPrice,\n                \"Insufficient spent allowance \"\n            );\n            // transfer royalitiy to creator\n            erc20Token.transferFrom(msg.sender, creator, royality);\n            // transfer brokerage amount to broker\n            erc20Token.transferFrom(msg.sender, address(this), brokerageAmount);\n            // transfer remaining  amount to lastOwner\n            erc20Token.transferFrom(msg.sender, lastOwner2, lastOwner_funds);\n        }\n        brokerageBalance[_auction.erc20Token] += brokerageAmount;\n\n        tokenOpenForSale[_tokenDet.NFTAddress][_tokenDet.tokenID] = false;\n        // _auction.buyer = true;\n        // _auction.highestBidder = msg.sender;\n        // _auction.currentBid = _auction.buyPrice;\n\n        Token.safeTransferFrom(\n            Token.ownerOf(_tokenDet.tokenID),\n            // _auction.highestBidder,/\n            msg.sender,\n            _tokenDet.tokenID\n        );\n\n        // Buy event\n        emit Buy(\n            _tokenDet.NFTAddress,\n            _tokenDet.tokenID,\n            lastOwner2,\n            msg.sender,\n            _auction.buyPrice,\n            block.timestamp,\n            _auction.erc20Token\n        );\n\n        tokensForSale.removeTokenDet(_tokenDet);\n        tokensForSalePerUser[lastOwner2].removeTokenDet(_tokenDet);\n\n        fixedPriceTokens.removeTokenDet(_tokenDet);\n        delete auctions[_tokenDet.NFTAddress][_tokenDet.tokenID];\n    }\n\n    function withdraw() public onlyOwner {\n        msg.sender.transfer(brokerageBalance[address(0)]);\n        brokerageBalance[address(0)] = 0;\n    }\n\n    function withdrawERC20(address _erc20Token) public onlyOwner {\n        require(\n            erc20TokensArray.exists(_erc20Token),\n            \"This erc20token payment not allowed\"\n        );\n        IERC20 erc20Token = IERC20(_erc20Token);\n        erc20Token.transfer(msg.sender, brokerageBalance[_erc20Token]);\n        brokerageBalance[_erc20Token] = 0;\n    }\n function putOnSale(\n        uint256 _tokenID,\n        uint256 _startingPrice,\n        uint256 _auctionType,\n        uint256 _buyPrice,\n        uint256 _startingTime,\n        uint256 _closingTime,\n        address _mintableToken,\n        address _erc20Token\n    )\n        public\n        erc20Allowed(_erc20Token)\n        tokenOwnerOnlly(_tokenID, _mintableToken)\n    {\n       IMintableToken Token = IMintableToken(_mintableToken);\n    //   uint256 _ID =_tokenID;\n    //   uint256 _aucType =_auctionType;\n    //   uint256 _startPrice= _startingPrice;\n        auction memory _auction = auctions[_mintableToken][_tokenID];\n\n        // Allow to put on sale to already on sale NFT \\\n        // only if it was on auction and have 0 bids and auction is over\n        if (tokenOpenForSale[_mintableToken][_tokenID] == true) {\n            require(\n                _auction.auctionType == 2 &&\n                    _auction.buyer == false &&\n                    block.timestamp > _auction.closingTime,\n                \"This NFT is already on sale.\"\n            );\n        }\n        TokenDetArrayLib.TokenDet memory _tokenDet = TokenDetArrayLib.TokenDet(_mintableToken, _tokenID);\n        auction memory newAuction = auction(\n            msg.sender,\n            _startingPrice,\n            address(0),\n            _auctionType,\n            _startingPrice,\n            _buyPrice,\n            false,\n            _startingTime,\n            _closingTime,\n            _erc20Token\n        );\n       \n        require(\n            Token.getApproved(_tokenDet.tokenID) == address(this),\n            \"Broker Not approved\"\n        );\n        require(\n            _closingTime > _startingTime,\n            \"Closing time should be greater than starting time!\"\n        );\n        auctions[_tokenDet.NFTAddress][_tokenDet.tokenID] = newAuction;\n        \n\n        // Store data in all mappings if adding fresh token on sale\n        if (tokenOpenForSale[_tokenDet.NFTAddress][_tokenDet.tokenID] == false) {\n            tokenOpenForSale[_tokenDet.NFTAddress][_tokenDet.tokenID] = true;\n\n            tokensForSale.addTokenDet(_tokenDet);\n            tokensForSalePerUser[msg.sender].addTokenDet(_tokenDet);\n\n            // Add token to fixedPrice on Timed list\n            if (_auctionType == 1) {\n                fixedPriceTokens.addTokenDet(_tokenDet);\n            } else if (_auctionType == 2) {\n                auctionTokens.addTokenDet(_tokenDet);\n            }\n        }\n\n        // OnSale event\n        emit OnSale(\n            _tokenDet.NFTAddress,\n            _tokenDet.tokenID,\n            msg.sender,\n            newAuction.auctionType,\n            newAuction.auctionType == 1 ? newAuction.buyPrice : newAuction.startingPrice,\n            block.timestamp,\n            newAuction.erc20Token\n        );\n    }\n    function updatePrice(\n        uint256 tokenID,\n        address _mintableToken,\n        uint256 _newPrice,\n        address _erc20Token\n    )\n        public\n        onSaleOnly(tokenID, _mintableToken)\n        erc20Allowed(_erc20Token)\n        tokenOwnerOnlly(tokenID, _mintableToken)\n    {\n        // IMintableToken Token = IMintableToken(_mintableToken);\n        auction memory _auction = auctions[_mintableToken][tokenID];\n\n        if (_auction.auctionType == 2) {\n            require(\n                block.timestamp < _auction.closingTime,\n                \"Auction Time Over!\"\n            );\n        }\n        emit PriceUpdated(\n            _mintableToken,\n            tokenID,\n            _auction.lastOwner,\n            _auction.auctionType,\n            _auction.auctionType == 1\n                ? _auction.buyPrice\n                : _auction.startingPrice,\n            _newPrice,\n            block.timestamp,\n            _auction.erc20Token\n        );\n        // Update Price\n        if (_auction.auctionType == 1) {\n            _auction.buyPrice = _newPrice;\n        } else {\n            _auction.startingPrice = _newPrice;\n            _auction.currentBid = _newPrice;\n        }\n        _auction.erc20Token = _erc20Token;\n        auctions[_mintableToken][tokenID] = _auction;\n    }\n\n    function putSaleOff(uint256 tokenID, address _mintableToken)\n        public\n        tokenOwnerOnlly(tokenID, _mintableToken)\n    {\n        // IMintableToken Token = IMintableToken(_mintableToken);\n        auction memory _auction = auctions[_mintableToken][tokenID];\n        TokenDetArrayLib.TokenDet memory _tokenDet = TokenDetArrayLib.TokenDet(_mintableToken,tokenID);\n        tokenOpenForSale[_mintableToken][tokenID] = false;\n\n        // OffSale event\n        emit OffSale(\n            _mintableToken,\n            tokenID,\n            msg.sender,\n            block.timestamp,\n            _auction.erc20Token\n        );\n\n        tokensForSale.removeTokenDet(_tokenDet);\n\n        tokensForSalePerUser[msg.sender].removeTokenDet(_tokenDet);\n        // Remove token from list\n        if (_auction.auctionType == 1) {\n            fixedPriceTokens.removeTokenDet(_tokenDet);\n        } else if (_auction.auctionType == 2) {\n            auctionTokens.removeTokenDet(_tokenDet);\n        }\n        delete auctions[_mintableToken][tokenID];\n    }\n\n    function getOnSaleStatus(address _mintableToken, uint256 tokenID)\n        public\n        view\n        returns (bool)\n    {\n        return tokenOpenForSale[_mintableToken][tokenID];\n    }\n}\n",
  "sourcePath": "/Users/thoughtwin/Desktop/weblisto/clubrare/smart_contracts/contracts/BrokerV2.sol",
  "compiler": {
    "name": "solc",
    "version": "0.5.17+commit.d19bba13.Emscripten.clang"
  },
  "schemaVersion": "3.4.3",
  "updatedAt": "2021-11-01T10:56:16.700Z",
  "devdoc": {
    "methods": {
      "isOwner()": {
        "details": "Returns true if the caller is the current owner."
      },
      "owner()": {
        "details": "Returns the address of the current owner."
      },
      "transferOwnership(address)": {
        "details": "Transfers ownership of the contract to a new account (`newOwner`). Can only be called by the current owner."
      }
    }
  },
  "userdoc": {
    "methods": {}
  }
}