{
  "contractName": "CollectionFactory",
  "abi": [
    {
      "inputs": [],
      "payable": false,
      "stateMutability": "nonpayable",
      "type": "constructor"
    },
    {
      "anonymous": false,
      "inputs": [
        {
          "indexed": true,
          "internalType": "address",
          "name": "creator",
          "type": "address"
        },
        {
          "indexed": true,
          "internalType": "address",
          "name": "collection",
          "type": "address"
        },
        {
          "indexed": false,
          "internalType": "string",
          "name": "name",
          "type": "string"
        },
        {
          "indexed": true,
          "internalType": "string",
          "name": "symbol",
          "type": "string"
        },
        {
          "indexed": false,
          "internalType": "string",
          "name": "contractURI",
          "type": "string"
        },
        {
          "indexed": false,
          "internalType": "string",
          "name": "tokenURIPrefix",
          "type": "string"
        },
        {
          "indexed": false,
          "internalType": "uint256",
          "name": "time",
          "type": "uint256"
        }
      ],
      "name": "CollectionCreated",
      "type": "event"
    },
    {
      "anonymous": false,
      "inputs": [
        {
          "indexed": true,
          "internalType": "address",
          "name": "creator",
          "type": "address"
        },
        {
          "indexed": true,
          "internalType": "address",
          "name": "collection",
          "type": "address"
        },
        {
          "indexed": false,
          "internalType": "uint256",
          "name": "time",
          "type": "uint256"
        }
      ],
      "name": "CollectionRemoved",
      "type": "event"
    },
    {
      "anonymous": false,
      "inputs": [
        {
          "indexed": true,
          "internalType": "address",
          "name": "previousOwner",
          "type": "address"
        },
        {
          "indexed": true,
          "internalType": "address",
          "name": "newOwner",
          "type": "address"
        }
      ],
      "name": "OwnershipTransferred",
      "type": "event"
    },
    {
      "constant": true,
      "inputs": [],
      "name": "isOwner",
      "outputs": [
        {
          "internalType": "bool",
          "name": "",
          "type": "bool"
        }
      ],
      "payable": false,
      "stateMutability": "view",
      "type": "function"
    },
    {
      "constant": true,
      "inputs": [],
      "name": "owner",
      "outputs": [
        {
          "internalType": "address",
          "name": "",
          "type": "address"
        }
      ],
      "payable": false,
      "stateMutability": "view",
      "type": "function"
    },
    {
      "constant": false,
      "inputs": [],
      "name": "renounceOwnership",
      "outputs": [],
      "payable": false,
      "stateMutability": "nonpayable",
      "type": "function"
    },
    {
      "constant": false,
      "inputs": [
        {
          "internalType": "address",
          "name": "newOwner",
          "type": "address"
        }
      ],
      "name": "transferOwnership",
      "outputs": [],
      "payable": false,
      "stateMutability": "nonpayable",
      "type": "function"
    },
    {
      "constant": false,
      "inputs": [
        {
          "internalType": "string",
          "name": "name",
          "type": "string"
        },
        {
          "internalType": "string",
          "name": "symbol",
          "type": "string"
        },
        {
          "internalType": "string",
          "name": "contractURI",
          "type": "string"
        },
        {
          "internalType": "string",
          "name": "tokenURIPrefix",
          "type": "string"
        }
      ],
      "name": "createCollection",
      "outputs": [
        {
          "internalType": "address",
          "name": "",
          "type": "address"
        }
      ],
      "payable": false,
      "stateMutability": "nonpayable",
      "type": "function"
    },
    {
      "constant": false,
      "inputs": [
        {
          "internalType": "address",
          "name": "collection",
          "type": "address"
        }
      ],
      "name": "removeCollection",
      "outputs": [],
      "payable": false,
      "stateMutability": "nonpayable",
      "type": "function"
    },
    {
      "constant": true,
      "inputs": [],
      "name": "getAllCollection",
      "outputs": [
        {
          "internalType": "address[]",
          "name": "",
          "type": "address[]"
        }
      ],
      "payable": false,
      "stateMutability": "view",
      "type": "function"
    },
    {
      "constant": true,
      "inputs": [
        {
          "internalType": "address",
          "name": "_user",
          "type": "address"
        }
      ],
      "name": "getUserCollection",
      "outputs": [
        {
          "internalType": "address[]",
          "name": "",
          "type": "address[]"
        }
      ],
      "payable": false,
      "stateMutability": "view",
      "type": "function"
    }
  ],
  "bytecode": "0x60806040523480156200001157600080fd5b506000620000276001600160e01b036200007a16565b600080546001600160a01b0319166001600160a01b03831690811782556040519293509160008051602062004175833981519152908290a35062000074336001600160e01b036200007e16565b6200022a565b3390565b620000916001600160e01b03620000d016565b620000b95760405162461bcd60e51b8152600401620000b0906200020f565b60405180910390fd5b620000cd816001600160e01b03620000ff16565b50565b600080546001600160a01b0316620000f06001600160e01b036200007a16565b6001600160a01b031614905090565b6001600160a01b038116620001285760405162461bcd60e51b8152600401620000b090620001f7565b600080546040516001600160a01b03808516939216916000805160206200417583398151915291a3600080546001600160a01b0319166001600160a01b0392909216919091179055565b60006200018160268362000221565b7f4f776e61626c653a206e6577206f776e657220697320746865207a65726f206181526564647265737360d01b602082015260400192915050565b6000620001cb60208362000221565b7f4f776e61626c653a2063616c6c6572206973206e6f7420746865206f776e6572815260200192915050565b60208082528101620002098162000172565b92915050565b602080825281016200020981620001bc565b90815260200190565b613f3b806200023a6000396000f3fe60806040523480156200001157600080fd5b5060043610620000945760003560e01c8063c555f8d41162000063578063c555f8d414620000f7578063eec31042146200011d578063f2fde38b1462000127578063fa159278146200013e5762000094565b80635028d05a1462000099578063715018a614620000b25780638da5cb5b14620000bc5780638f32d59b14620000de575b600080fd5b620000b0620000aa36600462000851565b62000155565b005b620000b062000303565b620000c662000376565b604051620000d5919062000bad565b60405180910390f35b620000e862000385565b604051620000d5919062000bd0565b6200010e6200010836600462000851565b620003ab565b604051620000d5919062000bbd565b6200010e62000423565b620000b06200013836600462000851565b6200048a565b620000c66200014f3660046200089b565b620004c1565b6200016860018263ffffffff6200066616565b620001905760405162461bcd60e51b8152600401620001879062000cba565b60405180910390fd5b336000908152600260205260409020620001b1908263ffffffff6200066616565b620001d05760405162461bcd60e51b8152600401620001879062000cba565b600081905060006001600160a01b0316816001600160a01b0316638da5cb5b6040518163ffffffff1660e01b815260040160206040518083038186803b1580156200021a57600080fd5b505afa1580156200022f573d6000803e3d6000fd5b505050506040513d601f19601f820116820180604052506200025591908101906200087a565b6001600160a01b0316146200027e5760405162461bcd60e51b8152600401620001879062000ca8565b3360009081526002602052604090206200029f908363ffffffff620006ca16565b620002b260018363ffffffff620006ca16565b816001600160a01b0316336001600160a01b03167f45b5631a30caa1353ec620f8ee598dcfb836c2ba2f9c576d2e70b2418e474f3942604051620002f7919062000d0f565b60405180910390a35050565b6200030d62000385565b6200032c5760405162461bcd60e51b8152600401620001879062000cde565b600080546040516001600160a01b03909116907f8be0079c531659141344cd1fd0a4f28419497f9722a3daafe3b4186f6b6457e0908390a3600080546001600160a01b0319169055565b6000546001600160a01b031690565b600080546001600160a01b03166200039c62000745565b6001600160a01b031614905090565b6001600160a01b0381166000908152600260209081526040918290208054835181840281018401909452808452606093928301828280156200041757602002820191906000526020600020905b81546001600160a01b03168152600190910190602001808311620003f8575b50505050509050919050565b606060016000018054806020026020016040519081016040528092919081815260200182805480156200048057602002820191906000526020600020905b81546001600160a01b0316815260019091019060200180831162000461575b5050505050905090565b6200049462000385565b620004b35760405162461bcd60e51b8152600401620001879062000cde565b620004be8162000749565b50565b6000808585338686604051620004d790620007cd565b620004e795949392919062000be0565b604051809103906000f08015801562000504573d6000803e3d6000fd5b5060405163343ab55960e11b815290915073__AddressArrayLib_______________________906368756ab2906200054490600190859060040162000cf0565b60006040518083038186803b1580156200055d57600080fd5b505af415801562000572573d6000803e3d6000fd5b50503360009081526002602052604090819020905163343ab55960e11b815273__AddressArrayLib_______________________93506368756ab29250620005c09190859060040162000cf0565b60006040518083038186803b158015620005d957600080fd5b505af4158015620005ee573d6000803e3d6000fd5b505050508460405162000602919062000b98565b6040518091039020816001600160a01b0316336001600160a01b03167f15dda03048e6b54a326824d8e6259858cda5b32b239886a8cadceeeed34c92368988884260405162000655949392919062000c4f565b60405180910390a495945050505050565b6000805b8354811015620006be57826001600160a01b03168460000182815481106200068e57fe5b6000918252602090912001546001600160a01b03161415620006b5576001915050620006c4565b6001016200066a565b50600090505b92915050565b60005b82548110156200074057816001600160a01b0316836000018281548110620006f157fe5b6000918252602090912001546001600160a01b0316141562000737578260000181815481106200071d57fe5b600091825260209091200180546001600160a01b03191690555b600101620006cd565b505050565b3390565b6001600160a01b038116620007725760405162461bcd60e51b8152600401620001879062000ccc565b600080546040516001600160a01b03808516939216917f8be0079c531659141344cd1fd0a4f28419497f9722a3daafe3b4186f6b6457e091a3600080546001600160a01b0319166001600160a01b0392909216919091179055565b6130db8062000e1e83390190565b8035620006c48162000e06565b8051620006c48162000e06565b600082601f8301126200080757600080fd5b81356200081e620008188262000d47565b62000d1f565b915080825260208301602083018583830111156200083b57600080fd5b6200084883828462000dbd565b50505092915050565b6000602082840312156200086457600080fd5b6000620008728484620007db565b949350505050565b6000602082840312156200088d57600080fd5b6000620008728484620007e8565b60008060008060808587031215620008b257600080fd5b843567ffffffffffffffff811115620008ca57600080fd5b620008d887828801620007f5565b945050602085013567ffffffffffffffff811115620008f657600080fd5b6200090487828801620007f5565b935050604085013567ffffffffffffffff8111156200092257600080fd5b6200093087828801620007f5565b925050606085013567ffffffffffffffff8111156200094e57600080fd5b6200095c87828801620007f5565b91505092959194509250565b60006200097683836200098f565b505060200190565b620009898162000da9565b82525050565b620009898162000d88565b6000620009a78262000d76565b620009b3818562000d7a565b9350620009c08362000d70565b8060005b83811015620009f4578151620009db888262000968565b9750620009e88362000d70565b925050600101620009c4565b509495945050505050565b620009898162000d95565b600062000a178262000d76565b62000a23818562000d7a565b935062000a3581856020860162000dc9565b62000a408162000dfc565b9093019392505050565b600062000a578262000d76565b62000a63818562000d83565b935062000a7581856020860162000dc9565b9290920192915050565b600062000a8e60268362000d7a565b7f72656e6f756e63654f776e657273686970206f6620636f6e74726163742072658152651c5d5a5c995960d21b602082015260400192915050565b600062000ad860198362000d7a565b7f436f6c6c656374696f6e20646f65736e27742065786973747300000000000000815260200192915050565b600062000b1360268362000d7a565b7f4f776e61626c653a206e6577206f776e657220697320746865207a65726f206181526564647265737360d01b602082015260400192915050565b600062000b5d60208362000d7a565b7f4f776e61626c653a2063616c6c6572206973206e6f7420746865206f776e6572815260200192915050565b9052565b620009898162000da6565b600062000ba6828462000a4a565b9392505050565b60208101620006c482846200098f565b6020808252810162000ba681846200099a565b60208101620006c48284620009ff565b60a0808252810162000bf3818862000a0a565b9050818103602083015262000c09818762000a0a565b905062000c1a60408301866200097e565b818103606083015262000c2e818562000a0a565b9050818103608083015262000c44818462000a0a565b979650505050505050565b6080808252810162000c62818762000a0a565b9050818103602083015262000c78818662000a0a565b9050818103604083015262000c8e818562000a0a565b905062000c9f606083018462000b8d565b95945050505050565b60208082528101620006c48162000a7f565b60208082528101620006c48162000ac9565b60208082528101620006c48162000b04565b60208082528101620006c48162000b4e565b6040810162000d00828562000b89565b62000ba660208301846200098f565b60208101620006c4828462000b8d565b60405181810167ffffffffffffffff8111828210171562000d3f57600080fd5b604052919050565b600067ffffffffffffffff82111562000d5f57600080fd5b506020601f91909101601f19160190565b60200190565b5190565b90815260200190565b919050565b6000620006c48262000d9a565b151590565b6001600160a01b031690565b90565b6000620006c4826000620006c48262000d88565b82818337506000910152565b60005b8381101562000de657818101518382015260200162000dcc565b8381111562000df6576000848401525b50505050565b601f01601f191690565b62000e118162000d88565b8114620004be57600080fdfe6080604052600160135560016014553480156200001b57600080fd5b50604051620030db380380620030db8339810160408190526200003e9162000445565b848484848484848383808260006200005e6001600160e01b03620001e616565b600080546001600160a01b0319166001600160a01b038316908117825560405192935091600080516020620030bb833981519152908290a350620000b26301ffc9a760e01b6001600160e01b03620001eb16565b620000cd632dde656160e21b6001600160e01b03620001eb16565b620000e86380ac58cd60e01b6001600160e01b03620001eb16565b8051620000fd90600690602084019062000334565b506200011963e8a3d48560e01b6001600160e01b03620001eb16565b5080516200012f90600790602084019062000334565b506200014d905063780e9d6360e01b6001600160e01b03620001eb16565b83516200016290600d90602087019062000334565b5082516200017890600e90602086019062000334565b5062000194635b5e139f60e01b6001600160e01b03620001eb16565b50505050620001c2604051620001aa9062000613565b6040519081900390206001600160e01b03620001eb16565b620001d6836001600160e01b036200024916565b505050505050505050506200070f565b335b90565b6001600160e01b03198082161415620002215760405162461bcd60e51b8152600401620002189062000632565b60405180910390fd5b6001600160e01b0319166000908152600160208190526040909120805460ff19169091179055565b6200025c6001600160e01b036200029216565b6200027b5760405162461bcd60e51b8152600401620002189062000644565b6200028f816001600160e01b03620002c116565b50565b600080546001600160a01b0316620002b26001600160e01b03620001e616565b6001600160a01b031614905090565b6001600160a01b038116620002ea5760405162461bcd60e51b8152600401620002189062000620565b600080546040516001600160a01b0380851693921691600080516020620030bb83398151915291a3600080546001600160a01b0319166001600160a01b0392909216919091179055565b828054600181600116156101000203166002900490600052602060002090601f016020900481019282601f106200037757805160ff1916838001178555620003a7565b82800160010185558215620003a7579182015b82811115620003a75782518255916020019190600101906200038a565b50620003b5929150620003b9565b5090565b620001e891905b80821115620003b55760008155600101620003c0565b8051620003e381620006f8565b92915050565b600082601f830112620003fb57600080fd5b8151620004126200040c826200067d565b62000656565b915080825260208301602083018583830111156200042f57600080fd5b6200043c838284620006c5565b50505092915050565b600080600080600060a086880312156200045e57600080fd5b85516001600160401b038111156200047557600080fd5b6200048388828901620003e9565b95505060208601516001600160401b03811115620004a057600080fd5b620004ae88828901620003e9565b9450506040620004c188828901620003d6565b93505060608601516001600160401b03811115620004de57600080fd5b620004ec88828901620003e9565b92505060808601516001600160401b038111156200050957600080fd5b6200051788828901620003e9565b9150509295509295909350565b600062000533602683620006a5565b7f4f776e61626c653a206e6577206f776e657220697320746865207a65726f206181526564647265737360d01b602082015260400192915050565b60006200057d601c83620006a5565b7f4552433136353a20696e76616c696420696e7465726661636520696400000000815260200192915050565b6000620005b8602083620006a5565b7f4f776e61626c653a2063616c6c6572206973206e6f7420746865206f776e6572815260200192915050565b6000620005f3601183620006ae565b704d494e545f574954485f4144445245535360781b815260110192915050565b6000620003e382620005e4565b60208082528101620003e38162000524565b60208082528101620003e3816200056e565b60208082528101620003e381620005a9565b6040518181016001600160401b03811182821017156200067557600080fd5b604052919050565b60006001600160401b038211156200069457600080fd5b506020601f91909101601f19160190565b90815260200190565b919050565b60006001600160a01b038216620003e3565b60005b83811015620006e2578181015183820152602001620006c8565b83811115620006f2576000848401525b50505050565b6200070381620006b3565b81146200028f57600080fd5b61299c806200071f6000396000f3fe608060405234801561001057600080fd5b50600436106101fb5760003560e01c8063737c76001161011a578063b5004f01116100ad578063c87b56dd1161007c578063c87b56dd1461042e578063cd53d08e14610441578063e8a3d48514610454578063e985e9c51461045c578063f2fde38b1461046f576101fb565b8063b5004f01146103e0578063b88d4fde146103f3578063b9c4d9fb14610406578063c0ac998314610426576101fb565b8063938e3d7b116100e9578063938e3d7b1461039f57806395d89b41146103b257806399e0dd7c146103ba578063a22cb465146103cd576101fb565b8063737c7600146103695780638da5cb5b1461037c5780638ee11204146103845780638f32d59b14610397576101fb565b80632f745c59116101925780636308f1cd116101615780636308f1cd1461031a5780636352211e1461033b57806370a082311461034e578063715018a614610361576101fb565b80632f745c59146102ce57806342842e0e146102e157806342966c68146102f45780634f6ccce714610307576101fb565b8063095ea7b3116101ce578063095ea7b3146102735780630ebd4c7f1461028657806318160ddd146102a657806323b872dd146102bb576101fb565b806301ffc9a714610200578063056b01ce1461022957806306fdde031461023e578063081812fc14610253575b600080fd5b61021361020e366004611e01565b610482565b60405161022091906126db565b60405180910390f35b61023c610237366004611e72565b6104a1565b005b6102466104f4565b60405161022091906126e9565b610266610261366004611ea8565b610582565b604051610220919061264c565b61023c610281366004611dd1565b6105c5565b610299610294366004611ea8565b6106aa565b60405161022091906126ca565b6102ae61079d565b604051610220919061284a565b61023c6102c9366004611cdb565b6107a4565b6102ae6102dc366004611dd1565b6107e1565b61023c6102ef366004611cdb565b610842565b61023c610302366004611ea8565b61085d565b6102ae610315366004611ea8565b610890565b61032d610328366004611ec6565b6108d7565b60405161022092919061269e565b610266610349366004611ea8565b61091a565b6102ae61035c366004611c83565b61094f565b61023c610998565b6102ae610377366004611dd1565b610a06565b610266610a34565b610299610392366004611c83565b610a43565b610213610aaf565b61023c6103ad366004611e3d565b610ad3565b610246610b00565b61023c6103c8366004611e3d565b610b5b565b61023c6103db366004611da1565b610b88565b6102ae6103ee366004611ea8565b610c56565b61023c610401366004611d28565b610c68565b610419610414366004611ea8565b610ca7565b60405161022091906126b9565b610246610d9f565b61024661043c366004611ea8565b610dfa565b61026661044f366004611ea8565b610e2a565b610246610e45565b61021361046a366004611ca1565b610ea0565b61023c61047d366004611c83565b610ece565b6001600160e01b03191660009081526001602052604090205460ff1690565b6104a9610aaf565b6104ce5760405162461bcd60e51b81526004016104c5906127ca565b60405180910390fd5b6104db3360145483610efb565b6104e760145483610f50565b5050601480546001019055565b600d805460408051602060026001851615610100026000190190941693909304601f8101849004840282018401909252818152929183018282801561057a5780601f1061054f5761010080835404028352916020019161057a565b820191906000526020600020905b81548152906001019060200180831161055d57829003601f168201915b505050505081565b600061058d82610f83565b6105a95760405162461bcd60e51b81526004016104c5906127aa565b506000908152600360205260409020546001600160a01b031690565b60006105d08261091a565b9050806001600160a01b0316836001600160a01b031614156106045760405162461bcd60e51b81526004016104c5906127fa565b806001600160a01b0316610616610fa0565b6001600160a01b0316148061063257506106328161046a610fa0565b61064e5760405162461bcd60e51b81526004016104c59061276a565b60008281526003602052604080822080546001600160a01b0319166001600160a01b0387811691821790925591518593918516917f8c5be1e5ebec7d5bd14f71427d1e84f3dd0314c0f7b2291e5b200ac8c7c3b92591a4505050565b6000818152600f602090815260408083208054825181850281018501909352808352606094859484015b8282101561071c576000848152602090819020604080518082019091526002850290910180546001600160a01b031682526001908101548284015290835290920191016106d4565b5050505090506060815160405190808252806020026020018201604052801561074f578160200160208202803883390190505b50905060005b82518110156107955782818151811061076a57fe5b60200260200101516020015182828151811061078257fe5b6020908102919091010152600101610755565b509392505050565b600b545b90565b6107b56107af610fa0565b82610fa4565b6107d15760405162461bcd60e51b81526004016104c59061280a565b6107dc838383611029565b505050565b60006107ec8361094f565b821061080a5760405162461bcd60e51b81526004016104c5906126fa565b6001600160a01b038316600090815260096020526040902080548390811061082e57fe5b906000526020600020015490505b92915050565b6107dc83838360405180602001604052806000815250610c68565b6108686107af610fa0565b6108845760405162461bcd60e51b81526004016104c59061283a565b61088d81611048565b50565b600061089a61079d565b82106108b85760405162461bcd60e51b81526004016104c59061281a565b600b82815481106108c557fe5b90600052602060002001549050919050565b600f60205281600052604060002081815481106108f057fe5b6000918252602090912060029091020180546001909101546001600160a01b039091169250905082565b6000818152600260205260408120546001600160a01b03168061083c5760405162461bcd60e51b81526004016104c59061278a565b60006001600160a01b0382166109775760405162461bcd60e51b81526004016104c59061277a565b6001600160a01b038216600090815260046020526040902061083c9061105a565b6109a0610aaf565b6109bc5760405162461bcd60e51b81526004016104c5906127ca565b600080546040516001600160a01b03909116907f8be0079c531659141344cd1fd0a4f28419497f9722a3daafe3b4186f6b6457e0908390a3600080546001600160a01b0319169055565b60126020528160005260406000208181548110610a1f57fe5b90600052602060002001600091509150505481565b6000546001600160a01b031690565b6001600160a01b038116600090815260126020908152604091829020805483518184028101840190945280845260609392830182828015610aa357602002820191906000526020600020905b815481526020019060010190808311610a8f575b50505050509050919050565b600080546001600160a01b0316610ac4610fa0565b6001600160a01b031614905090565b610adb610aaf565b610af75760405162461bcd60e51b81526004016104c5906127ca565b61088d8161105e565b600e805460408051602060026001851615610100026000190190941693909304601f8101849004840282018401909252818152929183018282801561057a5780601f1061054f5761010080835404028352916020019161057a565b610b63610aaf565b610b7f5760405162461bcd60e51b81526004016104c5906127ca565b61088d81611071565b610b90610fa0565b6001600160a01b0316826001600160a01b03161415610bc15760405162461bcd60e51b81526004016104c59061274a565b8060056000610bce610fa0565b6001600160a01b03908116825260208083019390935260409182016000908120918716808252919093529120805460ff191692151592909217909155610c12610fa0565b6001600160a01b03167f17307eab39ab6107e8899845ad3d59bd9653f200f220920489ca2b5937696c3183604051610c4a91906126db565b60405180910390a35050565b60106020526000908152604090205481565b610c79610c73610fa0565b83610fa4565b610c955760405162461bcd60e51b81526004016104c59061280a565b610ca184848484611084565b50505050565b6000818152600f602090815260408083208054825181850281018501909352808352606094859484015b82821015610d19576000848152602090819020604080518082019091526002850290910180546001600160a01b03168252600190810154828401529083529092019101610cd1565b50505050905060608151604051908082528060200260200182016040528015610d4c578160200160208202803883390190505b50905060005b825181101561079557828181518110610d6757fe5b602002602001015160000151828281518110610d7f57fe5b6001600160a01b0390921660209283029190910190910152600101610d52565b6007805460408051602060026001851615610100026000190190941693909304601f8101849004840282018401909252818152929183018282801561057a5780601f1061054f5761010080835404028352916020019161057a565b6060610e0582610f83565b610e215760405162461bcd60e51b81526004016104c5906127ea565b61083c826110b7565b6011602052600090815260409020546001600160a01b031681565b6006805460408051602060026001851615610100026000190190941693909304601f8101849004840282018401909252818152929183018282801561057a5780601f1061054f5761010080835404028352916020019161057a565b6001600160a01b03918216600090815260056020908152604080832093909416825291909152205460ff1690565b610ed6610aaf565b610ef25760405162461bcd60e51b81526004016104c5906127ca565b61088d816111f2565b610f058383611273565b6000828152601060209081526040808320939093556011815282822080546001600160a01b031916339081179091558252601281529181208054600181018255908252919020015550565b610f5982610f83565b610f755760405162461bcd60e51b81526004016104c5906127ba565b610f7f8282611290565b5050565b6000908152600260205260409020546001600160a01b0316151590565b3390565b6000610faf82610f83565b610fcb5760405162461bcd60e51b81526004016104c59061275a565b6000610fd68361091a565b9050806001600160a01b0316846001600160a01b031614806110115750836001600160a01b031661100684610582565b6001600160a01b0316145b8061102157506110218185610ea0565b949350505050565b6110348383836112af565b61103e83826113b5565b6107dc82826114aa565b61088d6110548261091a565b826114e8565b5490565b8051610f7f906006906020840190611afc565b8051610f7f906007906020840190611afc565b61108f848484611029565b61109b848484846114fb565b610ca15760405162461bcd60e51b81526004016104c59061270a565b6000818152600860209081526040918290208054835160026001831615610100026000190190921691909104601f810184900484028201840190945283815260609361083c939192918301828280156111515780601f1061112657610100808354040283529160200191611151565b820191906000526020600020905b81548152906001019060200180831161113457829003601f168201915b505060078054604080516020601f60026000196101006001881615020190951694909404938401819004810282018101909252828152955091935091508301828280156111df5780601f106111b4576101008083540402835291602001916111df565b820191906000526020600020905b8154815290600101906020018083116111c257829003601f168201915b505050505061163590919063ffffffff16565b6001600160a01b0381166112185760405162461bcd60e51b81526004016104c59061271a565b600080546040516001600160a01b03808516939216917f8be0079c531659141344cd1fd0a4f28419497f9722a3daafe3b4186f6b6457e091a3600080546001600160a01b0319166001600160a01b0392909216919091179055565b61127d828261172a565b61128782826114aa565b610f7f816117f1565b600082815260086020908152604090912082516107dc92840190611afc565b826001600160a01b03166112c28261091a565b6001600160a01b0316146112e85760405162461bcd60e51b81526004016104c5906127da565b6001600160a01b03821661130e5760405162461bcd60e51b81526004016104c59061273a565b61131781611835565b6001600160a01b038316600090815260046020526040902061133890611870565b6001600160a01b038216600090815260046020526040902061135990611887565b60008181526002602052604080822080546001600160a01b0319166001600160a01b0386811691821790925591518493918716917fddf252ad1be2c89b69c2b068fc378daa952ba7f163c4a11628f55a4df523b3ef91a4505050565b6001600160a01b0382166000908152600960205260408120546113df90600163ffffffff61189016565b6000838152600a602052604090205490915080821461147a576001600160a01b038416600090815260096020526040812080548490811061141c57fe5b906000526020600020015490508060096000876001600160a01b03166001600160a01b03168152602001908152602001600020838154811061145a57fe5b6000918252602080832090910192909255918252600a9052604090208190555b6001600160a01b03841660009081526009602052604090208054906114a3906000198301611b7a565b5050505050565b6001600160a01b0390911660009081526009602081815260408084208054868652600a84529185208290559282526001810183559183529091200155565b6114f282826118d9565b610f7f81611905565b600061150f846001600160a01b0316611943565b61151b57506001611021565b600060606001600160a01b038616630a85bd0160e11b611539610fa0565b89888860405160240161154f949392919061265a565b60408051601f198184030181529181526020820180516001600160e01b03166001600160e01b031990941693909317909252905161158d9190612640565b6000604051808303816000865af19150503d80600081146115ca576040519150601f19603f3d011682016040523d82523d6000602084013e6115cf565b606091505b509150915081611601578051156115e95780518082602001fd5b60405162461bcd60e51b81526004016104c59061270a565b6000818060200190516116179190810190611e1f565b6001600160e01b031916630a85bd0160e11b14935061102192505050565b6060808390506060839050606081518351016040519080825280601f01601f191660200182016040528015611671576020820181803883390190505b5090506000805b84518110156116c95784818151811061168d57fe5b602001015160f81c60f81b8383806001019450815181106116aa57fe5b60200101906001600160f81b031916908160001a905350600101611678565b5060005b835181101561171e578381815181106116e257fe5b602001015160f81c60f81b8383806001019450815181106116ff57fe5b60200101906001600160f81b031916908160001a9053506001016116cd565b50909695505050505050565b6001600160a01b0382166117505760405162461bcd60e51b81526004016104c59061279a565b61175981610f83565b156117765760405162461bcd60e51b81526004016104c59061272a565b600081815260026020908152604080832080546001600160a01b0319166001600160a01b0387169081179091558352600490915290206117b590611887565b60405181906001600160a01b038416906000907fddf252ad1be2c89b69c2b068fc378daa952ba7f163c4a11628f55a4df523b3ef908290a45050565b600b80546000838152600c60205260408120829055600182018355919091527f0175b7a638427703f0dbe7bb9bbf987a2551717b34e79f33b5b1008d1fa01db90155565b6000818152600360205260409020546001600160a01b03161561088d57600090815260036020526040902080546001600160a01b0319169055565b805461188390600163ffffffff61189016565b9055565b80546001019055565b60006118d283836040518060400160405280601e81526020017f536166654d6174683a207375627472616374696f6e206f766572666c6f77000081525061197c565b9392505050565b6118e382826119a8565b6118ed82826113b5565b6000818152600a6020526040812055610f7f81611a60565b600081815260086020526040902054600260001961010060018416150201909116041561088d57600081815260086020526040812061088d91611b9e565b6000813f7fc5d2460186f7233c927e7db2dcc703c0e500b653ca82273b7bfad8045d85a470818114801590611021575050151592915050565b600081848411156119a05760405162461bcd60e51b81526004016104c591906126e9565b505050900390565b816001600160a01b03166119bb8261091a565b6001600160a01b0316146119e15760405162461bcd60e51b81526004016104c59061282a565b6119ea81611835565b6001600160a01b0382166000908152600460205260409020611a0b90611870565b60008181526002602052604080822080546001600160a01b0319169055518291906001600160a01b038516907fddf252ad1be2c89b69c2b068fc378daa952ba7f163c4a11628f55a4df523b3ef908390a45050565b600b54600090611a7790600163ffffffff61189016565b6000838152600c6020526040812054600b8054939450909284908110611a9957fe5b9060005260206000200154905080600b8381548110611ab457fe5b6000918252602080832090910192909255828152600c90915260409020829055600b805490611ae7906000198301611b7a565b505050600091825250600c6020526040812055565b828054600181600116156101000203166002900490600052602060002090601f016020900481019282601f10611b3d57805160ff1916838001178555611b6a565b82800160010185558215611b6a579182015b82811115611b6a578251825591602001919060010190611b4f565b50611b76929150611bde565b5090565b8154818355818111156107dc576000838152602090206107dc918101908301611bde565b50805460018160011615610100020316600290046000825580601f10611bc4575061088d565b601f01602090049060005260206000209081019061088d91905b6107a191905b80821115611b765760008155600101611be4565b803561083c8161292a565b803561083c8161293e565b803561083c81612947565b805161083c81612947565b600082601f830112611c3557600080fd5b8135611c48611c438261287f565b612858565b91508082526020830160208301858383011115611c6457600080fd5b611c6f8382846128e8565b50505092915050565b803561083c81612950565b600060208284031215611c9557600080fd5b60006110218484611bf8565b60008060408385031215611cb457600080fd5b6000611cc08585611bf8565b9250506020611cd185828601611bf8565b9150509250929050565b600080600060608486031215611cf057600080fd5b6000611cfc8686611bf8565b9350506020611d0d86828701611bf8565b9250506040611d1e86828701611c78565b9150509250925092565b60008060008060808587031215611d3e57600080fd5b6000611d4a8787611bf8565b9450506020611d5b87828801611bf8565b9350506040611d6c87828801611c78565b925050606085013567ffffffffffffffff811115611d8957600080fd5b611d9587828801611c24565b91505092959194509250565b60008060408385031215611db457600080fd5b6000611dc08585611bf8565b9250506020611cd185828601611c03565b60008060408385031215611de457600080fd5b6000611df08585611bf8565b9250506020611cd185828601611c78565b600060208284031215611e1357600080fd5b60006110218484611c0e565b600060208284031215611e3157600080fd5b60006110218484611c19565b600060208284031215611e4f57600080fd5b813567ffffffffffffffff811115611e6657600080fd5b61102184828501611c24565b60008060408385031215611e8557600080fd5b823567ffffffffffffffff811115611e9c57600080fd5b611df085828601611c24565b600060208284031215611eba57600080fd5b60006110218484611c78565b60008060408385031215611ed957600080fd5b6000611df08585611c78565b6000611ef18383611f05565b505060200190565b6000611ef18383612637565b611f0e816128bf565b82525050565b6000611f1f826128ad565b611f2981856128b1565b9350611f34836128a7565b8060005b83811015611f62578151611f4c8882611ee5565b9750611f57836128a7565b925050600101611f38565b509495945050505050565b6000611f78826128ad565b611f8281856128b1565b9350611f8d836128a7565b8060005b83811015611f62578151611fa58882611ef9565b9750611fb0836128a7565b925050600101611f91565b611f0e816128ca565b6000611fcf826128ad565b611fd981856128b1565b9350611fe98185602086016128f4565b611ff281612920565b9093019392505050565b6000612007826128ad565b61201181856128ba565b93506120218185602086016128f4565b9290920192915050565b6000612038602b836128b1565b7f455243373231456e756d657261626c653a206f776e657220696e646578206f7581526a74206f6620626f756e647360a81b602082015260400192915050565b60006120856032836128b1565b7f4552433732313a207472616e7366657220746f206e6f6e20455243373231526581527131b2b4bb32b91034b6b83632b6b2b73a32b960711b602082015260400192915050565b60006120d96026836128b1565b7f4f776e61626c653a206e6577206f776e657220697320746865207a65726f206181526564647265737360d01b602082015260400192915050565b6000612121601c836128b1565b7f4552433732313a20746f6b656e20616c7265616479206d696e74656400000000815260200192915050565b600061215a6024836128b1565b7f4552433732313a207472616e7366657220746f20746865207a65726f206164648152637265737360e01b602082015260400192915050565b60006121a06019836128b1565b7f4552433732313a20617070726f766520746f2063616c6c657200000000000000815260200192915050565b60006121d9602c836128b1565b7f4552433732313a206f70657261746f7220717565727920666f72206e6f6e657881526b34b9ba32b73a103a37b5b2b760a11b602082015260400192915050565b60006122276038836128b1565b7f4552433732313a20617070726f76652063616c6c6572206973206e6f74206f7781527f6e6572206e6f7220617070726f76656420666f7220616c6c0000000000000000602082015260400192915050565b6000612286602a836128b1565b7f4552433732313a2062616c616e636520717565727920666f7220746865207a65815269726f206164647265737360b01b602082015260400192915050565b60006122d26029836128b1565b7f4552433732313a206f776e657220717565727920666f72206e6f6e657869737481526832b73a103a37b5b2b760b91b602082015260400192915050565b600061231d6020836128b1565b7f4552433732313a206d696e7420746f20746865207a65726f2061646472657373815260200192915050565b6000612356602c836128b1565b7f4552433732313a20617070726f76656420717565727920666f72206e6f6e657881526b34b9ba32b73a103a37b5b2b760a11b602082015260400192915050565b60006123a4602c836128b1565b7f4552433732314d657461646174613a2055524920736574206f66206e6f6e657881526b34b9ba32b73a103a37b5b2b760a11b602082015260400192915050565b60006123f26020836128b1565b7f4f776e61626c653a2063616c6c6572206973206e6f7420746865206f776e6572815260200192915050565b600061242b6029836128b1565b7f4552433732313a207472616e73666572206f6620746f6b656e2074686174206981526839903737ba1037bbb760b91b602082015260400192915050565b6000612476602f836128b1565b7f4552433732314d657461646174613a2055524920717565727920666f72206e6f81526e3732bc34b9ba32b73a103a37b5b2b760891b602082015260400192915050565b60006124c76021836128b1565b7f4552433732313a20617070726f76616c20746f2063757272656e74206f776e658152603960f91b602082015260400192915050565b600061250a6031836128b1565b7f4552433732313a207472616e736665722063616c6c6572206973206e6f74206f8152701ddb995c881b9bdc88185c1c1c9bdd9959607a1b602082015260400192915050565b600061255d602c836128b1565b7f455243373231456e756d657261626c653a20676c6f62616c20696e646578206f81526b7574206f6620626f756e647360a01b602082015260400192915050565b60006125ab6025836128b1565b7f4552433732313a206275726e206f6620746f6b656e2074686174206973206e6f8152643a1037bbb760d91b602082015260400192915050565b60006125f26030836128b1565b7f4552433732314275726e61626c653a2063616c6c6572206973206e6f74206f7781526f1b995c881b9bdc88185c1c1c9bdd995960821b602082015260400192915050565b611f0e816107a1565b60006118d28284611ffc565b6020810161083c8284611f05565b608081016126688287611f05565b6126756020830186611f05565b6126826040830185612637565b81810360608301526126948184611fc4565b9695505050505050565b604081016126ac8285611f05565b6118d26020830184612637565b602080825281016118d28184611f14565b602080825281016118d28184611f6d565b6020810161083c8284611fbb565b602080825281016118d28184611fc4565b6020808252810161083c8161202b565b6020808252810161083c81612078565b6020808252810161083c816120cc565b6020808252810161083c81612114565b6020808252810161083c8161214d565b6020808252810161083c81612193565b6020808252810161083c816121cc565b6020808252810161083c8161221a565b6020808252810161083c81612279565b6020808252810161083c816122c5565b6020808252810161083c81612310565b6020808252810161083c81612349565b6020808252810161083c81612397565b6020808252810161083c816123e5565b6020808252810161083c8161241e565b6020808252810161083c81612469565b6020808252810161083c816124ba565b6020808252810161083c816124fd565b6020808252810161083c81612550565b6020808252810161083c8161259e565b6020808252810161083c816125e5565b6020810161083c8284612637565b60405181810167ffffffffffffffff8111828210171561287757600080fd5b604052919050565b600067ffffffffffffffff82111561289657600080fd5b506020601f91909101601f19160190565b60200190565b5190565b90815260200190565b919050565b600061083c826128dc565b151590565b6001600160e01b03191690565b6001600160a01b031690565b82818337506000910152565b60005b8381101561290f5781810151838201526020016128f7565b83811115610ca15750506000910152565b601f01601f191690565b612933816128bf565b811461088d57600080fd5b612933816128ca565b612933816128cf565b612933816107a156fea365627a7a7231582080525f3d78478d062b74f6ff204b69380dd8a3e55647d2e86ae2ac00cba077a86c6578706572696d656e74616cf564736f6c634300051100408be0079c531659141344cd1fd0a4f28419497f9722a3daafe3b4186f6b6457e0a365627a7a72315820b12a646b9aa5e58a7447d9363abcbd9fc0d7ca1fb469757d844ea388f67cf0356c6578706572696d656e74616cf564736f6c634300051100408be0079c531659141344cd1fd0a4f28419497f9722a3daafe3b4186f6b6457e0",
  "source": "pragma solidity ^0.5.0;\npragma experimental ABIEncoderV2;\n\n\nimport './Collection.sol';\nimport './brokerV2_utils/AddressArrayLib.sol';\n\n\n/**\n * @title CollectionFactory\n * @author Yogesh Singh\n * @notice This function will create new collection for you\n * @dev Factory contract to create collections \n */\ncontract CollectionFactory is Ownable{\n\n    // Custom lib for managing address[]\n    using AddressArrayLib for AddressArrayLib.addresses;\n\n    // List to store all collections created till now.\n    AddressArrayLib.addresses private _collections;\n\n    // Mapping to store collection created by user\n    // sender => list of collection deployed\n    mapping(address => AddressArrayLib.addresses) private _userCollections;\n\n    // Events:\n    event CollectionCreated(\n        address indexed creator,\n        address indexed collection,\n        string name,\n        string indexed symbol,\n        string contractURI,\n        string tokenURIPrefix,\n        uint time\n    );\n\n    event CollectionRemoved(\n        address indexed creator,\n        address indexed collection,\n        uint time\n    );\n\n    /**\n     * @dev Constructor function\n     */\n    constructor() public{\n        transferOwnership(msg.sender);\n    }\n\n    /**\n     * @dev Public function that deploys new collection contract and return new collection address.\n     * @dev Returns address of deployed contract\n     * @param name Display name for  collection contract\n     * @param symbol Symbol for collection contract\n     * @param contractURI Collection description URI which contains display image and other necessery details.\n     * @param tokenURIPrefix prefix for tokenURI of NFT contract\n     */\n    function createCollection(\n        string memory name, \n        string memory symbol,\n        string memory contractURI, \n        string memory tokenURIPrefix\n    ) public returns (address){\n        Collection collection = new Collection(\n            name, \n            symbol, \n            msg.sender, \n            contractURI, \n            tokenURIPrefix\n        );\n        _collections.add(address(collection));\n        _userCollections[msg.sender].add(address(collection));\n        emit CollectionCreated(msg.sender, address(collection), name, symbol, contractURI, tokenURIPrefix, block.timestamp);\n        return address(collection);\n    }\n\n    /**\n     * @dev Public function that Removes contract address from user's collections.\n     */\n    function removeCollection(address collection) public{\n        // Check conditions\n        require(_collections.exists(collection), \"Collection doesn't exists\");\n        require(_userCollections[msg.sender].exists(collection), \"Collection doesn't exists\");\n        Ownable _collection = Ownable(collection);\n        require(_collection.owner() == address(0), 'renounceOwnership of contract required');\n\n        // Delete the address\n        _userCollections[msg.sender].removeAddress(collection);\n        _collections.removeAddress(collection);\n\n        // Trigger the event\n        emit CollectionRemoved(msg.sender, address(collection), block.timestamp);\n\n    }\n\n    /**\n     * @dev return all collections deployed till now.\n     */\n    function getAllCollection() public view returns (address[]memory){\n        return _collections.array;\n    }\n\n    /**\n     * @dev Returns contracts depolyet to address\n     */\n    function getUserCollection(address _user) public view returns (address[] memory){\n        return _userCollections[_user].array;\n    }\n\n}",
  "sourcePath": "/Users/thoughtwin/Desktop/weblisto/clubrare/smart_contracts/contracts/CollectionFactory.sol",
  "compiler": {
    "name": "solc",
    "version": "0.5.17+commit.d19bba13.Emscripten.clang"
  },
  "schemaVersion": "3.4.3",
  "updatedAt": "2021-11-01T10:56:16.715Z",
  "devdoc": {
    "author": "Yogesh Singh",
    "details": "Factory contract to create collections ",
    "methods": {
      "constructor": {
        "details": "Constructor function"
      },
      "createCollection(string,string,string,string)": {
        "details": "Public function that deploys new collection contract and return new collection address.Returns address of deployed contract",
        "params": {
          "contractURI": "Collection description URI which contains display image and other necessery details.",
          "name": "Display name for  collection contract",
          "symbol": "Symbol for collection contract",
          "tokenURIPrefix": "prefix for tokenURI of NFT contract"
        }
      },
      "getAllCollection()": {
        "details": "return all collections deployed till now."
      },
      "getUserCollection(address)": {
        "details": "Returns contracts depolyet to address"
      },
      "isOwner()": {
        "details": "Returns true if the caller is the current owner."
      },
      "owner()": {
        "details": "Returns the address of the current owner."
      },
      "removeCollection(address)": {
        "details": "Public function that Removes contract address from user's collections."
      },
      "renounceOwnership()": {
        "details": "Leaves the contract without owner. It will not be possible to call `onlyOwner` functions anymore. Can only be called by the current owner.     * NOTE: Renouncing ownership will leave the contract without an owner, thereby removing any functionality that is only available to the owner."
      },
      "transferOwnership(address)": {
        "details": "Transfers ownership of the contract to a new account (`newOwner`). Can only be called by the current owner."
      }
    },
    "title": "CollectionFactory"
  },
  "userdoc": {
    "methods": {},
    "notice": "This function will create new collection for you"
  }
}