{
  "contractName": "ERC721Base",
  "abi": [
    {
      "inputs": [
        {
          "internalType": "string",
          "name": "_name",
          "type": "string"
        },
        {
          "internalType": "string",
          "name": "_symbol",
          "type": "string"
        },
        {
          "internalType": "string",
          "name": "contractURI",
          "type": "string"
        },
        {
          "internalType": "string",
          "name": "_tokenURIPrefix",
          "type": "string"
        }
      ],
      "payable": false,
      "stateMutability": "nonpayable",
      "type": "constructor"
    },
    {
      "anonymous": false,
      "inputs": [
        {
          "indexed": true,
          "internalType": "address",
          "name": "owner",
          "type": "address"
        },
        {
          "indexed": true,
          "internalType": "address",
          "name": "approved",
          "type": "address"
        },
        {
          "indexed": true,
          "internalType": "uint256",
          "name": "tokenId",
          "type": "uint256"
        }
      ],
      "name": "Approval",
      "type": "event"
    },
    {
      "anonymous": false,
      "inputs": [
        {
          "indexed": true,
          "internalType": "address",
          "name": "owner",
          "type": "address"
        },
        {
          "indexed": true,
          "internalType": "address",
          "name": "operator",
          "type": "address"
        },
        {
          "indexed": false,
          "internalType": "bool",
          "name": "approved",
          "type": "bool"
        }
      ],
      "name": "ApprovalForAll",
      "type": "event"
    },
    {
      "anonymous": false,
      "inputs": [
        {
          "indexed": false,
          "internalType": "uint256",
          "name": "tokenId",
          "type": "uint256"
        },
        {
          "indexed": false,
          "internalType": "address[]",
          "name": "recipients",
          "type": "address[]"
        },
        {
          "indexed": false,
          "internalType": "uint256[]",
          "name": "bps",
          "type": "uint256[]"
        }
      ],
      "name": "SecondarySaleFees",
      "type": "event"
    },
    {
      "anonymous": false,
      "inputs": [
        {
          "indexed": true,
          "internalType": "address",
          "name": "from",
          "type": "address"
        },
        {
          "indexed": true,
          "internalType": "address",
          "name": "to",
          "type": "address"
        },
        {
          "indexed": true,
          "internalType": "uint256",
          "name": "tokenId",
          "type": "uint256"
        }
      ],
      "name": "Transfer",
      "type": "event"
    },
    {
      "constant": false,
      "inputs": [
        {
          "internalType": "address",
          "name": "to",
          "type": "address"
        },
        {
          "internalType": "uint256",
          "name": "tokenId",
          "type": "uint256"
        }
      ],
      "name": "approve",
      "outputs": [],
      "payable": false,
      "stateMutability": "nonpayable",
      "type": "function"
    },
    {
      "constant": true,
      "inputs": [
        {
          "internalType": "address",
          "name": "owner",
          "type": "address"
        }
      ],
      "name": "balanceOf",
      "outputs": [
        {
          "internalType": "uint256",
          "name": "",
          "type": "uint256"
        }
      ],
      "payable": false,
      "stateMutability": "view",
      "type": "function"
    },
    {
      "constant": true,
      "inputs": [],
      "name": "contractURI",
      "outputs": [
        {
          "internalType": "string",
          "name": "",
          "type": "string"
        }
      ],
      "payable": false,
      "stateMutability": "view",
      "type": "function"
    },
    {
      "constant": true,
      "inputs": [
        {
          "internalType": "uint256",
          "name": "",
          "type": "uint256"
        }
      ],
      "name": "creators",
      "outputs": [
        {
          "internalType": "address payable",
          "name": "",
          "type": "address"
        }
      ],
      "payable": false,
      "stateMutability": "view",
      "type": "function"
    },
    {
      "constant": true,
      "inputs": [
        {
          "internalType": "uint256",
          "name": "",
          "type": "uint256"
        },
        {
          "internalType": "uint256",
          "name": "",
          "type": "uint256"
        }
      ],
      "name": "fees",
      "outputs": [
        {
          "internalType": "address payable",
          "name": "recipient",
          "type": "address"
        },
        {
          "internalType": "uint256",
          "name": "value",
          "type": "uint256"
        }
      ],
      "payable": false,
      "stateMutability": "view",
      "type": "function"
    },
    {
      "constant": true,
      "inputs": [
        {
          "internalType": "uint256",
          "name": "tokenId",
          "type": "uint256"
        }
      ],
      "name": "getApproved",
      "outputs": [
        {
          "internalType": "address",
          "name": "",
          "type": "address"
        }
      ],
      "payable": false,
      "stateMutability": "view",
      "type": "function"
    },
    {
      "constant": true,
      "inputs": [
        {
          "internalType": "address",
          "name": "owner",
          "type": "address"
        },
        {
          "internalType": "address",
          "name": "operator",
          "type": "address"
        }
      ],
      "name": "isApprovedForAll",
      "outputs": [
        {
          "internalType": "bool",
          "name": "",
          "type": "bool"
        }
      ],
      "payable": false,
      "stateMutability": "view",
      "type": "function"
    },
    {
      "constant": true,
      "inputs": [],
      "name": "name",
      "outputs": [
        {
          "internalType": "string",
          "name": "",
          "type": "string"
        }
      ],
      "payable": false,
      "stateMutability": "view",
      "type": "function"
    },
    {
      "constant": true,
      "inputs": [
        {
          "internalType": "uint256",
          "name": "tokenId",
          "type": "uint256"
        }
      ],
      "name": "ownerOf",
      "outputs": [
        {
          "internalType": "address",
          "name": "",
          "type": "address"
        }
      ],
      "payable": false,
      "stateMutability": "view",
      "type": "function"
    },
    {
      "constant": true,
      "inputs": [
        {
          "internalType": "uint256",
          "name": "",
          "type": "uint256"
        }
      ],
      "name": "royalities",
      "outputs": [
        {
          "internalType": "uint256",
          "name": "",
          "type": "uint256"
        }
      ],
      "payable": false,
      "stateMutability": "view",
      "type": "function"
    },
    {
      "constant": false,
      "inputs": [
        {
          "internalType": "address",
          "name": "from",
          "type": "address"
        },
        {
          "internalType": "address",
          "name": "to",
          "type": "address"
        },
        {
          "internalType": "uint256",
          "name": "tokenId",
          "type": "uint256"
        }
      ],
      "name": "safeTransferFrom",
      "outputs": [],
      "payable": false,
      "stateMutability": "nonpayable",
      "type": "function"
    },
    {
      "constant": false,
      "inputs": [
        {
          "internalType": "address",
          "name": "from",
          "type": "address"
        },
        {
          "internalType": "address",
          "name": "to",
          "type": "address"
        },
        {
          "internalType": "uint256",
          "name": "tokenId",
          "type": "uint256"
        },
        {
          "internalType": "bytes",
          "name": "_data",
          "type": "bytes"
        }
      ],
      "name": "safeTransferFrom",
      "outputs": [],
      "payable": false,
      "stateMutability": "nonpayable",
      "type": "function"
    },
    {
      "constant": false,
      "inputs": [
        {
          "internalType": "address",
          "name": "to",
          "type": "address"
        },
        {
          "internalType": "bool",
          "name": "approved",
          "type": "bool"
        }
      ],
      "name": "setApprovalForAll",
      "outputs": [],
      "payable": false,
      "stateMutability": "nonpayable",
      "type": "function"
    },
    {
      "constant": true,
      "inputs": [
        {
          "internalType": "bytes4",
          "name": "interfaceId",
          "type": "bytes4"
        }
      ],
      "name": "supportsInterface",
      "outputs": [
        {
          "internalType": "bool",
          "name": "",
          "type": "bool"
        }
      ],
      "payable": false,
      "stateMutability": "view",
      "type": "function"
    },
    {
      "constant": true,
      "inputs": [],
      "name": "symbol",
      "outputs": [
        {
          "internalType": "string",
          "name": "",
          "type": "string"
        }
      ],
      "payable": false,
      "stateMutability": "view",
      "type": "function"
    },
    {
      "constant": true,
      "inputs": [
        {
          "internalType": "uint256",
          "name": "index",
          "type": "uint256"
        }
      ],
      "name": "tokenByIndex",
      "outputs": [
        {
          "internalType": "uint256",
          "name": "",
          "type": "uint256"
        }
      ],
      "payable": false,
      "stateMutability": "view",
      "type": "function"
    },
    {
      "constant": true,
      "inputs": [
        {
          "internalType": "address",
          "name": "owner",
          "type": "address"
        },
        {
          "internalType": "uint256",
          "name": "index",
          "type": "uint256"
        }
      ],
      "name": "tokenOfOwnerByIndex",
      "outputs": [
        {
          "internalType": "uint256",
          "name": "",
          "type": "uint256"
        }
      ],
      "payable": false,
      "stateMutability": "view",
      "type": "function"
    },
    {
      "constant": true,
      "inputs": [],
      "name": "tokenURIPrefix",
      "outputs": [
        {
          "internalType": "string",
          "name": "",
          "type": "string"
        }
      ],
      "payable": false,
      "stateMutability": "view",
      "type": "function"
    },
    {
      "constant": true,
      "inputs": [
        {
          "internalType": "address",
          "name": "",
          "type": "address"
        },
        {
          "internalType": "uint256",
          "name": "",
          "type": "uint256"
        }
      ],
      "name": "tokensPerCreator",
      "outputs": [
        {
          "internalType": "uint256",
          "name": "",
          "type": "uint256"
        }
      ],
      "payable": false,
      "stateMutability": "view",
      "type": "function"
    },
    {
      "constant": true,
      "inputs": [],
      "name": "totalSupply",
      "outputs": [
        {
          "internalType": "uint256",
          "name": "",
          "type": "uint256"
        }
      ],
      "payable": false,
      "stateMutability": "view",
      "type": "function"
    },
    {
      "constant": false,
      "inputs": [
        {
          "internalType": "address",
          "name": "from",
          "type": "address"
        },
        {
          "internalType": "address",
          "name": "to",
          "type": "address"
        },
        {
          "internalType": "uint256",
          "name": "tokenId",
          "type": "uint256"
        }
      ],
      "name": "transferFrom",
      "outputs": [],
      "payable": false,
      "stateMutability": "nonpayable",
      "type": "function"
    },
    {
      "constant": true,
      "inputs": [
        {
          "internalType": "uint256",
          "name": "id",
          "type": "uint256"
        }
      ],
      "name": "getFeeRecipients",
      "outputs": [
        {
          "internalType": "address payable[]",
          "name": "",
          "type": "address[]"
        }
      ],
      "payable": false,
      "stateMutability": "view",
      "type": "function"
    },
    {
      "constant": true,
      "inputs": [
        {
          "internalType": "address",
          "name": "creator",
          "type": "address"
        }
      ],
      "name": "getTokensPerCreator",
      "outputs": [
        {
          "internalType": "uint256[]",
          "name": "",
          "type": "uint256[]"
        }
      ],
      "payable": false,
      "stateMutability": "view",
      "type": "function"
    },
    {
      "constant": true,
      "inputs": [
        {
          "internalType": "uint256",
          "name": "id",
          "type": "uint256"
        }
      ],
      "name": "getFeeBps",
      "outputs": [
        {
          "internalType": "uint256[]",
          "name": "",
          "type": "uint256[]"
        }
      ],
      "payable": false,
      "stateMutability": "view",
      "type": "function"
    },
    {
      "constant": true,
      "inputs": [
        {
          "internalType": "uint256",
          "name": "tokenId",
          "type": "uint256"
        }
      ],
      "name": "tokenURI",
      "outputs": [
        {
          "internalType": "string",
          "name": "",
          "type": "string"
        }
      ],
      "payable": false,
      "stateMutability": "view",
      "type": "function"
    }
  ],
  "bytecode": "0x60806040523480156200001157600080fd5b506040516200237d3803806200237d833981016040819052620000349162000299565b8082620000516301ffc9a760e01b6001600160e01b036200013d16565b6200006c632dde656160e21b6001600160e01b036200013d16565b620000876380ac58cd60e01b6001600160e01b036200013d16565b80516200009c90600590602084019062000198565b50620000b863e8a3d48560e01b6001600160e01b036200013d16565b508051620000ce90600690602084019062000198565b50620000ec905063780e9d6360e01b6001600160e01b036200013d16565b83516200010190600c90602087019062000198565b5082516200011790600d90602086019062000198565b5062000133635b5e139f60e01b6001600160e01b036200013d16565b5050505062000440565b6001600160e01b03198082161415620001735760405162461bcd60e51b81526004016200016a906200039d565b60405180910390fd5b6001600160e01b0319166000908152602081905260409020805460ff19166001179055565b828054600181600116156101000203166002900490600052602060002090601f016020900481019282601f10620001db57805160ff19168380011785556200020b565b828001600101855582156200020b579182015b828111156200020b578251825591602001919060010190620001ee565b50620002199291506200021d565b5090565b6200023a91905b8082111562000219576000815560010162000224565b90565b600082601f8301126200024f57600080fd5b8151620002666200026082620003dc565b620003b5565b915080825260208301602083018583830111156200028357600080fd5b620002908382846200040d565b50505092915050565b60008060008060808587031215620002b057600080fd5b84516001600160401b03811115620002c757600080fd5b620002d5878288016200023d565b94505060208501516001600160401b03811115620002f257600080fd5b62000300878288016200023d565b93505060408501516001600160401b038111156200031d57600080fd5b6200032b878288016200023d565b92505060608501516001600160401b038111156200034857600080fd5b62000356878288016200023d565b91505092959194509250565b600062000371601c8362000404565b7f4552433136353a20696e76616c696420696e7465726661636520696400000000815260200192915050565b60208082528101620003af8162000362565b92915050565b6040518181016001600160401b0381118282101715620003d457600080fd5b604052919050565b60006001600160401b03821115620003f357600080fd5b506020601f91909101601f19160190565b90815260200190565b60005b838110156200042a57818101518382015260200162000410565b838111156200043a576000848401525b50505050565b611f2d80620004506000396000f3fe608060405234801561001057600080fd5b50600436106101735760003560e01c806370a08231116100de578063b88d4fde11610097578063c87b56dd11610071578063c87b56dd14610342578063cd53d08e14610355578063e8a3d48514610368578063e985e9c51461037057610173565b8063b88d4fde14610307578063b9c4d9fb1461031a578063c0ac99831461033a57610173565b806370a08231146102a0578063737c7600146102b35780638ee11204146102c657806395d89b41146102d9578063a22cb465146102e1578063b5004f01146102f457610173565b806323b872dd1161013057806323b872dd146102205780632f745c591461023357806342842e0e146102465780634f6ccce7146102595780636308f1cd1461026c5780636352211e1461028d57610173565b806301ffc9a71461017857806306fdde03146101a1578063081812fc146101b6578063095ea7b3146101d65780630ebd4c7f146101eb57806318160ddd1461020b575b600080fd5b61018b610186366004611647565b610383565b6040516101989190611cdc565b60405180910390f35b6101a96103a2565b6040516101989190611cea565b6101c96101c4366004611683565b610430565b6040516101989190611c4d565b6101e96101e4366004611617565b61047c565b005b6101fe6101f9366004611683565b610561565b6040516101989190611ccb565b610213610654565b6040516101989190611ddb565b6101e961022e366004611521565b61065b565b610213610241366004611617565b610698565b6101e9610254366004611521565b6106f9565b610213610267366004611683565b610714565b61027f61027a3660046116a1565b61075b565b604051610198929190611c9f565b6101c961029b366004611683565b61079e565b6102136102ae3660046114c9565b6107d3565b6102136102c1366004611617565b61081c565b6101fe6102d43660046114c9565b61084a565b6101a96108b6565b6101e96102ef3660046115e7565b610911565b610213610302366004611683565b6109df565b6101e961031536600461156e565b6109f1565b61032d610328366004611683565b610a30565b6040516101989190611cba565b6101a9610b28565b6101a9610350366004611683565b610b83565b6101c9610363366004611683565b610bb3565b6101a9610bce565b61018b61037e3660046114e7565b610c29565b6001600160e01b03191660009081526020819052604090205460ff1690565b600c805460408051602060026001851615610100026000190190941693909304601f810184900484028201840190925281815292918301828280156104285780601f106103fd57610100808354040283529160200191610428565b820191906000526020600020905b81548152906001019060200180831161040b57829003601f168201915b505050505081565b600061043b82610c57565b6104605760405162461bcd60e51b815260040161045790611d7b565b60405180910390fd5b506000908152600260205260409020546001600160a01b031690565b60006104878261079e565b9050806001600160a01b0316836001600160a01b031614156104bb5760405162461bcd60e51b815260040161045790611dab565b806001600160a01b03166104cd610c74565b6001600160a01b031614806104e957506104e98161037e610c74565b6105055760405162461bcd60e51b815260040161045790611d4b565b60008281526002602052604080822080546001600160a01b0319166001600160a01b0387811691821790925591518593918516917f8c5be1e5ebec7d5bd14f71427d1e84f3dd0314c0f7b2291e5b200ac8c7c3b92591a4505050565b6000818152600e602090815260408083208054825181850281018501909352808352606094859484015b828210156105d3576000848152602090819020604080518082019091526002850290910180546001600160a01b0316825260019081015482840152908352909201910161058b565b50505050905060608151604051908082528060200260200182016040528015610606578160200160208202803883390190505b50905060005b825181101561064c5782818151811061062157fe5b60200260200101516020015182828151811061063957fe5b602090810291909101015260010161060c565b509392505050565b600a545b90565b61066c610666610c74565b82610c78565b6106885760405162461bcd60e51b815260040161045790611dbb565b610693838383610cfd565b505050565b60006106a3836107d3565b82106106c15760405162461bcd60e51b815260040161045790611cfb565b6001600160a01b03831660009081526008602052604090208054839081106106e557fe5b906000526020600020015490505b92915050565b610693838383604051806020016040528060008152506109f1565b600061071e610654565b821061073c5760405162461bcd60e51b815260040161045790611dcb565b600a828154811061074957fe5b90600052602060002001549050919050565b600e602052816000526040600020818154811061077457fe5b6000918252602090912060029091020180546001909101546001600160a01b039091169250905082565b6000818152600160205260408120546001600160a01b0316806106f35760405162461bcd60e51b815260040161045790611d6b565b60006001600160a01b0382166107fb5760405162461bcd60e51b815260040161045790611d5b565b6001600160a01b03821660009081526003602052604090206106f390610d1c565b6011602052816000526040600020818154811061083557fe5b90600052602060002001600091509150505481565b6001600160a01b0381166000908152601160209081526040918290208054835181840281018401909452808452606093928301828280156108aa57602002820191906000526020600020905b815481526020019060010190808311610896575b50505050509050919050565b600d805460408051602060026001851615610100026000190190941693909304601f810184900484028201840190925281815292918301828280156104285780601f106103fd57610100808354040283529160200191610428565b610919610c74565b6001600160a01b0316826001600160a01b0316141561094a5760405162461bcd60e51b815260040161045790611d2b565b8060046000610957610c74565b6001600160a01b03908116825260208083019390935260409182016000908120918716808252919093529120805460ff19169215159290921790915561099b610c74565b6001600160a01b03167f17307eab39ab6107e8899845ad3d59bd9653f200f220920489ca2b5937696c31836040516109d39190611cdc565b60405180910390a35050565b600f6020526000908152604090205481565b610a026109fc610c74565b83610c78565b610a1e5760405162461bcd60e51b815260040161045790611dbb565b610a2a84848484610d20565b50505050565b6000818152600e602090815260408083208054825181850281018501909352808352606094859484015b82821015610aa2576000848152602090819020604080518082019091526002850290910180546001600160a01b03168252600190810154828401529083529092019101610a5a565b50505050905060608151604051908082528060200260200182016040528015610ad5578160200160208202803883390190505b50905060005b825181101561064c57828181518110610af057fe5b602002602001015160000151828281518110610b0857fe5b6001600160a01b0390921660209283029190910190910152600101610adb565b6006805460408051602060026001851615610100026000190190941693909304601f810184900484028201840190925281815292918301828280156104285780601f106103fd57610100808354040283529160200191610428565b6060610b8e82610c57565b610baa5760405162461bcd60e51b815260040161045790611d9b565b6106f382610d53565b6010602052600090815260409020546001600160a01b031681565b6005805460408051602060026001851615610100026000190190941693909304601f810184900484028201840190925281815292918301828280156104285780601f106103fd57610100808354040283529160200191610428565b6001600160a01b03918216600090815260046020908152604080832093909416825291909152205460ff1690565b6000908152600160205260409020546001600160a01b0316151590565b3390565b6000610c8382610c57565b610c9f5760405162461bcd60e51b815260040161045790611d3b565b6000610caa8361079e565b9050806001600160a01b0316846001600160a01b03161480610ce55750836001600160a01b0316610cda84610430565b6001600160a01b0316145b80610cf55750610cf58185610c29565b949350505050565b610d08838383610e8e565b610d128382610f94565b6106938282611089565b5490565b610d2b848484610cfd565b610d37848484846110c7565b610a2a5760405162461bcd60e51b815260040161045790611d0b565b6000818152600760209081526040918290208054835160026001831615610100026000190190921691909104601f81018490048402820184019094528381526060936106f393919291830182828015610ded5780601f10610dc257610100808354040283529160200191610ded565b820191906000526020600020905b815481529060010190602001808311610dd057829003601f168201915b505060068054604080516020601f6002600019610100600188161502019095169490940493840181900481028201810190925282815295509193509150830182828015610e7b5780601f10610e5057610100808354040283529160200191610e7b565b820191906000526020600020905b815481529060010190602001808311610e5e57829003601f168201915b505050505061120190919063ffffffff16565b826001600160a01b0316610ea18261079e565b6001600160a01b031614610ec75760405162461bcd60e51b815260040161045790611d8b565b6001600160a01b038216610eed5760405162461bcd60e51b815260040161045790611d1b565b610ef6816112f6565b6001600160a01b0383166000908152600360205260409020610f1790611333565b6001600160a01b0382166000908152600360205260409020610f389061134a565b60008181526001602052604080822080546001600160a01b0319166001600160a01b0386811691821790925591518493918716917fddf252ad1be2c89b69c2b068fc378daa952ba7f163c4a11628f55a4df523b3ef91a4505050565b6001600160a01b038216600090815260086020526040812054610fbe90600163ffffffff61135316565b600083815260096020526040902054909150808214611059576001600160a01b0384166000908152600860205260408120805484908110610ffb57fe5b906000526020600020015490508060086000876001600160a01b03166001600160a01b03168152602001908152602001600020838154811061103957fe5b600091825260208083209091019290925591825260099052604090208190555b6001600160a01b0384166000908152600860205260409020805490611082906000198301611401565b5050505050565b6001600160a01b0390911660009081526008602081815260408084208054868652600984529185208290559282526001810183559183529091200155565b60006110db846001600160a01b031661139c565b6110e757506001610cf5565b600060606001600160a01b038616630a85bd0160e11b611105610c74565b89888860405160240161111b9493929190611c5b565b60408051601f198184030181529181526020820180516001600160e01b03166001600160e01b03199094169390931790925290516111599190611c41565b6000604051808303816000865af19150503d8060008114611196576040519150601f19603f3d011682016040523d82523d6000602084013e61119b565b606091505b5091509150816111cd578051156111b55780518082602001fd5b60405162461bcd60e51b815260040161045790611d0b565b6000818060200190516111e39190810190611665565b6001600160e01b031916630a85bd0160e11b149350610cf592505050565b6060808390506060839050606081518351016040519080825280601f01601f19166020018201604052801561123d576020820181803883390190505b5090506000805b84518110156112955784818151811061125957fe5b602001015160f81c60f81b83838060010194508151811061127657fe5b60200101906001600160f81b031916908160001a905350600101611244565b5060005b83518110156112ea578381815181106112ae57fe5b602001015160f81c60f81b8383806001019450815181106112cb57fe5b60200101906001600160f81b031916908160001a905350600101611299565b50909695505050505050565b6000818152600260205260409020546001600160a01b03161561133057600081815260026020526040902080546001600160a01b03191690555b50565b805461134690600163ffffffff61135316565b9055565b80546001019055565b600061139583836040518060400160405280601e81526020017f536166654d6174683a207375627472616374696f6e206f766572666c6f7700008152506113d5565b9392505050565b6000813f7fc5d2460186f7233c927e7db2dcc703c0e500b653ca82273b7bfad8045d85a470818114801590610cf5575050151592915050565b600081848411156113f95760405162461bcd60e51b81526004016104579190611cea565b505050900390565b8154818355818111156106935760008381526020902061069391810190830161065891905b8082111561143a5760008155600101611426565b5090565b80356106f381611ebb565b80356106f381611ecf565b80356106f381611ed8565b80516106f381611ed8565b600082601f83011261147b57600080fd5b813561148e61148982611e10565b611de9565b915080825260208301602083018583830111156114aa57600080fd5b6114b5838284611e79565b50505092915050565b80356106f381611ee1565b6000602082840312156114db57600080fd5b6000610cf5848461143e565b600080604083850312156114fa57600080fd5b6000611506858561143e565b92505060206115178582860161143e565b9150509250929050565b60008060006060848603121561153657600080fd5b6000611542868661143e565b93505060206115538682870161143e565b9250506040611564868287016114be565b9150509250925092565b6000806000806080858703121561158457600080fd5b6000611590878761143e565b94505060206115a18782880161143e565b93505060406115b2878288016114be565b925050606085013567ffffffffffffffff8111156115cf57600080fd5b6115db8782880161146a565b91505092959194509250565b600080604083850312156115fa57600080fd5b6000611606858561143e565b925050602061151785828601611449565b6000806040838503121561162a57600080fd5b6000611636858561143e565b9250506020611517858286016114be565b60006020828403121561165957600080fd5b6000610cf58484611454565b60006020828403121561167757600080fd5b6000610cf5848461145f565b60006020828403121561169557600080fd5b6000610cf584846114be565b600080604083850312156116b457600080fd5b600061163685856114be565b60006116cc83836116e0565b505060200190565b60006116cc8383611c38565b6116e981611e50565b82525050565b60006116fa82611e3e565b6117048185611e42565b935061170f83611e38565b8060005b8381101561173d57815161172788826116c0565b975061173283611e38565b925050600101611713565b509495945050505050565b600061175382611e3e565b61175d8185611e42565b935061176883611e38565b8060005b8381101561173d57815161178088826116d4565b975061178b83611e38565b92505060010161176c565b6116e981611e5b565b60006117aa82611e3e565b6117b48185611e42565b93506117c4818560208601611e85565b6117cd81611eb1565b9093019392505050565b60006117e282611e3e565b6117ec8185611e4b565b93506117fc818560208601611e85565b9290920192915050565b6000611813602b83611e42565b7f455243373231456e756d657261626c653a206f776e657220696e646578206f7581526a74206f6620626f756e647360a81b602082015260400192915050565b6000611860603283611e42565b7f4552433732313a207472616e7366657220746f206e6f6e20455243373231526581527131b2b4bb32b91034b6b83632b6b2b73a32b960711b602082015260400192915050565b60006118b4602483611e42565b7f4552433732313a207472616e7366657220746f20746865207a65726f206164648152637265737360e01b602082015260400192915050565b60006118fa601983611e42565b7f4552433732313a20617070726f766520746f2063616c6c657200000000000000815260200192915050565b6000611933602c83611e42565b7f4552433732313a206f70657261746f7220717565727920666f72206e6f6e657881526b34b9ba32b73a103a37b5b2b760a11b602082015260400192915050565b6000611981603883611e42565b7f4552433732313a20617070726f76652063616c6c6572206973206e6f74206f7781527f6e6572206e6f7220617070726f76656420666f7220616c6c0000000000000000602082015260400192915050565b60006119e0602a83611e42565b7f4552433732313a2062616c616e636520717565727920666f7220746865207a65815269726f206164647265737360b01b602082015260400192915050565b6000611a2c602983611e42565b7f4552433732313a206f776e657220717565727920666f72206e6f6e657869737481526832b73a103a37b5b2b760b91b602082015260400192915050565b6000611a77602c83611e42565b7f4552433732313a20617070726f76656420717565727920666f72206e6f6e657881526b34b9ba32b73a103a37b5b2b760a11b602082015260400192915050565b6000611ac5602983611e42565b7f4552433732313a207472616e73666572206f6620746f6b656e2074686174206981526839903737ba1037bbb760b91b602082015260400192915050565b6000611b10602f83611e42565b7f4552433732314d657461646174613a2055524920717565727920666f72206e6f81526e3732bc34b9ba32b73a103a37b5b2b760891b602082015260400192915050565b6000611b61602183611e42565b7f4552433732313a20617070726f76616c20746f2063757272656e74206f776e658152603960f91b602082015260400192915050565b6000611ba4603183611e42565b7f4552433732313a207472616e736665722063616c6c6572206973206e6f74206f8152701ddb995c881b9bdc88185c1c1c9bdd9959607a1b602082015260400192915050565b6000611bf7602c83611e42565b7f455243373231456e756d657261626c653a20676c6f62616c20696e646578206f81526b7574206f6620626f756e647360a01b602082015260400192915050565b6116e981610658565b600061139582846117d7565b602081016106f382846116e0565b60808101611c6982876116e0565b611c7660208301866116e0565b611c836040830185611c38565b8181036060830152611c95818461179f565b9695505050505050565b60408101611cad82856116e0565b6113956020830184611c38565b6020808252810161139581846116ef565b602080825281016113958184611748565b602081016106f38284611796565b60208082528101611395818461179f565b602080825281016106f381611806565b602080825281016106f381611853565b602080825281016106f3816118a7565b602080825281016106f3816118ed565b602080825281016106f381611926565b602080825281016106f381611974565b602080825281016106f3816119d3565b602080825281016106f381611a1f565b602080825281016106f381611a6a565b602080825281016106f381611ab8565b602080825281016106f381611b03565b602080825281016106f381611b54565b602080825281016106f381611b97565b602080825281016106f381611bea565b602081016106f38284611c38565b60405181810167ffffffffffffffff81118282101715611e0857600080fd5b604052919050565b600067ffffffffffffffff821115611e2757600080fd5b506020601f91909101601f19160190565b60200190565b5190565b90815260200190565b919050565b60006106f382611e6d565b151590565b6001600160e01b03191690565b6001600160a01b031690565b82818337506000910152565b60005b83811015611ea0578181015183820152602001611e88565b83811115610a2a5750506000910152565b601f01601f191690565b611ec481611e50565b811461133057600080fd5b611ec481611e5b565b611ec481611e60565b611ec48161065856fea365627a7a723158208b43e68b7bffc244bb27c36c458971d152392a0d7ad7947f4d76a8465addb2df6c6578706572696d656e74616cf564736f6c63430005110040",
  "source": "pragma solidity ^0.5.0;\npragma experimental ABIEncoderV2;\n\nimport \"@openzeppelin/contracts/token/ERC721/ERC721.sol\";\nimport \"@openzeppelin/contracts/token/ERC721/ERC721Enumerable.sol\";\n\nimport \"../../utils/HasContractURI.sol\";\nimport \"../../utils/HasTokenURI.sol\";\n\nimport \"../../HasSecondarySaleFees.sol\";\n\n\n\n/**\n * @title Full ERC721 Token with support for tokenURIPrefix\n * This implementation includes all the required and some optional functionality of the ERC721 standard\n * Moreover, it includes approve all functionality using operator terminology\n * @dev see https://eips.ethereum.org/EIPS/eip-721\n */\ncontract ERC721Base is HasSecondarySaleFees, ERC721, HasContractURI, HasTokenURI, ERC721Enumerable {\n    // Token name\n    string public name;\n\n    // Token symbol\n    string public symbol;\n\n    struct Fee {\n        address payable recipient;\n        uint256 value;\n    }\n\n    // id => fees\n    mapping (uint256 => Fee[]) public fees;\n\n    // tokenId => royality percetage\n    mapping (uint => uint) public royalities; \n\n    // tokenId => Creator\n    mapping (uint => address payable) public creators;\n    \n    // address => tokens created\n    mapping (address => uint[]) public tokensPerCreator; \n    /*\n     *     bytes4(keccak256('name()')) == 0x06fdde03\n     *     bytes4(keccak256('symbol()')) == 0x95d89b41\n     *     bytes4(keccak256('tokenURI(uint256)')) == 0xc87b56dd\n     *\n     *     => 0x06fdde03 ^ 0x95d89b41 ^ 0xc87b56dd == 0x5b5e139f\n     */\n    bytes4 private constant _INTERFACE_ID_ERC721_METADATA = 0x5b5e139f;\n\n    /**\n     * @dev Constructor function\n     */\n    constructor (string memory _name, string memory _symbol, string memory contractURI, string memory _tokenURIPrefix) HasContractURI(contractURI) HasTokenURI(_tokenURIPrefix) public {\n        name = _name;\n        symbol = _symbol;\n\n        // register the supported interfaces to conform to ERC721 via ERC165\n        _registerInterface(_INTERFACE_ID_ERC721_METADATA);\n    }\n\n    function getFeeRecipients(uint256 id) public view returns (address payable[] memory) {\n        Fee[] memory _fees = fees[id];\n        address payable[] memory result = new address payable[](_fees.length);\n        for (uint i = 0; i < _fees.length; i++) {\n            result[i] = _fees[i].recipient;\n        }\n        return result;\n    }\n\n    function getTokensPerCreator(address creator) public view returns (uint[] memory){\n        return tokensPerCreator[creator];\n    }\n    \n    function getFeeBps(uint256 id) public view returns (uint[] memory) {\n        Fee[] memory _fees = fees[id];\n        uint[] memory result = new uint[](_fees.length);\n        for (uint i = 0; i < _fees.length; i++) {\n            result[i] = _fees[i].value;\n        }\n        return result;\n    }\n\n    function _mint(address to, uint256 tokenId,  uint _royality) internal {\n        _mint(to, tokenId);\n        royalities[tokenId] = _royality;\n        creators[tokenId] = msg.sender;\n        tokensPerCreator[msg.sender].push(tokenId);\n\n        // address[] memory recipients = new address[](_fees.length);\n        // uint[] memory bps = new uint[](_fees.length);\n        // for (uint i = 0; i < _fees.length; i++) {\n        //     require(_fees[i].recipient != address(0x0), \"Recipient should be present\");\n        //     require(_fees[i].value != 0, \"Fee value should be positive\");\n        //     fees[tokenId].push(_fees[i]);\n        //     recipients[i] = _fees[i].recipient;\n        //     bps[i] = _fees[i].value;\n        // }\n        // if (_fees.length > 0) {\n        //     emit SecondarySaleFees(tokenId, recipients, bps);\n        // }\n    }\n\n    /**\n     * @dev Returns an URI for a given token ID.\n     * Throws if the token ID does not exist. May return an empty string.\n     * @param tokenId uint256 ID of the token to query\n     */\n    function tokenURI(uint256 tokenId) external view returns (string memory) {\n        require(_exists(tokenId), \"ERC721Metadata: URI query for nonexistent token\");\n        return super._tokenURI(tokenId);\n    }\n\n    /**\n     * @dev Internal function to set the token URI for a given token.\n     * Reverts if the token ID does not exist.\n     * @param tokenId uint256 ID of the token to set its URI\n     * @param uri string URI to assign\n     */\n    function _setTokenURI(uint256 tokenId, string memory uri) internal {\n        require(_exists(tokenId), \"ERC721Metadata: URI set of nonexistent token\");\n        super._setTokenURI(tokenId, uri);\n    }\n\n    /**\n     * @dev Internal function to burn a specific token.\n     * Reverts if the token does not exist.\n     * Deprecated, use _burn(uint256) instead.\n     * @param owner owner of the token to burn\n     * @param tokenId uint256 ID of the token being burned by the msg.sender\n     */\n    function _burn(address owner, uint256 tokenId) internal {\n        super._burn(owner, tokenId);\n        _clearTokenURI(tokenId);\n    }\n}\n",
  "sourcePath": "/Users/thoughtwin/Desktop/weblisto/clubrare/smart_contracts/contracts/tokens/ERC721/ERC721Base.sol",
  "compiler": {
    "name": "solc",
    "version": "0.5.17+commit.d19bba13.Emscripten.clang"
  },
  "schemaVersion": "3.4.3",
  "updatedAt": "2021-11-01T10:56:16.736Z",
  "devdoc": {
    "details": "see https://eips.ethereum.org/EIPS/eip-721",
    "methods": {
      "approve(address,uint256)": {
        "details": "Approves another address to transfer the given token ID The zero address indicates there is no approved address. There can only be one approved address per token at a given time. Can only be called by the token owner or an approved operator.",
        "params": {
          "to": "address to be approved for the given token ID",
          "tokenId": "uint256 ID of the token to be approved"
        }
      },
      "balanceOf(address)": {
        "details": "Gets the balance of the specified address.",
        "params": {
          "owner": "address to query the balance of"
        },
        "return": "uint256 representing the amount owned by the passed address"
      },
      "constructor": {
        "details": "Constructor function"
      },
      "getApproved(uint256)": {
        "details": "Gets the approved address for a token ID, or zero if no address set Reverts if the token ID does not exist.",
        "params": {
          "tokenId": "uint256 ID of the token to query the approval of"
        },
        "return": "address currently approved for the given token ID"
      },
      "isApprovedForAll(address,address)": {
        "details": "Tells whether an operator is approved by a given owner.",
        "params": {
          "operator": "operator address which you want to query the approval of",
          "owner": "owner address which you want to query the approval of"
        },
        "return": "bool whether the given operator is approved by the given owner"
      },
      "ownerOf(uint256)": {
        "details": "Gets the owner of the specified token ID.",
        "params": {
          "tokenId": "uint256 ID of the token to query the owner of"
        },
        "return": "address currently marked as the owner of the given token ID"
      },
      "safeTransferFrom(address,address,uint256)": {
        "details": "Safely transfers the ownership of a given token ID to another address If the target address is a contract, it must implement {IERC721Receiver-onERC721Received}, which is called upon a safe transfer, and return the magic value `bytes4(keccak256(\"onERC721Received(address,address,uint256,bytes)\"))`; otherwise, the transfer is reverted. Requires the msg.sender to be the owner, approved, or operator",
        "params": {
          "from": "current owner of the token",
          "to": "address to receive the ownership of the given token ID",
          "tokenId": "uint256 ID of the token to be transferred"
        }
      },
      "safeTransferFrom(address,address,uint256,bytes)": {
        "details": "Safely transfers the ownership of a given token ID to another address If the target address is a contract, it must implement {IERC721Receiver-onERC721Received}, which is called upon a safe transfer, and return the magic value `bytes4(keccak256(\"onERC721Received(address,address,uint256,bytes)\"))`; otherwise, the transfer is reverted. Requires the _msgSender() to be the owner, approved, or operator",
        "params": {
          "_data": "bytes data to send along with a safe transfer check",
          "from": "current owner of the token",
          "to": "address to receive the ownership of the given token ID",
          "tokenId": "uint256 ID of the token to be transferred"
        }
      },
      "setApprovalForAll(address,bool)": {
        "details": "Sets or unsets the approval of a given operator An operator is allowed to transfer all tokens of the sender on their behalf.",
        "params": {
          "approved": "representing the status of the approval to be set",
          "to": "operator address to set the approval"
        }
      },
      "supportsInterface(bytes4)": {
        "details": "See {IERC165-supportsInterface}.     * Time complexity O(1), guaranteed to always use less than 30 000 gas."
      },
      "tokenByIndex(uint256)": {
        "details": "Gets the token ID at a given index of all the tokens in this contract Reverts if the index is greater or equal to the total number of tokens.",
        "params": {
          "index": "uint256 representing the index to be accessed of the tokens list"
        },
        "return": "uint256 token ID at the given index of the tokens list"
      },
      "tokenOfOwnerByIndex(address,uint256)": {
        "details": "Gets the token ID at a given index of the tokens list of the requested owner.",
        "params": {
          "index": "uint256 representing the index to be accessed of the requested tokens list",
          "owner": "address owning the tokens list to be accessed"
        },
        "return": "uint256 token ID at the given index of the tokens list owned by the requested address"
      },
      "tokenURI(uint256)": {
        "details": "Returns an URI for a given token ID. Throws if the token ID does not exist. May return an empty string.",
        "params": {
          "tokenId": "uint256 ID of the token to query"
        }
      },
      "totalSupply()": {
        "details": "Gets the total amount of tokens stored by the contract.",
        "return": "uint256 representing the total amount of tokens"
      },
      "transferFrom(address,address,uint256)": {
        "details": "Transfers the ownership of a given token ID to another address. Usage of this method is discouraged, use {safeTransferFrom} whenever possible. Requires the msg.sender to be the owner, approved, or operator.",
        "params": {
          "from": "current owner of the token",
          "to": "address to receive the ownership of the given token ID",
          "tokenId": "uint256 ID of the token to be transferred"
        }
      }
    },
    "title": "Full ERC721 Token with support for tokenURIPrefix This implementation includes all the required and some optional functionality of the ERC721 standard Moreover, it includes approve all functionality using operator terminology"
  },
  "userdoc": {
    "methods": {}
  }
}