{
  "contractName": "HasContractURI",
  "abi": [
    {
      "inputs": [
        {
          "internalType": "string",
          "name": "_contractURI",
          "type": "string"
        }
      ],
      "payable": false,
      "stateMutability": "nonpayable",
      "type": "constructor"
    },
    {
      "constant": true,
      "inputs": [],
      "name": "contractURI",
      "outputs": [
        {
          "internalType": "string",
          "name": "",
          "type": "string"
        }
      ],
      "payable": false,
      "stateMutability": "view",
      "type": "function"
    },
    {
      "constant": true,
      "inputs": [
        {
          "internalType": "bytes4",
          "name": "interfaceId",
          "type": "bytes4"
        }
      ],
      "name": "supportsInterface",
      "outputs": [
        {
          "internalType": "bool",
          "name": "",
          "type": "bool"
        }
      ],
      "payable": false,
      "stateMutability": "view",
      "type": "function"
    }
  ],
  "bytecode": "0x608060405234801561001057600080fd5b506040516104333803806104338339818101604052602081101561003357600080fd5b810190808051604051939291908464010000000082111561005357600080fd5b90830190602082018581111561006857600080fd5b825164010000000081118282018810171561008257600080fd5b82525081516020918201929091019080838360005b838110156100af578181015183820152602001610097565b50505050905090810190601f1680156100dc5780820380516001836020036101000a031916815260200191505b50604052506100fe91506301ffc9a760e01b90506001600160e01b0361013116565b80516101119060019060208401906101b5565b5061012b63e8a3d48560e01b6001600160e01b0361013116565b50610250565b6001600160e01b03198082161415610190576040805162461bcd60e51b815260206004820152601c60248201527f4552433136353a20696e76616c696420696e7465726661636520696400000000604482015290519081900360640190fd5b6001600160e01b0319166000908152602081905260409020805460ff19166001179055565b828054600181600116156101000203166002900490600052602060002090601f016020900481019282601f106101f657805160ff1916838001178555610223565b82800160010185558215610223579182015b82811115610223578251825591602001919060010190610208565b5061022f929150610233565b5090565b61024d91905b8082111561022f5760008155600101610239565b90565b6101d48061025f6000396000f3fe608060405234801561001057600080fd5b50600436106100365760003560e01c806301ffc9a71461003b578063e8a3d48514610076575b600080fd5b6100626004803603602081101561005157600080fd5b50356001600160e01b0319166100f3565b604080519115158252519081900360200190f35b61007e610112565b6040805160208082528351818301528351919283929083019185019080838360005b838110156100b85781810151838201526020016100a0565b50505050905090810190601f1680156100e55780820380516001836020036101000a031916815260200191505b509250505060405180910390f35b6001600160e01b03191660009081526020819052604090205460ff1690565b60018054604080516020600284861615610100026000190190941693909304601f810184900484028201840190925281815292918301828280156101975780601f1061016c57610100808354040283529160200191610197565b820191906000526020600020905b81548152906001019060200180831161017a57829003601f168201915b50505050508156fea265627a7a72315820d9ce0506cc0480bde7ed9bad53232b17c4bb6085d34f0bd45768dac89edf07c164736f6c63430005110032",
  "source": "pragma solidity ^0.5.0;\n\nimport \"@openzeppelin/contracts/introspection/ERC165.sol\";\n\ncontract HasContractURI is ERC165 {\n\n    string public contractURI;\n\n    /*\n     * bytes4(keccak256('contractURI()')) == 0xe8a3d485\n     */\n    bytes4 private constant _INTERFACE_ID_CONTRACT_URI = 0xe8a3d485;\n\n    constructor(string memory _contractURI) public {\n        contractURI = _contractURI;\n        _registerInterface(_INTERFACE_ID_CONTRACT_URI);\n    }\n\n    /**\n     * @dev Internal function to set the contract URI\n     * @param _contractURI string URI prefix to assign\n     */\n    function _setContractURI(string memory _contractURI) internal {\n        contractURI = _contractURI;\n    }\n}\n",
  "sourcePath": "/Users/thoughtwin/Desktop/weblisto/clubrare/smart_contracts/contracts/utils/HasContractURI.sol",
  "compiler": {
    "name": "solc",
    "version": "0.5.17+commit.d19bba13.Emscripten.clang"
  },
  "schemaVersion": "3.4.3",
  "updatedAt": "2021-11-01T10:56:16.739Z",
  "devdoc": {
    "methods": {
      "supportsInterface(bytes4)": {
        "details": "See {IERC165-supportsInterface}.     * Time complexity O(1), guaranteed to always use less than 30 000 gas."
      }
    }
  },
  "userdoc": {
    "methods": {}
  }
}