{
  "contractName": "MintableToken",
  "abi": [
    {
      "inputs": [
        {
          "internalType": "string",
          "name": "name",
          "type": "string"
        },
        {
          "internalType": "string",
          "name": "symbol",
          "type": "string"
        },
        {
          "internalType": "address",
          "name": "newOwner",
          "type": "address"
        },
        {
          "internalType": "string",
          "name": "contractURI",
          "type": "string"
        },
        {
          "internalType": "string",
          "name": "tokenURIPrefix",
          "type": "string"
        }
      ],
      "payable": false,
      "stateMutability": "nonpayable",
      "type": "constructor"
    },
    {
      "anonymous": false,
      "inputs": [
        {
          "indexed": true,
          "internalType": "address",
          "name": "owner",
          "type": "address"
        },
        {
          "indexed": true,
          "internalType": "address",
          "name": "approved",
          "type": "address"
        },
        {
          "indexed": true,
          "internalType": "uint256",
          "name": "tokenId",
          "type": "uint256"
        }
      ],
      "name": "Approval",
      "type": "event"
    },
    {
      "anonymous": false,
      "inputs": [
        {
          "indexed": true,
          "internalType": "address",
          "name": "owner",
          "type": "address"
        },
        {
          "indexed": true,
          "internalType": "address",
          "name": "operator",
          "type": "address"
        },
        {
          "indexed": false,
          "internalType": "bool",
          "name": "approved",
          "type": "bool"
        }
      ],
      "name": "ApprovalForAll",
      "type": "event"
    },
    {
      "anonymous": false,
      "inputs": [
        {
          "indexed": true,
          "internalType": "address",
          "name": "previousOwner",
          "type": "address"
        },
        {
          "indexed": true,
          "internalType": "address",
          "name": "newOwner",
          "type": "address"
        }
      ],
      "name": "OwnershipTransferred",
      "type": "event"
    },
    {
      "anonymous": false,
      "inputs": [
        {
          "indexed": false,
          "internalType": "uint256",
          "name": "tokenId",
          "type": "uint256"
        },
        {
          "indexed": false,
          "internalType": "address[]",
          "name": "recipients",
          "type": "address[]"
        },
        {
          "indexed": false,
          "internalType": "uint256[]",
          "name": "bps",
          "type": "uint256[]"
        }
      ],
      "name": "SecondarySaleFees",
      "type": "event"
    },
    {
      "anonymous": false,
      "inputs": [
        {
          "indexed": true,
          "internalType": "address",
          "name": "from",
          "type": "address"
        },
        {
          "indexed": true,
          "internalType": "address",
          "name": "to",
          "type": "address"
        },
        {
          "indexed": true,
          "internalType": "uint256",
          "name": "tokenId",
          "type": "uint256"
        }
      ],
      "name": "Transfer",
      "type": "event"
    },
    {
      "constant": false,
      "inputs": [
        {
          "internalType": "address",
          "name": "to",
          "type": "address"
        },
        {
          "internalType": "uint256",
          "name": "tokenId",
          "type": "uint256"
        }
      ],
      "name": "approve",
      "outputs": [],
      "payable": false,
      "stateMutability": "nonpayable",
      "type": "function"
    },
    {
      "constant": true,
      "inputs": [
        {
          "internalType": "address",
          "name": "owner",
          "type": "address"
        }
      ],
      "name": "balanceOf",
      "outputs": [
        {
          "internalType": "uint256",
          "name": "",
          "type": "uint256"
        }
      ],
      "payable": false,
      "stateMutability": "view",
      "type": "function"
    },
    {
      "constant": false,
      "inputs": [
        {
          "internalType": "uint256",
          "name": "tokenId",
          "type": "uint256"
        }
      ],
      "name": "burn",
      "outputs": [],
      "payable": false,
      "stateMutability": "nonpayable",
      "type": "function"
    },
    {
      "constant": true,
      "inputs": [],
      "name": "contractURI",
      "outputs": [
        {
          "internalType": "string",
          "name": "",
          "type": "string"
        }
      ],
      "payable": false,
      "stateMutability": "view",
      "type": "function"
    },
    {
      "constant": true,
      "inputs": [
        {
          "internalType": "uint256",
          "name": "",
          "type": "uint256"
        }
      ],
      "name": "creators",
      "outputs": [
        {
          "internalType": "address payable",
          "name": "",
          "type": "address"
        }
      ],
      "payable": false,
      "stateMutability": "view",
      "type": "function"
    },
    {
      "constant": true,
      "inputs": [
        {
          "internalType": "uint256",
          "name": "",
          "type": "uint256"
        },
        {
          "internalType": "uint256",
          "name": "",
          "type": "uint256"
        }
      ],
      "name": "fees",
      "outputs": [
        {
          "internalType": "address payable",
          "name": "recipient",
          "type": "address"
        },
        {
          "internalType": "uint256",
          "name": "value",
          "type": "uint256"
        }
      ],
      "payable": false,
      "stateMutability": "view",
      "type": "function"
    },
    {
      "constant": true,
      "inputs": [
        {
          "internalType": "uint256",
          "name": "tokenId",
          "type": "uint256"
        }
      ],
      "name": "getApproved",
      "outputs": [
        {
          "internalType": "address",
          "name": "",
          "type": "address"
        }
      ],
      "payable": false,
      "stateMutability": "view",
      "type": "function"
    },
    {
      "constant": true,
      "inputs": [
        {
          "internalType": "uint256",
          "name": "id",
          "type": "uint256"
        }
      ],
      "name": "getFeeBps",
      "outputs": [
        {
          "internalType": "uint256[]",
          "name": "",
          "type": "uint256[]"
        }
      ],
      "payable": false,
      "stateMutability": "view",
      "type": "function"
    },
    {
      "constant": true,
      "inputs": [
        {
          "internalType": "uint256",
          "name": "id",
          "type": "uint256"
        }
      ],
      "name": "getFeeRecipients",
      "outputs": [
        {
          "internalType": "address payable[]",
          "name": "",
          "type": "address[]"
        }
      ],
      "payable": false,
      "stateMutability": "view",
      "type": "function"
    },
    {
      "constant": true,
      "inputs": [
        {
          "internalType": "address",
          "name": "creator",
          "type": "address"
        }
      ],
      "name": "getTokensPerCreator",
      "outputs": [
        {
          "internalType": "uint256[]",
          "name": "",
          "type": "uint256[]"
        }
      ],
      "payable": false,
      "stateMutability": "view",
      "type": "function"
    },
    {
      "constant": true,
      "inputs": [
        {
          "internalType": "address",
          "name": "owner",
          "type": "address"
        },
        {
          "internalType": "address",
          "name": "operator",
          "type": "address"
        }
      ],
      "name": "isApprovedForAll",
      "outputs": [
        {
          "internalType": "bool",
          "name": "",
          "type": "bool"
        }
      ],
      "payable": false,
      "stateMutability": "view",
      "type": "function"
    },
    {
      "constant": true,
      "inputs": [],
      "name": "isOwner",
      "outputs": [
        {
          "internalType": "bool",
          "name": "",
          "type": "bool"
        }
      ],
      "payable": false,
      "stateMutability": "view",
      "type": "function"
    },
    {
      "constant": true,
      "inputs": [],
      "name": "name",
      "outputs": [
        {
          "internalType": "string",
          "name": "",
          "type": "string"
        }
      ],
      "payable": false,
      "stateMutability": "view",
      "type": "function"
    },
    {
      "constant": true,
      "inputs": [],
      "name": "owner",
      "outputs": [
        {
          "internalType": "address",
          "name": "",
          "type": "address"
        }
      ],
      "payable": false,
      "stateMutability": "view",
      "type": "function"
    },
    {
      "constant": true,
      "inputs": [
        {
          "internalType": "uint256",
          "name": "tokenId",
          "type": "uint256"
        }
      ],
      "name": "ownerOf",
      "outputs": [
        {
          "internalType": "address",
          "name": "",
          "type": "address"
        }
      ],
      "payable": false,
      "stateMutability": "view",
      "type": "function"
    },
    {
      "constant": false,
      "inputs": [],
      "name": "renounceOwnership",
      "outputs": [],
      "payable": false,
      "stateMutability": "nonpayable",
      "type": "function"
    },
    {
      "constant": true,
      "inputs": [
        {
          "internalType": "uint256",
          "name": "",
          "type": "uint256"
        }
      ],
      "name": "royalities",
      "outputs": [
        {
          "internalType": "uint256",
          "name": "",
          "type": "uint256"
        }
      ],
      "payable": false,
      "stateMutability": "view",
      "type": "function"
    },
    {
      "constant": false,
      "inputs": [
        {
          "internalType": "address",
          "name": "from",
          "type": "address"
        },
        {
          "internalType": "address",
          "name": "to",
          "type": "address"
        },
        {
          "internalType": "uint256",
          "name": "tokenId",
          "type": "uint256"
        }
      ],
      "name": "safeTransferFrom",
      "outputs": [],
      "payable": false,
      "stateMutability": "nonpayable",
      "type": "function"
    },
    {
      "constant": false,
      "inputs": [
        {
          "internalType": "address",
          "name": "from",
          "type": "address"
        },
        {
          "internalType": "address",
          "name": "to",
          "type": "address"
        },
        {
          "internalType": "uint256",
          "name": "tokenId",
          "type": "uint256"
        },
        {
          "internalType": "bytes",
          "name": "_data",
          "type": "bytes"
        }
      ],
      "name": "safeTransferFrom",
      "outputs": [],
      "payable": false,
      "stateMutability": "nonpayable",
      "type": "function"
    },
    {
      "constant": false,
      "inputs": [
        {
          "internalType": "address",
          "name": "to",
          "type": "address"
        },
        {
          "internalType": "bool",
          "name": "approved",
          "type": "bool"
        }
      ],
      "name": "setApprovalForAll",
      "outputs": [],
      "payable": false,
      "stateMutability": "nonpayable",
      "type": "function"
    },
    {
      "constant": true,
      "inputs": [
        {
          "internalType": "bytes4",
          "name": "interfaceId",
          "type": "bytes4"
        }
      ],
      "name": "supportsInterface",
      "outputs": [
        {
          "internalType": "bool",
          "name": "",
          "type": "bool"
        }
      ],
      "payable": false,
      "stateMutability": "view",
      "type": "function"
    },
    {
      "constant": true,
      "inputs": [],
      "name": "symbol",
      "outputs": [
        {
          "internalType": "string",
          "name": "",
          "type": "string"
        }
      ],
      "payable": false,
      "stateMutability": "view",
      "type": "function"
    },
    {
      "constant": true,
      "inputs": [
        {
          "internalType": "uint256",
          "name": "index",
          "type": "uint256"
        }
      ],
      "name": "tokenByIndex",
      "outputs": [
        {
          "internalType": "uint256",
          "name": "",
          "type": "uint256"
        }
      ],
      "payable": false,
      "stateMutability": "view",
      "type": "function"
    },
    {
      "constant": true,
      "inputs": [
        {
          "internalType": "address",
          "name": "owner",
          "type": "address"
        },
        {
          "internalType": "uint256",
          "name": "index",
          "type": "uint256"
        }
      ],
      "name": "tokenOfOwnerByIndex",
      "outputs": [
        {
          "internalType": "uint256",
          "name": "",
          "type": "uint256"
        }
      ],
      "payable": false,
      "stateMutability": "view",
      "type": "function"
    },
    {
      "constant": true,
      "inputs": [
        {
          "internalType": "uint256",
          "name": "tokenId",
          "type": "uint256"
        }
      ],
      "name": "tokenURI",
      "outputs": [
        {
          "internalType": "string",
          "name": "",
          "type": "string"
        }
      ],
      "payable": false,
      "stateMutability": "view",
      "type": "function"
    },
    {
      "constant": true,
      "inputs": [],
      "name": "tokenURIPrefix",
      "outputs": [
        {
          "internalType": "string",
          "name": "",
          "type": "string"
        }
      ],
      "payable": false,
      "stateMutability": "view",
      "type": "function"
    },
    {
      "constant": true,
      "inputs": [
        {
          "internalType": "address",
          "name": "",
          "type": "address"
        },
        {
          "internalType": "uint256",
          "name": "",
          "type": "uint256"
        }
      ],
      "name": "tokensPerCreator",
      "outputs": [
        {
          "internalType": "uint256",
          "name": "",
          "type": "uint256"
        }
      ],
      "payable": false,
      "stateMutability": "view",
      "type": "function"
    },
    {
      "constant": true,
      "inputs": [],
      "name": "totalSupply",
      "outputs": [
        {
          "internalType": "uint256",
          "name": "",
          "type": "uint256"
        }
      ],
      "payable": false,
      "stateMutability": "view",
      "type": "function"
    },
    {
      "constant": false,
      "inputs": [
        {
          "internalType": "address",
          "name": "from",
          "type": "address"
        },
        {
          "internalType": "address",
          "name": "to",
          "type": "address"
        },
        {
          "internalType": "uint256",
          "name": "tokenId",
          "type": "uint256"
        }
      ],
      "name": "transferFrom",
      "outputs": [],
      "payable": false,
      "stateMutability": "nonpayable",
      "type": "function"
    },
    {
      "constant": false,
      "inputs": [
        {
          "internalType": "address",
          "name": "newOwner",
          "type": "address"
        }
      ],
      "name": "transferOwnership",
      "outputs": [],
      "payable": false,
      "stateMutability": "nonpayable",
      "type": "function"
    },
    {
      "constant": false,
      "inputs": [
        {
          "internalType": "string",
          "name": "tokenURI",
          "type": "string"
        },
        {
          "internalType": "uint256",
          "name": "_royality",
          "type": "uint256"
        }
      ],
      "name": "mint",
      "outputs": [],
      "payable": false,
      "stateMutability": "nonpayable",
      "type": "function"
    },
    {
      "constant": false,
      "inputs": [
        {
          "internalType": "string",
          "name": "tokenURIPrefix",
          "type": "string"
        }
      ],
      "name": "setTokenURIPrefix",
      "outputs": [],
      "payable": false,
      "stateMutability": "nonpayable",
      "type": "function"
    },
    {
      "constant": false,
      "inputs": [
        {
          "internalType": "string",
          "name": "contractURI",
          "type": "string"
        }
      ],
      "name": "setContractURI",
      "outputs": [],
      "payable": false,
      "stateMutability": "nonpayable",
      "type": "function"
    }
  ],
  "bytecode": "0x608060405260016013553480156200001657600080fd5b50604051620030a8380380620030a8833981016040819052620000399162000436565b8484838380826000620000546001600160e01b03620001d716565b600080546001600160a01b0319166001600160a01b03831690811782556040519293509160008051602062003088833981519152908290a350620000a86301ffc9a760e01b6001600160e01b03620001dc16565b620000c3632dde656160e21b6001600160e01b03620001dc16565b620000de6380ac58cd60e01b6001600160e01b03620001dc16565b8051620000f390600690602084019062000325565b506200010f63e8a3d48560e01b6001600160e01b03620001dc16565b5080516200012590600790602084019062000325565b5062000143905063780e9d6360e01b6001600160e01b03620001dc16565b83516200015890600d90602087019062000325565b5082516200016e90600e90602086019062000325565b506200018a635b5e139f60e01b6001600160e01b03620001dc16565b50505050620001b8604051620001a09062000604565b6040519081900390206001600160e01b03620001dc16565b620001cc836001600160e01b036200023a16565b505050505062000700565b335b90565b6001600160e01b03198082161415620002125760405162461bcd60e51b8152600401620002099062000623565b60405180910390fd5b6001600160e01b0319166000908152600160208190526040909120805460ff19169091179055565b6200024d6001600160e01b036200028316565b6200026c5760405162461bcd60e51b8152600401620002099062000635565b62000280816001600160e01b03620002b216565b50565b600080546001600160a01b0316620002a36001600160e01b03620001d716565b6001600160a01b031614905090565b6001600160a01b038116620002db5760405162461bcd60e51b8152600401620002099062000611565b600080546040516001600160a01b03808516939216916000805160206200308883398151915291a3600080546001600160a01b0319166001600160a01b0392909216919091179055565b828054600181600116156101000203166002900490600052602060002090601f016020900481019282601f106200036857805160ff191683800117855562000398565b8280016001018555821562000398579182015b82811115620003985782518255916020019190600101906200037b565b50620003a6929150620003aa565b5090565b620001d991905b80821115620003a65760008155600101620003b1565b8051620003d481620006e9565b92915050565b600082601f830112620003ec57600080fd5b815162000403620003fd826200066e565b62000647565b915080825260208301602083018583830111156200042057600080fd5b6200042d838284620006b6565b50505092915050565b600080600080600060a086880312156200044f57600080fd5b85516001600160401b038111156200046657600080fd5b6200047488828901620003da565b95505060208601516001600160401b038111156200049157600080fd5b6200049f88828901620003da565b9450506040620004b288828901620003c7565b93505060608601516001600160401b03811115620004cf57600080fd5b620004dd88828901620003da565b92505060808601516001600160401b03811115620004fa57600080fd5b6200050888828901620003da565b9150509295509295909350565b60006200052460268362000696565b7f4f776e61626c653a206e6577206f776e657220697320746865207a65726f206181526564647265737360d01b602082015260400192915050565b60006200056e601c8362000696565b7f4552433136353a20696e76616c696420696e7465726661636520696400000000815260200192915050565b6000620005a960208362000696565b7f4f776e61626c653a2063616c6c6572206973206e6f7420746865206f776e6572815260200192915050565b6000620005e46011836200069f565b704d494e545f574954485f4144445245535360781b815260110192915050565b6000620003d482620005d5565b60208082528101620003d48162000515565b60208082528101620003d4816200055f565b60208082528101620003d4816200059a565b6040518181016001600160401b03811182821017156200066657600080fd5b604052919050565b60006001600160401b038211156200068557600080fd5b506020601f91909101601f19160190565b90815260200190565b919050565b60006001600160a01b038216620003d4565b60005b83811015620006d3578181015183820152602001620006b9565b83811115620006e3576000848401525b50505050565b620006f481620006a4565b81146200028057600080fd5b61297880620007106000396000f3fe608060405234801561001057600080fd5b50600436106101fb5760003560e01c8063737c76001161011a578063b5004f01116100ad578063c87b56dd1161007c578063c87b56dd1461042e578063cd53d08e14610441578063e8a3d48514610454578063e985e9c51461045c578063f2fde38b1461046f576101fb565b8063b5004f01146103e0578063b88d4fde146103f3578063b9c4d9fb14610406578063c0ac998314610426576101fb565b8063938e3d7b116100e9578063938e3d7b1461039f57806395d89b41146103b257806399e0dd7c146103ba578063a22cb465146103cd576101fb565b8063737c7600146103695780638da5cb5b1461037c5780638ee11204146103845780638f32d59b14610397576101fb565b80632f745c59116101925780636308f1cd116101615780636308f1cd1461031a5780636352211e1461033b57806370a082311461034e578063715018a614610361576101fb565b80632f745c59146102ce57806342842e0e146102e157806342966c68146102f45780634f6ccce714610307576101fb565b8063095ea7b3116101ce578063095ea7b3146102735780630ebd4c7f1461028657806318160ddd146102a657806323b872dd146102bb576101fb565b806301ffc9a714610200578063056b01ce1461022957806306fdde031461023e578063081812fc14610253575b600080fd5b61021361020e366004611ddd565b610482565b60405161022091906126b7565b60405180910390f35b61023c610237366004611e4e565b6104a1565b005b6102466104c7565b60405161022091906126c5565b610266610261366004611e84565b610555565b6040516102209190612628565b61023c610281366004611dad565b6105a1565b610299610294366004611e84565b610686565b60405161022091906126a6565b6102ae610779565b6040516102209190612826565b61023c6102c9366004611cb7565b610780565b6102ae6102dc366004611dad565b6107bd565b61023c6102ef366004611cb7565b61081e565b61023c610302366004611e84565b610839565b6102ae610315366004611e84565b61086c565b61032d610328366004611ea2565b6108b3565b60405161022092919061267a565b610266610349366004611e84565b6108f6565b6102ae61035c366004611c5f565b61092b565b61023c610974565b6102ae610377366004611dad565b6109e2565b610266610a10565b610299610392366004611c5f565b610a1f565b610213610a8b565b61023c6103ad366004611e19565b610aaf565b610246610adc565b61023c6103c8366004611e19565b610b37565b61023c6103db366004611d7d565b610b64565b6102ae6103ee366004611e84565b610c32565b61023c610401366004611d04565b610c44565b610419610414366004611e84565b610c83565b6040516102209190612695565b610246610d7b565b61024661043c366004611e84565b610dd6565b61026661044f366004611e84565b610e06565b610246610e21565b61021361046a366004611c7d565b610e7c565b61023c61047d366004611c5f565b610eaa565b6001600160e01b03191660009081526001602052604090205460ff1690565b6104ae3360135483610ed7565b6104ba60135483610f2c565b5050601380546001019055565b600d805460408051602060026001851615610100026000190190941693909304601f8101849004840282018401909252818152929183018282801561054d5780601f106105225761010080835404028352916020019161054d565b820191906000526020600020905b81548152906001019060200180831161053057829003601f168201915b505050505081565b600061056082610f5f565b6105855760405162461bcd60e51b815260040161057c90612786565b60405180910390fd5b506000908152600360205260409020546001600160a01b031690565b60006105ac826108f6565b9050806001600160a01b0316836001600160a01b031614156105e05760405162461bcd60e51b815260040161057c906127d6565b806001600160a01b03166105f2610f7c565b6001600160a01b0316148061060e575061060e8161046a610f7c565b61062a5760405162461bcd60e51b815260040161057c90612746565b60008281526003602052604080822080546001600160a01b0319166001600160a01b0387811691821790925591518593918516917f8c5be1e5ebec7d5bd14f71427d1e84f3dd0314c0f7b2291e5b200ac8c7c3b92591a4505050565b6000818152600f602090815260408083208054825181850281018501909352808352606094859484015b828210156106f8576000848152602090819020604080518082019091526002850290910180546001600160a01b031682526001908101548284015290835290920191016106b0565b5050505090506060815160405190808252806020026020018201604052801561072b578160200160208202803883390190505b50905060005b82518110156107715782818151811061074657fe5b60200260200101516020015182828151811061075e57fe5b6020908102919091010152600101610731565b509392505050565b600b545b90565b61079161078b610f7c565b82610f80565b6107ad5760405162461bcd60e51b815260040161057c906127e6565b6107b8838383611005565b505050565b60006107c88361092b565b82106107e65760405162461bcd60e51b815260040161057c906126d6565b6001600160a01b038316600090815260096020526040902080548390811061080a57fe5b906000526020600020015490505b92915050565b6107b883838360405180602001604052806000815250610c44565b61084461078b610f7c565b6108605760405162461bcd60e51b815260040161057c90612816565b61086981611024565b50565b6000610876610779565b82106108945760405162461bcd60e51b815260040161057c906127f6565b600b82815481106108a157fe5b90600052602060002001549050919050565b600f60205281600052604060002081815481106108cc57fe5b6000918252602090912060029091020180546001909101546001600160a01b039091169250905082565b6000818152600260205260408120546001600160a01b0316806108185760405162461bcd60e51b815260040161057c90612766565b60006001600160a01b0382166109535760405162461bcd60e51b815260040161057c90612756565b6001600160a01b038216600090815260046020526040902061081890611036565b61097c610a8b565b6109985760405162461bcd60e51b815260040161057c906127a6565b600080546040516001600160a01b03909116907f8be0079c531659141344cd1fd0a4f28419497f9722a3daafe3b4186f6b6457e0908390a3600080546001600160a01b0319169055565b601260205281600052604060002081815481106109fb57fe5b90600052602060002001600091509150505481565b6000546001600160a01b031690565b6001600160a01b038116600090815260126020908152604091829020805483518184028101840190945280845260609392830182828015610a7f57602002820191906000526020600020905b815481526020019060010190808311610a6b575b50505050509050919050565b600080546001600160a01b0316610aa0610f7c565b6001600160a01b031614905090565b610ab7610a8b565b610ad35760405162461bcd60e51b815260040161057c906127a6565b6108698161103a565b600e805460408051602060026001851615610100026000190190941693909304601f8101849004840282018401909252818152929183018282801561054d5780601f106105225761010080835404028352916020019161054d565b610b3f610a8b565b610b5b5760405162461bcd60e51b815260040161057c906127a6565b6108698161104d565b610b6c610f7c565b6001600160a01b0316826001600160a01b03161415610b9d5760405162461bcd60e51b815260040161057c90612726565b8060056000610baa610f7c565b6001600160a01b03908116825260208083019390935260409182016000908120918716808252919093529120805460ff191692151592909217909155610bee610f7c565b6001600160a01b03167f17307eab39ab6107e8899845ad3d59bd9653f200f220920489ca2b5937696c3183604051610c2691906126b7565b60405180910390a35050565b60106020526000908152604090205481565b610c55610c4f610f7c565b83610f80565b610c715760405162461bcd60e51b815260040161057c906127e6565b610c7d84848484611060565b50505050565b6000818152600f602090815260408083208054825181850281018501909352808352606094859484015b82821015610cf5576000848152602090819020604080518082019091526002850290910180546001600160a01b03168252600190810154828401529083529092019101610cad565b50505050905060608151604051908082528060200260200182016040528015610d28578160200160208202803883390190505b50905060005b825181101561077157828181518110610d4357fe5b602002602001015160000151828281518110610d5b57fe5b6001600160a01b0390921660209283029190910190910152600101610d2e565b6007805460408051602060026001851615610100026000190190941693909304601f8101849004840282018401909252818152929183018282801561054d5780601f106105225761010080835404028352916020019161054d565b6060610de182610f5f565b610dfd5760405162461bcd60e51b815260040161057c906127c6565b61081882611093565b6011602052600090815260409020546001600160a01b031681565b6006805460408051602060026001851615610100026000190190941693909304601f8101849004840282018401909252818152929183018282801561054d5780601f106105225761010080835404028352916020019161054d565b6001600160a01b03918216600090815260056020908152604080832093909416825291909152205460ff1690565b610eb2610a8b565b610ece5760405162461bcd60e51b815260040161057c906127a6565b610869816111ce565b610ee1838361124f565b6000828152601060209081526040808320939093556011815282822080546001600160a01b031916339081179091558252601281529181208054600181018255908252919020015550565b610f3582610f5f565b610f515760405162461bcd60e51b815260040161057c90612796565b610f5b828261126c565b5050565b6000908152600260205260409020546001600160a01b0316151590565b3390565b6000610f8b82610f5f565b610fa75760405162461bcd60e51b815260040161057c90612736565b6000610fb2836108f6565b9050806001600160a01b0316846001600160a01b03161480610fed5750836001600160a01b0316610fe284610555565b6001600160a01b0316145b80610ffd5750610ffd8185610e7c565b949350505050565b61101083838361128b565b61101a8382611391565b6107b88282611486565b610869611030826108f6565b826114c4565b5490565b8051610f5b906006906020840190611ad8565b8051610f5b906007906020840190611ad8565b61106b848484611005565b611077848484846114d7565b610c7d5760405162461bcd60e51b815260040161057c906126e6565b6000818152600860209081526040918290208054835160026001831615610100026000190190921691909104601f81018490048402820184019094528381526060936108189391929183018282801561112d5780601f106111025761010080835404028352916020019161112d565b820191906000526020600020905b81548152906001019060200180831161111057829003601f168201915b505060078054604080516020601f60026000196101006001881615020190951694909404938401819004810282018101909252828152955091935091508301828280156111bb5780601f10611190576101008083540402835291602001916111bb565b820191906000526020600020905b81548152906001019060200180831161119e57829003601f168201915b505050505061161190919063ffffffff16565b6001600160a01b0381166111f45760405162461bcd60e51b815260040161057c906126f6565b600080546040516001600160a01b03808516939216917f8be0079c531659141344cd1fd0a4f28419497f9722a3daafe3b4186f6b6457e091a3600080546001600160a01b0319166001600160a01b0392909216919091179055565b6112598282611706565b6112638282611486565b610f5b816117cd565b600082815260086020908152604090912082516107b892840190611ad8565b826001600160a01b031661129e826108f6565b6001600160a01b0316146112c45760405162461bcd60e51b815260040161057c906127b6565b6001600160a01b0382166112ea5760405162461bcd60e51b815260040161057c90612716565b6112f381611811565b6001600160a01b03831660009081526004602052604090206113149061184c565b6001600160a01b038216600090815260046020526040902061133590611863565b60008181526002602052604080822080546001600160a01b0319166001600160a01b0386811691821790925591518493918716917fddf252ad1be2c89b69c2b068fc378daa952ba7f163c4a11628f55a4df523b3ef91a4505050565b6001600160a01b0382166000908152600960205260408120546113bb90600163ffffffff61186c16565b6000838152600a6020526040902054909150808214611456576001600160a01b03841660009081526009602052604081208054849081106113f857fe5b906000526020600020015490508060096000876001600160a01b03166001600160a01b03168152602001908152602001600020838154811061143657fe5b6000918252602080832090910192909255918252600a9052604090208190555b6001600160a01b038416600090815260096020526040902080549061147f906000198301611b56565b5050505050565b6001600160a01b0390911660009081526009602081815260408084208054868652600a84529185208290559282526001810183559183529091200155565b6114ce82826118b5565b610f5b816118e1565b60006114eb846001600160a01b031661191f565b6114f757506001610ffd565b600060606001600160a01b038616630a85bd0160e11b611515610f7c565b89888860405160240161152b9493929190612636565b60408051601f198184030181529181526020820180516001600160e01b03166001600160e01b0319909416939093179092529051611569919061261c565b6000604051808303816000865af19150503d80600081146115a6576040519150601f19603f3d011682016040523d82523d6000602084013e6115ab565b606091505b5091509150816115dd578051156115c55780518082602001fd5b60405162461bcd60e51b815260040161057c906126e6565b6000818060200190516115f39190810190611dfb565b6001600160e01b031916630a85bd0160e11b149350610ffd92505050565b6060808390506060839050606081518351016040519080825280601f01601f19166020018201604052801561164d576020820181803883390190505b5090506000805b84518110156116a55784818151811061166957fe5b602001015160f81c60f81b83838060010194508151811061168657fe5b60200101906001600160f81b031916908160001a905350600101611654565b5060005b83518110156116fa578381815181106116be57fe5b602001015160f81c60f81b8383806001019450815181106116db57fe5b60200101906001600160f81b031916908160001a9053506001016116a9565b50909695505050505050565b6001600160a01b03821661172c5760405162461bcd60e51b815260040161057c90612776565b61173581610f5f565b156117525760405162461bcd60e51b815260040161057c90612706565b600081815260026020908152604080832080546001600160a01b0319166001600160a01b03871690811790915583526004909152902061179190611863565b60405181906001600160a01b038416906000907fddf252ad1be2c89b69c2b068fc378daa952ba7f163c4a11628f55a4df523b3ef908290a45050565b600b80546000838152600c60205260408120829055600182018355919091527f0175b7a638427703f0dbe7bb9bbf987a2551717b34e79f33b5b1008d1fa01db90155565b6000818152600360205260409020546001600160a01b03161561086957600090815260036020526040902080546001600160a01b0319169055565b805461185f90600163ffffffff61186c16565b9055565b80546001019055565b60006118ae83836040518060400160405280601e81526020017f536166654d6174683a207375627472616374696f6e206f766572666c6f770000815250611958565b9392505050565b6118bf8282611984565b6118c98282611391565b6000818152600a6020526040812055610f5b81611a3c565b600081815260086020526040902054600260001961010060018416150201909116041561086957600081815260086020526040812061086991611b7a565b6000813f7fc5d2460186f7233c927e7db2dcc703c0e500b653ca82273b7bfad8045d85a470818114801590610ffd575050151592915050565b6000818484111561197c5760405162461bcd60e51b815260040161057c91906126c5565b505050900390565b816001600160a01b0316611997826108f6565b6001600160a01b0316146119bd5760405162461bcd60e51b815260040161057c90612806565b6119c681611811565b6001600160a01b03821660009081526004602052604090206119e79061184c565b60008181526002602052604080822080546001600160a01b0319169055518291906001600160a01b038516907fddf252ad1be2c89b69c2b068fc378daa952ba7f163c4a11628f55a4df523b3ef908390a45050565b600b54600090611a5390600163ffffffff61186c16565b6000838152600c6020526040812054600b8054939450909284908110611a7557fe5b9060005260206000200154905080600b8381548110611a9057fe5b6000918252602080832090910192909255828152600c90915260409020829055600b805490611ac3906000198301611b56565b505050600091825250600c6020526040812055565b828054600181600116156101000203166002900490600052602060002090601f016020900481019282601f10611b1957805160ff1916838001178555611b46565b82800160010185558215611b46579182015b82811115611b46578251825591602001919060010190611b2b565b50611b52929150611bba565b5090565b8154818355818111156107b8576000838152602090206107b8918101908301611bba565b50805460018160011615610100020316600290046000825580601f10611ba05750610869565b601f01602090049060005260206000209081019061086991905b61077d91905b80821115611b525760008155600101611bc0565b803561081881612906565b80356108188161291a565b803561081881612923565b805161081881612923565b600082601f830112611c1157600080fd5b8135611c24611c1f8261285b565b612834565b91508082526020830160208301858383011115611c4057600080fd5b611c4b8382846128c4565b50505092915050565b80356108188161292c565b600060208284031215611c7157600080fd5b6000610ffd8484611bd4565b60008060408385031215611c9057600080fd5b6000611c9c8585611bd4565b9250506020611cad85828601611bd4565b9150509250929050565b600080600060608486031215611ccc57600080fd5b6000611cd88686611bd4565b9350506020611ce986828701611bd4565b9250506040611cfa86828701611c54565b9150509250925092565b60008060008060808587031215611d1a57600080fd5b6000611d268787611bd4565b9450506020611d3787828801611bd4565b9350506040611d4887828801611c54565b925050606085013567ffffffffffffffff811115611d6557600080fd5b611d7187828801611c00565b91505092959194509250565b60008060408385031215611d9057600080fd5b6000611d9c8585611bd4565b9250506020611cad85828601611bdf565b60008060408385031215611dc057600080fd5b6000611dcc8585611bd4565b9250506020611cad85828601611c54565b600060208284031215611def57600080fd5b6000610ffd8484611bea565b600060208284031215611e0d57600080fd5b6000610ffd8484611bf5565b600060208284031215611e2b57600080fd5b813567ffffffffffffffff811115611e4257600080fd5b610ffd84828501611c00565b60008060408385031215611e6157600080fd5b823567ffffffffffffffff811115611e7857600080fd5b611dcc85828601611c00565b600060208284031215611e9657600080fd5b6000610ffd8484611c54565b60008060408385031215611eb557600080fd5b6000611dcc8585611c54565b6000611ecd8383611ee1565b505060200190565b6000611ecd8383612613565b611eea8161289b565b82525050565b6000611efb82612889565b611f05818561288d565b9350611f1083612883565b8060005b83811015611f3e578151611f288882611ec1565b9750611f3383612883565b925050600101611f14565b509495945050505050565b6000611f5482612889565b611f5e818561288d565b9350611f6983612883565b8060005b83811015611f3e578151611f818882611ed5565b9750611f8c83612883565b925050600101611f6d565b611eea816128a6565b6000611fab82612889565b611fb5818561288d565b9350611fc58185602086016128d0565b611fce816128fc565b9093019392505050565b6000611fe382612889565b611fed8185612896565b9350611ffd8185602086016128d0565b9290920192915050565b6000612014602b8361288d565b7f455243373231456e756d657261626c653a206f776e657220696e646578206f7581526a74206f6620626f756e647360a81b602082015260400192915050565b600061206160328361288d565b7f4552433732313a207472616e7366657220746f206e6f6e20455243373231526581527131b2b4bb32b91034b6b83632b6b2b73a32b960711b602082015260400192915050565b60006120b560268361288d565b7f4f776e61626c653a206e6577206f776e657220697320746865207a65726f206181526564647265737360d01b602082015260400192915050565b60006120fd601c8361288d565b7f4552433732313a20746f6b656e20616c7265616479206d696e74656400000000815260200192915050565b600061213660248361288d565b7f4552433732313a207472616e7366657220746f20746865207a65726f206164648152637265737360e01b602082015260400192915050565b600061217c60198361288d565b7f4552433732313a20617070726f766520746f2063616c6c657200000000000000815260200192915050565b60006121b5602c8361288d565b7f4552433732313a206f70657261746f7220717565727920666f72206e6f6e657881526b34b9ba32b73a103a37b5b2b760a11b602082015260400192915050565b600061220360388361288d565b7f4552433732313a20617070726f76652063616c6c6572206973206e6f74206f7781527f6e6572206e6f7220617070726f76656420666f7220616c6c0000000000000000602082015260400192915050565b6000612262602a8361288d565b7f4552433732313a2062616c616e636520717565727920666f7220746865207a65815269726f206164647265737360b01b602082015260400192915050565b60006122ae60298361288d565b7f4552433732313a206f776e657220717565727920666f72206e6f6e657869737481526832b73a103a37b5b2b760b91b602082015260400192915050565b60006122f960208361288d565b7f4552433732313a206d696e7420746f20746865207a65726f2061646472657373815260200192915050565b6000612332602c8361288d565b7f4552433732313a20617070726f76656420717565727920666f72206e6f6e657881526b34b9ba32b73a103a37b5b2b760a11b602082015260400192915050565b6000612380602c8361288d565b7f4552433732314d657461646174613a2055524920736574206f66206e6f6e657881526b34b9ba32b73a103a37b5b2b760a11b602082015260400192915050565b60006123ce60208361288d565b7f4f776e61626c653a2063616c6c6572206973206e6f7420746865206f776e6572815260200192915050565b600061240760298361288d565b7f4552433732313a207472616e73666572206f6620746f6b656e2074686174206981526839903737ba1037bbb760b91b602082015260400192915050565b6000612452602f8361288d565b7f4552433732314d657461646174613a2055524920717565727920666f72206e6f81526e3732bc34b9ba32b73a103a37b5b2b760891b602082015260400192915050565b60006124a360218361288d565b7f4552433732313a20617070726f76616c20746f2063757272656e74206f776e658152603960f91b602082015260400192915050565b60006124e660318361288d565b7f4552433732313a207472616e736665722063616c6c6572206973206e6f74206f8152701ddb995c881b9bdc88185c1c1c9bdd9959607a1b602082015260400192915050565b6000612539602c8361288d565b7f455243373231456e756d657261626c653a20676c6f62616c20696e646578206f81526b7574206f6620626f756e647360a01b602082015260400192915050565b600061258760258361288d565b7f4552433732313a206275726e206f6620746f6b656e2074686174206973206e6f8152643a1037bbb760d91b602082015260400192915050565b60006125ce60308361288d565b7f4552433732314275726e61626c653a2063616c6c6572206973206e6f74206f7781526f1b995c881b9bdc88185c1c1c9bdd995960821b602082015260400192915050565b611eea8161077d565b60006118ae8284611fd8565b602081016108188284611ee1565b608081016126448287611ee1565b6126516020830186611ee1565b61265e6040830185612613565b81810360608301526126708184611fa0565b9695505050505050565b604081016126888285611ee1565b6118ae6020830184612613565b602080825281016118ae8184611ef0565b602080825281016118ae8184611f49565b602081016108188284611f97565b602080825281016118ae8184611fa0565b6020808252810161081881612007565b6020808252810161081881612054565b60208082528101610818816120a8565b60208082528101610818816120f0565b6020808252810161081881612129565b602080825281016108188161216f565b60208082528101610818816121a8565b60208082528101610818816121f6565b6020808252810161081881612255565b60208082528101610818816122a1565b60208082528101610818816122ec565b6020808252810161081881612325565b6020808252810161081881612373565b60208082528101610818816123c1565b60208082528101610818816123fa565b6020808252810161081881612445565b6020808252810161081881612496565b60208082528101610818816124d9565b602080825281016108188161252c565b602080825281016108188161257a565b60208082528101610818816125c1565b602081016108188284612613565b60405181810167ffffffffffffffff8111828210171561285357600080fd5b604052919050565b600067ffffffffffffffff82111561287257600080fd5b506020601f91909101601f19160190565b60200190565b5190565b90815260200190565b919050565b6000610818826128b8565b151590565b6001600160e01b03191690565b6001600160a01b031690565b82818337506000910152565b60005b838110156128eb5781810151838201526020016128d3565b83811115610c7d5750506000910152565b601f01601f191690565b61290f8161289b565b811461086957600080fd5b61290f816128a6565b61290f816128ab565b61290f8161077d56fea365627a7a723158209e24568b9542934b2dbcc33fc44825693f5d2b33a0d3832347ac1a1b830b2df36c6578706572696d656e74616cf564736f6c634300051100408be0079c531659141344cd1fd0a4f28419497f9722a3daafe3b4186f6b6457e0",
  "source": "\npragma solidity ^0.5.0;\npragma experimental ABIEncoderV2;\n\nimport \"@openzeppelin/contracts/math/SafeMath.sol\";\nimport \"@openzeppelin/contracts/GSN/Context.sol\";\nimport \"@openzeppelin/contracts/ownership/Ownable.sol\";\nimport \"@openzeppelin/contracts/token/ERC721/IERC721Metadata.sol\";\nimport \"@openzeppelin/contracts/token/ERC721/ERC721Burnable.sol\";\n\n\nimport \"./tokens/ERC721/ERC721Base.sol\";\n\n/**\n * @title MintableToken\n * @dev anyone can mint token.\n */\ncontract MintableToken is Ownable, IERC721, IERC721Metadata, ERC721Burnable, ERC721Base {\n\n    uint private counter = 1;\n\n    constructor (string memory name, string memory symbol, address newOwner, string memory contractURI, string memory tokenURIPrefix) public ERC721Base(name, symbol, contractURI, tokenURIPrefix) {\n        _registerInterface(bytes4(keccak256('MINT_WITH_ADDRESS')));\n        transferOwnership(newOwner);\n    }\n\n\n    function mint(string memory tokenURI, uint _royality) public {\n        // require(owner() == ecrecover(keccak256(abi.encodePacked(this, tokenId)), v, r, s), \"owner should sign tokenId\");\n        _mint(msg.sender, counter, _royality);\n        _setTokenURI(counter, tokenURI);\n        counter++;\n    }\n\n    function setTokenURIPrefix(string memory tokenURIPrefix) public onlyOwner {\n        _setTokenURIPrefix(tokenURIPrefix);\n    }\n\n    function setContractURI(string memory contractURI) public onlyOwner {\n        _setContractURI(contractURI);\n    }\n}\n",
  "sourcePath": "/Users/thoughtwin/Desktop/weblisto/clubrare/smart_contracts/contracts/MintableToken.sol",
  "compiler": {
    "name": "solc",
    "version": "0.5.17+commit.d19bba13.Emscripten.clang"
  },
  "schemaVersion": "3.4.3",
  "updatedAt": "2021-11-01T10:56:16.720Z",
  "devdoc": {
    "details": "anyone can mint token.",
    "methods": {
      "approve(address,uint256)": {
        "details": "Approves another address to transfer the given token ID The zero address indicates there is no approved address. There can only be one approved address per token at a given time. Can only be called by the token owner or an approved operator.",
        "params": {
          "to": "address to be approved for the given token ID",
          "tokenId": "uint256 ID of the token to be approved"
        }
      },
      "balanceOf(address)": {
        "details": "Gets the balance of the specified address.",
        "params": {
          "owner": "address to query the balance of"
        },
        "return": "uint256 representing the amount owned by the passed address"
      },
      "burn(uint256)": {
        "details": "Burns a specific ERC721 token.",
        "params": {
          "tokenId": "uint256 id of the ERC721 token to be burned."
        }
      },
      "getApproved(uint256)": {
        "details": "Gets the approved address for a token ID, or zero if no address set Reverts if the token ID does not exist.",
        "params": {
          "tokenId": "uint256 ID of the token to query the approval of"
        },
        "return": "address currently approved for the given token ID"
      },
      "isApprovedForAll(address,address)": {
        "details": "Tells whether an operator is approved by a given owner.",
        "params": {
          "operator": "operator address which you want to query the approval of",
          "owner": "owner address which you want to query the approval of"
        },
        "return": "bool whether the given operator is approved by the given owner"
      },
      "isOwner()": {
        "details": "Returns true if the caller is the current owner."
      },
      "owner()": {
        "details": "Returns the address of the current owner."
      },
      "ownerOf(uint256)": {
        "details": "Gets the owner of the specified token ID.",
        "params": {
          "tokenId": "uint256 ID of the token to query the owner of"
        },
        "return": "address currently marked as the owner of the given token ID"
      },
      "renounceOwnership()": {
        "details": "Leaves the contract without owner. It will not be possible to call `onlyOwner` functions anymore. Can only be called by the current owner.     * NOTE: Renouncing ownership will leave the contract without an owner, thereby removing any functionality that is only available to the owner."
      },
      "safeTransferFrom(address,address,uint256)": {
        "details": "Safely transfers the ownership of a given token ID to another address If the target address is a contract, it must implement {IERC721Receiver-onERC721Received}, which is called upon a safe transfer, and return the magic value `bytes4(keccak256(\"onERC721Received(address,address,uint256,bytes)\"))`; otherwise, the transfer is reverted. Requires the msg.sender to be the owner, approved, or operator",
        "params": {
          "from": "current owner of the token",
          "to": "address to receive the ownership of the given token ID",
          "tokenId": "uint256 ID of the token to be transferred"
        }
      },
      "safeTransferFrom(address,address,uint256,bytes)": {
        "details": "Safely transfers the ownership of a given token ID to another address If the target address is a contract, it must implement {IERC721Receiver-onERC721Received}, which is called upon a safe transfer, and return the magic value `bytes4(keccak256(\"onERC721Received(address,address,uint256,bytes)\"))`; otherwise, the transfer is reverted. Requires the _msgSender() to be the owner, approved, or operator",
        "params": {
          "_data": "bytes data to send along with a safe transfer check",
          "from": "current owner of the token",
          "to": "address to receive the ownership of the given token ID",
          "tokenId": "uint256 ID of the token to be transferred"
        }
      },
      "setApprovalForAll(address,bool)": {
        "details": "Sets or unsets the approval of a given operator An operator is allowed to transfer all tokens of the sender on their behalf.",
        "params": {
          "approved": "representing the status of the approval to be set",
          "to": "operator address to set the approval"
        }
      },
      "supportsInterface(bytes4)": {
        "details": "See {IERC165-supportsInterface}.     * Time complexity O(1), guaranteed to always use less than 30 000 gas."
      },
      "tokenByIndex(uint256)": {
        "details": "Gets the token ID at a given index of all the tokens in this contract Reverts if the index is greater or equal to the total number of tokens.",
        "params": {
          "index": "uint256 representing the index to be accessed of the tokens list"
        },
        "return": "uint256 token ID at the given index of the tokens list"
      },
      "tokenOfOwnerByIndex(address,uint256)": {
        "details": "Gets the token ID at a given index of the tokens list of the requested owner.",
        "params": {
          "index": "uint256 representing the index to be accessed of the requested tokens list",
          "owner": "address owning the tokens list to be accessed"
        },
        "return": "uint256 token ID at the given index of the tokens list owned by the requested address"
      },
      "tokenURI(uint256)": {
        "details": "Returns an URI for a given token ID. Throws if the token ID does not exist. May return an empty string.",
        "params": {
          "tokenId": "uint256 ID of the token to query"
        }
      },
      "totalSupply()": {
        "details": "Gets the total amount of tokens stored by the contract.",
        "return": "uint256 representing the total amount of tokens"
      },
      "transferFrom(address,address,uint256)": {
        "details": "Transfers the ownership of a given token ID to another address. Usage of this method is discouraged, use {safeTransferFrom} whenever possible. Requires the msg.sender to be the owner, approved, or operator.",
        "params": {
          "from": "current owner of the token",
          "to": "address to receive the ownership of the given token ID",
          "tokenId": "uint256 ID of the token to be transferred"
        }
      },
      "transferOwnership(address)": {
        "details": "Transfers ownership of the contract to a new account (`newOwner`). Can only be called by the current owner."
      }
    },
    "title": "MintableToken"
  },
  "userdoc": {
    "methods": {}
  }
}