{
  "contractName": "Mortal",
  "abi": [
    {
      "inputs": [],
      "payable": false,
      "stateMutability": "nonpayable",
      "type": "constructor"
    },
    {
      "constant": false,
      "inputs": [],
      "name": "kill",
      "outputs": [],
      "payable": true,
      "stateMutability": "payable",
      "type": "function"
    }
  ],
  "bytecode": "0x6080604052348015600f57600080fd5b50600080546001600160a01b031916331790556080806100306000396000f3fe608060405260043610601c5760003560e01c806341c0e1b5146021575b600080fd5b60276029565b005b6000546001600160a01b03163314156049576000546001600160a01b0316ff5b56fea265627a7a72315820d6997315c800f662716fd17f6f65cd5225f7c2eaff6b2c946a58093fa0562a1464736f6c63430005110032",
  "source": "pragma solidity ^0.5.6;\ncontract Mortal {\n    /* Define variable owner of the type address */\n    address payable owner;\n    /* This function is executed at initialization and sets the owner of the contract */\n    constructor () public { owner = msg.sender; }\n    /* Function to recover the funds on the contract */\n    function kill() public payable { if (msg.sender == owner) selfdestruct(owner); }\n}\n\ncontract KlaytnGreeter is Mortal {\n    /* Define variable greeting of the type string */\n    string greeting;\n    /* This runs when the contract is executed */\n    constructor (string memory _greeting) public {\n        greeting = _greeting;\n    }\n    /* Main function */\n    function greet() public view returns (string memory) {\n        return greeting;\n    }\n}",
  "sourcePath": "/Users/thoughtwin/Desktop/weblisto/clubrare/smart_contracts/contracts/KlaytnGreeter.sol",
  "compiler": {
    "name": "solc",
    "version": "0.5.17+commit.d19bba13.Emscripten.clang"
  },
  "schemaVersion": "3.4.3",
  "updatedAt": "2021-11-01T10:56:16.719Z",
  "devdoc": {
    "methods": {}
  },
  "userdoc": {
    "methods": {}
  }
}