{
  "contractName": "Storage",
  "abi": [
    {
      "constant": true,
      "inputs": [
        {
          "internalType": "address",
          "name": "",
          "type": "address"
        },
        {
          "internalType": "uint256",
          "name": "",
          "type": "uint256"
        }
      ],
      "name": "auctions",
      "outputs": [
        {
          "internalType": "address payable",
          "name": "lastOwner",
          "type": "address"
        },
        {
          "internalType": "uint256",
          "name": "currentBid",
          "type": "uint256"
        },
        {
          "internalType": "address payable",
          "name": "highestBidder",
          "type": "address"
        },
        {
          "internalType": "uint256",
          "name": "auctionType",
          "type": "uint256"
        },
        {
          "internalType": "uint256",
          "name": "startingPrice",
          "type": "uint256"
        },
        {
          "internalType": "uint256",
          "name": "buyPrice",
          "type": "uint256"
        },
        {
          "internalType": "bool",
          "name": "buyer",
          "type": "bool"
        },
        {
          "internalType": "uint256",
          "name": "startingTime",
          "type": "uint256"
        },
        {
          "internalType": "uint256",
          "name": "closingTime",
          "type": "uint256"
        },
        {
          "internalType": "address",
          "name": "erc20Token",
          "type": "address"
        }
      ],
      "payable": false,
      "stateMutability": "view",
      "type": "function"
    },
    {
      "constant": true,
      "inputs": [],
      "name": "brokerage",
      "outputs": [
        {
          "internalType": "uint16",
          "name": "",
          "type": "uint16"
        }
      ],
      "payable": false,
      "stateMutability": "view",
      "type": "function"
    },
    {
      "constant": true,
      "inputs": [],
      "name": "isOwner",
      "outputs": [
        {
          "internalType": "bool",
          "name": "",
          "type": "bool"
        }
      ],
      "payable": false,
      "stateMutability": "view",
      "type": "function"
    },
    {
      "constant": true,
      "inputs": [],
      "name": "owner",
      "outputs": [
        {
          "internalType": "address",
          "name": "",
          "type": "address"
        }
      ],
      "payable": false,
      "stateMutability": "view",
      "type": "function"
    },
    {
      "constant": false,
      "inputs": [
        {
          "internalType": "address",
          "name": "newOwner",
          "type": "address"
        }
      ],
      "name": "transferOwnership",
      "outputs": [],
      "payable": false,
      "stateMutability": "nonpayable",
      "type": "function"
    },
    {
      "constant": true,
      "inputs": [],
      "name": "updateClosingTime",
      "outputs": [
        {
          "internalType": "uint256",
          "name": "",
          "type": "uint256"
        }
      ],
      "payable": false,
      "stateMutability": "view",
      "type": "function"
    },
    {
      "constant": true,
      "inputs": [],
      "name": "getErc20Tokens",
      "outputs": [
        {
          "components": [
            {
              "internalType": "address[]",
              "name": "array",
              "type": "address[]"
            }
          ],
          "internalType": "struct ERC20Addresses.erc20Addresses",
          "name": "",
          "type": "tuple"
        }
      ],
      "payable": false,
      "stateMutability": "view",
      "type": "function"
    },
    {
      "constant": true,
      "inputs": [],
      "name": "getTokensForSale",
      "outputs": [
        {
          "components": [
            {
              "internalType": "address",
              "name": "NFTAddress",
              "type": "address"
            },
            {
              "internalType": "uint256",
              "name": "tokenID",
              "type": "uint256"
            }
          ],
          "internalType": "struct TokenDetArrayLib.TokenDet[]",
          "name": "",
          "type": "tuple[]"
        }
      ],
      "payable": false,
      "stateMutability": "view",
      "type": "function"
    },
    {
      "constant": true,
      "inputs": [],
      "name": "getFixedPriceTokensForSale",
      "outputs": [
        {
          "components": [
            {
              "internalType": "address",
              "name": "NFTAddress",
              "type": "address"
            },
            {
              "internalType": "uint256",
              "name": "tokenID",
              "type": "uint256"
            }
          ],
          "internalType": "struct TokenDetArrayLib.TokenDet[]",
          "name": "",
          "type": "tuple[]"
        }
      ],
      "payable": false,
      "stateMutability": "view",
      "type": "function"
    },
    {
      "constant": true,
      "inputs": [],
      "name": "getAuctionTokensForSale",
      "outputs": [
        {
          "components": [
            {
              "internalType": "address",
              "name": "NFTAddress",
              "type": "address"
            },
            {
              "internalType": "uint256",
              "name": "tokenID",
              "type": "uint256"
            }
          ],
          "internalType": "struct TokenDetArrayLib.TokenDet[]",
          "name": "",
          "type": "tuple[]"
        }
      ],
      "payable": false,
      "stateMutability": "view",
      "type": "function"
    },
    {
      "constant": true,
      "inputs": [
        {
          "internalType": "address",
          "name": "_user",
          "type": "address"
        }
      ],
      "name": "getTokensForSalePerUser",
      "outputs": [
        {
          "components": [
            {
              "internalType": "address",
              "name": "NFTAddress",
              "type": "address"
            },
            {
              "internalType": "uint256",
              "name": "tokenID",
              "type": "uint256"
            }
          ],
          "internalType": "struct TokenDetArrayLib.TokenDet[]",
          "name": "",
          "type": "tuple[]"
        }
      ],
      "payable": false,
      "stateMutability": "view",
      "type": "function"
    },
    {
      "constant": false,
      "inputs": [
        {
          "internalType": "uint16",
          "name": "_brokerage",
          "type": "uint16"
        }
      ],
      "name": "setBrokerage",
      "outputs": [],
      "payable": false,
      "stateMutability": "nonpayable",
      "type": "function"
    },
    {
      "constant": false,
      "inputs": [
        {
          "internalType": "uint256",
          "name": "_updateTime",
          "type": "uint256"
        }
      ],
      "name": "setUpdatedClosingTime",
      "outputs": [],
      "payable": false,
      "stateMutability": "nonpayable",
      "type": "function"
    }
  ],
  "bytecode": "0x6080604052600080546001600160a01b03191633179055610a05806100256000396000f3fe608060405234801561001057600080fd5b50600436106100cf5760003560e01c80638da5cb5b1161008c578063d4739cca11610066578063d4739cca146101a1578063f2fde38b146101b4578063f5a0c9b8146101c7578063f7f17488146101da576100cf565b80638da5cb5b1461016f5780638f32d59b14610184578063d3c9080a14610199576100cf565b80633fbf444e146100d457806344f91c1e146100f257806365e4e1c01461011b5780636d036535146101305780637f494852146101455780638b765cd11461015a575b600080fd5b6100dc6101e2565b6040516100e99190610944565b60405180910390f35b61010561010036600461060f565b6101f3565b6040516100e99a99989796959493929190610858565b61012361025f565b6040516100e991906108ed565b6101386102d7565b6040516100e99190610933565b61014d610348565b6040516100e99190610952565b61016d610168366004610649565b61034e565b005b61017761039d565b6040516100e9919061084a565b61018c6103ac565b6040516100e99190610905565b6101236103bd565b6101236101af3660046105e9565b610426565b61016d6101c23660046105e9565b6104b1565b61016d6101d5366004610667565b61051d565b610123610546565b600054600160a01b900461ffff1681565b6006602081815260009384526040808520909152918352912080546001820154600283015460038401546004850154600586015496860154600787015460088801546009909801546001600160a01b039788169996989588169794969395939460ff909316939192168a565b60606007600001805480602002602001604051908101604052809291908181526020016000905b828210156102ce576000848152602090819020604080518082019091526002850290910180546001600160a01b03168252600190810154828401529083529092019101610286565b50505050905090565b6102df6105af565b6040805160088054602081810284018501855283018181529293919284929091849184018282801561033a57602002820191906000526020600020905b81546001600160a01b0316815260019091019060200180831161031c575b505050505081525050905090565b60015481565b6103566103ac565b61037b5760405162461bcd60e51b815260040161037290610923565b60405180910390fd5b6000805461ffff909216600160a01b0261ffff60a01b19909216919091179055565b6000546001600160a01b031690565b6000546001600160a01b0316331490565b600480546040805160208084028201810190925282815260609390929091600090840182156102ce576000848152602090819020604080518082019091526002850290910180546001600160a01b03168252600190810154828401529083529092019101610286565b6001600160a01b0381166000908152600360209081526040808320805482518185028101850190935280835260609492939192909184015b828210156104a6576000848152602090819020604080518082019091526002850290910180546001600160a01b0316825260019081015482840152908352909201910161045e565b505050509050919050565b6104b96103ac565b6104d55760405162461bcd60e51b815260040161037290610923565b6001600160a01b0381166104fb5760405162461bcd60e51b815260040161037290610913565b600080546001600160a01b0319166001600160a01b0392909216919091179055565b6105256103ac565b6105415760405162461bcd60e51b815260040161037290610923565b600155565b600580546040805160208084028201810190925282815260609390929091600090840182156102ce576000848152602090819020604080518082019091526002850290910180546001600160a01b03168252600190810154828401529083529092019101610286565b6040518060200160405280606081525090565b80356105cd81610999565b92915050565b80356105cd816109b0565b80356105cd816109b9565b6000602082840312156105fb57600080fd5b600061060784846105c2565b949350505050565b6000806040838503121561062257600080fd5b600061062e85856105c2565b925050602061063f858286016105de565b9150509250929050565b60006020828403121561065b57600080fd5b600061060784846105d3565b60006020828403121561067957600080fd5b600061060784846105de565b600061069183836106ad565b505060200190565b60006106a583836107ed565b505060400190565b6106b681610973565b82525050565b60006106c782610966565b6106d1818561096a565b93506106dc83610960565b8060005b8381101561070a5781516106f48882610685565b97506106ff83610960565b9250506001016106e0565b509495945050505050565b600061072082610966565b61072a818561096a565b935061073583610960565b8060005b8381101561070a57815161074d8882610699565b975061075883610960565b925050600101610739565b6106b68161097e565b600061077960268361096a565b7f4f776e61626c653a206e6577206f776e657220697320746865207a65726f206181526564647265737360d01b602082015260400192915050565b60006107c160208361096a565b7f4f776e61626c653a2063616c6c6572206973206e6f7420746865206f776e6572815260200192915050565b805160408301906107fe84826106ad565b5060208201516108116020850182610841565b50505050565b805160208084526000919084019061082f82826106bc565b95945050505050565b6106b681610983565b6106b681610996565b602081016105cd82846106ad565b6101408101610867828d6106ad565b610874602083018c610841565b610881604083018b6106ad565b61088e606083018a610841565b61089b6080830189610841565b6108a860a0830188610841565b6108b560c0830187610763565b6108c260e0830186610841565b6108d0610100830185610841565b6108de6101208301846106ad565b9b9a5050505050505050505050565b602080825281016108fe8184610715565b9392505050565b602081016105cd8284610763565b602080825281016105cd8161076c565b602080825281016105cd816107b4565b602080825281016108fe8184610817565b602081016105cd8284610838565b602081016105cd8284610841565b60200190565b5190565b90815260200190565b60006105cd8261098a565b151590565b61ffff1690565b6001600160a01b031690565b90565b6109a281610973565b81146109ad57600080fd5b50565b6109a281610983565b6109a28161099656fea365627a7a7231582090bb6811fe2ffe8eb3383873ed40d8f3914e140e85f76afd98aa97bbe500cf486c6578706572696d656e74616cf564736f6c63430005110040",
  "source": "pragma solidity ^0.5.17;\npragma experimental ABIEncoderV2;\nimport \"./TokenDetArrayLib.sol\";\nimport \"./Ownable.sol\";\nimport \"./ERC20Addresses.sol\";\n\ninterface IERC20 {\n    \n    function transfer(address recipient, uint256 amount)\n        external\n        returns (bool);\n\n    function allowance(address owner, address spender)\n        external\n        view\n        returns (uint256);\n\n    function transferFrom(\n        address sender,\n        address recipient,\n        uint256 amount\n    ) external returns (bool);\n\n    event Transfer(address indexed from, address indexed to, uint256 value);\n\n    event Approval(\n        address indexed owner,\n        address indexed spender,\n        uint256 value\n    );\n}\n\ncontract IERC721Receiver {\n    function onERC721Received(\n        address operator,\n        address from,\n        uint256 tokenId,\n        bytes memory data\n    ) public returns (bytes4);\n}\n\ncontract ERC721Holder is IERC721Receiver {\n    function onERC721Received(\n        address,\n        address,\n        uint256,\n        bytes memory\n    ) public returns (bytes4) {\n        return this.onERC721Received.selector;\n    }\n}\n\ncontract IMintableToken {\n\n    // Required methods\n    function ownerOf(uint256 _tokenId) external view returns (address owner);\n\n    function royalities(uint256 _tokenId) public view returns (uint256);\n\n    function creators(uint256 _tokenId) public view returns (address payable);\n\n    function safeTransferFrom(\n        address from,\n        address to,\n        uint256 tokenId\n    ) public;\n\n    function getApproved(uint256 tokenId)\n        public\n        view\n        returns (address operator);\n\n    // Events\n    event Transfer(address from, address to, uint256 tokenId);\n    event Approval(address owner, address approved, uint256 tokenId);\n\n    // ERC-165 Compatibility (https://github.com/ethereum/EIPs/issues/165)\n    function supportsInterface(bytes4 _interfaceID)\n        external\n        view\n        returns (bool);\n}\n\ncontract Storage is Ownable {\n    using TokenDetArrayLib for TokenDetArrayLib.TokenDets;\n    using ERC20Addresses for ERC20Addresses.erc20Addresses;\n    // address owner;\n    uint16 public brokerage;\n    uint public updateClosingTime;\n    mapping(address => mapping(uint256 => bool)) tokenOpenForSale;\n    mapping(address => TokenDetArrayLib.TokenDets) tokensForSalePerUser;\n    TokenDetArrayLib.TokenDets fixedPriceTokens;\n    TokenDetArrayLib.TokenDets auctionTokens;\n\n    //auction type :\n    // 1 : only direct buy\n    // 2 : only bid\n    // 3 : both buy and bid\n\n    struct auction {\n        address payable lastOwner;\n        uint256 currentBid;\n        address payable highestBidder;\n        uint256 auctionType;\n        uint256 startingPrice;\n        uint256 buyPrice;\n        bool buyer;\n        uint256 startingTime;\n        uint256 closingTime;\n        address erc20Token;\n    }\n\n    mapping(address => mapping(uint256 => auction)) public auctions;\n\n    TokenDetArrayLib.TokenDets tokensForSale;\n    ERC20Addresses.erc20Addresses erc20TokensArray;\n\n    function getErc20Tokens()\n        public\n        view\n        returns (ERC20Addresses.erc20Addresses memory)\n    {\n        return erc20TokensArray;\n    }\n\n    function getTokensForSale()\n        public\n        view\n        returns (TokenDetArrayLib.TokenDet[] memory)\n    {\n        return tokensForSale.array;\n    }\n\n    function getFixedPriceTokensForSale()\n        public\n        view\n        returns (TokenDetArrayLib.TokenDet[] memory)\n    {\n        return fixedPriceTokens.array;\n    }\n\n    function getAuctionTokensForSale()\n        public\n        view\n        returns (TokenDetArrayLib.TokenDet[] memory)\n    {\n        return auctionTokens.array;\n    }\n\n    function getTokensForSalePerUser(address _user)\n        public\n        view\n        returns (TokenDetArrayLib.TokenDet[] memory)\n    {\n        return tokensForSalePerUser[_user].array;\n    }\n\n    function setBrokerage(uint16 _brokerage) public onlyOwner {\n        brokerage = _brokerage;\n    }\n\n    function setUpdatedClosingTime(uint256 _updateTime) public onlyOwner {\n        updateClosingTime=_updateTime;\n    }\n    \n}\n",
  "sourcePath": "/Users/thoughtwin/Desktop/weblisto/clubrare/smart_contracts/contracts/brokerV2_utils/Storage.sol",
  "compiler": {
    "name": "solc",
    "version": "0.5.17+commit.d19bba13.Emscripten.clang"
  },
  "schemaVersion": "3.4.3",
  "updatedAt": "2021-11-01T10:56:16.731Z",
  "devdoc": {
    "methods": {
      "isOwner()": {
        "details": "Returns true if the caller is the current owner."
      },
      "owner()": {
        "details": "Returns the address of the current owner."
      },
      "transferOwnership(address)": {
        "details": "Transfers ownership of the contract to a new account (`newOwner`). Can only be called by the current owner."
      }
    }
  },
  "userdoc": {
    "methods": {}
  }
}