{
  "contractName": "WhitelistableCollection",
  "abi": [
    {
      "inputs": [
        {
          "internalType": "string",
          "name": "name",
          "type": "string"
        },
        {
          "internalType": "string",
          "name": "symbol",
          "type": "string"
        },
        {
          "internalType": "address",
          "name": "newOwner",
          "type": "address"
        },
        {
          "internalType": "string",
          "name": "contractURI",
          "type": "string"
        },
        {
          "internalType": "string",
          "name": "tokenURIPrefix",
          "type": "string"
        }
      ],
      "payable": false,
      "stateMutability": "nonpayable",
      "type": "constructor"
    },
    {
      "anonymous": false,
      "inputs": [
        {
          "indexed": true,
          "internalType": "address",
          "name": "owner",
          "type": "address"
        },
        {
          "indexed": true,
          "internalType": "address",
          "name": "approved",
          "type": "address"
        },
        {
          "indexed": true,
          "internalType": "uint256",
          "name": "tokenId",
          "type": "uint256"
        }
      ],
      "name": "Approval",
      "type": "event"
    },
    {
      "anonymous": false,
      "inputs": [
        {
          "indexed": true,
          "internalType": "address",
          "name": "owner",
          "type": "address"
        },
        {
          "indexed": true,
          "internalType": "address",
          "name": "operator",
          "type": "address"
        },
        {
          "indexed": false,
          "internalType": "bool",
          "name": "approved",
          "type": "bool"
        }
      ],
      "name": "ApprovalForAll",
      "type": "event"
    },
    {
      "anonymous": false,
      "inputs": [
        {
          "indexed": true,
          "internalType": "address",
          "name": "previousOwner",
          "type": "address"
        },
        {
          "indexed": true,
          "internalType": "address",
          "name": "newOwner",
          "type": "address"
        }
      ],
      "name": "OwnershipTransferred",
      "type": "event"
    },
    {
      "anonymous": false,
      "inputs": [
        {
          "indexed": false,
          "internalType": "uint256",
          "name": "tokenId",
          "type": "uint256"
        },
        {
          "indexed": false,
          "internalType": "address[]",
          "name": "recipients",
          "type": "address[]"
        },
        {
          "indexed": false,
          "internalType": "uint256[]",
          "name": "bps",
          "type": "uint256[]"
        }
      ],
      "name": "SecondarySaleFees",
      "type": "event"
    },
    {
      "anonymous": false,
      "inputs": [
        {
          "indexed": true,
          "internalType": "address",
          "name": "from",
          "type": "address"
        },
        {
          "indexed": true,
          "internalType": "address",
          "name": "to",
          "type": "address"
        },
        {
          "indexed": true,
          "internalType": "uint256",
          "name": "tokenId",
          "type": "uint256"
        }
      ],
      "name": "Transfer",
      "type": "event"
    },
    {
      "constant": false,
      "inputs": [
        {
          "internalType": "address",
          "name": "to",
          "type": "address"
        },
        {
          "internalType": "uint256",
          "name": "tokenId",
          "type": "uint256"
        }
      ],
      "name": "approve",
      "outputs": [],
      "payable": false,
      "stateMutability": "nonpayable",
      "type": "function"
    },
    {
      "constant": true,
      "inputs": [
        {
          "internalType": "address",
          "name": "owner",
          "type": "address"
        }
      ],
      "name": "balanceOf",
      "outputs": [
        {
          "internalType": "uint256",
          "name": "",
          "type": "uint256"
        }
      ],
      "payable": false,
      "stateMutability": "view",
      "type": "function"
    },
    {
      "constant": false,
      "inputs": [
        {
          "internalType": "uint256",
          "name": "tokenId",
          "type": "uint256"
        }
      ],
      "name": "burn",
      "outputs": [],
      "payable": false,
      "stateMutability": "nonpayable",
      "type": "function"
    },
    {
      "constant": true,
      "inputs": [],
      "name": "contractURI",
      "outputs": [
        {
          "internalType": "string",
          "name": "",
          "type": "string"
        }
      ],
      "payable": false,
      "stateMutability": "view",
      "type": "function"
    },
    {
      "constant": true,
      "inputs": [
        {
          "internalType": "uint256",
          "name": "",
          "type": "uint256"
        }
      ],
      "name": "creators",
      "outputs": [
        {
          "internalType": "address payable",
          "name": "",
          "type": "address"
        }
      ],
      "payable": false,
      "stateMutability": "view",
      "type": "function"
    },
    {
      "constant": true,
      "inputs": [
        {
          "internalType": "uint256",
          "name": "",
          "type": "uint256"
        },
        {
          "internalType": "uint256",
          "name": "",
          "type": "uint256"
        }
      ],
      "name": "fees",
      "outputs": [
        {
          "internalType": "address payable",
          "name": "recipient",
          "type": "address"
        },
        {
          "internalType": "uint256",
          "name": "value",
          "type": "uint256"
        }
      ],
      "payable": false,
      "stateMutability": "view",
      "type": "function"
    },
    {
      "constant": true,
      "inputs": [
        {
          "internalType": "uint256",
          "name": "tokenId",
          "type": "uint256"
        }
      ],
      "name": "getApproved",
      "outputs": [
        {
          "internalType": "address",
          "name": "",
          "type": "address"
        }
      ],
      "payable": false,
      "stateMutability": "view",
      "type": "function"
    },
    {
      "constant": true,
      "inputs": [
        {
          "internalType": "uint256",
          "name": "id",
          "type": "uint256"
        }
      ],
      "name": "getFeeBps",
      "outputs": [
        {
          "internalType": "uint256[]",
          "name": "",
          "type": "uint256[]"
        }
      ],
      "payable": false,
      "stateMutability": "view",
      "type": "function"
    },
    {
      "constant": true,
      "inputs": [
        {
          "internalType": "uint256",
          "name": "id",
          "type": "uint256"
        }
      ],
      "name": "getFeeRecipients",
      "outputs": [
        {
          "internalType": "address payable[]",
          "name": "",
          "type": "address[]"
        }
      ],
      "payable": false,
      "stateMutability": "view",
      "type": "function"
    },
    {
      "constant": true,
      "inputs": [
        {
          "internalType": "address",
          "name": "creator",
          "type": "address"
        }
      ],
      "name": "getTokensPerCreator",
      "outputs": [
        {
          "internalType": "uint256[]",
          "name": "",
          "type": "uint256[]"
        }
      ],
      "payable": false,
      "stateMutability": "view",
      "type": "function"
    },
    {
      "constant": true,
      "inputs": [
        {
          "internalType": "address",
          "name": "owner",
          "type": "address"
        },
        {
          "internalType": "address",
          "name": "operator",
          "type": "address"
        }
      ],
      "name": "isApprovedForAll",
      "outputs": [
        {
          "internalType": "bool",
          "name": "",
          "type": "bool"
        }
      ],
      "payable": false,
      "stateMutability": "view",
      "type": "function"
    },
    {
      "constant": true,
      "inputs": [],
      "name": "isOwner",
      "outputs": [
        {
          "internalType": "bool",
          "name": "",
          "type": "bool"
        }
      ],
      "payable": false,
      "stateMutability": "view",
      "type": "function"
    },
    {
      "constant": true,
      "inputs": [],
      "name": "name",
      "outputs": [
        {
          "internalType": "string",
          "name": "",
          "type": "string"
        }
      ],
      "payable": false,
      "stateMutability": "view",
      "type": "function"
    },
    {
      "constant": true,
      "inputs": [],
      "name": "owner",
      "outputs": [
        {
          "internalType": "address",
          "name": "",
          "type": "address"
        }
      ],
      "payable": false,
      "stateMutability": "view",
      "type": "function"
    },
    {
      "constant": true,
      "inputs": [
        {
          "internalType": "uint256",
          "name": "tokenId",
          "type": "uint256"
        }
      ],
      "name": "ownerOf",
      "outputs": [
        {
          "internalType": "address",
          "name": "",
          "type": "address"
        }
      ],
      "payable": false,
      "stateMutability": "view",
      "type": "function"
    },
    {
      "constant": false,
      "inputs": [],
      "name": "renounceOwnership",
      "outputs": [],
      "payable": false,
      "stateMutability": "nonpayable",
      "type": "function"
    },
    {
      "constant": true,
      "inputs": [
        {
          "internalType": "uint256",
          "name": "",
          "type": "uint256"
        }
      ],
      "name": "royalities",
      "outputs": [
        {
          "internalType": "uint256",
          "name": "",
          "type": "uint256"
        }
      ],
      "payable": false,
      "stateMutability": "view",
      "type": "function"
    },
    {
      "constant": false,
      "inputs": [
        {
          "internalType": "address",
          "name": "from",
          "type": "address"
        },
        {
          "internalType": "address",
          "name": "to",
          "type": "address"
        },
        {
          "internalType": "uint256",
          "name": "tokenId",
          "type": "uint256"
        }
      ],
      "name": "safeTransferFrom",
      "outputs": [],
      "payable": false,
      "stateMutability": "nonpayable",
      "type": "function"
    },
    {
      "constant": false,
      "inputs": [
        {
          "internalType": "address",
          "name": "from",
          "type": "address"
        },
        {
          "internalType": "address",
          "name": "to",
          "type": "address"
        },
        {
          "internalType": "uint256",
          "name": "tokenId",
          "type": "uint256"
        },
        {
          "internalType": "bytes",
          "name": "_data",
          "type": "bytes"
        }
      ],
      "name": "safeTransferFrom",
      "outputs": [],
      "payable": false,
      "stateMutability": "nonpayable",
      "type": "function"
    },
    {
      "constant": false,
      "inputs": [
        {
          "internalType": "address",
          "name": "to",
          "type": "address"
        },
        {
          "internalType": "bool",
          "name": "approved",
          "type": "bool"
        }
      ],
      "name": "setApprovalForAll",
      "outputs": [],
      "payable": false,
      "stateMutability": "nonpayable",
      "type": "function"
    },
    {
      "constant": true,
      "inputs": [
        {
          "internalType": "bytes4",
          "name": "interfaceId",
          "type": "bytes4"
        }
      ],
      "name": "supportsInterface",
      "outputs": [
        {
          "internalType": "bool",
          "name": "",
          "type": "bool"
        }
      ],
      "payable": false,
      "stateMutability": "view",
      "type": "function"
    },
    {
      "constant": true,
      "inputs": [],
      "name": "symbol",
      "outputs": [
        {
          "internalType": "string",
          "name": "",
          "type": "string"
        }
      ],
      "payable": false,
      "stateMutability": "view",
      "type": "function"
    },
    {
      "constant": true,
      "inputs": [
        {
          "internalType": "uint256",
          "name": "index",
          "type": "uint256"
        }
      ],
      "name": "tokenByIndex",
      "outputs": [
        {
          "internalType": "uint256",
          "name": "",
          "type": "uint256"
        }
      ],
      "payable": false,
      "stateMutability": "view",
      "type": "function"
    },
    {
      "constant": true,
      "inputs": [
        {
          "internalType": "address",
          "name": "owner",
          "type": "address"
        },
        {
          "internalType": "uint256",
          "name": "index",
          "type": "uint256"
        }
      ],
      "name": "tokenOfOwnerByIndex",
      "outputs": [
        {
          "internalType": "uint256",
          "name": "",
          "type": "uint256"
        }
      ],
      "payable": false,
      "stateMutability": "view",
      "type": "function"
    },
    {
      "constant": true,
      "inputs": [
        {
          "internalType": "uint256",
          "name": "tokenId",
          "type": "uint256"
        }
      ],
      "name": "tokenURI",
      "outputs": [
        {
          "internalType": "string",
          "name": "",
          "type": "string"
        }
      ],
      "payable": false,
      "stateMutability": "view",
      "type": "function"
    },
    {
      "constant": true,
      "inputs": [],
      "name": "tokenURIPrefix",
      "outputs": [
        {
          "internalType": "string",
          "name": "",
          "type": "string"
        }
      ],
      "payable": false,
      "stateMutability": "view",
      "type": "function"
    },
    {
      "constant": true,
      "inputs": [
        {
          "internalType": "address",
          "name": "",
          "type": "address"
        },
        {
          "internalType": "uint256",
          "name": "",
          "type": "uint256"
        }
      ],
      "name": "tokensPerCreator",
      "outputs": [
        {
          "internalType": "uint256",
          "name": "",
          "type": "uint256"
        }
      ],
      "payable": false,
      "stateMutability": "view",
      "type": "function"
    },
    {
      "constant": true,
      "inputs": [],
      "name": "totalSupply",
      "outputs": [
        {
          "internalType": "uint256",
          "name": "",
          "type": "uint256"
        }
      ],
      "payable": false,
      "stateMutability": "view",
      "type": "function"
    },
    {
      "constant": false,
      "inputs": [
        {
          "internalType": "address",
          "name": "from",
          "type": "address"
        },
        {
          "internalType": "address",
          "name": "to",
          "type": "address"
        },
        {
          "internalType": "uint256",
          "name": "tokenId",
          "type": "uint256"
        }
      ],
      "name": "transferFrom",
      "outputs": [],
      "payable": false,
      "stateMutability": "nonpayable",
      "type": "function"
    },
    {
      "constant": false,
      "inputs": [
        {
          "internalType": "address",
          "name": "newOwner",
          "type": "address"
        }
      ],
      "name": "transferOwnership",
      "outputs": [],
      "payable": false,
      "stateMutability": "nonpayable",
      "type": "function"
    },
    {
      "constant": true,
      "inputs": [
        {
          "internalType": "uint256",
          "name": "",
          "type": "uint256"
        }
      ],
      "name": "whitelistedUsers",
      "outputs": [
        {
          "internalType": "address",
          "name": "",
          "type": "address"
        }
      ],
      "payable": false,
      "stateMutability": "view",
      "type": "function"
    },
    {
      "constant": true,
      "inputs": [
        {
          "internalType": "address",
          "name": "_sender",
          "type": "address"
        }
      ],
      "name": "whitelistedUserExist",
      "outputs": [
        {
          "internalType": "bool",
          "name": "",
          "type": "bool"
        }
      ],
      "payable": false,
      "stateMutability": "view",
      "type": "function"
    },
    {
      "constant": false,
      "inputs": [
        {
          "internalType": "address",
          "name": "whitelistedUser",
          "type": "address"
        }
      ],
      "name": "addWhitelistedUser",
      "outputs": [],
      "payable": false,
      "stateMutability": "nonpayable",
      "type": "function"
    },
    {
      "constant": true,
      "inputs": [],
      "name": "getWhitelistedUsers",
      "outputs": [
        {
          "internalType": "address[]",
          "name": "",
          "type": "address[]"
        }
      ],
      "payable": false,
      "stateMutability": "view",
      "type": "function"
    },
    {
      "constant": false,
      "inputs": [
        {
          "internalType": "address",
          "name": "whitelistedUser",
          "type": "address"
        }
      ],
      "name": "removeWhitelistedUser",
      "outputs": [],
      "payable": false,
      "stateMutability": "nonpayable",
      "type": "function"
    },
    {
      "constant": false,
      "inputs": [
        {
          "internalType": "string",
          "name": "tokenURI",
          "type": "string"
        },
        {
          "internalType": "uint256",
          "name": "_royality",
          "type": "uint256"
        }
      ],
      "name": "mint",
      "outputs": [],
      "payable": false,
      "stateMutability": "nonpayable",
      "type": "function"
    },
    {
      "constant": false,
      "inputs": [
        {
          "internalType": "string",
          "name": "tokenURIPrefix",
          "type": "string"
        }
      ],
      "name": "setTokenURIPrefix",
      "outputs": [],
      "payable": false,
      "stateMutability": "nonpayable",
      "type": "function"
    },
    {
      "constant": false,
      "inputs": [
        {
          "internalType": "string",
          "name": "contractURI",
          "type": "string"
        }
      ],
      "name": "setContractURI",
      "outputs": [],
      "payable": false,
      "stateMutability": "nonpayable",
      "type": "function"
    }
  ],
  "bytecode": "0x608060405260016014553480156200001657600080fd5b506040516200350238038062003502833981016040819052620000399162000436565b8484838380826000620000546001600160e01b03620001d716565b600080546001600160a01b0319166001600160a01b038316908117825560405192935091600080516020620034e2833981519152908290a350620000a86301ffc9a760e01b6001600160e01b03620001dc16565b620000c3632dde656160e21b6001600160e01b03620001dc16565b620000de6380ac58cd60e01b6001600160e01b03620001dc16565b8051620000f390600690602084019062000325565b506200010f63e8a3d48560e01b6001600160e01b03620001dc16565b5080516200012590600790602084019062000325565b5062000143905063780e9d6360e01b6001600160e01b03620001dc16565b83516200015890600d90602087019062000325565b5082516200016e90600e90602086019062000325565b506200018a635b5e139f60e01b6001600160e01b03620001dc16565b50505050620001b8604051620001a09062000604565b6040519081900390206001600160e01b03620001dc16565b620001cc836001600160e01b036200023a16565b505050505062000700565b335b90565b6001600160e01b03198082161415620002125760405162461bcd60e51b8152600401620002099062000623565b60405180910390fd5b6001600160e01b0319166000908152600160208190526040909120805460ff19169091179055565b6200024d6001600160e01b036200028316565b6200026c5760405162461bcd60e51b8152600401620002099062000635565b62000280816001600160e01b03620002b216565b50565b600080546001600160a01b0316620002a36001600160e01b03620001d716565b6001600160a01b031614905090565b6001600160a01b038116620002db5760405162461bcd60e51b8152600401620002099062000611565b600080546040516001600160a01b0380851693921691600080516020620034e283398151915291a3600080546001600160a01b0319166001600160a01b0392909216919091179055565b828054600181600116156101000203166002900490600052602060002090601f016020900481019282601f106200036857805160ff191683800117855562000398565b8280016001018555821562000398579182015b82811115620003985782518255916020019190600101906200037b565b50620003a6929150620003aa565b5090565b620001d991905b80821115620003a65760008155600101620003b1565b8051620003d481620006e9565b92915050565b600082601f830112620003ec57600080fd5b815162000403620003fd826200066e565b62000647565b915080825260208301602083018583830111156200042057600080fd5b6200042d838284620006b6565b50505092915050565b600080600080600060a086880312156200044f57600080fd5b85516001600160401b038111156200046657600080fd5b6200047488828901620003da565b95505060208601516001600160401b038111156200049157600080fd5b6200049f88828901620003da565b9450506040620004b288828901620003c7565b93505060608601516001600160401b03811115620004cf57600080fd5b620004dd88828901620003da565b92505060808601516001600160401b03811115620004fa57600080fd5b6200050888828901620003da565b9150509295509295909350565b60006200052460268362000696565b7f4f776e61626c653a206e6577206f776e657220697320746865207a65726f206181526564647265737360d01b602082015260400192915050565b60006200056e601c8362000696565b7f4552433136353a20696e76616c696420696e7465726661636520696400000000815260200192915050565b6000620005a960208362000696565b7f4f776e61626c653a2063616c6c6572206973206e6f7420746865206f776e6572815260200192915050565b6000620005e46011836200069f565b704d494e545f574954485f4144445245535360781b815260110192915050565b6000620003d482620005d5565b60208082528101620003d48162000515565b60208082528101620003d4816200055f565b60208082528101620003d4816200059a565b6040518181016001600160401b03811182821017156200066657600080fd5b604052919050565b60006001600160401b038211156200068557600080fd5b506020601f91909101601f19160190565b90815260200190565b919050565b60006001600160a01b038216620003d4565b60005b83811015620006d3578181015183820152602001620006b9565b83811115620006e3576000848401525b50505050565b620006f481620006a4565b81146200028057600080fd5b612dd280620007106000396000f3fe608060405234801561001057600080fd5b50600436106102325760003560e01c80638da5cb5b11610130578063b7b1b8e9116100b8578063c9b0d52f1161007c578063c9b0d52f146104c6578063cd53d08e146104d9578063e8a3d485146104ec578063e985e9c5146104f4578063f2fde38b1461050757610232565b8063b7b1b8e914610465578063b88d4fde14610478578063b9c4d9fb1461048b578063c0ac9983146104ab578063c87b56dd146104b357610232565b806395d89b41116100ff57806395d89b411461041157806399e0dd7c14610419578063a22cb4651461042c578063b231e25d1461043f578063b5004f011461045257610232565b80638da5cb5b146103db5780638ee11204146103e35780638f32d59b146103f6578063938e3d7b146103fe57610232565b806342842e0e116101be5780636352211e116101825780636352211e1461038757806370a082311461039a578063715018a6146103ad578063737c7600146103b557806385668275146103c857610232565b806342842e0e1461031857806342966c681461032b5780634f6ccce71461033e57806350bfc449146103515780636308f1cd1461036657610232565b8063095ea7b311610205578063095ea7b3146102aa5780630ebd4c7f146102bd57806318160ddd146102dd57806323b872dd146102f25780632f745c591461030557610232565b806301ffc9a714610237578063056b01ce1461026057806306fdde0314610275578063081812fc1461028a575b600080fd5b61024a610245366004612125565b61051a565b6040516102579190612af6565b60405180910390f35b61027361026e366004612196565b61053d565b005b61027d61059f565b6040516102579190612b04565b61029d6102983660046121cc565b61062d565b6040516102579190612a56565b6102736102b83660046120f5565b610670565b6102d06102cb3660046121cc565b610755565b6040516102579190612ae5565b6102e5610848565b6040516102579190612c85565b610273610300366004611fff565b61084f565b6102e56103133660046120f5565b61088c565b610273610326366004611fff565b6108ed565b6102736103393660046121cc565b610908565b6102e561034c3660046121cc565b61093b565b610359610982565b6040516102579190612ac3565b6103796103743660046121ea565b6109e4565b604051610257929190612aa8565b61029d6103953660046121cc565b610a27565b6102e56103a8366004611fa7565b610a5c565b610273610aa5565b6102e56103c33660046120f5565b610b13565b61029d6103d63660046121cc565b610b41565b61029d610b68565b6102d06103f1366004611fa7565b610b77565b61024a610be3565b61027361040c366004612161565b610c07565b61027d610c34565b610273610427366004612161565b610c8f565b61027361043a3660046120c5565b610cbc565b61027361044d366004611fa7565b610d8a565b6102e56104603660046121cc565b610e23565b610273610473366004611fa7565b610e35565b61027361048636600461204c565b610f3b565b61049e6104993660046121cc565b610f7a565b6040516102579190612ad4565b61027d611072565b61027d6104c13660046121cc565b6110cd565b61024a6104d4366004611fa7565b6110fd565b61029d6104e73660046121cc565b611152565b61027d61116d565b61024a610502366004611fc5565b6111c8565b610273610515366004611fa7565b6111f6565b6001600160e01b0319811660009081526001602052604090205460ff165b919050565b610546336110fd565b806105545750610554610be3565b6105795760405162461bcd60e51b815260040161057090612c05565b60405180910390fd5b6105863360145483611223565b61059260145483611278565b5050601480546001019055565b600d805460408051602060026001851615610100026000190190941693909304601f810184900484028201840190925281815292918301828280156106255780601f106105fa57610100808354040283529160200191610625565b820191906000526020600020905b81548152906001019060200180831161060857829003601f168201915b505050505081565b6000610638826112a7565b6106545760405162461bcd60e51b815260040161057090612bc5565b506000908152600360205260409020546001600160a01b031690565b600061067b82610a27565b9050806001600160a01b0316836001600160a01b031614156106af5760405162461bcd60e51b815260040161057090612c25565b806001600160a01b03166106c16112c4565b6001600160a01b031614806106dd57506106dd816105026112c4565b6106f95760405162461bcd60e51b815260040161057090612b85565b60008281526003602052604080822080546001600160a01b0319166001600160a01b0387811691821790925591518593918516917f8c5be1e5ebec7d5bd14f71427d1e84f3dd0314c0f7b2291e5b200ac8c7c3b92591a4505050565b6000818152600f602090815260408083208054825181850281018501909352808352606094859484015b828210156107c7576000848152602090819020604080518082019091526002850290910180546001600160a01b0316825260019081015482840152908352909201910161077f565b505050509050606081516040519080825280602002602001820160405280156107fa578160200160208202803883390190505b50905060005b82518110156108405782818151811061081557fe5b60200260200101516020015182828151811061082d57fe5b6020908102919091010152600101610800565b509392505050565b600b545b90565b61086061085a6112c4565b826112c8565b61087c5760405162461bcd60e51b815260040161057090612c35565b61088783838361134d565b505050565b600061089783610a5c565b82106108b55760405162461bcd60e51b815260040161057090612b15565b6001600160a01b03831660009081526009602052604090208054839081106108d957fe5b906000526020600020015490505b92915050565b61088783838360405180602001604052806000815250610f3b565b61091361085a6112c4565b61092f5760405162461bcd60e51b815260040161057090612c75565b6109388161136c565b50565b6000610945610848565b82106109635760405162461bcd60e51b815260040161057090612c45565b600b828154811061097057fe5b90600052602060002001549050919050565b606060138054806020026020016040519081016040528092919081815260200182805480156109da57602002820191906000526020600020905b81546001600160a01b031681526001909101906020018083116109bc575b5050505050905090565b600f60205281600052604060002081815481106109fd57fe5b6000918252602090912060029091020180546001909101546001600160a01b039091169250905082565b6000818152600260205260408120546001600160a01b0316806108e75760405162461bcd60e51b815260040161057090612ba5565b60006001600160a01b038216610a845760405162461bcd60e51b815260040161057090612b95565b6001600160a01b03821660009081526004602052604090206108e79061137e565b610aad610be3565b610ac95760405162461bcd60e51b815260040161057090612be5565b600080546040516001600160a01b03909116907f8be0079c531659141344cd1fd0a4f28419497f9722a3daafe3b4186f6b6457e0908390a3600080546001600160a01b0319169055565b60126020528160005260406000208181548110610b2c57fe5b90600052602060002001600091509150505481565b60138181548110610b4e57fe5b6000918252602090912001546001600160a01b0316905081565b6000546001600160a01b031690565b6001600160a01b038116600090815260126020908152604091829020805483518184028101840190945280845260609392830182828015610bd757602002820191906000526020600020905b815481526020019060010190808311610bc3575b50505050509050919050565b600080546001600160a01b0316610bf86112c4565b6001600160a01b031614905090565b610c0f610be3565b610c2b5760405162461bcd60e51b815260040161057090612be5565b61093881611382565b600e805460408051602060026001851615610100026000190190941693909304601f810184900484028201840190925281815292918301828280156106255780601f106105fa57610100808354040283529160200191610625565b610c97610be3565b610cb35760405162461bcd60e51b815260040161057090612be5565b61093881611395565b610cc46112c4565b6001600160a01b0316826001600160a01b03161415610cf55760405162461bcd60e51b815260040161057090612b65565b8060056000610d026112c4565b6001600160a01b03908116825260208083019390935260409182016000908120918716808252919093529120805460ff191692151592909217909155610d466112c4565b6001600160a01b03167f17307eab39ab6107e8899845ad3d59bd9653f200f220920489ca2b5937696c3183604051610d7e9190612af6565b60405180910390a35050565b610d92610be3565b610dae5760405162461bcd60e51b815260040161057090612be5565b610db7816110fd565b610e0b57601380546001810182556000919091527f66de8ffda797e3de9c05e8fc57b3bf0ec28a930d40b0d285d93c06501cf6a0900180546001600160a01b0319166001600160a01b038316179055610938565b60405162461bcd60e51b815260040161057090612c65565b60106020526000908152604090205481565b610e3d610be3565b610e595760405162461bcd60e51b815260040161057090612be5565b60005b601354811015610f3757816001600160a01b031660138281548110610e7d57fe5b6000918252602090912001546001600160a01b03161415610f2f5760138181548110610ea557fe5b600091825260209091200154601380546001600160a01b03909216916000198101908110610ecf57fe5b9060005260206000200160006101000a8154816001600160a01b0302191690836001600160a01b031602179055506013805480610f0857fe5b600082815260209020810160001990810180546001600160a01b0319169055019055610f37565b600101610e5c565b5050565b610f4c610f466112c4565b836112c8565b610f685760405162461bcd60e51b815260040161057090612c35565b610f74848484846113a8565b50505050565b6000818152600f602090815260408083208054825181850281018501909352808352606094859484015b82821015610fec576000848152602090819020604080518082019091526002850290910180546001600160a01b03168252600190810154828401529083529092019101610fa4565b5050505090506060815160405190808252806020026020018201604052801561101f578160200160208202803883390190505b50905060005b82518110156108405782818151811061103a57fe5b60200260200101516000015182828151811061105257fe5b6001600160a01b0390921660209283029190910190910152600101611025565b6007805460408051602060026001851615610100026000190190941693909304601f810184900484028201840190925281815292918301828280156106255780601f106105fa57610100808354040283529160200191610625565b60606110d8826112a7565b6110f45760405162461bcd60e51b815260040161057090612c15565b6108e7826113db565b6000805b601354811015611149576013818154811061111857fe5b6000918252602090912001546001600160a01b0384811691161415611141576001915050610538565b600101611101565b50600092915050565b6011602052600090815260409020546001600160a01b031681565b6006805460408051602060026001851615610100026000190190941693909304601f810184900484028201840190925281815292918301828280156106255780601f106105fa57610100808354040283529160200191610625565b6001600160a01b03918216600090815260056020908152604080832093909416825291909152205460ff1690565b6111fe610be3565b61121a5760405162461bcd60e51b815260040161057090612be5565b61093881611516565b61122d8383611597565b6000828152601060209081526040808320939093556011815282822080546001600160a01b031916339081179091558252601281529181208054600181018255908252919020015550565b611281826112a7565b61129d5760405162461bcd60e51b815260040161057090612bd5565b610f3782826115b4565b6000908152600260205260409020546001600160a01b0316151590565b3390565b60006112d3826112a7565b6112ef5760405162461bcd60e51b815260040161057090612b75565b60006112fa83610a27565b9050806001600160a01b0316846001600160a01b031614806113355750836001600160a01b031661132a8461062d565b6001600160a01b0316145b80611345575061134581856111c8565b949350505050565b6113588383836115d3565b61136283826116d9565b61088782826117ce565b61093861137882610a27565b8261180c565b5490565b8051610f37906006906020840190611e20565b8051610f37906007906020840190611e20565b6113b384848461134d565b6113bf8484848461181f565b610f745760405162461bcd60e51b815260040161057090612b25565b6000818152600860209081526040918290208054835160026001831615610100026000190190921691909104601f81018490048402820184019094528381526060936108e7939192918301828280156114755780601f1061144a57610100808354040283529160200191611475565b820191906000526020600020905b81548152906001019060200180831161145857829003601f168201915b505060078054604080516020601f60026000196101006001881615020190951694909404938401819004810282018101909252828152955091935091508301828280156115035780601f106114d857610100808354040283529160200191611503565b820191906000526020600020905b8154815290600101906020018083116114e657829003601f168201915b505050505061195990919063ffffffff16565b6001600160a01b03811661153c5760405162461bcd60e51b815260040161057090612b35565b600080546040516001600160a01b03808516939216917f8be0079c531659141344cd1fd0a4f28419497f9722a3daafe3b4186f6b6457e091a3600080546001600160a01b0319166001600160a01b0392909216919091179055565b6115a18282611a4e565b6115ab82826117ce565b610f3781611b15565b6000828152600860209081526040909120825161088792840190611e20565b826001600160a01b03166115e682610a27565b6001600160a01b03161461160c5760405162461bcd60e51b815260040161057090612bf5565b6001600160a01b0382166116325760405162461bcd60e51b815260040161057090612b55565b61163b81611b59565b6001600160a01b038316600090815260046020526040902061165c90611b94565b6001600160a01b038216600090815260046020526040902061167d90611bab565b60008181526002602052604080822080546001600160a01b0319166001600160a01b0386811691821790925591518493918716917fddf252ad1be2c89b69c2b068fc378daa952ba7f163c4a11628f55a4df523b3ef91a4505050565b6001600160a01b03821660009081526009602052604081205461170390600163ffffffff611bb416565b6000838152600a602052604090205490915080821461179e576001600160a01b038416600090815260096020526040812080548490811061174057fe5b906000526020600020015490508060096000876001600160a01b03166001600160a01b03168152602001908152602001600020838154811061177e57fe5b6000918252602080832090910192909255918252600a9052604090208190555b6001600160a01b03841660009081526009602052604090208054906117c7906000198301611e9e565b5050505050565b6001600160a01b0390911660009081526009602081815260408084208054868652600a84529185208290559282526001810183559183529091200155565b6118168282611bfd565b610f3781611c29565b6000611833846001600160a01b0316611c67565b61183f57506001611345565b600060606001600160a01b038616630a85bd0160e11b61185d6112c4565b8988886040516024016118739493929190612a64565b60408051601f198184030181529181526020820180516001600160e01b03166001600160e01b03199094169390931790925290516118b19190612a4a565b6000604051808303816000865af19150503d80600081146118ee576040519150601f19603f3d011682016040523d82523d6000602084013e6118f3565b606091505b5091509150816119255780511561190d5780518082602001fd5b60405162461bcd60e51b815260040161057090612b25565b60008180602001905161193b9190810190612143565b6001600160e01b031916630a85bd0160e11b14935061134592505050565b6060808390506060839050606081518351016040519080825280601f01601f191660200182016040528015611995576020820181803883390190505b5090506000805b84518110156119ed578481815181106119b157fe5b602001015160f81c60f81b8383806001019450815181106119ce57fe5b60200101906001600160f81b031916908160001a90535060010161199c565b5060005b8351811015611a4257838181518110611a0657fe5b602001015160f81c60f81b838380600101945081518110611a2357fe5b60200101906001600160f81b031916908160001a9053506001016119f1565b50909695505050505050565b6001600160a01b038216611a745760405162461bcd60e51b815260040161057090612bb5565b611a7d816112a7565b15611a9a5760405162461bcd60e51b815260040161057090612b45565b600081815260026020908152604080832080546001600160a01b0319166001600160a01b038716908117909155835260049091529020611ad990611bab565b60405181906001600160a01b038416906000907fddf252ad1be2c89b69c2b068fc378daa952ba7f163c4a11628f55a4df523b3ef908290a45050565b600b80546000838152600c60205260408120829055600182018355919091527f0175b7a638427703f0dbe7bb9bbf987a2551717b34e79f33b5b1008d1fa01db90155565b6000818152600360205260409020546001600160a01b03161561093857600090815260036020526040902080546001600160a01b0319169055565b8054611ba790600163ffffffff611bb416565b9055565b80546001019055565b6000611bf683836040518060400160405280601e81526020017f536166654d6174683a207375627472616374696f6e206f766572666c6f770000815250611ca0565b9392505050565b611c078282611ccc565b611c1182826116d9565b6000818152600a6020526040812055610f3781611d84565b600081815260086020526040902054600260001961010060018416150201909116041561093857600081815260086020526040812061093891611ec2565b6000813f7fc5d2460186f7233c927e7db2dcc703c0e500b653ca82273b7bfad8045d85a470818114801590611345575050151592915050565b60008184841115611cc45760405162461bcd60e51b81526004016105709190612b04565b505050900390565b816001600160a01b0316611cdf82610a27565b6001600160a01b031614611d055760405162461bcd60e51b815260040161057090612c55565b611d0e81611b59565b6001600160a01b0382166000908152600460205260409020611d2f90611b94565b60008181526002602052604080822080546001600160a01b0319169055518291906001600160a01b038516907fddf252ad1be2c89b69c2b068fc378daa952ba7f163c4a11628f55a4df523b3ef908390a45050565b600b54600090611d9b90600163ffffffff611bb416565b6000838152600c6020526040812054600b8054939450909284908110611dbd57fe5b9060005260206000200154905080600b8381548110611dd857fe5b6000918252602080832090910192909255828152600c90915260409020829055600b805490611e0b906000198301611e9e565b505050600091825250600c6020526040812055565b828054600181600116156101000203166002900490600052602060002090601f016020900481019282601f10611e6157805160ff1916838001178555611e8e565b82800160010185558215611e8e579182015b82811115611e8e578251825591602001919060010190611e73565b50611e9a929150611f02565b5090565b81548183558181111561088757600083815260209020610887918101908301611f02565b50805460018160011615610100020316600290046000825580601f10611ee85750610938565b601f01602090049060005260206000209081019061093891905b61084c91905b80821115611e9a5760008155600101611f08565b80356108e781612d60565b80356108e781612d74565b80356108e781612d7d565b80516108e781612d7d565b600082601f830112611f5957600080fd5b8135611f6c611f6782612cba565b612c93565b91508082526020830160208301858383011115611f8857600080fd5b611f93838284612d1e565b50505092915050565b80356108e781612d86565b600060208284031215611fb957600080fd5b60006113458484611f1c565b60008060408385031215611fd857600080fd5b6000611fe48585611f1c565b9250506020611ff585828601611f1c565b9150509250929050565b60008060006060848603121561201457600080fd5b60006120208686611f1c565b935050602061203186828701611f1c565b925050604061204286828701611f9c565b9150509250925092565b6000806000806080858703121561206257600080fd5b600061206e8787611f1c565b945050602061207f87828801611f1c565b935050604061209087828801611f9c565b925050606085013567ffffffffffffffff8111156120ad57600080fd5b6120b987828801611f48565b91505092959194509250565b600080604083850312156120d857600080fd5b60006120e48585611f1c565b9250506020611ff585828601611f27565b6000806040838503121561210857600080fd5b60006121148585611f1c565b9250506020611ff585828601611f9c565b60006020828403121561213757600080fd5b60006113458484611f32565b60006020828403121561215557600080fd5b60006113458484611f3d565b60006020828403121561217357600080fd5b813567ffffffffffffffff81111561218a57600080fd5b61134584828501611f48565b600080604083850312156121a957600080fd5b823567ffffffffffffffff8111156121c057600080fd5b61211485828601611f48565b6000602082840312156121de57600080fd5b60006113458484611f9c565b600080604083850312156121fd57600080fd5b60006121148585611f9c565b60006122158383612229565b505060200190565b60006122158383612a41565b61223281612cf5565b82525050565b600061224382612ce8565b61224d8185612cec565b935061225883612ce2565b8060005b838110156122865781516122708882612209565b975061227b83612ce2565b92505060010161225c565b509495945050505050565b600061229c82612ce8565b6122a68185612cec565b93506122b183612ce2565b8060005b838110156122865781516122c98882612209565b97506122d483612ce2565b9250506001016122b5565b60006122ea82612ce8565b6122f48185612cec565b93506122ff83612ce2565b8060005b83811015612286578151612317888261221d565b975061232283612ce2565b925050600101612303565b61223281612d00565b600061234182612ce8565b61234b8185612cec565b935061235b818560208601612d2a565b61236481612d56565b9093019392505050565b600061237982612ce8565b6123838185610538565b9350612393818560208601612d2a565b9290920192915050565b60006123aa602b83612cec565b7f455243373231456e756d657261626c653a206f776e657220696e646578206f7581526a74206f6620626f756e647360a81b602082015260400192915050565b60006123f7603283612cec565b7f4552433732313a207472616e7366657220746f206e6f6e20455243373231526581527131b2b4bb32b91034b6b83632b6b2b73a32b960711b602082015260400192915050565b600061244b602683612cec565b7f4f776e61626c653a206e6577206f776e657220697320746865207a65726f206181526564647265737360d01b602082015260400192915050565b6000612493601c83612cec565b7f4552433732313a20746f6b656e20616c7265616479206d696e74656400000000815260200192915050565b60006124cc602483612cec565b7f4552433732313a207472616e7366657220746f20746865207a65726f206164648152637265737360e01b602082015260400192915050565b6000612512601983612cec565b7f4552433732313a20617070726f766520746f2063616c6c657200000000000000815260200192915050565b600061254b602c83612cec565b7f4552433732313a206f70657261746f7220717565727920666f72206e6f6e657881526b34b9ba32b73a103a37b5b2b760a11b602082015260400192915050565b6000612599603883612cec565b7f4552433732313a20617070726f76652063616c6c6572206973206e6f74206f7781527f6e6572206e6f7220617070726f76656420666f7220616c6c0000000000000000602082015260400192915050565b60006125f8602a83612cec565b7f4552433732313a2062616c616e636520717565727920666f7220746865207a65815269726f206164647265737360b01b602082015260400192915050565b6000612644602983612cec565b7f4552433732313a206f776e657220717565727920666f72206e6f6e657869737481526832b73a103a37b5b2b760b91b602082015260400192915050565b600061268f602083612cec565b7f4552433732313a206d696e7420746f20746865207a65726f2061646472657373815260200192915050565b60006126c8602c83612cec565b7f4552433732313a20617070726f76656420717565727920666f72206e6f6e657881526b34b9ba32b73a103a37b5b2b760a11b602082015260400192915050565b6000612716602c83612cec565b7f4552433732314d657461646174613a2055524920736574206f66206e6f6e657881526b34b9ba32b73a103a37b5b2b760a11b602082015260400192915050565b6000612764602083612cec565b7f4f776e61626c653a2063616c6c6572206973206e6f7420746865206f776e6572815260200192915050565b600061279d602983612cec565b7f4552433732313a207472616e73666572206f6620746f6b656e2074686174206981526839903737ba1037bbb760b91b602082015260400192915050565b60006127e8603783612cec565b7f57686974656c6973746564557365724d616e616765723a2077686974656c697381527f7465645573657220616e64206f776e6572206f6e6c792e000000000000000000602082015260400192915050565b6000612847602f83612cec565b7f4552433732314d657461646174613a2055524920717565727920666f72206e6f81526e3732bc34b9ba32b73a103a37b5b2b760891b602082015260400192915050565b6000612898602183612cec565b7f4552433732313a20617070726f76616c20746f2063757272656e74206f776e658152603960f91b602082015260400192915050565b60006128db603183612cec565b7f4552433732313a207472616e736665722063616c6c6572206973206e6f74206f8152701ddb995c881b9bdc88185c1c1c9bdd9959607a1b602082015260400192915050565b600061292e602c83612cec565b7f455243373231456e756d657261626c653a20676c6f62616c20696e646578206f81526b7574206f6620626f756e647360a01b602082015260400192915050565b600061297c602583612cec565b7f4552433732313a206275726e206f6620746f6b656e2074686174206973206e6f8152643a1037bbb760d91b602082015260400192915050565b60006129c3601f83612cec565b7f57686974656c69737465645573657220616c726561647920696e206c69737400815260200192915050565b60006129fc603083612cec565b7f4552433732314275726e61626c653a2063616c6c6572206973206e6f74206f7781526f1b995c881b9bdc88185c1c1c9bdd995960821b602082015260400192915050565b6122328161084c565b6000611bf6828461236e565b602081016108e78284612229565b60808101612a728287612229565b612a7f6020830186612229565b612a8c6040830185612a41565b8181036060830152612a9e8184612336565b9695505050505050565b60408101612ab68285612229565b611bf66020830184612a41565b60208082528101611bf68184612238565b60208082528101611bf68184612291565b60208082528101611bf681846122df565b602081016108e7828461232d565b60208082528101611bf68184612336565b602080825281016108e78161239d565b602080825281016108e7816123ea565b602080825281016108e78161243e565b602080825281016108e781612486565b602080825281016108e7816124bf565b602080825281016108e781612505565b602080825281016108e78161253e565b602080825281016108e78161258c565b602080825281016108e7816125eb565b602080825281016108e781612637565b602080825281016108e781612682565b602080825281016108e7816126bb565b602080825281016108e781612709565b602080825281016108e781612757565b602080825281016108e781612790565b602080825281016108e7816127db565b602080825281016108e78161283a565b602080825281016108e78161288b565b602080825281016108e7816128ce565b602080825281016108e781612921565b602080825281016108e78161296f565b602080825281016108e7816129b6565b602080825281016108e7816129ef565b602081016108e78284612a41565b60405181810167ffffffffffffffff81118282101715612cb257600080fd5b604052919050565b600067ffffffffffffffff821115612cd157600080fd5b506020601f91909101601f19160190565b60200190565b5190565b90815260200190565b60006108e782612d12565b151590565b6001600160e01b03191690565b6001600160a01b031690565b82818337506000910152565b60005b83811015612d45578181015183820152602001612d2d565b83811115610f745750506000910152565b601f01601f191690565b612d6981612cf5565b811461093857600080fd5b612d6981612d00565b612d6981612d05565b612d698161084c56fea365627a7a72315820f1c809e41ec0a3401981337b91cace3c41410e7abd5f0eafd1ffc47a7256be5a6c6578706572696d656e74616cf564736f6c634300051100408be0079c531659141344cd1fd0a4f28419497f9722a3daafe3b4186f6b6457e0",
  "source": "pragma solidity ^0.5.0;\npragma experimental ABIEncoderV2;\n\nimport \"@openzeppelin/contracts/math/SafeMath.sol\";\nimport \"@openzeppelin/contracts/GSN/Context.sol\";\nimport \"@openzeppelin/contracts/ownership/Ownable.sol\";\nimport \"@openzeppelin/contracts/token/ERC721/IERC721Metadata.sol\";\nimport \"@openzeppelin/contracts/token/ERC721/ERC721Burnable.sol\";\n\n\nimport \"./tokens/ERC721/ERC721Base.sol\";\n/**\n * @title MintableToken\n * @dev anyone can mint token.\n */\ncontract WhitelistableCollection is Ownable, IERC721, IERC721Metadata, ERC721Burnable, ERC721Base {\n\n    address[] public whitelistedUsers;\n\n    uint private counter = 1;\n\n    constructor (string memory name, string memory symbol, address newOwner, string memory contractURI, string memory tokenURIPrefix) public ERC721Base(name, symbol, contractURI, tokenURIPrefix) {\n        _registerInterface(bytes4(keccak256('MINT_WITH_ADDRESS')));\n        transferOwnership(newOwner);\n    }\n\n\n    function whitelistedUserExist(address _sender) public view returns (bool) {\n        for (uint256 i = 0; i < whitelistedUsers.length; i++) {\n            if (_sender == whitelistedUsers[i]) {\n                return true;\n            }\n        }\n        return false;\n    }\n\n\n    modifier whitelistedUserOnly() {\n        require(whitelistedUserExist(msg.sender), \"WhitelistedUserManager: whitelistedUser only.\");\n        _;\n    }\n\n\n    modifier whitelistedUserAndOwnerOnly() {\n        require(\n            whitelistedUserExist(msg.sender) || isOwner(),\n            \"WhitelistedUserManager: whitelistedUser and owner only.\"\n        );\n        _;\n    }\n\n    function addWhitelistedUser(address whitelistedUser) public onlyOwner {\n        if (!whitelistedUserExist(whitelistedUser)) {\n            whitelistedUsers.push(whitelistedUser);\n        } else {\n            revert(\"WhitelistedUser already in list\");\n        }\n\n    }\n\n\n    function getWhitelistedUsers() public view returns (address[] memory) {\n        return whitelistedUsers;\n    }\n\n\n    function removeWhitelistedUser(address whitelistedUser) public onlyOwner {\n        for (uint256 i = 0; i < whitelistedUsers.length; i++) {\n            if (whitelistedUsers[i] == whitelistedUser) {\n                whitelistedUsers[whitelistedUsers.length - 1] = whitelistedUsers[i];\n                whitelistedUsers.pop();\n                break;\n            }\n        }\n        \n    }\n\n\n    function mint(string memory tokenURI, uint _royality) public whitelistedUserAndOwnerOnly{\n        _mint(msg.sender, counter, _royality);\n        _setTokenURI(counter, tokenURI);\n        counter++;\n    }\n\n    function setTokenURIPrefix(string memory tokenURIPrefix) public onlyOwner {\n        _setTokenURIPrefix(tokenURIPrefix);\n    }\n\n    function setContractURI(string memory contractURI) public onlyOwner {\n        _setContractURI(contractURI);\n    }\n}\n\n",
  "sourcePath": "/Users/thoughtwin/Desktop/weblisto/clubrare/smart_contracts/contracts/WhiteListable.sol",
  "compiler": {
    "name": "solc",
    "version": "0.5.17+commit.d19bba13.Emscripten.clang"
  },
  "schemaVersion": "3.4.3",
  "updatedAt": "2021-11-01T10:56:16.723Z",
  "devdoc": {
    "details": "anyone can mint token.",
    "methods": {
      "approve(address,uint256)": {
        "details": "Approves another address to transfer the given token ID The zero address indicates there is no approved address. There can only be one approved address per token at a given time. Can only be called by the token owner or an approved operator.",
        "params": {
          "to": "address to be approved for the given token ID",
          "tokenId": "uint256 ID of the token to be approved"
        }
      },
      "balanceOf(address)": {
        "details": "Gets the balance of the specified address.",
        "params": {
          "owner": "address to query the balance of"
        },
        "return": "uint256 representing the amount owned by the passed address"
      },
      "burn(uint256)": {
        "details": "Burns a specific ERC721 token.",
        "params": {
          "tokenId": "uint256 id of the ERC721 token to be burned."
        }
      },
      "getApproved(uint256)": {
        "details": "Gets the approved address for a token ID, or zero if no address set Reverts if the token ID does not exist.",
        "params": {
          "tokenId": "uint256 ID of the token to query the approval of"
        },
        "return": "address currently approved for the given token ID"
      },
      "isApprovedForAll(address,address)": {
        "details": "Tells whether an operator is approved by a given owner.",
        "params": {
          "operator": "operator address which you want to query the approval of",
          "owner": "owner address which you want to query the approval of"
        },
        "return": "bool whether the given operator is approved by the given owner"
      },
      "isOwner()": {
        "details": "Returns true if the caller is the current owner."
      },
      "owner()": {
        "details": "Returns the address of the current owner."
      },
      "ownerOf(uint256)": {
        "details": "Gets the owner of the specified token ID.",
        "params": {
          "tokenId": "uint256 ID of the token to query the owner of"
        },
        "return": "address currently marked as the owner of the given token ID"
      },
      "renounceOwnership()": {
        "details": "Leaves the contract without owner. It will not be possible to call `onlyOwner` functions anymore. Can only be called by the current owner.     * NOTE: Renouncing ownership will leave the contract without an owner, thereby removing any functionality that is only available to the owner."
      },
      "safeTransferFrom(address,address,uint256)": {
        "details": "Safely transfers the ownership of a given token ID to another address If the target address is a contract, it must implement {IERC721Receiver-onERC721Received}, which is called upon a safe transfer, and return the magic value `bytes4(keccak256(\"onERC721Received(address,address,uint256,bytes)\"))`; otherwise, the transfer is reverted. Requires the msg.sender to be the owner, approved, or operator",
        "params": {
          "from": "current owner of the token",
          "to": "address to receive the ownership of the given token ID",
          "tokenId": "uint256 ID of the token to be transferred"
        }
      },
      "safeTransferFrom(address,address,uint256,bytes)": {
        "details": "Safely transfers the ownership of a given token ID to another address If the target address is a contract, it must implement {IERC721Receiver-onERC721Received}, which is called upon a safe transfer, and return the magic value `bytes4(keccak256(\"onERC721Received(address,address,uint256,bytes)\"))`; otherwise, the transfer is reverted. Requires the _msgSender() to be the owner, approved, or operator",
        "params": {
          "_data": "bytes data to send along with a safe transfer check",
          "from": "current owner of the token",
          "to": "address to receive the ownership of the given token ID",
          "tokenId": "uint256 ID of the token to be transferred"
        }
      },
      "setApprovalForAll(address,bool)": {
        "details": "Sets or unsets the approval of a given operator An operator is allowed to transfer all tokens of the sender on their behalf.",
        "params": {
          "approved": "representing the status of the approval to be set",
          "to": "operator address to set the approval"
        }
      },
      "supportsInterface(bytes4)": {
        "details": "See {IERC165-supportsInterface}.     * Time complexity O(1), guaranteed to always use less than 30 000 gas."
      },
      "tokenByIndex(uint256)": {
        "details": "Gets the token ID at a given index of all the tokens in this contract Reverts if the index is greater or equal to the total number of tokens.",
        "params": {
          "index": "uint256 representing the index to be accessed of the tokens list"
        },
        "return": "uint256 token ID at the given index of the tokens list"
      },
      "tokenOfOwnerByIndex(address,uint256)": {
        "details": "Gets the token ID at a given index of the tokens list of the requested owner.",
        "params": {
          "index": "uint256 representing the index to be accessed of the requested tokens list",
          "owner": "address owning the tokens list to be accessed"
        },
        "return": "uint256 token ID at the given index of the tokens list owned by the requested address"
      },
      "tokenURI(uint256)": {
        "details": "Returns an URI for a given token ID. Throws if the token ID does not exist. May return an empty string.",
        "params": {
          "tokenId": "uint256 ID of the token to query"
        }
      },
      "totalSupply()": {
        "details": "Gets the total amount of tokens stored by the contract.",
        "return": "uint256 representing the total amount of tokens"
      },
      "transferFrom(address,address,uint256)": {
        "details": "Transfers the ownership of a given token ID to another address. Usage of this method is discouraged, use {safeTransferFrom} whenever possible. Requires the msg.sender to be the owner, approved, or operator.",
        "params": {
          "from": "current owner of the token",
          "to": "address to receive the ownership of the given token ID",
          "tokenId": "uint256 ID of the token to be transferred"
        }
      },
      "transferOwnership(address)": {
        "details": "Transfers ownership of the contract to a new account (`newOwner`). Can only be called by the current owner."
      }
    },
    "title": "MintableToken"
  },
  "userdoc": {
    "methods": {}
  }
}